:020000040800F2
:1000000030080020E5010008BD100008BF100008FE
:10001000C3100008C7100008CB1000080000000043
:10002000000000000000000000000000CF100008E9
:10003000D110000800000000FB010008D5100008E6
:10004000FF010008FF010008FF010008FF01000890
:10005000FF010008FF010008FF010008FF01000880
:10006000FF010008FF010008FF010008FF01000870
:10007000FF010008FF010008FF010008FF01000860
:10008000FF010008FF010008FF010008FF01000850
:10009000FF010008FF010008FF010008FF01000840
:1000A000FF010008FF010008FF010008FF01000830
:1000B000FF010008FF010008FF010008FF01000820
:1000C000FF010008FF010008FF010008FF01000810
:1000D000FF010008FF010008FF010008FF01000800
:1000E000FF010008FF010008FF010008FF010008F0
:1000F000FF010008FF010008FF010008FF010008E0
:10010000FF010008FF010008FF010008FF010008CF
:10011000FF010008FF010008FF010008FF010008BF
:10012000FF010008FF010008FF010008FF010008AF
:1001300000F002F800F047F80AA090E8000C8244B2
:100140008344AAF10107DA4501D100F03CF8AFF28F
:10015000090EBAE80F0013F0010F18BFFB1A43F0A5
:10016000010318477051000090510000103A24BF5D
:1001700078C878C1FAD8520724BF30C830C144BF0C
:1001800004680C607047000000230024002500264E
:10019000103A28BF78C1FBD8520728BF30C148BFEA
:1001A0000B607047662903F0CD82002070471FB5B1
:1001B00002F026FB04000020002103F06BF8E06051
:1001C0001FBD10B510BD02F01BFC1146FFF7EFFF7D
:1001D00000F0C4FE02F039FC03B4FFF7F2FF03BCE9
:1001E00002F07AFC0948804709480047FEE7FEE72D
:1001F000FEE7FEE7FEE7FEE7FEE7FEE7FEE7FEE7D7
:1002000004480549054A064B7047000001030008F1
:1002100031010008300200203008002030040020A6
:10022000300400200CB50020019000906B4800685D
:1002300040F480306949086000BF6848006800F4F5
:10024000003000900198401C0190009818B9019866
:10025000B0F5A06FF1D16148006810F4003F02D002
:100260000120009001E0002000900098012842D178
:100270005B48006840F01000594908600846006873
:1002800020F0030008600846006840F002000860A3
:1002900052484068514948600846406848600846EE
:1002A000406840F4806048600846406820F47C1054
:1002B00048600846406840F4881048600846006876
:1002C00040F08070086000BF4448006810F0007F74
:1002D000FAD04248406820F0030040494860084690
:1002E000406840F00200486000BF3C48406800F0B1
:1002F0000C000828F9D10CBD10B5FFF793FF10BD15
:1003000010B53648006840F00100344908600846DE
:10031000406834490840314948600846006832491D
:1003200008402E4908600846006820F480200860D4
:100330000846406820F4FE0048604FF41F008860C3
:10034000FFF7DAFF4FF000602849086010BD10B5D4
:10035000002100200022214B5B6803F00C0121B139
:10036000042906D0082928D107E0214B214C23601D
:1003700027E0214B1F4C236023E0184B5B6803F4FC
:100380007010164B5B6803F48032022303EB90403D
:1003900022B91A4B4343174C23600DE00F4B5B68A7
:1003A00013F4003F04D0164B4343124C236003E088
:1003B000114B43430F4C236003E00D4B0D4C236066
:1003C00000BF00BF054B5B68C3F303130D4CE15C3A
:1003D000084B1B68CB40074C236010BD0010024047
:1003E000002002400000FFF8FFFFF6FE08ED00E0ED
:1003F00000127A0000000020001BB70000093D0039
:10040000808D5B000400002010B50446CA48844279
:1004100008D10121042000F027FB0021042000F076
:1004200023FB46E0C548844208D10121082000F0A2
:100430001BFB0021082000F017FB3AE0C048844273
:1004400008D10121102000F00FFB0021102000F046
:100450000BFB2EE0BB48844208D10121202000F094
:1004600003FB0021202000F0FFFA22E0B64884427E
:1004700008D10121402000F0F7FA0021402000F0CF
:10048000F3FA16E0B148844208D10121802000F03F
:10049000EBFA0021802000F0E7FA0AE0AC48844241
:1004A00007D10121801500F0DFFA0021A01500F02E
:1004B000DBFA10BD10B50121084600F0D5FA002185
:1004C000012000F0D1FA10BD2DE9F04102460025CF
:1004D0000026002000230024002791F803C00CF020
:1004E0000F0591F803C01CF0100F03D091F802C063
:1004F0004CEA050591F800C0BCF1000F31D014683A
:1005000000202BE04FF0010C0CFA00F3B1F800C012
:100510000CEA03069E4220D183004FF00F0C0CFA28
:1005200003F7BC4305FA03FC4CEA040491F803C04A
:10053000BCF1280F06D14FF0010C0CFA00FCC2F8F8
:1005400014C00AE091F803C0BCF1480F05D14FF088
:10055000010C0CFA00FCC2F810C0401C0828D1D3D2
:100560001460B1F800C0BCF1FF0F34DD5468002006
:100570002EE000F1080C4FF0010808FA0CF3B1F876
:1005800000C00CEA03069E4221D183004FF00F0CFD
:100590000CFA03F7BC4305FA03FC4CEA040491F897
:1005A00003C0BCF1280F05D100F1080C08FA0CF8C3
:1005B000C2F8148091F803C0BCF1480F07D100F1D4
:1005C000080C4FF0010808FA0CF8C2F81080401C23
:1005D0000828CED35460BDE8F0814FF6FF7101804A
:1005E000022181700421C170704702460020936887
:1005F0000B4201D0012000E00020704701468868CE
:1006000080B2704702460020D3680B4201D001201F
:1006100000E0002070470146C86880B27047016161
:100620007047416170470AB1016100E04161704764
:10063000C16070474FF480320A43826181618261F8
:1006400082698269704702460020424B18684FF663
:100650008073184040EA021008433E4B1860704710
:100660003D49C8617047F0B50A46002300240021C7
:10067000002500F00046B6F1004F02D1354EF16979
:1006800001E0344E7168C0F3034583B200F44016B4
:10069000B6F5401F08D121F070612E4E766826F025
:1006A00070662C4F7E6012E000F48016B6F5801F55
:1006B00006D1032606FA05F4A14341F0706106E075
:1006C000460D360103FA06F6B14341F0706122B1DE
:1006D000460D360103FA06F6314300F00046B6F146
:1006E000004F02D11B4EF16101E01A4E7160F0BD66
:1006F00030B500228B071C0F0F2303FA04F2154BB1
:1007000008338C1053F824309343124C08348D1066
:1007100044F8253023468C1053F824308C07240FDE
:1007200000FA04F423430B4C08348D1044F82530B0
:1007300030BD0A490860704700080140000C0140C4
:10074000001001400014014000180140001C01404D
:10075000002001400000014000002042DC00204257
:10076000DD48006840F00100DB4908600846406849
:10077000DA490840D849486008460068D849084026
:10078000D54908600846006820F4802008600846C3
:10079000406820F4FE0048604FF41F0088607047F6
:1007A000CD49096821F48031CB4A116011460968AE
:1007B00021F480211160B0F5803F03D0B0F5802F87
:1007C0000ED106E0C449096841F48031C24A116083
:1007D00007E0C149096841F4A021BF4A116000E067
:1007E00000BF00BF704710B5014600220023002063
:1007F0004A11012A02D1B84C236806E0022A02D12C
:10080000B54C236A01E0B44C636A01F01F02012475
:1008100094401C4201D0012000E0002010BD38B5FA
:10082000002000900024002500BF3120FFF7DBFFEF
:1008300005460098401C00900098B0F5A06F01D0CC
:10084000002DF2D03120FFF7CEFF08B1012400E0E7
:100850000024204638BD014600209F4A106820F041
:10086000F80040EAC100106070479E490860704778
:1008700002460020984B586820F47C1042EA01039D
:100880001843954B58607047964908667047014673
:100890000020914A506820F00300084350607047E0
:1008A0008D48406800F00C007047014600208A4ADD
:1008B000506820F0F0000843506070470146002067
:1008C000854A506820F4E060084350607047014654
:1008D0000020814A506820F4605040EAC100506016
:1008E000704729B17C4A527A02437B4B5A7204E02A
:1008F000794A527A8243784B5A7270477A49086033
:10090000704701460020744A506820F44040084374
:10091000506070470021754A11706F4A82F82010AC
:10092000012802D0042808D103E001216F4A117088
:1009300004E005216D4A117000E000BF00BF704760
:100940006B49086070476449096A0143624A116251
:100950007047674944390860704730B5002100226C
:10096000002400235C4D6D6805F00C0121B10429C1
:1009700005D0082923D105E05E4D056022E05E4DDB
:1009800005601FE0544D6D6805F47012524D6D689E
:1009900005F48034022505EB92421CB9574D5543AE
:1009A00005600BE04C4D6D6815F4003F03D0544DCD
:1009B0005543056002E0504D5543056002E04D4D42
:1009C000056000BF00BF444D6D6805F0F0010909E6
:1009D0004C4D6B5C0568DD4045603F4D6D6805F42E
:1009E000E061090A474D6B5C4568DD4085603A4D22
:1009F0006D6805F46051C90A424D6B5C4568DD4085
:100A0000C560354D6D6805F44041890B3E4D6B5C0A
:100A1000C568B5FBF3F5056130BD29B12E4A5269B1
:100A200002432D4B5A6104E02B4A526982432A4B00
:100A30005A61704729B1284A92690243264B9A614C
:100A400004E0254A92698243234B9A61704729B199
:100A5000214AD2690243204BDA6104E01E4AD2697E
:100A600082431D4BDA61704729B11B4AD2680243A9
:100A7000194BDA6004E0184AD2688243164BDA60F8
:100A8000704729B1144A12690243134B1A6104E0FA
:100A9000114A12698243104B1A6170471449403958
:100AA000086070470F49C86470470B49C8717047A8
:100AB0000948406A40F08070074948627047014623
:100AC0000020054A92680A4201D0012000E000207F
:100AD0007047014988727047001002400000FFF81B
:100AE000FFFFF6FE00004242D800424220100240C2
:100AF0008004424200127A00001BB70000093D004A
:100B0000808D5B00140000202400002010B50446F6
:100B1000FA48844208D101214015FFF7A5FF0021C2
:100B20006015FFF7A1FF17E0F548844208D10121C5
:100B30000015FFF799FF00212015FFF795FF0BE047
:100B4000F048844208D10121C803FFF78DFF00213E
:100B50004FF40040FFF788FF10BD30B5024600207B
:100B600000235068E84C20400D790C6844EA0524C5
:100B7000204350609068E54C2040D1E902542C435A
:100B80004D7944EA450420439060D06A20F4700017
:100B90000C7C641EE4B2234340EA0350D06230BDB3
:100BA00000210160017141718160C1600121017406
:100BB000704721B1826842F00102826003E08268DE
:100BC00022F001028260704721B1826842F4807293
:100BD000826003E0826822F480728260704710B500
:100BE0000023CBB21AB144681C43446002E044685D
:100BF0009C43446010BD816841F0080181607047EA
:100C0000014600208A6812F0080F01D0012000E0A0
:100C100000207047816841F00401816070470146FF
:100C200000208A6812F0040F01D0012000E00020AB
:100C3000704721B1826842F4A002826003E08268BA
:100C400022F4A00282607047014600208A6812F4F4
:100C5000800F01D0012000E00020704710B50A4647
:100C600000210023416821F46041531E41EA4331D1
:100C7000416010BD21B1426842F40062426003E06D
:100C8000426822F4006242607047F0B504460D46A7
:100C900000200021092D11DDE068A5F10A0606EB10
:100CA0004607072606FA07F18843A5F10A0606EB70
:100CB000460603FA06F10843E0600CE0206905EB04
:100CC0004507072606FA07F1884305EB450603FAB0
:100CD00006F108432061072A0FDA606B561E06EB07
:100CE00086071F2606FA07F18843561E06EB86067E
:100CF00005FA06F10843606322E00D2A0FDA206B43
:100D0000D61F06EB86071F2606FA07F18843D61F73
:100D100006EB860605FA06F10843206310E0E06A58
:100D2000A2F10D0606EB86071F2606FA07F1884397
:100D3000A2F10D0606EB860605FA06F10843E0620D
:100D4000F0BD21B1826842F48012826003E08268C3
:100D500022F48012826070470146C86C80B27047EE
:100D600066484C300068704721B1426842F48062A6
:100D7000426003E0426822F480624260704721B121
:100D8000426842F48052426003E0426822F480529A
:100D9000426070470A460021816821F4E041114316
:100DA0008160704721B1826842F40042826003E0B2
:100DB000826822F400428260704721B1826842F466
:100DC0000212826003E0826822F40212826070479D
:100DD000014600208A6812F4001F01D0012000E0C3
:100DE00000207047F0B5044615460020002200267A
:100DF000092911DDE068A1F10A0707EB470C072775
:100E000007FA0CF29043A1F10A0707EB470703FA30
:100E100007F21043E0600CE0206901EB410C07276A
:100E200007FA0CF2904301EB410703FA07F2104373
:100E30002061A06BC0F30156EF1C06F1010CA7EB7B
:100E40000C0707EB870C1F2707FA0CF29043EF1CE7
:100E500006F1010CA7EB0C0707EB870701FA07F275
:100E60001043A063F0BD10B50A4600210023816B3A
:100E700021F44011531E41EA0351816310BD08B5AE
:100E8000002300930090009B0B440093009B1A608A
:100E900008BD08B5024600200090009201F128002C
:100EA000009B184400900098006880B208BD0A4674
:100EB00000214168164B194011434160704741625F
:100EC000826270470A460021416821F01F011143E8
:100ED0004160704740B109490831096841F4000197
:100EE000064A0832116007E004490831096821F414
:100EF0000001024A083211607047000000240140DE
:100F000000280140003C0140FFFEF0FFFDF7F1FF2B
:100F1000FFFD3FFF0246002013680B4201D0012075
:100F200000E000207047CA430260704770B5024677
:100F30000020002300240B125568CEB205EA0604F7
:100F400015681D4202D00CB1012000E0002070BDE8
:100F500000220A12D34303607047000086B00121CB
:100F60001020FFF767FD01208DF80A0010208DF892
:100F70000B000001ADF8080002A94848FFF7A4FAE9
:100F80004FF480714548FFF74AFB00F0B4FD00F0D4
:100F9000C1FA00F0B0FD00F0F3F800F027F901F01D
:100FA0001FF801F037F801F05DF875E00A210B2019
:100FB00000F0A0F981460A210C2000F09BF982463E
:100FC0000A21084600F096F983460A21012000F024
:100FD00091F905900A21012000F08CF904900A2172
:100FE0000D2000F087F90390484602F04DFB0546BE
:100FF000504602F049FB0546584602F045FB0546BF
:10100000059802F041FB0546049802F03DFB019073
:1010100002F00EFB0746224A224B02F00BFA05466D
:1010200002F04EF90446039802F02EFB05462046D6
:1010300002F0FEFA05462A460B461BA11C4801F0A9
:1010400027F81B4800F090FF20211A48FFF7E9FA23
:10105000C82000F072F820211648FFF7E0FAC820F7
:1010600000F06BF84FF400610C48FFF7BEFA01285E
:1010700009D180210F48FFF7D4FA4FF400410E4800
:10108000FFF7CDFA08E04FF400410B48FFF7C9FA2B
:1010900080210848FFF7C3FA88E7000000100140EC
:1010A000A01A2FDD2406D13F252E316675410000A0
:1010B0002D000020000C014000080140704700BFD7
:1010C000FEE700BFFEE700BFFEE700BFFEE7704798
:1010D0007047704702480068401C0149086070472B
:1010E0003400002000B585B06846FFF736FC05B037
:1010F00000BD042000BF0100A0F10102D0B2FAD16E
:10110000704710B50346002403E0FFF7F2FF601CB0
:1011100084B203EB83004000A042F6DC10BD002146
:1011200008E0002201E0531C9AB2B2F5467FFADDD6
:101130004B1CD9B28142F4DB704730B50446002520
:1011400004E00A20FFF7EBFF681C85B2A542F8DB3C
:1011500030BD1E2000BF0100A0F10102D0B2FAD1C3
:10116000704710B50346002403E0FFF7F2FF601C50
:1011700084B203EB83004000A042F6DC10BD000007
:1011800008B501210D20FFF755FC01210420FFF7D0
:1011900051FC01211248FFF766FA03208DF8020086
:1011A00010208DF80300A020ADF8000069460D481E
:1011B000FFF78AF920210B48FFF731FA802109480F
:1011C000FFF72DFA4FF40040ADF8000069460648DD
:1011D000FFF77AF94FF400410348FFF720FA08BD02
:1011E00000023000000C01400008014000B587B04B
:1011F00001214FF40570FFF71DFC01208DF81A0046
:1012000000208DF81B000F20ADF8180006A9B94882
:10121000FFF75AF90620ADF8180006A9B648FFF7FF
:1012200053F94FF40040FFF76CFB002001900120C0
:101230008DF8080000208DF809004FF4602003901D
:101240000020049001208DF8140001A9AB48FFF79D
:1012500084FC0121A948FFF7ACFCA848FFF7CBFCB0
:1012600000BFA648FFF7CCFC0028FAD1A348FFF73F
:10127000D1FC00BFA148FFF7D2FC0028FAD107B08B
:1012800000BD2DE9F04780460C4616460EB9BDE874
:10129000F08772004146204600F0C1FF002723E09E
:1012A0004FF0010A002515E034F8150004EB450164
:1012B000498888420CDA4FF0000A34F8159004EBA4
:1012C0004500408824F8150004EB4500A0F8029082
:1012D000681C85B2F01B401EA842E5DCBAF1000F85
:1012E00000D004E0781C87B2701EB842D8DC00BF82
:1012F00000BFCCE7F0B58BB007460C46002614B90A
:1013000000200BB0F0BD0A2C00DD0A2407230122C7
:1013100039467A48FFF7B9FC002528E001217748D3
:10132000FFF787FC00BF10217448FFF7F3FD00288A
:10133000F9D001217148FFF77CFC00BF10216F48F4
:10134000FFF7E8FD0028F9D06C48FFF705FD06A976
:1013500021F8150006A830F81500304486B2601E4A
:10136000A84202D00120FFF7CCFE681CC5B2A542FE
:10137000D4DB00216148FFF75CFC10215F48FFF7D8
:10138000D2FD052C16DD0026224601A906A8FFF78E
:1013900078FF022506E001A830F81500304486B237
:1013A000681CC5B2A01EA842F5DC201F96FBF0F019
:1013B00086B202E096FBF4F086B23046A1E72DE952
:1013C000F04106460F4639463046FFF793FF804608
:1013D00002F01CF804460D460022494B20462946DF
:1013E00002F028F804460D462046294601F0CAFFBF
:1013F00080B2BDE8F0812DE9F04F8BB083464FF00D
:10140000000A40213C48FFF70AF94FF400713948BF
:10141000FFF705F90220FFF790FE002433E00520D6
:10142000FFF77DFE01210220FFF764FF814640F6B1
:10143000E95081450CDA484601F0D1FF0746314AB0
:10144000314B01F0F7FF054601F06CFF814610E0DB
:1014500001210846FFF74EFF8146484601F0BFFFD5
:1014600005462A4A2A4B01F0E5FF074601F05AFFDC
:101470008146B9F1000F01DA4FF0000906A921F801
:101480001490601CC4B20A2CC9DB40211A48FFF733
:10149000C8F84FF400711748FFF7C3F80A2201A9F2
:1014A00006A8FFF7EEFE022405E001A830F81400BC
:1014B0008244601CC4B2082CF7DB06209AFBF0FAC9
:1014C000BBF1000F01D0ABF800A01FFA8AF00BB0FF
:1014D000BDE8F08F70B5002501210A20FFF70AFF53
:1014E000044640F62E20844201DD012500E000255F
:1014F00070BD0000001001400008014000240140C0
:1015000000C8F93FA01A2FDD2406D13F6688635D2D
:10151000DC46054008B501210820FFF78BFA0320BF
:101520008DF8020014208DF803004FF48070ADF8A0
:1015300000006946FA48FEF7C7FF4FF40070ADF8A7
:1015400000006946F648FEF7BFFF4FF48071F4488B
:10155000FFF765F84FF48071F148FFF760F808BDB8
:1015600010B5044601E0FFF7F4FD2000A4F10104EA
:10157000F9D110BD10B50620FFF7F2FF002411E0ED
:101580004FF48071E648FFF74CF80620FFF7E8FFBC
:101590004FF48071E248FFF742F80620FFF7E0FFC2
:1015A000601CC4B2092CEBDB10BD10B50320FFF7A3
:1015B000D7FF4FF40071DA48FFF731F84FF480712C
:1015C000D748FFF72CF80620FFF7CAFF4FF4007149
:1015D000D348FFF70AF848B9FFF7CCFF4FF4007182
:1015E000CF48FFF702F808B9002010BD4FF4007192
:1015F000CB48FFF716F80320FFF7B2FF4FF4007156
:10160000C748FEF7F2FF08B10020EEE74FF4807103
:10161000C348FFF706F80320FFF7A2FF0120E4E725
:1016200010B50320FFF79CFF4FF48071BC48FEF714
:10163000F8FF0320FFF794FF4FF40071B848FEF75E
:10164000F0FF0320FFF78CFF4FF48071B448FEF7E2
:10165000E6FF0620FFF784FF4FF40071B048FEF765
:10166000DEFF0320FFF77CFF10BD10B50620FFF75B
:1016700077FF4FF48071AA48FEF7D3FF0620FFF7EB
:101680006FFF4FF40071A648FEF7CBFF0620FFF76F
:1016900067FF4FF48071A248FEF7C1FF0620FFF7F5
:1016A0005FFF4FF480719E48FEF7BBFF0320FFF7FA
:1016B00057FF10BD10B50320FFF752FF4FF48071A4
:1016C0009748FEF7AEFF0320FFF74AFF4FF4007183
:1016D0009348FEF7A4FF0320FFF742FF4FF4807109
:1016E0008F48FEF79CFF0620FFF73AFF4FF480710A
:1016F0008B48FEF796FF0320FFF732FF10BD10B5B1
:101700000320FFF72DFF4FF480718548FEF789FF16
:101710000320FFF725FF4FF400718148FEF77FFF9C
:101720000320FFF71DFF4FF480717D48FEF777FF20
:101730000320FFF715FF4FF400717948FEF755FFBE
:1017400030B14FF480717648FEF76BFF002010BD7A
:101750004FF480717248FEF764FF0120F7E770B51F
:10176000044608250320FFF7FBFE22E04FF48071BA
:101770006B48FEF756FF0320FFF7F2FE14F0800FD0
:1017800005D04FF400716648FEF749FF04E04FF4BE
:1017900000716348FEF745FF6006040E0120FFF765
:1017A000DFFE4FF480715E48FEF739FF0620FFF739
:1017B000D7FE2800A5F10101CDB2D7D14FF4807139
:1017C0005748FEF72EFF70BD70B508250024032092
:1017D000FFF7C6FEA9015248FEF721FF1CE00320D7
:1017E000FFF7BEFE6006040E4FF480714C48FEF712
:1017F00018FF0620FFF7B4FE4FF480714848FEF74B
:101800000EFF0320FFF7ACFE4FF400714448FEF7D3
:10181000ECFE08B144F001042800A5F10101CDB2AD
:10182000DDD14FF480713E48FEF7FBFE204670BDCF
:1018300070B506460C461546FFF7B7FE08B90020FE
:1018400070BD05F0FE00FFF78AFFFFF758FF18B9DB
:10185000FFF7E6FE0020F3E7E0B2FFF780FFFFF7B7
:101860004EFF18B9FFF7DCFE0020E9E73046FFF72E
:1018700076FFFFF744FF18B9FFF7D2FE0020DFE73D
:10188000FFF7CEFE0A20FFF76BFE0120D8E72DE917
:10189000F04106460C461546FFF787FE10B90020BA
:1018A000BDE8F08104F0FE00FFF759FFFFF727FFC6
:1018B00018B9FFF7B5FE0020F2E7F0B2FFF74FFFCF
:1018C000FFF71DFF18B9FFF7ABFE0020E8E7FFF7B1
:1018D0006CFE08B90020E3E704F0FE01481CFFF7A6
:1018E0003EFFFFF70CFF18B9FFF79AFE0020D7E77D
:1018F000FFF76AFF0746FFF7DDFEFFF791FE05B130
:101900002F700120CCE72DE9F04105460E46174621
:101910009846FFF74AFE28B90020BDE8F081000094
:10192000000C014005F0FE00FFF719FFFFF7E7FE8E
:1019300018B9FFF775FE0020EFE7F0B2FFF70FFFD1
:10194000FFF7DDFE18B9FFF76BFE0020E5E7002486
:101950000AE0385DFFF703FFFFF7D1FE18B9FFF784
:101960005FFE0020D9E7641C4445F2D3FFF758FE20
:101970000120D2E72DE9F0410546884616461F466C
:101980003946304600F090FCFFF70FFE10B90020FA
:10199000BDE8F08105F0FE00FFF7E1FEFFF7AFFEC6
:1019A00018B9FFF73DFE0020F2E708F0FF00FFF74F
:1019B000D6FEFFF7A4FE18B9FFF732FE0020E7E7D6
:1019C000FFF7F3FD08B90020E2E705F0FE01481C2F
:1019D000FFF7C5FEFFF793FE18B9FFF721FE0020C1
:1019E000D6E7002405E0FFF7EFFE3055FFF73DFE98
:1019F000641CBC42F7D3FFF75DFEFFF711FE012028
:101A0000C6E710B50446782200212046FFF710FFF4
:101A100010BD10B50446782240212046FFF708FF8C
:101A200010BD70B504460D462B4622464021782055
:101A3000FFF769FF70BD70B504460D4605F1B001B2
:101A4000C8B2FFF7DEFF102141EA1410FFF7D9FFFB
:101A500004F00F00FFF7D5FF70BD10B58D20FFF724
:101A6000D0FF1420FFF7CDFFAF20FFF7CAFF10BD56
:101A700010B58D20FFF7C5FF1020FFF7C2FFAE2085
:101A8000FFF7BFFF10BD70B5002415E004F1B001F1
:101A9000C8B2FFF7B6FF0020FFF7B3FF1020FFF733
:101AA000B0FF002504E00020FFF7B3FF681CC5B2BB
:101AB000802DF8DB601CC4B2082CE7DB70BD70B56C
:101AC000002415E004F1B001C8B2FFF79AFF00202E
:101AD000FFF797FF1020FFF794FF002504E0FF2099
:101AE000FFF797FF681CC5B2802DF8DB601CC4B2FD
:101AF000082CE7DB70BD10B5AE20FFF782FF08B9F8
:101B0000002010BD0020FFF77CFF1020FFF779FFB9
:101B10004020FFF776FFB020FFF773FF8120FFF72B
:101B200070FF4520FFF76DFFA120FFF76AFFC0207F
:101B3000FFF767FFA620FFF764FFA820FFF761FF0C
:101B40001F20FFF75EFFD320FFF75BFF0020FFF7AA
:101B500058FFD520FFF755FF8020FFF752FFD9200F
:101B6000FFF74FFF2220FFF74CFFDA20FFF749FF76
:101B70001220FFF746FFDB20FFF743FF2020FFF78F
:101B800040FF8D20FFF73DFF1420FFF73AFFAF2005
:101B9000FFF737FFFFF777FF00F03CF8002000F079
:101BA00015F8012000F002F80120AAE7FE4948716B
:101BB0007047FD4840797047FB4A1080518070475C
:101BC000F94800887047F84840887047F64908711E
:101BD000097911B1012918D10AE00821F34A1170DD
:101BE000102151709170D1701171202151710CE050
:101BF0000C21EE4A1170182151703021917018217A
:101C0000D17011714821517100BF00BF7047E64883
:101C10000079704710B500200EE0002108E0002296
:101C200000EB4003E24C04EB43135A544A1CD1B27C
:101C30006029F4DB421CD0B20428EEDB10BD10B5E5
:101C400000240DE021460020FFF7F5FE04EB4401DF
:101C5000D74A02EB41106021FFF7E3FE601CC4B2DB
:101C6000042CEFDB10BDF0B503461446602B00DBFF
:101C7000F0BD202900DBFBE7FCB10846CD1701EBE6
:101C80005575ED1005EB4505C94E06EB4515ED5CA8
:101C90000A46CE1701EB5676F610A1EBC6070126D1
:101CA000BE403543CE1701EB5676F61006EB4606DE
:101CB000BF4F07EB4616F5541EE0CD1701EB5575E7
:101CC000ED1005EB4505BA4E06EB4515ED5C0A46F1
:101CD000CE1701EB5676F610A1EBC6070126BE40E3
:101CE000B5430846CE1701EB5676F61006EB4606CE
:101CF000AF4F07EB4616F55400BFB9E72DE9F041A9
:101D000005460E46174698462C4606E0424639469A
:101D10002046FFF7A8FF601CC4B2B442F6DDBDE860
:101D2000F0812DE9F04180460D4616461F462C46AF
:101D300006E03A4621464046FFF795FF601CC4B2D4
:101D4000B442F6DDBDE8F0812DE9F047064688464D
:101D50004FF000090024B8F1000F29D09248007913
:101D600010B101280AD104E0924FDFF84C92082507
:101D700007E0924FDFF84892042502E00020BDE81A
:101D8000F08700BF0DE007EB44010222304600F06F
:101D90001AFA20B98548407904FB009903E0601CD9
:101DA00084B2AC42EFDB00BFAC421ADB0020E6E7B6
:101DB0007D48007910B1012810D107E07B48817877
:101DC000307820387F4A01FB002909E07748817884
:101DD000307820387C4A01FB002901E00020CEE762
:101DE00000BF4846CBE72DE9FF4F81B080468946CA
:101DF0000020824605460646DDE90301FFF7A4FF01
:101E0000044614B905B0BDE8F08F049820B16748C6
:101E1000C77890F804B003E06448077890F801B000
:101E200014F8010B0090002634E000252EE0CAF1E2
:101E30000701012088400099084209D009EB0602F9
:101E4000D1B208EB0502D0B20122FFF70CFF0CE083
:101E500055484079012808D109EB0602D1B208EBB8
:101E60000502D0B20022FFF7FEFE0AF1010000F0E9
:101E7000FF0ABAF1070F02DC681CB84204DB4FF01E
:101E8000000A14F8010B0090681CC5B2BD42CEDBFD
:101E9000701CC6B25E45C8DB00BFB3E72DE9F04752
:101EA00007468846154600243E46C1461CE0285D8C
:101EB00010F0800F0CD02A19012349463046FFF755
:101EC00092FF3A48C078304486B2A01C84B20BE03E
:101ED0002A19002349463046FFF785FF334800782A
:101EE000304486B2601C84B2285D0028DFD1BDE892
:101EF000F0872DE9F04107460D460026002410E04A
:101F0000A85D10F0800F06D02848C078204484B225
:101F1000B01C86B205E025480078204484B2701CCD
:101F200086B2A85D0028EBD1602C01DB002405E01F
:101F3000C4F1600000EBD071C1F34F042A4639466A
:101F40002046FFF7ABFFBDE8F08170B504461749A6
:101F50000979C1F1200000EBD071C1F34F05214692
:101F60002846FFF7C6FF70BD10B50446FFF752FEC6
:101F70002046FFF7EAFFFFF762FE10BD70B5054689
:101F80000E460A4800792021A1EB4000032190FB76
:101F9000F1F084B2FFF73EFE29462046FFF7A9FF85
:101FA0000249097912E000004600002040000020AC
:101FB0004C000020A83D0008B83D0008185100085A
:101FC00020510008A8370008183F000801EB440121
:101FD00088B23146FFF78DFFFFF731FE70BD00007C
:101FE00008B501211020FEF725FD03208DF8020021
:101FF00010208DF803008020ADF8000069460448E9
:10200000FEF762FA80210248FEF70BFB08BD0000D4
:102010000010014008B501211420FEF70BFD03203C
:102020008DF8020010208DF803004001ADF800008B
:1020300069460A48FEF748FA4FF400710748FEF770
:10204000EEFA4020ADF8000069460548FEF73CFA7C
:1020500040210348FEF7E3FA08BD000000100140EC
:102060000008014008B501211020FEF7E3FC032021
:102070008DF8020048208DF803004FF40060ADF8A1
:10208000000069460148FEF71FFA08BD0010014034
:102090000FB41CB5074B06AA7B446946009005980F
:1020A00000F03DFB0020694600F04CFB1CBC5DF8D5
:1020B00014FB0000A90600002DE9F0474FF0000ACC
:1020C00089460446C0F820A02046E16888470028D9
:1020D00076D0252806D0D4E901219047206A401CFB
:1020E0002062F1E7E168204600258847C4F81CA07B
:1020F00006460027C4F818A02A2E09D0304601F061
:10210000C1F838B304EB8708303EC8F8186019E00E
:1021100059F8041B204604EB87029161E168884767
:10212000012F064618D1E069002820DA25F02005A5
:102130001DE0D8F8180000EB800006EB40003038B6
:10214000C8F818002046E1688847064601F09AF86A
:102150000028EED1012F0AD02E2E08D12046E168AA
:1021600088477F1C0646022F45F02005C4DBA06986
:10217000002803DA404245F00105A061E80701D0DC
:1021800025F01005B6B1A6F14100192802D8203675
:1021900045F400654A463146204625604D46FEF727
:1021A00001F858B1012806D0ED1D25F0070000F117
:1021B000080989E704E005F1040985E730468AE764
:1021C000206ABDE8F08740EA010310B59B070FD1F4
:1021D000042A0DD310C808C9121F9C42F8D020BA97
:1021E00019BA884201D9012010BD4FF0FF3010BD4F
:1021F0001AB1D30703D0521C07E0002010BD10F81D
:10220000013B11F8014B1B1B07D110F8013B11F8E2
:10221000014B1B1B01D1921EF1D1184610BD032AA0
:1022200040F2308010F0030C00F0158011F8013BF3
:10223000BCF1020F624498BF11F801CB00F8013BDA
:1022400038BF11F8013BA2F1040298BF00F801CB9E
:1022500038BF00F8013B11F0030300F07882083A20
:10226000C0F0088051F8043B083A51F804CBA0E8CC
:102270000810F5E7121D5CBF51F8043B40F8043B21
:10228000AFF30080D20724BF11F8013B11F801CB56
:1022900048BF11F8012B24BF00F8013B00F801CB27
:1022A00048BF00F8012B70474FF000020429C0F02E
:1022B000128010F0030C00F07E82CCF1040CBCF113
:1022C000020F18BF00F8012BA8BF20F8022BA1EBCA
:1022D0000C0100F070BA5FEAC17C24BF00F8012B4A
:1022E00000F8012B48BF00F8012B7047704770477A
:1022F000704770472DE9FF4F0C461E464FF0FF37E1
:102300008BB0D2E90001DDF860800A908A46C1F303
:102310000A5505B93D46002108464FF00000BAF1C4
:10232000000F00F4400005DA00EB80004FF440019C
:1023300001EA50004FEA9059B9F1010F00DDB946AA
:102340000A9850EA4A000ED044F61050A5F2FF3524
:1023500045432F14B8F1000F1ED07542291E1EDD13
:10236000C9F100021CE0B8F1010F4FF0000001D0EC
:10237000302103E0F24305E02154401CB042FBDB76
:1023800030460022002121540B99C1F80880C1E990
:1023900000200FB0BDE8F08FBD1B6D1CDEE74A4684
:1023A00000DA694206A800F0B5FA06AB07CB03AB2A
:1023B00007C350460A9900F096FB8DE80700A0F588
:1023C00000501F3800900398002D09DD42F21F01D4
:1023D0004A46084403A90390684600F0F5FD08E06A
:1023E000A0F500504A461F3803A90390684600F044
:1023F000FFFD8DE807000004000C03D04FF0FF3014
:10240000410800E01046B8F1000F03D0002200920E
:1024100015461FE0751E06D400F0F6F902F13002F1
:1024200062556D1EF8D5B3460122084302D0002242
:102430007F1C04E02078302801D100227F1E002A72
:10244000099787D01DE0112D07DA00F0DDF9303251
:1024500062556D1C50EA0102F5D108430FD10021ED
:10246000681E05E0235C625C6354491C2254401ED4
:102470008142F7DBAB46A81B401E099001E00098A3
:1024800048B1002004F80B000B98099AC0F80880A6
:10249000C0E9002B7DE711264FF000085AE72DE92F
:1024A000F04F88460446D21D22F0070191B0D1E9D1
:1024B0000001CDE90A0100F0D1FE02460B98C00FE1
:1024C00001D02D2007E02068810701D52B2002E0F4
:1024D000202101EAC000032A099001D0072A05DB68
:1024E00003464146204600F0D5F90FE120788006EA
:1024F00001D5E06900E00620B8F1650F814606D0FD
:10250000B8F1660F18D0B8F1670F72D132E0002031
:10251000B9F1110F009001DB112301E009F1010372
:102520000AAA01A90CA8FFF7E5FEDDE90C70002658
:1025300009F10105834648E001204B4600904FF029
:1025400000470AAA01A90CA8FFF7D4FEDDE90DB0E7
:102550000C995D46002618B909F1010001EB000550
:10256000B9EB050003D4C0F1FF3609F10105A5EB75
:1025700009002BE0B9F1010F01DA4FF00109002049
:10258000B9F1110F0090484601DD112300E0034628
:102590000AAA01A90CA8FFF7ADFEDDE90C704D46B3
:1025A00000268346207800070AD4AB4500DA5D4652
:1025B00001A8012D04DD411911F8011C302907D0B3
:1025C0004F4502DA17F1040F04DA0120824610E0C9
:1025D0006D1EEEE7002F02DCED1B3E4403E0781C8D
:1025E000A84200DD0546A7EB060000F1010A4FF006
:1025F00000472078000703D4AA4501DB4FF0FF3ADB
:102600000021B7F1004F0DF143088DF8431023D09E
:1026100002202B23002F01DA7F422D234FF00A0CDA
:10262000011EA0F1010000DC4FB197FBFCF10CFB97
:1026300011720F4602F1300208F8012DF0E7A8F1FF
:10264000010003702188090501D5452100E06521BD
:10265000A0F1010800F8011C09980FA9A1EB0807D7
:1026600007F1070700B1012000EB050101EBEA705B
:10267000A1693844A1EB0000A0F10100A06120781D
:10268000C00602D42046AFF30080099830B1D4E9E7
:1026900001219047206A00F1010020622078C006E5
:1026A00020D52046AFF300801CE0002E04DBB345AC
:1026B00002DD01A8805D00E03020D4E901219047CF
:1026C000206A761C401CBAF1010A20620AD100F08F
:1026D00097F8C0680168405CD4E901219047206AFE
:1026E000401C2062281EA5F10105DEDC07E0D4E9CC
:1026F000012118F8010B9047206A401C2062381E07
:10270000A7F10107F3DC2046AFF30080022011B0EF
:1027100040E6000001694A1C02610878704700B574
:102720008FB0CDE901310021059105497944CDE90A
:10273000031011466846FFF7BFFC0FB000BD000054
:10274000E5FFFFFF0A6802F8010B0A60704710B549
:10275000203AC0F00B80B1E81850203AA0E8185099
:10276000B1E81850A0E81850BFF4F5AF5FEA027C5A
:1027700024BFB1E81850A0E8185044BF18C918C0C9
:10278000BDE810405FEA827C24BF51F8043B40F86A
:10279000043B08BF7047D20728BF31F8023B48BF4F
:1027A00011F8012B28BF20F8023B48BF00F8012B8D
:1027B00070474FF0000200B5134694469646203904
:1027C00022BFA0E80C50A0E80C50B1F12001BFF4EA
:1027D000F7AF090728BFA0E80C5048BF0CC05DF850
:1027E00004EB890028BF40F8042B08BF704748BF9E
:1027F00020F8022B11F0804F18BF00F8012B704712
:1028000000487047EC01002030B5B0F10A024FEAF1
:10281000900E71F100034EEA817EB0EB0E0061EB89
:1028200091014FEA101E4EEA017E10EB0E0041EBC3
:1028300011114FEA102E4EEA016E10EB0E0041EB23
:1028400011214FEA104E4EEA014E10EB0E0041EB03
:102850001141401841F100014FEAD00040EA4170B7
:102860004FEAD10110EB80054FEA810444EA9074ED
:1028700044EB01046D1944EB0404521BA3414FF0D7
:10288000000348BF0A3200D530BD401C41F10001B1
:1028900030BD00002DE9F0411F46044603260168C3
:1028A000072A01F4006004DB08B116A505E016A5AF
:1028B00003E008B115A500E015A521F01000206087
:1028C000A069C01EA0610FB1401EA0612046AFF3F9
:1028D00000804FB1D4E9012138469047206A401C5E
:1028E0002062C01C206206E0206AFAE7D4E90121D8
:1028F00015F8010B9047761EF8D22046AFF3008002
:10290000BDE8F0814E414E006E616E00494E4600BA
:10291000696E66002DE9F047814616468AB0354853
:102920007844D0E9002380680092CDE90130314835
:1029300078440C38D0E90223006903924FF0370243
:10294000CDE9043041F69B30014491FBF2F0A0F157
:10295000800502FB10141B3C02D56442012000E0FC
:102960000020DFF890A080460027FA44AAF1C60AAA
:102970000DE0E00709D03246684607EB47010AEB55
:10298000810100F035FB8DE8070064107F1C002CEE
:10299000EFD1184F7F44B43F17E0E80713D007EB9F
:1029A00004100DF1180A90E80E00AAE80E00C068A5
:1029B000F04201D198190890324606A903A800F008
:1029C00017FB03AB07C36D10641C002DE5D1324625
:1029D0006946B8F1000F03A802D000F0F5FA01E053
:1029E00000F006FBC9E90001C9F808200AB0BDE8FB
:1029F000F08700009829000000487047CC010020B3
:102A00007546FFF7F9FFAE4605006946534620F0CC
:102A10000700854618B020B5FDF7F2FBBDE8204061
:102A20004FF000064FF000074FF000084FF0000B8A
:102A300021F00701AC46ACE8C009ACE8C009ACE83D
:102A4000C009ACE8C0098D4670470446AFF300806A
:102A50002046FDF7C1FB00004FF0013C50F8042B6D
:102A600051F8043B9A4221D1A2EB0C03934313EAA1
:102A7000CC1317D150F8042B51F8043B9A4215D1CE
:102A8000A2EB0C03934313EACC130BD150F8042BA5
:102A900051F8043B9A4209D1A2EB0C03934313EA89
:102AA000CC13DBD04FF00000704700BFD01A01BA42
:102AB000B1FA81F101F0180122FA01F0CB40C1F125
:102AC0002001DBB2C0B2C01A2CFA01F3D11A914333
:102AD00011EAC311E6D1704701491820ABBEFEE7E9
:102AE0002600020070475FEA400C08BF91F0000F1B
:102AF0004FEA8C234FEAC12243EA51514FEA1C505E
:102B000018BF00F5F0404FEA300018BF41F0004117
:102B10005FEA6C5C00F02980BCF1FF3F08BF40F029
:102B200080407047130C06BF12044FF0100C4FF09A
:102B3000000C130E04BF12020CF1080C130F04BF9B
:102B400012010CF1040C930F04BF92000CF1020C63
:102B5000D30F04BF52000CF1010C11464FF00002DC
:102B6000A0F11F00A0EB0C00704711F0004F08BF50
:102B7000704731F000413FF4D5AF0B0C06BF09049C
:102B80004FF0100C4FF0000C0B0E04BF09020CF1BB
:102B9000080C0B0F04BF09010CF1040C8B0F04BFD0
:102BA00089000CF1020CCB0F04BF49000CF1010CA1
:102BB000CCF12003A0EB0C0022FA03F302FA0CF292
:102BC00041EA030100F10100704720F07F4C80EAE8
:102BD000030023F07F47ACEB070303F57C5300F0C1
:102BE000004003F1FF032DE980494FEA154B09B47A
:102BF0004FEA144325EA0B4E24EA03480FF2042659
:102C000006EB132749083E785FEA320203FB0667AA
:102C1000C7F5000707FB06F64FEA54374FEAD646DA
:102C200006F1020607FB066CCCF1005C4FEA1C477C
:102C30002CEA074C07FB06F40CFB06F504EB1546E3
:102C40004FEA961634BF00204FF000404FEAD137CC
:102C500006FB07FC4FEA1C4C0CFB0BF7D21B03FBDB
:102C60000CF761EB07010CFB0EF7B0EB074072EBC2
:102C700017420CFB08F734BFA2EB0742B2EB074246
:102C800061EB17414FEA0C444FEA910706FB07FC42
:102C90004FEA1C4C0CFB0BF7B0EBC74072EB573202
:102CA00003FB0CF734BFA2EBC742B2EBC74261EBA8
:102CB00057310CFB0EF7B0EBC70072EB57720CFBF1
:102CC00008F734BFA2EBC702B2EBC70261EB577142
:102CD000039F4FEA816141EA921104EBCC044FEA71
:102CE000D1374FEA826206FB07FC42EA90124FEAB4
:102CF00080604FEA1C4C0CFB0BF7D21B03FB0CF75C
:102D000061EB07010CFB0EF7B0EB074072EB1742CB
:102D10000CFB08F734BFA2EB0742B2EB074261EBB2
:102D200017414FEA8C554FEA910704EB9C2406FBB0
:102D300007FC4FEA1C4C0CFB0BF7B0EBC74072EBE7
:102D4000573203FB0CF734BFA2EBC742B2EBC742CA
:102D500061EB57310CFB0EF7B0EBC70072EB57720B
:102D60000CFB08F734BFA2EBC702B2EBC70261EB62
:102D7000577115EB4C254FEA816141EA92114FEAF8
:102D800082624FEAD13742EA901206FB07FC44F117
:102D900000044FEA80604FEA1C4C0CFB0BF7D21B7F
:102DA00003FB0CF761EB07010CFB0EF7B0EB0740E0
:102DB00072EB17420CFB08F734BFA2EB0742B2EBF1
:102DC000074261EB174115EB1C154FEA813141EACF
:102DD00092414FEA823242EA90424FEA80304FEA13
:102DE0000C7644F1000448EA03434EEA0B484FF0E6
:102DF000000EB2EB080C71EB030724BF62463946A4
:102E00004EEB0E0E4FF0000B0018524149414BEBB8
:102E10000B0BB2EB080C71EB03077BF1000B24BF2B
:102E2000624639464EEB0E0E4FF0000B0018524131
:102E300049414BEB0B0BB2EB080C71EB03077BF139
:102E4000000B24BF624639464EEB0E0E51EA0207D4
:102E500018BF46F0010616EB0E7655F1000254F14C
:102E6000000103D5BDE88901BDE80088BDE88901FE
:102E7000BDE80048B619524141EB0101A3F101033D
:102E8000704780807F7E7D7C7B7A797877767675D7
:102E90007473727171706F6E6E6D6C6C6B6A6A694F
:102EA0006868676666656464636362616160605FE9
:102EB0005F5E5E5D5D5C5C5B5B5A5A595958585762
:102EC00057565655555554545353525252515150CA
:102ED00050504F4F4F4E4E4D4D4D4C4C4C4B4B4B1D
:102EE0004A4A4A4949494848484747474746464663
:102EF000454545444444444343434342424242419E
:102F00004141002B26D4770021D01CB54FEA37076A
:102F100003B44FF010004FF010014FF000000FBC51
:102F2000BDE810400BF1010BBBF1010F08BF5FEAD8
:102F3000170722BF12F1010211F101014FF0004108
:102F400043F1000300F0004043EA00007047F9D36A
:102F50005708DAE746EA064613F1400F4FEA1646ED
:102F60001FDD13F1200FDFBF16430A460021203377
:102F70005B42C8D0C3F1200746EA064602FA07F7CB
:102F80004FEA164646EA0706C3F1200722FA03F283
:102F900001FA07F721FA03F14FF0000342EA0702B2
:102FA000B1E746EA020646EA06464FEA164646EA10
:102FB0000106BCBF46EA0646360C4FF000034FF050
:102FC00000024FF000019EE72DE9C048934630B45F
:102FD00091E8380007C831EA400C48BF34EA430C96
:102FE00003D5FFF7F2FDFFF78CFFF0BCBDE80088CA
:102FF0002DE9C048934630B491E8380007C810F076
:10300000804F08BF13F0804F03D100F005F8FFF7A1
:1030100078FFF0BCBDE8008820F07F4780EA03001D
:1030200023F07F4C07EB0C03A3F57C5300F000402A
:10303000A3F1FE0392F0000F00F0B38095F0000FB3
:1030400000F077802DE901494FEA11404FEA14461C
:1030500021EA004800FB06FC24EA064708FB06F6C6
:1030600007FB08F800FB07F718EB06484CEB164C7B
:103070004FEA124B18EB07484FEA15464CEB174046
:1030800022EA0B4E0BFB06FC25EA06470EFB06F672
:1030900007FB0EFE0BFB07F71EEB064E4CEB164C28
:1030A0004FF000061EEB074E4CEB174B18EB0B08CE
:1030B00040F1000018EB0E0B58EB000840F1000047
:1030C0008F1A4FF000013CBFC943661B14BFB5EB1C
:1030D000040C00213CBFC943F61B4FEA17444EEADB
:1030E0008E0E27EA04454FEA1C4704FB07622CEAD0
:1030F000074C05FB07F70CFB05F604FB0CFC16EB75
:10310000074642EB174216EB0C4642EB1C421BEB08
:10311000060658EB0202414146EA9E0601D5BDE88B
:103120000189B619524141EB0101A3F10103BDE848
:1031300001894FEA14454FEA114724EA054621EA7E
:10314000074C05FB07F406FB07F70CFB06F105FB34
:103150000CFC11EB074144EB17444FEA124711EB0B
:103160000C4144EB1C4422EA074C05FB07F206FB2A
:1031700007F70CFB06F605FB0CFC16EB074642EBCB
:10318000174216EB0C4642EB1C456A1854F100013D
:1031900048BF7047B619524141EB0101A3F1010349
:1031A000704795F0000F37D04FEA11424FEA1447AD
:1031B00021EA024624EA074C02FB07F106FB07F767
:1031C0000CFB06F402FB0CFC14EB074441EB17412B
:1031D0004FEA154714EB0C4441EB1C4125EA074C20
:1031E00002FB07F506FB07F70CFB06F602FB0CFCDF
:1031F00016EB074645EB174516EB0C4645EB1C4214
:10320000121951F1000148BF7047B619524141EB04
:103210000101A3F1010370474FEA14454FEA11473A
:1032200024EA054621EA074C05FB07F106FB07F7F0
:103230000CFB06F24FF0000605FB0CFC12EB0742FC
:1032400041EB174112EB0C4251EB1C4148BF704758
:10325000921841EB0101A3F101037047490050EAC4
:10326000C12018BF04204A0D18BF40F0010040F2F1
:10327000FF72B2EB515F08BF40F00200012808BFA7
:103280000520704730380A2801D2012070470020FD
:103290007047000010B500290AD00878002807D030
:1032A00005487844FFF7D8FB002801D0002010BD66
:1032B0000248784410BD0000522000004A2000005F
:1032C00021F00042A2F16052B2F5801F01F00043EC
:1032D00028BFD2F17F6C0BD95FEA001C43EAC2021F
:1032E00042EB507018BF704728BF20F001007047B4
:1032F000B2F5801FBCBF184670474FEA410C1CF561
:10330000001F02D2084600F018BA70B500F03CF970
:1033100000000089FFF7F6BF4FF00040A0F58000E5
:10332000704700004FEA41034FEA5353A3F580630F
:10333000D3F11E03C8BFD3F1210C0CDD4FF00042C6
:1033400042EAC12242EA505232FA03FC8CEAE17CA2
:10335000ACEBE1707047102BC4BF0020704703F541
:10336000787CBCF1FF3F04D06FF0004282EA21007C
:10337000704770B500F008F949922480002070472A
:10338000F2E700004FEA1153A3F58063D3F11E0367
:10339000A8BFD3F1200C08DB4FF0004242EAC12263
:1033A00052EA505232FA03F0704709420BD4102B04
:1033B000C4BF0020704703F5787CBCF1FF3F05D007
:1033C0004FF0FF3070474FF00000704770B500F0CD
:1033D000DBF800BF4992248000207047F0E710F02E
:1033E000004248BF4042B0FA80F310FA03F10AD01D
:1033F000C3F11D0303F580634FEA415002EB035212
:1034000002EBD12170474FF000007047B0FA80F313
:1034100010FA03F10AD0C3F11D0303F580634FEAEC
:1034200041504FEA035202EBD12170474FF00000A8
:1034300070470000DFF848C170B51CEA111E1EBFBE
:103440001CEA13159EEA0C0F95EA0C0F00F06F8032
:1034500081EA030423EA4C134EEAD47E21EA4C119C
:1034600041F4801143F48013AE44A1FB024CA0FB55
:103470000365AEF17F7E361955EB0C05A1FB034CBD
:103480004CF10003A0FB021C16EB0C06654153F146
:103490000003094218BF46F0010613F4007F0BD168
:1034A0004FEA03314FEA0530340341EA155140EA4F
:1034B00016506FF003020AE04FEAC3214FEAC5201D
:1034C000F40241EA555140EA56506FF0020202EB15
:1034D0002E4201EB025585EACE710AD05FEA440C18
:1034E00018BF24F0004450F1000041F1000120EA2F
:1034F000D47040F2FE7C624500D270BDA84214BF79
:103500004FF080444FF04044002E08BF0024BEF12D
:10351000806FA8BFA1F1C041BDE8704080F28280F9
:103520004FF0000001F1C04101F0004170479EEAF8
:103530000C0F0CEA131518BF95EA0C0F06D04FF0CC
:10354000000081EA030E0EF0004170BD00F01CF88F
:103550008900013E00F007B800F009B84FEA430CBB
:103560005FEA5C5C08D081EA030100F05BB84FEAD7
:10357000410C5FEA5C5CF6D14FF0000001497047F6
:103580000000FF070000F87F0EF1020E2EF0030E80
:103590005EF8046B364205D4012A43EB030515F5AA
:1035A000001F12D8012841EB010C1CF5001F0CD89C
:1035B0000ED14FEAD17C15F5001F0CEB4C0C0CF131
:1035C000020C08BF4CEBD37C04E04FF0080C01E088
:1035D0004FEAD37C0CEB4C0526FA05F606F00706FD
:1035E000B6F1040C06D20EEB860CBDE870404CF030
:1035F000010C6047DFE80CF0090B02024FF00041BC
:103600004FF00000A1F5002170BD194610460128B9
:1036100051EB010418BFD4F5001484BF002001F061
:10362000004170BD0808A0F500114FEA3101704754
:1036300043004FEAD30C4FEA3C0C43401FBF400706
:103640000CF1605113F0FE4F70471CF0006F03D176
:1036500000200CF0004170470CF0004343EA50702A
:1036600010B540EACC0000F022F800BF0000009244
:103670004FEA0001FFF7D6BF4FF000414FF00000C6
:10368000A1F5002170470000B0FA80F310FA03F2B0
:10369000C3F19D030AD0D90501EB1220530638BFB0
:1036A000704700F1010008BF20F0010070470EF1E3
:1036B000020E2EF0030E5EF8044B244204D44FEAAF
:1036C0004102B2F17F4F11D84FEA4003B3F17F4F6F
:1036D0000CD80ED14FEAD07CB2F17F4F0CEB4C0CE2
:1036E0000CF1020C08BF4CEBD17C04E04FF0080C4D
:1036F00001E04FEAD17C0CEB4C0324FA03F404F014
:103700000704B4F1040C06D20EEB840CBDE81040A3
:103710004CF0010C6047DFE80CF0070802024FF0A4
:103720000040A0F5800010BD0846420018BFD2F14D
:10373000807288BF00F0004010BDFF2141EAD050E8
:10374000C0057047FEF7ABBE202122232425262783
:1037500028292A2B2C2D2E2F303132333435363771
:1037600038393A3B3C3D3E3F404142434445464761
:1037700048494A4B4C4D4E4F505152535455565751
:1037800058595A5B5C5D5E5F606162636465666741
:1037900068696A6B6C6D6E6F707172737475767731
:1037A00078797A7B7C7D7E7F00000000000000003D
:1037B00000000000000000000000001010101010B9
:1037C00010100000181800000012362448000000F5
:1037D0000000000000000000000000242424FE4837
:1037E0004848FE4848480000000010385454503003
:1037F000181414545438101000000044A4A8A8A8A9
:10380000541A2A2A2A440000000000304848485030
:103810006EA494888976000000606020C0000000DB
:103820000000000000000000000204080810101052
:1038300010101008080402000040201010080808AA
:103840000808081010204000000000001010D638B2
:1038500038D61010000000000000000010101010FA
:10386000FE1010101000000000000000000000001A
:1038700000000000606020C00000000000000000A8
:103880007F000000000000000000000000000000B9
:103890000000000060600000000001020204040853
:1038A000081010202040400000000018244242422E
:1038B0004242424224180000000000107010101014
:1038C00010101010107C00000000003C4242420426
:1038D00004081020427E00000000003C4242041810
:1038E0000402024244380000000000040C142424A6
:1038F00044447E04041E00000000007E4040405806
:1039000064020242443800000000001C2440405879
:1039100064424242241800000000007E444408082B
:1039200010101010101000000000003C4242422411
:1039300018244242423C0000000000182442424247
:10394000261A0202243800000000000000001818A7
:103950000000000018180000000000000000001027
:1039600000000000001010200000000204081020D9
:103970004020100804020000000000000000FE00CB
:103980000000FE00000000000000004020100804BD
:1039900002040810204000000000003C4242620285
:1039A000040808001818000000000038445AAAAAA9
:1039B000AAAAB442443800000000001010182828B9
:1039C000243C444242E70000000000F844444478AC
:1039D0004442424244F800000000003E42428080DF
:1039E0008080804244380000000000F84442424297
:1039F0004242424244F80000000000FC424848783D
:103A00004848404242FC0000000000FC4248487820
:103A10004848404040E000000000003C44448080B2
:103A2000808E844444380000000000E74242424255
:103A30007E42424242E700000000007C101010105D
:103A400010101010107C00000000003E080808084C
:103A500008080808080888F0000000EE4448507084
:103A60005048484444EE0000000000E04040404020
:103A70004040404042FE0000000000EE6C6C6C6C68
:103A80005454545454D60000000000C7626252528D
:103A90004A4A4A4646E200000000003844828282D8
:103AA0008282828244380000000000FC424242428E
:103AB0007C40404040E000000000003844828282A8
:103AC0008282B2CA4C380600000000FC4242427CAE
:103AD0004848444442E300000000003E4242402087
:103AE00018040242427C0000000000FE92101010F8
:103AF0001010101010380000000000E7424242424F
:103B000042424242423C0000000000E7424244245C
:103B10002428281810100000000000D692929292DB
:103B2000AAAA6C4444440000000000E74224241880
:103B30001818242442E70000000000EE444428281E
:103B400010101010103800000000007E84040808D7
:103B50001020204242FC0000001E10101010101017
:103B60001010101010101E000000404020201010F7
:103B7000100808040404020200780808080808086D
:103B80000808080808087800001C2200000000004F
:103B90000000000000000000000000000000000025
:103BA00000000000000000FF0060100000000000A6
:103BB0000000000000000000000000000000003CC9
:103BC000421E2242423F0000000000C040404058D8
:103BD0006442424264580000000000000000001CE3
:103BE00022404040221C0000000000060202021E8B
:103BF00022424242261B0000000000000000003C60
:103C0000427E4040423C00000000000F1110107E38
:103C100010101010107C0000000000000000003E9A
:103C2000444438403C42423C000000C04040405CBC
:103C30006242424242E70000000000303000007063
:103C400010101010107C00000000000C0C00001C74
:103C50000404040404044478000000C04040404EC2
:103C60004850684844EE000000000070101010102A
:103C700010101010107C000000000000000000FE7A
:103C80004949494949ED000000000000000000DCFE
:103C90006242424242E70000000000000000003C97
:103CA00042424242423C000000000000000000D8B6
:103CB00064424242447840E0000000000000001EE0
:103CC00022424242221E020700000000000000EED5
:103CD0003220202020F80000000000000000003EFC
:103CE00042403C02427C0000000000000010107CBA
:103CF00010101010100C000000000000000000C6A2
:103D000042424242463B000000000000000000E743
:103D1000422424281010000000000000000000D7FA
:103D20009292AAAA44440000000000000000006E25
:103D3000241818182476000000000000000000E796
:103D400042242428181010E0000000000000007E2B
:103D500044081010227E0000000304040404040838
:103D600004040404040403000808080808080808F8
:103D7000080808080808080800601010101010084B
:103D80001010101010106000304C430000000000B4
:103D90000000000000000000000000000000000023
:103DA0000000000000000000D6F7BBFAC4A3CABDA3
:103DB000B4D3B5E7D4B4C1F70200010001087FFC19
:103DC00001000100010001103FF8010001000100A5
:103DD00001000104FFFE00001000101011F8111086
:103DE000FD10111031103910551051109110111093
:103DF00011121212140E1800111011141FFE1110BE
:103E0000FD1813FC32083BF8560853F890401FFE8B
:103E1000104010B0110E1604008000A00090008425
:103E2000FFFE008000803E80088008400840092096
:103E30000E227012200A000400000820082008202A
:103E400008200820082008500850085014501288F4
:103E50002188210C420684040200020002107FF82F
:103E6000421042107FF0421042107FF042100200D8
:103E70000204020401FC0000000447FE3420142068
:103E8000844465FE25040DFC150425FCE42024A8CB
:103E900029A62A2230A020400080404837FC10404C
:103EA0008090610827FC080411502150E1502150F6
:103EB00021522152224E244020212223242526272C
:103EC00028292A2B2C2D2E2F3031323334353637FA
:103ED00038393A3B3C3D3E3F4041424344454647EA
:103EE00048494A4B4C4D4E4F5051525354555657DA
:103EF00058595A5B5C5D5E5F6061626364656667CA
:103F000068696A6B6C6D6E6F7071727374757677B9
:103F100078797A7B7C7D7E7F0000000000000000C5
:103F20000000000000000000000000000000000091
:103F30000000000000000000000000000000000081
:103F40000000000000000000000000000000000071
:103F50000700070007000700070002000200020038
:103F6000020002000200000000000000070007003D
:103F7000070000000000000000000000066006606E
:103F80000CC0198011002200000000000000000099
:103F90000000000000000000000000000000000021
:103FA0000000000000000000000000000000000011
:103FB000000010401040104010407FE07FE01040B3
:103FC0001040208020807FE07FE0208020802080C3
:103FD000208000000000000000000000000002003F
:103FE00002000F801AC032C032C032001A000E0028
:103FF00007000380038002C032C032C032C012808A
:104000000F0002000200000000000000000000009D
:10401000000070C050808880890089008B008A0071
:104020005FC0754006200A200A201A201220114085
:1040300021C000000000000000000000000000009F
:1040400000001C00260026002600260025C038801F
:10405000308058804900CD00C700C600C3006520ED
:1040600038C00000000000000000000030003800F0
:1040700008000800100060000000000000000000C0
:104080000000000000000000000000000000000030
:1040900000000000000000000000000000200040C0
:1040A00000800180010003000300060006000600F6
:1040B0000600060006000600030003000100018060
:1040C00000800040002000000000000040002000B0
:1040D0001000180008000C000C0006000600060086
:1040E00006000600060006000C000C000800180080
:1040F0001000200040000000000000000000000050
:104100000000000002000200020072703AE00F801E
:104110000F803AE07270020002000200000000000E
:10412000000000000000000000000000000000008F
:104130000000000000000200020002000200020075
:104140007FF00200020002000200020000000000F6
:10415000000000000000000000000000000000005F
:10416000000000000000000000000000000000004F
:1041700000000000000000000000000030003800D7
:1041800008000800100060000000000000000000AF
:10419000000000000000000000000000000000001F
:1041A0007FE00000000000000000000000000000B0
:1041B00000000000000000000000000000000000FF
:1041C00000000000000000000000000000000000EF
:1041D000000000000000000000000000380038006F
:1041E0003800000000000000000000000020006017
:1041F000004000C0008000800100010002000200B9
:104200000600040004000800080010001000300040
:1042100020006000400000000000000000000000DE
:1042200000000F00198030C030C0606060606060C6
:104230006060606060606060606030C030C0198045
:104240000F0000000000000000000000000000005F
:104250000000020006003E00060006000600060000
:10426000060006000600060006000600060006001E
:104270003FC000000000000000000000000000003F
:1042800000001F00218040C060C060C000C00180ED
:1042900001800300040008001040204040407FC01F
:1042A0007FC00000000000000000000000000000CF
:1042B00000001E0023006180618061800180030096
:1042C0000E000180008000C060C060C060C021801E
:1042D0001F000000000000000000000000000000BF
:1042E000008001800380038005800980098011809F
:1042F0002180218041807FE0018001800180018058
:1043000007E00000000000000000000000000000C6
:1043100000003FC03FC020002000200020002F00F0
:10432000318020C000C000C060C060C041802180DA
:104330001F0000000000000000000000000000005E
:104340000000078018C030C0300020006000678087
:1043500068C070606060606060602060304018C05D
:104360000F0000000000000000000000000000003E
:1043700000001FE03FE030402080208000800100EE
:10438000010002000200020006000600060006000E
:104390000600000000000000000000000000000017
:1043A00000001F8030C060606060606070403CC092
:1043B0000F00338020C0606060606060606030C06B
:1043C0000F8000000000000000000000000000005E
:1043D00000000F00308030C060406060606060604E
:1043E00060E031601E60006000C000C0308031803D
:1043F0001E0000000000000000000000000000009F
:104400000000000000000000000007000700070097
:10441000000000000000000000000000070007008E
:104420000700000000000000000000000000000085
:104430000000000000000000000000000600060070
:104440000000000000000000000000000000060066
:104450000600020004000000000000000000000050
:10446000002000400080010002000400080010004D
:10447000200010000800040002000100008000403D
:10448000002000000000000000000000000000000C
:104490000000000000000000000000007FE00000BD
:1044A0000000000000007FE00000000000000000AD
:1044B00000000000000000000000000000000000FC
:1044C00020001000080004000200010000800040ED
:1044D00000200040008001000200040008001000DD
:1044E00020000000000000000000000000000000AC
:1044F0000F8030C0406040606060606000C001803C
:104500000600040004000400000000000E000E007D
:104510000E0000000000000000000000000000008D
:10452000000007801C601020335026D064906490F7
:1045300068906890699069A066C03010302018407B
:1045400007800000000000000000000000000000E4
:104550000000060006000E000B000B001300118087
:10456000118011801F8020C020C020C020606060AA
:10457000F0F000000000000000000000000000005B
:104580000000FF00618060C060C060C060C06180EA
:104590007F0060C06040606060606060606060C0BC
:1045A000FF8000000000000000000000000000008C
:1045B000000007E01860302030202000600060001C
:1045C0006000600060006000602030203040188093
:1045D0000F000000000000000000000000000000CC
:1045E0000000FE00618060C060C06060606060606C
:1045F0006060606060606060606060C060C06380D8
:10460000FE000000000000000000000000000000AC
:104610000000FFC060406020600060006100610039
:104620007F006100610060006000602060206040E9
:10463000FFC00000000000000000000000000000BB
:104640000000FFC060C06020602060006100610069
:104650007F00610061006000600060006000600039
:10466000F00000000000000000000000000000005A
:1046700000000F4018C03040304020006000600053
:104680006000600063F060C060C030C030C018C01F
:104690000F0000000000000000000000000000000B
:1046A0000000F0F0606060606060606060606060AA
:1046B0007FE060606060606060606060606060605B
:1046C000F0F000000000000000000000000000000A
:1046D00000003FC0060006000600060006000600B7
:1046E000060006000600060006000600060006009A
:1046F0003FC00000000000000000000000000000BB
:1047000000000FF0018001800180018001800180A4
:104710000180018001800180018001800180018091
:104720000180618063003E00000000000000000086
:104730000000F3E0608061006200620064006C00D1
:104740007C007600670063006380618060C060E089
:10475000F1F0000000000000000000000000000078
:104760000000F00060006000600060006000600019
:1047700060006000600060006000602060206040B9
:10478000FFC000000000000000000000000000006A
:104790000000F0F070E070E070E05960596059601E
:1047A00059605A604E604E604E604E604460446096
:1047B000E4F0000000000000000000000000000025
:1047C0000000E07070207020582058204C204620B7
:1047D00046204320432041A040E040E0406040604C
:1047E000E0200000000000000000000000000000C9
:1047F00000000F00198030C0304060606060606071
:1048000060606060606060606060304030C01980EF
:104810000F00000000000000000000000000000089
:104820000000FF8060C06060606060606060606029
:1048300060C07F8060006000600060006000600019
:10484000F000000000000000000000000000000078
:1048500000000F00198030C0304060606060606010
:1048600060606060606060606E60324031C0118086
:104870000F8001E000C00000000000000000000008
:104880000000FF8060C0606060606060606060C069
:104890007F006600630063006180618060C060C06B
:1048A000F0700000000000000000000000000000A8
:1048B00000001F2030E060206020600070003C009D
:1048C0000F0003C000C0006040604060606070C0C6
:1048D0004F80000000000000000000000000000009
:1048E00000007FE0462086108610060006000600C5
:1048F0000600060006000600060006000600060088
:104900000F00000000000000000000000000000098
:104910000000F07060206020602060206020602037
:104920006020602060206020602060206020304097
:104930001F800000000000000000000000000000D8
:104940000000F8F070603040304030403080188017
:104950001880188018800D000D000D000F00060053
:104960000600000000000000000000000000000041
:104970000000F7706620662066406640674037405A
:1049800037403B803B803B803B80398011001100E9
:104990001100000000000000000000000000000006
:1049A000000079E030C01880188019000D000E005A
:1049B0000600060007000B000B801980118030C034
:1049C00079E000000000000000000000000000008E
:1049D0000000F8F0706030403080188018800D00C2
:1049E0000D000E0006000600060006000600060088
:1049F0001F80000000000000000000000000000018
:104A000000003FE020C041C001800380030003009C
:104A1000060006000C000C0018001820382030405A
:104A20007FC00000000000000000000007E004005C
:104A30000400040004000400040004000400040056
:104A40000400040004000400040004000400040046
:104A50000400040007E00000000000000000000067
:104A600020001000100010000800080004000400DE
:104A7000040002000200010001000100008000802B
:104A80000040004000400020000000003F00010006
:104A9000010001000100010001000100010001000E
:104AA00001000100010001000100010001000100FE
:104AB000010001003F0000000000000007000D8021
:104AC0001040000000000000000000000000000096
:104AD00000000000000000000000000000000000D6
:104AE00000000000000000000000000000000000C6
:104AF00000000000000000000000000000000000B6
:104B000000000000000000000000000000000000A5
:104B1000000000000000FFF0000000001800060088
:104B20000000000000000000000000000000000085
:104B30000000000000000000000000000000000075
:104B40000000000000000000000000000000000065
:104B50000000000000000000000000000F8030C0D6
:104B600030C007C01CC030C060C060C060C071D021
:104B70003EF0000000000000000000000000000007
:104B800010007000300030003000300033803CC036
:104B9000386030603060306030603060304038C045
:104BA0002F80000000000000000000000000000056
:104BB0000000000000000000000000000F00318035
:104BC0003180618060006000600060403040308073
:104BD0000F000000000000000000000000000000C6
:104BE000004001C000C000C000C000C01EC031C0F5
:104BF00030C060C060C060C060C060C020C031E034
:104C00001E80000000000000000000000000000006
:104C1000000000000000000000000000078018C035
:104C2000106030603FE030003000300018201C4041
:104C300007800000000000000000000000000000ED
:104C4000000003C006600C600C000C007FC00C006C
:104C50000C000C000C000C000C000C000C000C00F4
:104C60003F80000000000000000000000000000085
:104C70000000000000000000000000000F7019900C
:104C800030C030C030C019801F0030003E001FC04F
:104C90006060606070E01F800000000000000000A5
:104CA000100070003000300030003000378038C015
:104CB00030C030C030C030C030C030C030C030C074
:104CC00079E000000000000000000000000000008B
:104CD0000000060006000000000000003E00060084
:104CE0000600060006000600060006000600060094
:104CF0003FC00000000000000000000000000000B5
:104D00000000018001800000000000000F80018091
:104D1000018001800180018001800180018001808B
:104D20000180018033003E00000000000000000010
:104D300010007000300030003000300033C031000F
:104D40003300320036003E003B00330031803180BA
:104D500079E00000000000000000000000000000FA
:104D600002003E00060006000600060006000600DF
:104D70000600060006000600060006000600060003
:104D80003FC0000000000000000000000000000024
:104D9000000000000000000000000000EEE077606E
:104DA00066606660666066606660666066606660D3
:104DB000F77000000000000000000000000000008C
:104DC00000000000000000000000000073803CC0F4
:104DD00030C030C030C030C030C030C030C030C053
:104DE00079E000000000000000000000000000006A
:104DF0000000000000000000000000000F0019800B
:104E000030C06060606060606060606030C030C012
:104E10000F00000000000000000000000000000083
:104E2000000000000000000000000000778038C093
:104E300030603060306030603060306030C038C02A
:104E40003780300030007C000000000000000000CF
:104E50000000000000000000000000001E4031C003
:104E600030C060C060C060C060C060C020C031C0E1
:104E70001EC000C000C003E00000000000000000F1
:104E8000000000000000000000000000F9E01A60CF
:104E90001C0018001800180018001800180018004E
:104EA000FF00000000000000000000000000000003
:104EB0000000000000000000000000000FE018608B
:104EC000302030001C000F8001C02060206030C006
:104ED0003F80000000000000000000000000000013
:104EE00000000000040004000C000C007F800C0097
:104EF0000C000C000C000C000C000C000C400C40D2
:104F0000078000000000000000000000000000001A
:104F100000000000000000000000104071C030C020
:104F200030C030C030C030C030C030C030C039E0D8
:104F30001E800000000000000000000000000000D3
:104F40000000000000000000000000007CF038605D
:104F5000184018400C800C800C80070007000700E8
:104F6000020000000000000000000000000000003F
:104F7000000000000000000000000000F7B0632007
:104F800063206720372035C039C039C039C0108050
:104F90001080000000000000000000000000000081
:104FA0000000000000000000000000007DE018800C
:104FB00019800D000E00060007000B00198011C0BB
:104FC0007BE0000000000000000000000000000086
:104FD0000000000000000000000000007DE03880BC
:104FE000188018800D000D000D000600060002005C
:104FF0000400040028003800000000000000000049
:105000000000000000000000000000003FC0218000
:1050100023800300070006000E000C201C201860EF
:105020003FC00000000000000000000000C0018040
:105030000100010001000100010001000100030066
:105040000400030001000100010001000100010053
:105050000100018000C00000020002000200020006
:105060000200020002000200020002000200020030
:105070000200020002000200020002000200020020
:1050800002000200020002000000000030001800D0
:1050900008000800080008000800080008000C00CC
:1050A00002000C00080008000800080008000800C2
:1050B00008001800300000000000380024004210F2
:1050C000412000E00000000000000000000000009F
:1050D00000000000000000000000000000000000D0
:1050E00000000000000000000000000000000000C0
:1050F00000000000000000000000000000000000B0
:10510000000000000000000000000000000000009F
:105110000000000000000000B5C2D6DDF6EFB3CC01
:1051200004020007038006030C0CFFFE1806003083
:105130004418247FFC4764980664980C64980C64B7
:10514000981C7FF82C40102C00044DFFFE0C020030
:105150000C91100C9D8C0C99260C98260D98240D02
:105160001FF00C0FE008000002001003881C030E63
:1051700018030C18030C18030C18030C18138E18C2
:10518000134D18136D98336CD8734CD8630C980377
:105190000C18030C18060C18060C180C0C180C0C28
:1051A00018180C18100818200018400018000010DB
:1051B0000800000E08180C0FFC190C181F8C183171
:1051C0000C18224FF87FEC18A64C18264C18264FC6
:1051D000F83FC040264870264C64264D663FCF6C91
:1051E000204C70200C6001EC640F0D647C0E663066
:1051F0001C7E00083C00000000000001901807DF42
:10520000FC1E1818661818061818061818069FF8B5
:105210007FD0100E00000E000C173FFE1681801686
:10522000C180264180260198461FFC0601800601A8
:105230008006018006018C06FFFE060000040000C7
:1052400002400000000000A0000000000540000037
:10525000000000C8000000000C4000000000409C5E
:1052600000000000194000000020BCBE000000004B
:1052700034400000BFC91B8E00000004B540000090
:10528000504BCFD06607E2CF010000006C41000018
:105290003E8251AADFEEA73401000000D94200008F
:1052A000DCB5A0E23A301F97FFFFFFFFB4450000D6
:1052B000FD25A0C8E9A3C14FFFFFFFFFFF3F00008E
:1052C0000000008000000000FF3F000000000080A0
:1052D0000000000010530008000000204C000000F7
:1052E0006C0100085C5300084C000020E40700003B
:1052F000880100081C00000043000000F8FFFFFFC9
:105300000C0000000E0000000F0000002E00000046
:1053100000A24A0400000000000000000102030493
:10532000060708090000000001020304010203044B
:10533000060708090204060800000000000000003B
:10534000000000000000000000000000000000005D
:0C53500000000000000000000000000051
:0400000508000131BD
:00000001FF
