:020000040800F2
:1000000020080020D50100086104000863040008EE
:10001000670400086B0400086F040008000000007B
:100020000000000000000000000000007304000851
:100030007504000800000000EB01000879040008C6
:10004000EF010008EF010008EF010008EF010008D0
:10005000EF010008EF010008EF010008EF010008C0
:10006000EF010008EF010008EF010008EF010008B0
:10007000EF010008EF010008EF010008EF010008A0
:10008000EF010008EF010008EF010008EF01000890
:10009000EF010008EF010008EF010008EF01000880
:1000A000EF010008EF010008EF010008EF01000870
:1000B000EF010008EF010008EF010008EF01000860
:1000C000EF010008EF010008EF010008EF01000850
:1000D000EF010008EF010008EF010008EF01000840
:1000E000EF010008EF010008EF010008EF01000830
:1000F000EF010008EF010008EF010008EF01000820
:10010000EF010008EF010008EF010008EF0100080F
:10011000EF010008EF010008EF010008EF010008FF
:10012000EF010008EF010008EF010008EF010008EF
:1001300000F002F800F03FF80AA090E8000C8244BA
:100140008344AAF10107DA4501D100F034F8AFF297
:10015000090EBAE80F0013F0010F18BFFB1A43F0A5
:10016000010318477C3F00009C3F0000103A24BF69
:1001700078C878C1FAD8520724BF30C830C144BF0C
:1001800004680C607047000000230024002500264E
:10019000103A28BF78C1FBD8520728BF30C148BFEA
:1001A0000B607047642901F04986002070471FB535
:1001B0001FBD10B510BD01F0E5FF1146FFF7F7FFB9
:1001C00000F01AF902F003F803B4FFF7F2FF03BCE2
:1001D00002F008F80948804709480047FEE7FEE7B3
:1001E000FEE7FEE7FEE7FEE7FEE7FEE7FEE7FEE7E7
:1001F00004480549054A064B70470000F102000813
:1002000031010008200200202008002020040020E6
:10021000200400200CB50020019000906B4800687D
:1002200040F480306949086000BF6848006800F405
:10023000003000900198401C0190009818B9019876
:10024000B0F5A06FF1D16148006810F4003F02D012
:100250000120009001E0002000900098012842D188
:100260005B48006840F01000594908600846006883
:1002700020F0030008600846006840F002000860B3
:1002800052484068514948600846406848600846FE
:10029000406840F4806048600846406820F47C1064
:1002A00048600846406840F4881048600846006886
:1002B00040F08070086000BF4448006810F0007F84
:1002C000FAD04248406820F00300404948600846A0
:1002D000406840F00200486000BF3C48406800F0C1
:1002E0000C000828F9D10CBD10B5FFF793FF10BD25
:1002F00010B53648006840F00100344908600846EF
:10030000406834490840314948600846006832492D
:1003100008402E4908600846006820F480200860E4
:100320000846406820F4FE0048604FF41F008860D3
:10033000FFF7DAFF4FF000602849086010BD10B5E4
:10034000002100200022214B5B6803F00C0121B149
:10035000042906D0082928D107E0214B214C23602D
:1003600027E0214B1F4C236023E0184B5B6803F40C
:100370007010164B5B6803F48032022303EB90404D
:1003800022B91A4B4343174C23600DE00F4B5B68B7
:1003900013F4003F04D0164B4343124C236003E098
:1003A000114B43430F4C236003E00D4B0D4C236076
:1003B00000BF00BF054B5B68C3F303130D4CE15C4A
:1003C000084B1B68CB40074C236010BD0010024057
:1003D000002002400000FFF8FFFFF6FE08ED00E0FD
:1003E00000127A0000000020001BB70000093D0049
:1003F000808D5B000400002000F0ACFD00F044F8AC
:1004000000F033FB00F0DCFD1BE005210B2000F0C9
:100410005BFEC4B222460BA10C4801F0C7FC2021B0
:100420000B4801F00EFA09490AA000F061FDC8204E
:1004300001F0A7FC2021064801F001FAC82001F0D4
:10044000A0FCE2E7256420754100000014000020B4
:10045000000C01404C494E454120563A0000000036
:10046000704700BFFEE700BFFEE700BFFEE700BF2A
:10047000FEE770477047704702480068401C01491A
:10048000086070471C00002008B50121082001F019
:10049000E1FB03208DF8020014208DF803004FF4D7
:1004A0008070ADF800006946FA4801F01DF94FF47C
:1004B0000070ADF800006946F64801F015F94FF4F8
:1004C0008071F44801F0BBF94FF48071F14801F0FC
:1004D000B6F908BD10B5044601E001F05EFC20004D
:1004E000A4F10104F9D110BD10B50620FFF7F2FF09
:1004F000002411E04FF48071E64801F0A2F90620D3
:10050000FFF7E8FF4FF48071E24801F098F9062008
:10051000FFF7E0FF601CC4B2092CEBDB10BD10B587
:100520000320FFF7D7FF4FF40071DA4801F087F995
:100530004FF48071D74801F082F90620FFF7CAFF17
:100540004FF40071D34801F060F948B9FFF7CCFFD0
:100550004FF40071CF4801F058F908B9002010BDE0
:100560004FF40071CB4801F06CF90320FFF7B2FFA4
:100570004FF40071C74801F048F908B10020EEE7D8
:100580004FF48071C34801F05CF90320FFF7A2FF2C
:100590000120E4E710B50320FFF79CFF4FF48071C2
:1005A000BC4801F04EF90320FFF794FF4FF40071AF
:1005B000B84801F046F90320FFF78CFF4FF4807133
:1005C000B44801F03CF90620FFF784FF4FF40071B6
:1005D000B04801F034F90320FFF77CFF10BD10B5DF
:1005E0000620FFF777FF4FF48071AA4801F029F940
:1005F0000620FFF76FFF4FF40071A64801F021F9C4
:100600000620FFF767FF4FF48071A24801F017F949
:100610000620FFF75FFF4FF480719E4801F011F94B
:100620000320FFF757FF10BD10B50320FFF752FF5F
:100630004FF48071974801F004F90320FFF74AFF57
:100640004FF40071934801F0FAF80320FFF742FFDE
:100650004FF480718F4801F0F2F80620FFF73AFF5F
:100660004FF480718B4801F0ECF80320FFF732FF64
:1006700010BD10B50320FFF72DFF4FF480718548A2
:1006800001F0DFF80320FFF725FF4FF400718148E8
:1006900001F0D5F80320FFF71DFF4FF480717D486E
:1006A00001F0CDF80320FFF715FF4FF400717948F2
:1006B00001F0ABF830B14FF48071764801F0C1F829
:1006C000002010BD4FF48071724801F0BAF801208B
:1006D000F7E770B5044608250320FFF7FBFE22E08C
:1006E0004FF480716B4801F0ACF80320FFF7F2FE85
:1006F00014F0800F05D04FF40071664801F09FF8A8
:1007000004E04FF40071634801F09BF86006040EAA
:100710000120FFF7DFFE4FF480715E4801F08FF893
:100720000620FFF7D7FE2800A5F10101CDB2D7D1F1
:100730004FF48071574801F084F870BD70B50825FA
:1007400000240320FFF7C6FEA901524801F077F804
:100750001CE00320FFF7BEFE6006040E4FF480711C
:100760004C4801F06EF80620FFF7B4FE4FF480719C
:10077000484801F064F80320FFF7ACFE4FF4007125
:10078000444801F042F808B144F001042800A5F102
:100790000101CDB2DDD14FF480713E4801F051F836
:1007A000204670BD70B506460C461546FFF7B7FEED
:1007B00008B9002070BD05F0FE00FFF78AFFFFF7C3
:1007C00058FF18B9FFF7E6FE0020F3E7E0B2FFF7A5
:1007D00080FFFFF74EFF18B9FFF7DCFE0020E9E7C6
:1007E0003046FFF776FFFFF744FF18B9FFF7D2FE58
:1007F0000020DFE7FFF7CEFE0A20FFF76BFE0120A7
:10080000D8E72DE9F04106460C461546FFF787FE6E
:1008100010B90020BDE8F08104F0FE00FFF759FF99
:10082000FFF727FF18B9FFF7B5FE0020F2E7F0B297
:10083000FFF74FFFFFF71DFF18B9FFF7ABFE0020D2
:10084000E8E7FFF76CFE08B90020E3E704F0FE01DB
:10085000481CFFF73EFFFFF70CFF18B9FFF79AFEA1
:100860000020D7E7FFF76AFF0746FFF7DDFEFFF737
:1008700091FE05B12F700120CCE72DE9F04105462E
:100880000E4617469846FFF74AFE28B90020BDE8F5
:10089000F0810000000C014005F0FE00FFF719FF99
:1008A000FFF7E7FE18B9FFF775FE0020EFE7F0B29B
:1008B000FFF70FFFFFF7DDFE18B9FFF76BFE002013
:1008C000E5E700240AE0385DFFF703FFFFF7D1FEFC
:1008D00018B9FFF75FFE0020D9E7641C4445F2D346
:1008E000FFF758FE0120D2E72DE9F0410546884682
:1008F00016461F463946304601F04DFBFFF70FFE06
:1009000010B90020BDE8F08105F0FE00FFF7E1FE20
:10091000FFF7AFFE18B9FFF73DFE0020F2E708F041
:10092000FF00FFF7D6FEFFF7A4FE18B9FFF732FE6F
:100930000020E7E7FFF7F3FD08B90020E2E705F044
:10094000FE01481CFFF7C5FEFFF793FE18B9FFF73D
:1009500021FE0020D6E7002405E0FFF7EFFE30552A
:10096000FFF73DFE641CBC42F7D3FFF75DFEFFF7C7
:1009700011FE0120C6E710B504467822002120466A
:10098000FFF710FF10BD10B5044678224021204625
:10099000FFF708FF10BD70B504460D462B462246F2
:1009A00040217820FFF769FF70BD70B504460D4601
:1009B00005F1B001C8B2FFF7DEFF102141EA1410C3
:1009C000FFF7D9FF04F00F00FFF7D5FF70BD10B59A
:1009D0008D20FFF7D0FF1420FFF7CDFFAF20FFF7EA
:1009E000CAFF10BD10B58D20FFF7C5FF1020FFF71F
:1009F000C2FFAE20FFF7BFFF10BD70B5002415E0A9
:100A000004F1B001C8B2FFF7B6FF0020FFF7B3FF53
:100A10001020FFF7B0FF002504E00020FFF7B3FF30
:100A2000681CC5B2802DF8DB601CC4B2082CE7DB63
:100A300070BD70B5002415E004F1B001C8B2FFF735
:100A40009AFF0020FFF797FF1020FFF794FF002583
:100A500004E0FF20FFF797FF681CC5B2802DF8DB8C
:100A6000601CC4B2082CE7DB70BD10B5AE20FFF7E8
:100A700082FF08B9002010BD0020FFF77CFF102086
:100A8000FFF779FF4020FFF776FFB020FFF773FFF5
:100A90008120FFF770FF4520FFF76DFFA120FFF7D2
:100AA0006AFFC020FFF767FFA620FFF764FFA820BA
:100AB000FFF761FF1F20FFF75EFFD320FFF75BFF0B
:100AC0000020FFF758FFD520FFF755FF8020FFF7E4
:100AD00052FFD920FFF74FFF2220FFF74CFFDA200B
:100AE000FFF749FF1220FFF746FFDB20FFF743FF28
:100AF0002020FFF740FF8D20FFF73DFF1420FFF778
:100B00003AFFAF20FFF737FFFFF777FF00F03CF821
:100B1000002000F015F8012000F002F80120AAE7FB
:100B2000FE4948717047FD4840797047FB4A108084
:100B300051807047F94800887047F84840887047EE
:100B4000F6490871097911B1012918D10AE0082183
:100B5000F34A1170102151709170D17011712021E0
:100B600051710CE00C21EE4A1170182151703021A6
:100B700091701821D17011714821517100BF00BFCF
:100B80007047E6480079704710B500200EE000215C
:100B900008E0002200EB4003E24C04EB43135A54FC
:100BA0004A1CD1B26029F4DB421CD0B20428EEDB2F
:100BB00010BD10B500240DE021460020FFF7F5FE22
:100BC00004EB4401D74A02EB41106021FFF7E3FE3A
:100BD000601CC4B2042CEFDB10BDF0B50346144614
:100BE000602B00DBF0BD202900DBFBE7FCB10846F1
:100BF000CD1701EB5575ED1005EB4505C94E06EB1C
:100C00004515ED5C0A46CE1701EB5676F610A1EBC2
:100C1000C6070126BE403543CE1701EB5676F610C7
:100C200006EB4606BF4F07EB4616F5541EE0CD1700
:100C300001EB5575ED1005EB4505BA4E06EB451574
:100C4000ED5C0A46CE1701EB5676F610A1EBC6070F
:100C50000126BE40B5430846CE1701EB5676F61086
:100C600006EB4606AF4F07EB4616F55400BFB9E753
:100C70002DE9F04105460E46174698462C4606E0FB
:100C8000424639462046FFF7A8FF601CC4B2B44272
:100C9000F6DDBDE8F0812DE9F04180460D461646AF
:100CA0001F462C4606E03A4621464046FFF795FF90
:100CB000601CC4B2B442F6DDBDE8F0812DE9F04716
:100CC000064688464FF000090024B8F1000F29D0ED
:100CD0009248007910B101280AD104E0924FDFF860
:100CE0004C92132507E0924FDFF84892042502E06A
:100CF0000020BDE8F08700BF0DE007EB44010222B1
:100D0000304601F0D7F820B98548407904FB0099B6
:100D100003E0601C84B2AC42EFDB00BFAC421ADBE4
:100D20000020E6E77D48007910B1012810D107E0E6
:100D30007B488178307820387F4A01FB002909E020
:100D400077488178307820387C4A01FB002901E01F
:100D50000020CEE700BF4846CBE72DE9FF4F81B02A
:100D6000804689460020824605460646DDE90301A5
:100D7000FFF7A4FF044614B905B0BDE8F08F04984E
:100D800020B16748C77890F804B003E0644807785A
:100D900090F801B014F8010B0090002634E0002513
:100DA0002EE0CAF10701012088400099084209D0CD
:100DB00009EB0602D1B208EB0502D0B20122FFF71F
:100DC0000CFF0CE055484079012808D109EB0602D8
:100DD000D1B208EB0502D0B20022FFF7FEFE0AF105
:100DE000010000F0FF0ABAF1070F02DC681CB842EC
:100DF00004DB4FF0000A14F8010B0090681CC5B228
:100E0000BD42CEDB701CC6B25E45C8DB00BFB3E797
:100E10002DE9F04707468846154600243E46C14660
:100E20001CE0285D10F0800F0CD02A1901234946E0
:100E30003046FFF792FF3A48C078304486B2A01C93
:100E400084B20BE02A19002349463046FFF785FF9C
:100E500033480078304486B2601C84B2285D002894
:100E6000DFD1BDE8F0872DE9F04107460D460026A9
:100E7000002410E0A85D10F0800F06D02848C0784C
:100E8000204484B2B01C86B205E025480078204496
:100E900084B2701C86B2A85D0028EBD1602C01DB07
:100EA000002405E0C4F1600000EBD071C1F34F04F1
:100EB0002A4639462046FFF7ABFFBDE8F08170B502
:100EC000044617490979C1F1200000EBD071C1F344
:100ED0004F0521462846FFF7C6FF70BD10B50446F2
:100EE000FFF752FE2046FFF7EAFFFFF762FE10BD54
:100EF00070B505460E460A4800792021A1EB400056
:100F0000032190FBF1F084B2FFF73EFE2946204614
:100F1000FFF7A9FF0249097912E00000260000202E
:100F20002000002040000020D02A0008F62A0008F7
:100F3000B63F0008BE3F0008D0240008B62D0008C8
:100F400001EB440188B23146FFF78DFFFFF731FE18
:100F500070BD000008B501210D2000F07BFE0121CD
:100F6000042000F077FE0121124800F08CFC0320E1
:100F70008DF8020010208DF80300A020ADF80000CD
:100F800069460D4800F0B0FB20210B4800F057FCEB
:100F90008021094800F053FC4FF40040ADF80000F8
:100FA0006946064800F0A0FB4FF40041034800F0FA
:100FB00046FC08BD00023000000C01400008014062
:100FC00000B587B001214FF4047000F043FE01200A
:100FD0008DF81A0000208DF81B000120ADF81800D4
:100FE00006A97A4800F080FB0220ADF8180006A997
:100FF000764800F079FB4FF4004000F092FD0020AD
:10100000019001208DF8080000208DF809004FF4B0
:10101000602003900020049001208DF8140001A9A5
:101020006B4800F000F90121694800F028F9684890
:1010300000F047F900BF664800F048F90028FAD1EF
:10104000634800F04DF900BF614800F04EF90028F8
:10105000FAD107B000BD2DE9F04780460C46164690
:101060000EB9BDE8F08772004146204600F04EFF01
:10107000002723E04FF0010A002515E034F81500A1
:1010800004EB4501498888420CDA4FF0000A34F835
:10109000159004EB4500408824F8150004EB45004A
:1010A000A0F80290681C85B2F01B401EA842E5DC47
:1010B000BAF1000F00D004E0781C87B2701EB8426D
:1010C000D8DC00BF00BFCCE7F0B58BB007460C46BC
:1010D000002614B900200BB0F0BD0A2C00DD0A2454
:1010E0000023012239463A4800F035F9002528E06E
:1010F0000121374800F003F900BF1021344800F007
:101100006FFA0028F9D00121314800F0F8F800BF4B
:1011100010212F4800F064FA0028F9D02C4800F084
:1011200081F906A921F8150006A830F81500304409
:1011300086B2601EA84202D0012000F006FE681CA4
:10114000C5B2A542D4DB0021214800F0D8F8102117
:101150001F4800F04EFA052C16DD0026224601A994
:1011600006A8FFF778FF022506E001A830F8150071
:10117000304486B2681CC5B2A01EA842F5DC201F10
:1011800096FBF0F086B202E096FBF4F086B23046B1
:10119000A1E72DE9F04106460F4639463046FFF7F4
:1011A00093FF804601F053F804460D460022094B98
:1011B0002046294601F05EF804460D4620462946A1
:1011C00001F018F880B2BDE8F08100000010014085
:1011D0000024014000C8F93F10B50446FA48844293
:1011E00008D10121401500F04FFD0021601500F0ED
:1011F0004BFD17E0F548844208D10121001500F0AD
:1012000043FD0021201500F03FFD0BE0F048844233
:1012100008D10121C80300F037FD00214FF4004040
:1012200000F032FD10BD30B50246002000235068AA
:10123000E84C20400D790C6844EA052420435060B6
:101240009068E54C2040D1E902542C434D7944EAA2
:10125000450420439060D06A20F470000C7C641E2A
:10126000E4B2234340EA0350D06230BD0021016064
:10127000017141718160C16001210174704721B128
:10128000826842F00102826003E0826822F001027B
:101290008260704721B1826842F48072826003E00C
:1012A000826822F480728260704710B50023CBB24E
:1012B0001AB144681C43446002E044689C434460A3
:1012C00010BD816841F0080181607047014600202F
:1012D0008A6812F0080F01D0012000E0002070475A
:1012E000816841F0040181607047014600208A68EE
:1012F00012F0040F01D0012000E00020704721B15E
:10130000826842F4A002826003E0826822F4A002B4
:1013100082607047014600208A6812F4800F01D075
:10132000012000E00020704710B50A46002100238C
:10133000416821F46041531E41EA4331416010BDD0
:1013400021B1426842F40062426003E0426822F444
:10135000006242607047F0B504460D46002000214F
:10136000092D11DDE068A5F10A0606EB4607072600
:1013700006FA07F18843A5F10A0606EB460603FACA
:1013800006F10843E0600CE0206905EB45070726FD
:1013900006FA07F1884305EB450603FA06F1084310
:1013A0002061072A0FDA606B561E06EB86071F26A0
:1013B00006FA07F18843561E06EB860605FA06F183
:1013C0000843606322E00D2A0FDA206BD61F06EB7C
:1013D00086071F2606FA07F18843D61F06EB860606
:1013E00005FA06F10843206310E0E06AA2F10D0659
:1013F00006EB86071F2606FA07F18843A2F10D06C1
:1014000006EB860605FA06F10843E062F0BD21B15D
:10141000826842F48012826003E0826822F48012C3
:10142000826070470146C86C80B2704766484C3095
:101430000068704721B1426842F48062426003E074
:10144000426822F480624260704721B1426842F4EF
:101450008052426003E0426822F48052426070474A
:101460000A460021816821F4E04111438160704700
:1014700021B1826842F40042826003E0826822F473
:1014800000428260704721B1826842F40212826099
:1014900003E0826822F40212826070470146002055
:1014A0008A6812F4001F01D0012000E0002070477C
:1014B000F0B504461546002000220026092911DD5A
:1014C000E068A1F10A0707EB470C072707FA0CF2BF
:1014D0009043A1F10A0707EB470703FA07F210430D
:1014E000E0600CE0206901EB410C072707FA0CF2E1
:1014F000904301EB410703FA07F210432061A06B10
:10150000C0F30156EF1C06F1010CA7EB0C0707EB2B
:10151000870C1F2707FA0CF29043EF1C06F1010C11
:10152000A7EB0C0707EB870701FA07F21043A0634C
:10153000F0BD10B50A4600210023816B21F4401153
:10154000531E41EA0351816310BD08B50023009387
:101550000090009B0B440093009B1A6008BD08B5E7
:10156000024600200090009201F12800009B1844E0
:1015700000900098006880B208BD0A4600214168CA
:10158000164B1940114341607047416282627047B7
:101590000A460021416821F01F0111434160704754
:1015A00040B109490831096841F40001064A08328E
:1015B000116007E004490831096821F40001024A7A
:1015C00008321160704700000024014000280140EB
:1015D000003C0140FFFEF0FFFDF7F1FFFFFD3FFF84
:1015E0000246002013680B4201D0012000E00020D9
:1015F0007047CA430260704770B50246002000235E
:1016000000240B125568CEB205EA060415681D4287
:1016100002D00CB1012000E0002070BD00220A12AF
:10162000D34303607047000010B50446CA488442A3
:1016300008D10121042000F027FB0021042000F044
:1016400023FB46E0C548844208D10121082000F070
:101650001BFB0021082000F017FB3AE0C048844241
:1016600008D10121102000F00FFB0021102000F014
:101670000BFB2EE0BB48844208D10121202000F062
:1016800003FB0021202000F0FFFA22E0B64884424C
:1016900008D10121402000F0F7FA0021402000F09D
:1016A000F3FA16E0B148844208D10121802000F00D
:1016B000EBFA0021802000F0E7FA0AE0AC4884420F
:1016C00007D10121801500F0DFFA0021A01500F0FC
:1016D000DBFA10BD10B50121084600F0D5FA002153
:1016E000012000F0D1FA10BD2DE9F041024600259D
:1016F0000026002000230024002791F803C00CF0EE
:101700000F0591F803C01CF0100F03D091F802C030
:101710004CEA050591F800C0BCF1000F31D0146807
:1017200000202BE04FF0010C0CFA00F3B1F800C0E0
:101730000CEA03069E4220D183004FF00F0C0CFAF6
:1017400003F7BC4305FA03FC4CEA040491F803C018
:10175000BCF1280F06D14FF0010C0CFA00FCC2F8C6
:1017600014C00AE091F803C0BCF1480F05D14FF056
:10177000010C0CFA00FCC2F810C0401C0828D1D3A0
:101780001460B1F800C0BCF1FF0F34DD54680020D4
:101790002EE000F1080C4FF0010808FA0CF3B1F844
:1017A00000C00CEA03069E4221D183004FF00F0CCB
:1017B0000CFA03F7BC4305FA03FC4CEA040491F865
:1017C00003C0BCF1280F05D100F1080C08FA0CF891
:1017D000C2F8148091F803C0BCF1480F07D100F1A2
:1017E000080C4FF0010808FA0CF8C2F81080401CF1
:1017F0000828CED35460BDE8F0814FF6FF71018018
:10180000022181700421C170704702460020936854
:101810000B4201D0012000E000207047014688689B
:1018200080B2704702460020D3680B4201D00120ED
:1018300000E0002070470146C86880B2704701612F
:101840007047416170470AB1016100E04161704732
:10185000C16070474FF480320A43826181618261C6
:1018600082698269704702460020424B18684FF631
:101870008073184040EA021008433E4B18607047DE
:101880003D49C8617047F0B50A4600230024002195
:10189000002500F00046B6F1004F02D1354EF16947
:1018A00001E0344E7168C0F3034583B200F4401682
:1018B000B6F5401F08D121F070612E4E766826F0F3
:1018C00070662C4F7E6012E000F48016B6F5801F23
:1018D00006D1032606FA05F4A14341F0706106E043
:1018E000460D360103FA06F6B14341F0706122B1AC
:1018F000460D360103FA06F6314300F00046B6F114
:10190000004F02D11B4EF16101E01A4E7160F0BD33
:1019100030B500228B071C0F0F2303FA04F2154B7E
:1019200008338C1053F824309343124C08348D1034
:1019300044F8253023468C1053F824308C07240FAC
:1019400000FA04F423430B4C08348D1044F825307E
:1019500030BD0A490860704700080140000C014092
:10196000001001400014014000180140001C01401B
:10197000002001400000014000002042DC00204225
:10198000DD48006840F00100DB4908600846406817
:10199000DA490840D849486008460068D8490840F4
:1019A000D54908600846006820F480200860084691
:1019B000406820F4FE0048604FF41F0088607047C4
:1019C000CD49096821F48031CB4A1160114609687C
:1019D00021F480211160B0F5803F03D0B0F5802F55
:1019E0000ED106E0C449096841F48031C24A116051
:1019F00007E0C149096841F4A021BF4A116000E035
:101A000000BF00BF704710B5014600220023002030
:101A10004A11012A02D1B84C236806E0022A02D1F9
:101A2000B54C236A01E0B44C636A01F01F02012443
:101A300094401C4201D0012000E0002010BD38B5C8
:101A4000002000900024002500BF3120FFF7DBFFBD
:101A500005460098401C00900098B0F5A06F01D09A
:101A6000002DF2D03120FFF7CEFF08B1012400E0B5
:101A70000024204638BD014600209F4A106820F00F
:101A8000F80040EAC100106070479E490860704746
:101A900002460020984B586820F47C1042EA01036B
:101AA0001843954B58607047964908667047014641
:101AB0000020914A506820F00300084350607047AE
:101AC0008D48406800F00C007047014600208A4AAB
:101AD000506820F0F0000843506070470146002035
:101AE000854A506820F4E060084350607047014622
:101AF0000020814A506820F4605040EAC1005060E4
:101B0000704729B17C4A527A02437B4B5A7204E0F7
:101B1000794A527A8243784B5A7270477A49086000
:101B2000704701460020744A506820F44040084342
:101B3000506070470021754A11706F4A82F820107A
:101B4000012802D0042808D103E001216F4A117056
:101B500004E005216D4A117000E000BF00BF70472E
:101B60006B49086070476449096A0143624A11621F
:101B70007047674944390860704730B5002100223A
:101B8000002400235C4D6D6805F00C0121B104298F
:101B900005D0082923D105E05E4D056022E05E4DA9
:101BA00005601FE0544D6D6805F47012524D6D686C
:101BB00005F48034022505EB92421CB9574D55437C
:101BC00005600BE04C4D6D6815F4003F03D0544D9B
:101BD0005543056002E0504D5543056002E04D4D10
:101BE000056000BF00BF444D6D6805F0F0010909B4
:101BF0004C4D6B5C0568DD4045603F4D6D6805F4FC
:101C0000E061090A474D6B5C4568DD4085603A4DEF
:101C10006D6805F46051C90A424D6B5C4568DD4052
:101C2000C560354D6D6805F44041890B3E4D6B5CD8
:101C3000C568B5FBF3F5056130BD29B12E4A52697F
:101C400002432D4B5A6104E02B4A526982432A4BCE
:101C50005A61704729B1284A92690243264B9A611A
:101C600004E0254A92698243234B9A61704729B167
:101C7000214AD2690243204BDA6104E01E4AD2694C
:101C800082431D4BDA61704729B11B4AD268024377
:101C9000194BDA6004E0184AD2688243164BDA60C6
:101CA000704729B1144A12690243134B1A6104E0C8
:101CB000114A12698243104B1A6170471449403926
:101CC000086070470F49C86470470B49C871704776
:101CD0000948406A40F080700749486270470146F1
:101CE0000020054A92680A4201D0012000E000204D
:101CF0007047014988727047001002400000FFF8E9
:101D0000FFFFF6FE00004242D8004242201002408F
:101D10008004424200127A00001BB70000093D0017
:101D2000808D5B002C0000203C00002000B585B0B9
:101D30006846FFF722FF05B000BD042000BF010088
:101D4000A0F10102D0B2FAD1704710B503460024C9
:101D500003E0FFF7F2FF601C84B203EB8300400056
:101D6000A042F6DC10BD002108E0002201E0531C77
:101D70009AB2B2F5467FFADD4B1CD9B28142F4DB50
:101D8000704730B50446002504E00A20FFF7EBFF5A
:101D9000681C85B2A542F8DB30BD1E2000BF0100E3
:101DA000A0F10102D0B2FAD1704700000FB41CB507
:101DB000074B06AA7B4469460090059800F071F92C
:101DC0000020694600F080F91CBC5DF814FB00009F
:101DD000110300002DE9F0410E4604460020206268
:101DE0002046E168884730B3252805D0D4E9012191
:101DF0009047206A401CF2E7E168204600278847A8
:101E0000050018D0A5F14100192802D820354FF45B
:101E100000673246294620462760FEF7C3F940B1E5
:101E2000012804D0F61D26F007060836D8E7361D2F
:101E3000D6E72846DAE7206ABDE8F0812DE9F041CF
:101E40000646002410687529314616A511D0AFF357
:101E50000080002803DAC0F1000013A507E0316814
:101E60008A0701D511A502E0490704D510A5012470
:101E700001E0AFF3008000210A2306F1240707E008
:101E8000B0FBF3F203FB1200303078541046491CCB
:101E90000028F5D123462A463046BDE8F04100F03F
:101EA0009FB80000000000002D0000002B00000083
:101EB0002000000040EA010310B59B070FD1042A5F
:101EC0000DD310C808C9121F9C42F8D020BA19BA05
:101ED000884201D9012010BD4FF0FF3010BD1AB16A
:101EE000D30703D0521C07E0002010BD10F8013BBF
:101EF00011F8014B1B1B07D110F8013B11F8014BE6
:101F00001B1B01D1921EF1D1184610BD032A40F2CD
:101F1000308010F0030C00F0158011F8013BBCF18B
:101F2000020F624498BF11F801CB00F8013B38BFA3
:101F300011F8013BA2F1040298BF00F801CB38BFB1
:101F400000F8013B11F0030300F0C380083AC0F031
:101F5000088051F8043B083A51F804CBA0E8081077
:101F6000F5E7121D5CBF51F8043B40F8043BAFF3AA
:101F70000080D20724BF11F8013B11F801CB48BF04
:101F800011F8012B24BF00F8013B00F801CB48BF3A
:101F900000F8012B70474FF000020429C0F01280B6
:101FA00010F0030C00F0C980CCF1040CBCF1020F5E
:101FB00018BF00F8012BA8BF20F8022BA1EB0C01E1
:101FC00000F0BBB85FEAC17C24BF00F8012B00F829
:101FD000012B48BF00F8012B7047704770477047CE
:101FE0002DE9F0470D4699469246044600F1240833
:101FF0000168880604D5E06921F01001216000E045
:102000000120A84202DDA0EB050700E00027A1693E
:1020100007EB050202EB0900A1EB0000A0612078AC
:10202000C00602D42046AFF30080002608E0D4E9C1
:1020300001211AF806009047206A401C761C206295
:102040004E45F4DB2078C0060AD52046AFF3008069
:1020500006E0D4E9012130209047206A401C20622C
:10206000381EA7F10107F4DC07E0D4E9012118F8D4
:1020700005009047206A401C2062281EA5F101053A
:10208000F3DC2046AFF300802078000602D5022062
:10209000BDE8F0870120FBE701694A1C026108786E
:1020A000704700B58FB0CDE9013100210591054998
:1020B0007944CDE9031011466846FFF78BFE0FB057
:1020C00000BD0000E5FFFFFF0A6802F8010B0A608F
:1020D000704710B5203AC0F00B80B1E81850203A94
:1020E000A0E81850B1E81850A0E81850BFF4F5AFB8
:1020F0005FEA027C24BFB1E81850A0E8185044BF42
:1021000018C918C0BDE810405FEA827C24BF51F8AE
:10211000043B40F8043B08BF7047D20728BF31F8A2
:10212000023B48BF11F8012B28BF20F8023B48BFF3
:1021300000F8012B70474FF0000200B5134694469B
:102140009646203922BFA0E80C50A0E80C50B1F10F
:102150002001BFF4F7AF090728BFA0E80C5048BF23
:102160000CC05DF804EB890028BF40F8042B08BFC1
:10217000704748BF20F8022B11F0804F18BF00F8BD
:10218000012B7047754600F029F8AE4605006946F8
:10219000534620F00700854618B020B5FEF728F812
:1021A000BDE820404FF000064FF000074FF0000858
:1021B0004FF0000B21F00701AC46ACE8C009ACE8D9
:1021C000C009ACE8C009ACE8C0098D4670470446B8
:1021D000AFF300802046FDF7F7FF0000004870478E
:1021E000C001002001491820ABBEFEE72600020016
:1021F000704700004FEA1153A3F58063D3F11E032B
:10220000A8BFD3F1200C08DB4FF0004242EAC12204
:1022100052EA505232FA03F0704709420BD4102BA5
:10222000C4BF0020704703F5787CBCF1FF3F05D0A8
:102230004FF0FF3070474FF00000704770B500F06E
:10224000C3F800BF4992248000207047F0E7B0FA3D
:1022500080F310FA03F10AD0C3F11D0303F5806384
:102260004FEA41504FEA035202EBD12170474FF041
:1022700000007047DFF848C170B51CEA111E1EBF90
:102280001CEA13159EEA0C0F95EA0C0F00F06F8004
:1022900081EA030423EA4C134EEAD47E21EA4C116E
:1022A00041F4801143F48013AE44A1FB024CA0FB27
:1022B0000365AEF17F7E361955EB0C05A1FB034C8F
:1022C0004CF10003A0FB021C16EB0C06654153F118
:1022D0000003094218BF46F0010613F4007F0BD13A
:1022E0004FEA03314FEA0530340341EA155140EA21
:1022F00016506FF003020AE04FEAC3214FEAC520EF
:10230000F40241EA555140EA56506FF0020202EBE6
:102310002E4201EB025585EACE710AD05FEA440CE9
:1023200018BF24F0004450F1000041F1000120EA00
:10233000D47040F2FE7C624500D270BDA84214BF4A
:102340004FF080444FF04044002E08BF0024BEF1FF
:10235000806FA8BFA1F1C041BDE8704080F28280CB
:102360004FF0000001F1C04101F0004170479EEACA
:102370000C0F0CEA131518BF95EA0C0F06D04FF09E
:10238000000081EA030E0EF0004170BD00F01CF861
:102390008900013E00F007B800F009B84FEA430C8D
:1023A0005FEA5C5C08D081EA030100F05BB84FEAA9
:1023B000410C5FEA5C5CF6D14FF0000001497047C8
:1023C0000000FF070000F87F0EF1020E2EF0030E52
:1023D0005EF8046B364205D4012A43EB030515F57C
:1023E000001F12D8012841EB010C1CF5001F0CD86E
:1023F0000ED14FEAD17C15F5001F0CEB4C0C0CF103
:10240000020C08BF4CEBD37C04E04FF0080C01E059
:102410004FEAD37C0CEB4C0526FA05F606F00706CE
:10242000B6F1040C06D20EEB860CBDE870404CF001
:10243000010C6047DFE80CF0090B02024FF000418D
:102440004FF00000A1F5002170BD1946104601288B
:1024500051EB010418BFD4F5001484BF002001F033
:10246000004170BD0808A0F500114FEA3101704726
:10247000202122232425262728292A2B2C2D2E2FE4
:10248000303132333435363738393A3B3C3D3E3FD4
:10249000404142434445464748494A4B4C4D4E4FC4
:1024A000505152535455565758595A5B5C5D5E5FB4
:1024B000606162636465666768696A6B6C6D6E6FA4
:1024C000707172737475767778797A7B7C7D7E7F94
:1024D00000000000000000000000000000000000FC
:1024E000000000101010101010100000181800004C
:1024F0000012362448000000000000000000000028
:10250000000000242424FE484848FE4848480000B3
:10251000000010385454503018141454543810100B
:1025200000000044A4A8A8A8541A2A2A2A4400009B
:1025300000000030484848506EA494888976000016
:1025400000606020C00000000000000000000000EB
:1025500000020408081010101010100808040200EF
:10256000004020101008080808080810102040003B
:10257000000000001010D63838D6101000000000FF
:102580000000000010101010FE10101010000000CD
:10259000000000000000000000000000606020C09B
:1025A00000000000000000007F00000000000000AC
:1025B000000000000000000000000000606000005B
:1025C000000001020204040808101020204040000E
:1025D00000000018244242424242424224180000B5
:1025E000000000107010101010101010107C00006F
:1025F0000000003C4242420404081020427E0000D9
:102600000000003C42420418040202424438000028
:10261000000000040C14242444447E04041E000022
:102620000000007E404040586402024244380000EE
:102630000000001C2440405864424242241800001C
:102640000000007E44440808101010101010000014
:102650000000003C4242422418244242423C000016
:102660000000001824424242261A020224380000C8
:1026700000000000000018180000000018180000FA
:1026800000000000000000100000000000101020FA
:10269000000000020408102040201008040200007E
:1026A000000000000000FE000000FE00000000002E
:1026B0000000004020100804020408102040000020
:1026C0000000003C424262020408080018180000A2
:1026D00000000038445AAAAAAAAAB442443800000A
:1026E0000000001010182828243C444242E7000053
:1026F000000000F8444444784442424244F8000058
:102700000000003E424280808080804244380000C9
:10271000000000F8444242424242424244F8000073
:10272000000000FC424848784848404242FC000013
:10273000000000FC424848784848404040E0000023
:102740000000003C44448080808E84444438000073
:10275000000000E7424242427E42424242E700001D
:102760000000007C1010101010101010107C0000E1
:102770000000003E0808080808080808080888F053
:10278000000000EE444850705048484444EE0000B9
:10279000000000E0404040404040404042FE000019
:1027A000000000EE6C6C6C6C5454545454D6000011
:1027B000000000C7626252524A4A4A4646E200009E
:1027C0000000003844828282828282824438000083
:1027D000000000FC424242427C40404040E0000099
:1027E00000000038448282828282B2CA4C380600DD
:1027F000000000FC4242427C4848444442E300005E
:102800000000003E4242402018040242427C000088
:10281000000000FE92101010101010101038000070
:10282000000000E74242424242424242423C000033
:10283000000000E742424424242828181010000019
:10284000000000D692929292AAAA6C4444440000DE
:10285000000000E7422424181818242442E700004E
:10286000000000EE4444282810101010103800001A
:102870000000007E840408081020204242FC000072
:10288000001E1010101010101010101010101E004C
:102890000000404020201010100808040404020228
:1028A00000780808080808080808080808087800D8
:1028B000001C2200000000000000000000000000DA
:1028C000000000000000000000000000000000FF09
:1028D0000060100000000000000000000000000088
:1028E000000000000000003C421E2242423F000067
:1028F000000000C04040405864424242645800001A
:10290000000000000000001C22404040221C00008B
:10291000000000060202021E22424242261B000064
:10292000000000000000003C427E4040423C0000AD
:102930000000000F1110107E10101010107C00000D
:10294000000000000000003E444438403C42423C4D
:10295000000000C04040405C6242424242E700004A
:10296000000000303000007010101010107C0000CB
:102970000000000C0C00001C04040404040444784F
:10298000000000C04040404E4850684844EE0000FF
:10299000000000701010101010101010107C0000BB
:1029A00000000000000000FE4949494949ED0000CF
:1029B00000000000000000DC6242424242E70000EA
:1029C000000000000000003C42424242423C000045
:1029D00000000000000000D864424242447840E019
:1029E000000000000000001E22424242221E020798
:1029F00000000000000000EE3220202020F800003F
:102A0000000000000000003E42403C02427C00000A
:102A1000000000000010107C10101010100C0000BE
:102A200000000000000000C642424242463B000057
:102A300000000000000000E74224242810100000DD
:102A400000000000000000D79292AAAA44440000AF
:102A5000000000000000006E241818182476000002
:102A600000000000000000E742242428181010E0B5
:102A7000000000000000007E44081010227E0000CC
:102A8000000304040404040804040404040403000C
:102A900008080808080808080808080808080808B6
:102AA00000601010101010081010101010106000AE
:102AB000304C430000000000000000000000000057
:102AC0000000000000000000000000000000000006
:102AD000BCECB2E2D6D0D5FDB3A3D2ECBFA8B5E72B
:102AE000D4B4CAB1D6D3C9CFBAA3B5C2D6DDF6EF36
:102AF000B3CCBAC400001040104010A010A0FD10CC
:102B0000120E35F4300058405648914C114811507F
:102B100010041FFE10000000404427E42454855494
:102B2000655425540D5415542554E554210422842C
:102B30002444285420080100010001047FFE4104C0
:102B40004104410441047FFC4104010001000100F3
:102B500001000100010000087FFC010001000100EC
:102B60000100111011F811001100110011001100E5
:102B70001104FFFE00000100111009207FFE400239
:102B80008FE408200FE001101FF811101110111030
:102B900011500120010000103FF8201020103FF0DC
:102BA000200420041FFC08200824FFFE0820082021
:102BB0000820102020200200022003F00200020062
:102BC0000204FFFE020002000280026002300210D6
:102BD0000200020002000200020002107FF8421010
:102BE00042107FF0421042107FF0421002000204B7
:102BF000020401FC0000000447FE34201420844439
:102C000065FE25040DFC150425FCE42024A829A656
:102C10002A2230A02040000804087E08440847FE0D
:102C2000440844087C8844484448440844087C08D4
:102C30004448002800101020102010201C2421FEE1
:102C400021247D2491241124FDFC11241020142022
:102C500018201020002001000100010001000110D7
:102C600001F8010001000100010001000100010064
:102C70000104FFFE00000200420833FC14008BF840
:102C8000628822480A081FFE2488E448240827FC9A
:102C9000200820282010104010442FFE204047FC20
:102CA00094A414A427FC6000AFFE2040212025241A
:102CB000250A28FA2000100410841084108454A4DB
:102CC0005294529490841084108410841084208430
:102CD0002084400400040808481C49E049004900D9
:102CE0007DFC414441447944492849284910491010
:102CF0004A284A448C8208041DFEF1041104110480
:102D0000FF0411FC380037FE5420502891FC10209D
:102D1000102417FE10001008103C15C0FE40105083
:102D20007C7811C0FE401048387C35C05440504279
:102D30009042103E10000808481C49E04900490034
:102D40007DFC4144414479444928492849104910AF
:102D50004A284A448C8220212223242526272829F8
:102D60002A2B2C2D2E2F303132333435363738394B
:102D70003A3B3C3D3E3F404142434445464748493B
:102D80004A4B4C4D4E4F505152535455565758592B
:102D90005A5B5C5D5E5F606162636465666768691B
:102DA0006A6B6C6D6E6F707172737475767778790B
:102DB0007A7B7C7D7E7F0000000000000000000028
:102DC0000000000000000000000000000000000003
:102DD00000000000000000000000000000000000F3
:102DE00000000000000000000000000000000700DC
:102DF00007000700070007000200020002000200AF
:102E000002000200000000000000070007000700A9
:102E100000000000000000000000066006600CC01A
:102E200019801100220000000000000000000000D6
:102E30000000000000000000000000000000000092
:102E40000000000000000000000000000000000082
:102E500010401040104010407FE07FE010401040D4
:102E6000208020807FE07FE02080208020802080E4
:102E7000000000000000000000000000020002004E
:102E80000F801AC032C032C032001A000E00070094
:102E90000380038002C032C032C032C012800F00F3
:102EA000020002000000000000000000000000001E
:102EB00070C050808880890089008B008A005FC0C4
:102EC000754006200A200A201A201220114021C035
:102ED00000000000000000000000000000000000F2
:102EE0001C00260026002600260025C038803080E1
:102EF00058804900CD00C700C600C300652038C017
:102F00000000000000000000000030003800080051
:102F10000800100060000000000000000000000039
:102F200000000000000000000000000000000000A1
:102F300000000000000000000000002000400080B1
:102F400001800100030003000600060006000600E1
:102F50000600060006000300030001000180008057
:102F60000040002000000000000040002000100091
:102F7000180008000C000C00060006000600060001
:102F80000600060006000C000C00080018001000E7
:102F900020004000000000000000000000000000D1
:102FA000000002000200020072703AE00F800F8001
:102FB0003AE072700200020002000000000000000F
:102FC0000000000000000000000000000000000001
:102FD00000000000020002000200020002007FF078
:102FE00002000200020002000200000000000000D7
:102FF00000000000000000000000000000000000D1
:1030000000000000000000000000000000000000C0
:103010000000000000000000000030003800080040
:103020000800100060000000000000000000000028
:1030300000000000000000000000000000007FE031
:103040000000000000000000000000000000000080
:103050000000000000000000000000000000000070
:103060000000000000000000000000000000000060
:1030700000000000000000000000380038003800A8
:103080000000000000000000000000200060004080
:1030900000C0008000800100010002000200060064
:1030A0000400040008000800100010003000200098
:1030B0006000400000000000000000000000000070
:1030C0000F00198030C030C0606060606060606078
:1030D000606060606060606030C030C019800F0068
:1030E00000000000000000000000000000000000E0
:1030F000020006003E00060006000600060006006C
:1031000006000600060006000600060006003FC096
:1031100000000000000000000000000000000000AF
:103120001F00218040C060C060C000C001800180DD
:103130000300040008001040204040407FC07FC0D2
:10314000000000000000000000000000000000007F
:103150001E002300618061806180018003000E00F9
:103160000180008000C060C060C060C021801F007E
:1031700000000000000000000000000000000080CF
:1031800001800380038005800980098011802180EF
:10319000218041807FE0018001800180018007E083
:1031A000000000000000000000000000000000001F
:1031B0003FC03FC020002000200020002F003180B1
:1031C00020C000C000C060C060C0418021801F00DE
:1031D00000000000000000000000000000000000EF
:1031E000078018C030C0300020006000678068C0D1
:1031F00070606060606060602060304018C00F00E8
:1032000000000000000000000000000000000000BE
:103210001FE03FE03040208020800080010001005E
:10322000020002000200060006000600060006007A
:10323000000000000000000000000000000000008E
:103240001F8030C060606060606070403CC00F00F4
:10325000338020C0606060606060606030C00F805C
:10326000000000000000000000000000000000005E
:103270000F00308030C0604060606060606060E07F
:1032800031601E60006000C000C0308031801E00D0
:10329000000000000000000000000000000000002E
:1032A0000000000000000000070007000700000009
:1032B00000000000000000000000070007000700F9
:1032C00000000000000000000000000000000000FE
:1032D00000000000000000000000060006000000E2
:1032E00000000000000000000000000006000600D2
:1032F00002000400000000000000000000000020A8
:1033000000400080010002000400080010002000BE
:1033100010000800040002000100008000400020AE
:10332000000000000000000000000000000000009D
:10333000000000000000000000007FE0000000002E
:10334000000000007FE0000000000000000000001E
:10335000000000000000000000000000000020004D
:10336000100008000400020001000080004000205E
:10337000004000800100020004000800100020004E
:1033800000000000000000000000000000000F80AE
:1033900030C0406040606060606000C00180060036
:1033A000040004000400000000000E000E000E00E7
:1033B000000000000000000000000000000000000D
:1033C00007801C601020335026D064906490689071
:1033D0006890699069A066C030103020184007805E
:1033E00000000000000000000000000000000000DD
:1033F000060006000E000B000B0013001180118068
:1034000011801F8020C020C020C020606060F0F0CC
:1034100000000000000000000000000000000000AC
:10342000FF00618060C060C060C060C061807F00DC
:1034300060C06040606060606060606060C0FF802D
:10344000000000000000000000000000000000007C
:1034500007E018603020302020006000600060002D
:1034600060006000600060203020304018800F0055
:10347000000000000000000000000000000000004C
:10348000FE00618060C060C060606060606060601D
:10349000606060606060606060C060C06380FE000B
:1034A000000000000000000000000000000000001C
:1034B000FFC06040602060006000610061007F002C
:1034C0006100610060006000602060206040FFC01B
:1034D00000000000000000000000000000000000EC
:1034E000FFC060C0602060206000610061007F005C
:1034F0006100610060006000600060006000F0003A
:1035000000000000000000000000000000000000BB
:103510000F4018C030403040200060006000600064
:10352000600063F060C060C030C030C018C00F00E1
:10353000000000000000000000000000000000008B
:10354000F0F06060606060606060606060607FE0BC
:103550006060606060606060606060606060F0F04B
:10356000000000000000000000000000000000005B
:103570003FC0060006000600060006000600060022
:1035800006000600060006000600060006003FC012
:10359000000000000000000000000000000000002B
:1035A0000FF0018001800180018001800180018095
:1035B0000180018001800180018001800180018003
:1035C000618063003E000000000000000000000079
:1035D000F3E0608061006200620064006C007C00C7
:1035E0007600670063006380618060C060E0F1F096
:1035F00000000000000000000000000000000000CB
:10360000F00060006000600060006000600060002A
:103610006000600060006000602060206040FFC0CB
:10362000000000000000000000000000000000009A
:10363000F0F070E070E070E05960596059605960D6
:103640005A604E604E604E604E6044604460E4F0EC
:10365000000000000000000000000000000000006A
:10366000E07070207020582058204C2046204620C2
:103670004320432041A040E040E040604060E02023
:10368000000000000000000000000000000000003A
:103690000F00198030C03040606060606060606022
:1036A0006060606060606060304030C019800F0012
:1036B000000000000000000000000000000000000A
:1036C000FF8060C06060606060606060606060C07B
:1036D0007F80600060006000600060006000F000BB
:1036E00000000000000000000000000000000000DA
:1036F0000F00198030C030406060606060606060C2
:103700006060606060606E60324031C011800F8028
:1037100001E000C000000000000000000000000008
:10372000FF8060C0606060606060606060C07F005B
:103730006600630063006180618060C060C0F070FB
:103740000000000000000000000000000000000079
:103750001F2030E060206020600070003C000F00FF
:1037600003C000C0006040604060606070C04F8077
:103770000000000000000000000000000000000049
:103780007FE0462086108610060006000600060030
:1037900006000600060006000600060006000F00F0
:1037A0000000000000000000000000000000000019
:1037B000F070602060206020602060206020602029
:1037C00060206020602060206020602030401F80EA
:1037D00000000000000000000000000000000000E9
:1037E000F8F07060304030403040308018801880F1
:1037F000188018800D000D000D000F000600060057
:1038000000000000000000000000000000000000B8
:10381000F770662066206640664067403740374054
:103820003B803B803B803B803980110011001100C0
:103830000000000000000000000000000000000088
:1038400079E030C01880188019000D000E000600C5
:10385000060007000B000B801980118030C079E052
:103860000000000000000000000000000000000058
:10387000F8F0706030403080188018800D000D0026
:103880000E000600060006000600060006001F8067
:103890000000000000000000000000000000000028
:1038A0003FE020C041C00180038003000300060008
:1038B00006000C000C0018001820382030407FC093
:1038C0000000000000000000000007E00400040009
:1038D00004000400040004000400040004000400C8
:1038E00004000400040004000400040004000400B8
:1038F000040007E0000000000000000000002000BD
:10390000100010001000080008000400040004006B
:103910000200020001000100010000800080004060
:10392000004000400020000000003F0001000100B6
:10393000010001000100010001000100010001007F
:10394000010001000100010001000100010001006F
:1039500001003F0000000000000007000D80104043
:103960000000000000000000000000000000000057
:103970000000000000000000000000000000000047
:103980000000000000000000000000000000000037
:103990000000000000000000000000000000000027
:1039A0000000000000000000000000000000000017
:1039B00000000000FFF000000000180006000000FA
:1039C00000000000000000000000000000000000F7
:1039D00000000000000000000000000000000000E7
:1039E00000000000000000000000000000000000D7
:1039F000000000000000000000000F8030C030C058
:103A000007C01CC030C060C060C060C071D03EF054
:103A10000000000000000000000000000000100096
:103A20007000300030003000300033803CC038601F
:103A300030603060306030603060304038C02F809F
:103A40000000000000000000000000000000000076
:103A5000000000000000000000000F0031803180F5
:103A600061806000600060006040304030800F0086
:103A70000000000000000000000000000000004006
:103A800001C000C000C000C000C01EC031C030C0B6
:103A900060C060C060C060C060C020C031E01E80F7
:103AA0000000000000000000000000000000000016
:103AB00000000000000000000000078018C0106037
:103AC00030603FE030003000300018201C4007809C
:103AD00000000000000000000000000000000000E6
:103AE00003C006600C600C000C007FC00C000C00D2
:103AF0000C000C000C000C000C000C000C003F80B3
:103B000000000000000000000000000000000000B5
:103B1000000000000000000000000F70199030C08D
:103B200030C030C019801F0030003E001FC06060F0
:103B3000606070E01F8000000000000000001000C6
:103B400070003000300030003000378038C030C0A6
:103B500030C030C030C030C030C030C030C079E07C
:103B60000000000000000000000000000000000055
:103B7000060006000000000000003E0006000600EF
:103B800006000600060006000600060006003FC00C
:103B90000000000000000000000000000000000025
:103BA000018001800000000000000F800180018082
:103BB00001800180018001800180018001800180FD
:103BC000018033003E0000000000000000001000F3
:103BD0007000300030003000300033C0310033005E
:103BE000320036003E003B0033003180318079E006
:103BF00000000000000000000000000000000200C3
:103C00003E0006000600060006000600060006004C
:103C100006000600060006000600060006003FC07B
:103C20000000000000000000000000000000000094
:103C300000000000000000000000EEE07760666019
:103C40006660666066606660666066606660F770A3
:103C50000000000000000000000000000000000064
:103C60000000000000000000000073803CC030C075
:103C700030C030C030C030C030C030C030C079E05B
:103C80000000000000000000000000000000000034
:103C9000000000000000000000000F00198030C08C
:103CA0006060606060606060606030C030C00F0065
:103CB0000000000000000000000000000000000004
:103CC00000000000000000000000778038C0306075
:103CD0003060306030603060306030C038C0378075
:103CE000300030007C0000000000000000000000F8
:103CF000000000000000000000001E4031C030C085
:103D000060C060C060C060C060C020C031C01EC064
:103D100000C000C003E00000000000000000000040
:103D200000000000000000000000F9E01A601C0024
:103D30001800180018001800180018001800FF00DC
:103D40000000000000000000000000000000000073
:103D5000000000000000000000000FE018603020AC
:103D600030001C000F8001C02060206030C03F8008
:103D70000000000000000000000000000000000043
:103D80000000040004000C000C007F800C000C00FC
:103D90000C000C000C000C000C000C400C400780C8
:103DA0000000000000000000000000000000000013
:103DB0000000000000000000104071C030C030C0A2
:103DC00030C030C030C030C030C030C039E01E809C
:103DD00000000000000000000000000000000000E3
:103DE000000000000000000000007CF03860184077
:103DF00018400C800C800C800700070007000200B0
:103E000000000000000000000000000000000000B2
:103E100000000000000000000000F7B063206320F5
:103E20006720372035C039C039C039C010801080B4
:103E30000000000000000000000000000000000082
:103E4000000000000000000000007DE018801980E4
:103E50000D000E00060007000B00198011C07BE06A
:103E60000000000000000000000000000000000052
:103E7000000000000000000000007DE03880188095
:103E800018800D000D000D00060006000200040061
:103E900004002800380000000000000000000000BE
:103EA000000000000000000000003FC021802380CF
:103EB0000300070006000E000C201C2018603FC005
:103EC0000000000000000000000000C001800100B0
:103ED00001000100010001000100010003000400D5
:103EE00003000100010001000100010001000100C8
:103EF000018000C000000200020002000200020077
:103F000002000200020002000200020002000200A1
:103F10000200020002000200020002000200020091
:103F2000020002000200000000003000180008003B
:103F30000800080008000800080008000C00020043
:103F40000C0008000800080008000800080008002D
:103F5000180030000000000038002400421041200A
:103F600000E0000000000000000000000000000071
:103F70000000000000000000000000000000000041
:103F80000000000000000000000000000000000031
:103F90000000000000000000000000000000000021
:103FA0000000000000000000000000000000000011
:103FB000000000000000B5C2D6DDF6EFB3CC04026D
:103FC0000007038006030C0CFFFE1806003044189F
:103FD000247FFC4764980664980C64980C64981CD1
:103FE0007FF82C40102C00044DFFFE0C02000C91B9
:103FF000100C9D8C0C99260C98260D98240D1FF002
:104000000C0FE008000002001003881C030E1803C8
:104010000C18030C18030C18030C18138E18134DEE
:1040200018136D98336CD8734CD8630C98030C1824
:10403000030C18060C18060C180C0C180C0C18188D
:104040000C18100818200018400018000010080074
:10405000000E08180C0FFC190C181F8C18310C18C6
:10406000224FF87FEC18A64C18264C18264FF83F24
:10407000C040264870264C64264D663FCF6C204CCD
:1040800070200C6001EC640F0D647C0E66301C7EA9
:1040900000083C00000000000001901807DFFC1E33
:1040A0001818661818061818061818069FF87FD0F2
:1040B000100E00000E000C173FFE16818016C18006
:1040C000264180260198461FFC06018006018006D5
:1040D000018006018C06FFFE0600000400000000BF
:1040E0000041000800000020400000006C010008B2
:1040F0004041000840000020E0070000880100085F
:1041000000A24A04000000000000000001020304B5
:104110000607080900000000000000000000000081
:10412000000000000000000000000000000000008F
:104130000102030401020304060708090204060839
:0400000508000131BD
:00000001FF
