:020000040800F2
:10000000E02C0020CD010008090400080B040008C2
:100010000F04000813040008170400080000000083
:100020000000000000000000000000001B040008A9
:100030001D0400080000000033130008210400081C
:10004000E7010008E7010008E7010008E7010008F0
:10005000E7010008E7010008E7010008E7010008E0
:10006000E7010008E7010008E7010008E7010008D0
:10007000E7010008E7010008E7010008E7010008C0
:10008000E7010008E7010008E7010008E7010008B0
:10009000E7010008E7010008E7010008E7010008A0
:1000A000E7010008E7010008E7010008E701000890
:1000B000E7010008E7010008E7010008E701000880
:1000C000E7010008E7010008E7010008E701000870
:1000D000E7010008E7010008E7010008E701000860
:1000E000E7010008E7010008E7010008E701000850
:1000F000E7010008E7010008E7010008E701000840
:10010000E7010008E7010008E7010008E70100082F
:10011000E7010008E7010008E7010008E70100081F
:10012000E7010008E7010008E7010008E70100080F
:1001300000F002F800F03AF80AA090E8000C8244BF
:100140008344AAF10107DA4501D100F02FF8AFF29C
:10015000090EBAE80F0013F0010F18BFFB1A43F0A5
:10016000010318474C5F00006C5F0000103A24BF89
:1001700078C878C1FAD8520724BF30C830C144BF0C
:1001800004680C607047000000230024002500264E
:10019000103A28BF78C1FBD8520728BF30C148BFEA
:1001A0000B6070471FB51FBD10B510BD04F04CF9B2
:1001B0001146FFF7F7FF00F01BF904F06AF903B4EA
:1001C000FFF7F2FF03BC04F06FF900000948804715
:1001D00009480047FEE7FEE7FEE7FEE7FEE7FEE729
:1001E000FEE7FEE7FEE7FEE704480549054A064B41
:1001F00070470000E902000831010008E0260020F5
:10020000E02C0020E0280020E02800200CB5002091
:10021000019000906B48006840F4803069490860A4
:1002200000BF6848006800F4003000900198401C4E
:100230000190009818B90198B0F5A06FF1D161480C
:10024000006810F4003F02D00120009001E000207F
:1002500000900098012842D15B48006840F01000EF
:10026000594908600846006820F003000860084605
:10027000006840F0020008605248406851494860F8
:100280000846406848600846406840F4806048601E
:100290000846406820F47C1048600846406840F4F6
:1002A000881048600846006840F08070086000BF11
:1002B0004448006810F0007FFAD04248406820F0BF
:1002C0000300404948600846406840F0020048602A
:1002D00000BF3C48406800F00C000828F9D10CBD74
:1002E00010B5FFF793FF10BD10B53648006840F019
:1002F00001003449086008464068344908403149E3
:10030000486008460068324908402E49086008469F
:10031000006820F4802008600846406820F4FE0051
:1003200048604FF41F008860FFF7DAFF4FF000606D
:100330002849086010BD10B5002100200022214B83
:100340005B6803F00C0121B1042906D0082928D1EB
:1003500007E0214B214C236027E0214B1F4C2360F9
:1003600023E0184B5B6803F47010164B5B6803F4D2
:100370008032022303EB904022B91A4B4343174CBF
:1003800023600DE00F4B5B6813F4003F04D0164B65
:100390004343124C236003E0114B43430F4C236053
:1003A00003E00D4B0D4C236000BF00BF054B5B68A5
:1003B000C3F303130D4CE15C084B1B68CB40074CA7
:1003C000236010BD00100240002002400000FFF832
:1003D000FFFFF6FE08ED00E000127A0000000020AA
:1003E000001BB70000093D00808D5B000400002069
:1003F00010B501F059FB00210A2000F085F801F04A
:100400003FFC002010BD0000704700BFFEE700BFAA
:10041000FEE700BFFEE700BFFEE77047704770478A
:1004200010B501F059FB01F062FC04480068401C63
:100430000249086001F05EFB10BD000014000020BE
:1004400010B500F0EDF800F0B3FE10BD01207047CC
:1004500000F048F900F037FC02E068A000F06CFE04
:10046000FBE714E08021674803F001FD64230022CC
:100470001146104603F00CF88021624803F0F5FCA9
:100480004FF4C87300221146104603F001F8E9E763
:1004900016E04FF400415C4803F0E9FC64230022BD
:1004A0001146104602F0F4FF4FF40041564803F0A5
:1004B000DCFC4FF4C87300221146104602F0E8FF3E
:1004C000E7E714E020214F4803F0D1FC6423002229
:1004D0001146104602F0DCFF20214A4803F0C5FC1B
:1004E0004FF4C87300221146104602F0D1FFE9E72D
:1004F00010B50446FFF7A4FF0021152000F004F812
:100500000A2002F0CBFE10BD70B586B004460D4641
:100510002A26162C31D004DC0A2C07D0152C68D1E1
:1005200016E0172C3DD0182C63D14EE0032000219B
:100530008022364BCDE90043CDE9022104902346C9
:10054000334A2946AFF2570002F07DFC064651E0DF
:10055000032100224FF480732D48001DCDE9004097
:10056000CDE902320491234600F57F722946AFF2AD
:10057000AD0002F068FC06463CE0032100224FF487
:1005800080732448CDE90040CDE90232049123462E
:1005900000F57F722946AFF2071002F054FC0646C0
:1005A00028E0032100224FF480731B48CDE900406E
:1005B000CDE902320491234600F57F722946AFF25D
:1005C0005D1002F040FC064614E0032100224FF4C7
:1005D00080731248CDE90040CDE9023204912346F0
:1005E00000F57F722946AFF2971002F02CFC064608
:1005F00000E000BF00BF304606B070BD56312E305F
:1006000000000000000C014000080140980000209C
:100610009402002098060020980A0020980E0020DE
:1006200030B585B0684603F0BEFD4FF47A7200988D
:10063000B0FBF2F1B1F1807F00D31DE021F07F40EB
:10064000401E4FF0E022506150170F22002807DAB9
:1006500013071D0E214B00F00F04241F1D5503E04E
:1006600013071C0E1E4B1C5400BF00204FF0E0224D
:1006700090610720106100BF05B030BD042000BFAD
:100680000100A0F10102D0B2FAD1704710B50346C3
:10069000002403E0FFF7F2FF601C84B203EB830049
:1006A0004000A042F6DC10BD002108E0002201E07D
:1006B000531C9AB2B2F5467FFADD4B1CD9B2814287
:1006C000F4DB704730B50446002504E00A20FFF74C
:1006D000EBFF681C85B2A542F8DB30BD18ED00E0E9
:1006E00000E400E008B50121082003F0C9FD032063
:1006F0008DF8020014208DF803004FF48070ADF8DF
:1007000000006946FA4803F005FB4FF40070ADF8AD
:1007100000006946F64803F0FDFA4FF48071F44892
:1007200003F0A3FB4FF48071F14803F09EFB08BD7A
:1007300010B5044601E0FFF7A1FF2000A4F1010479
:10074000F9D110BD10B50620FFF7F2FF002411E02B
:100750004FF48071E64803F08AFB0620FFF7E8FFBC
:100760004FF48071E24803F080FB0620FFF7E0FFC2
:10077000601CC4B2092CEBDB10BD10B50320FFF7E1
:10078000D7FF4FF40071DA4803F06FFB4FF480712C
:10079000D74803F06AFB0620FFF7CAFF4FF4007149
:1007A000D34803F048FB48B9FFF7CCFF4FF4007182
:1007B000CF4803F040FB08B9002010BD4FF4007192
:1007C000CB4803F054FB0320FFF7B2FF4FF4007156
:1007D000C74803F030FB08B10020EEE74FF480710A
:1007E000C34803F044FB0320FFF7A2FF0120E4E726
:1007F00010B50320FFF79CFF4FF48071BC4803F055
:1008000036FB0320FFF794FF4FF40071B84803F064
:100810002EFB0320FFF78CFF4FF48071B44803F0E8
:1008200024FB0620FFF784FF4FF40071B04803F06B
:100830001CFB0320FFF77CFF10BD10B50620FFF75F
:1008400077FF4FF48071AA4803F011FB0620FFF7F1
:100850006FFF4FF40071A64803F009FB0620FFF775
:1008600067FF4FF48071A24803F0FFFA0620FFF7FC
:100870005FFF4FF480719E4803F0F9FA0320FFF701
:1008800057FF10BD10B50320FFF752FF4FF48071E2
:10089000974803F0ECFA0320FFF74AFF4FF400718A
:1008A000934803F0E2FA0320FFF742FF4FF4807110
:1008B0008F4803F0DAFA0620FFF73AFF4FF4807111
:1008C0008B4803F0D4FA0320FFF732FF10BD10B5B8
:1008D0000320FFF72DFF4FF48071854803F0C7FA1E
:1008E0000320FFF725FF4FF40071814803F0BDFAA4
:1008F0000320FFF71DFF4FF480717D4803F0B5FA28
:100900000320FFF715FF4FF40071794803F093FAC5
:1009100030B14FF48071764803F0A9FA002010BD81
:100920004FF48071724803F0A2FA0120F7E770B526
:10093000044608250320FFF7FBFE22E04FF48071F8
:100940006B4803F094FA0320FFF7F2FE14F0800FD7
:1009500005D04FF40071664803F087FA04E04FF4C5
:100960000071634803F083FA6006040E0120FFF76C
:10097000DFFE4FF480715E4803F077FA0620FFF740
:10098000D7FE2800A5F10101CDB2D7D14FF4807177
:10099000574803F06CFA70BD70B508250024032099
:1009A000FFF7C6FEA901524803F05FFA1CE00320DE
:1009B000FFF7BEFE6006040E4FF480714C4803F052
:1009C00056FA0620FFF7B4FE4FF48071484803F052
:1009D0004CFA0320FFF7ACFE4FF40071444803F0DB
:1009E0002AFA08B144F001042800A5F10101CDB2B2
:1009F000DDD14FF480713E4803F039FA204670BDD6
:100A000070B506460C461546FFF7B7FE08B900203C
:100A100070BD05F0FE00FFF78AFFFFF758FF18B919
:100A2000FFF7E6FE0020F3E7E0B2FFF780FFFFF7F5
:100A30004EFF18B9FFF7DCFE0020E9E73046FFF76C
:100A400076FFFFF744FF18B9FFF7D2FE0020DFE77B
:100A5000FFF7CEFE0A20FFF76BFE0120D8E72DE955
:100A6000F04106460C461546FFF787FE10B90020F8
:100A7000BDE8F08104F0FE00FFF759FFFFF727FF04
:100A800018B9FFF7B5FE0020F2E7F0B2FFF74FFF0D
:100A9000FFF71DFF18B9FFF7ABFE0020E8E7FFF7EF
:100AA0006CFE08B90020E3E704F0FE01481CFFF7E4
:100AB0003EFFFFF70CFF18B9FFF79AFE0020D7E7BB
:100AC000FFF76AFF0746FFF7DDFEFFF791FE05B16E
:100AD0002F700120CCE72DE9F04105460E46174660
:100AE0009846FFF74AFE28B90020BDE8F0810000D3
:100AF000000C014005F0FE00FFF719FFFFF7E7FECD
:100B000018B9FFF775FE0020EFE7F0B2FFF70FFF0F
:100B1000FFF7DDFE18B9FFF76BFE0020E5E70024C4
:100B20000AE0385DFFF703FFFFF7D1FE18B9FFF7C2
:100B30005FFE0020D9E7641C4445F2D3FFF758FE5E
:100B40000120D2E72DE9F0410546884616461F46AA
:100B50003946304603F02CFCFFF70FFE10B9002099
:100B6000BDE8F08105F0FE00FFF7E1FEFFF7AFFE04
:100B700018B9FFF73DFE0020F2E708F0FF00FFF78D
:100B8000D6FEFFF7A4FE18B9FFF732FE0020E7E714
:100B9000FFF7F3FD08B90020E2E705F0FE01481C6D
:100BA000FFF7C5FEFFF793FE18B9FFF721FE0020FF
:100BB000D6E7002405E0FFF7EFFE3055FFF73DFED6
:100BC000641CBC42F7D3FFF75DFEFFF711FE012066
:100BD000C6E710B50446782200212046FFF710FF33
:100BE00010BD10B50446782240212046FFF708FFCB
:100BF00010BD70B504460D462B4622464021782094
:100C0000FFF769FF70BD70B504460D4605F1B001F0
:100C1000C8B2FFF7DEFF102141EA1410FFF7D9FF39
:100C200004F00F00FFF7D5FF70BD10B58D20FFF762
:100C3000D0FF1420FFF7CDFFAF20FFF7CAFF10BD94
:100C400010B58D20FFF7C5FF1020FFF7C2FFAE20C3
:100C5000FFF7BFFF10BD70B5002415E004F1B0012F
:100C6000C8B2FFF7B6FF0020FFF7B3FF1020FFF771
:100C7000B0FF002504E00020FFF7B3FF681CC5B2F9
:100C8000802DF8DB601CC4B2082CE7DB70BD70B5AA
:100C9000002415E004F1B001C8B2FFF79AFF00206C
:100CA000FFF797FF1020FFF794FF002504E0FF20D7
:100CB000FFF797FF681CC5B2802DF8DB601CC4B23B
:100CC000082CE7DB70BD10B5AE20FFF782FF08B936
:100CD000002010BD0020FFF77CFF1020FFF779FFF8
:100CE0004020FFF776FFB020FFF773FF8120FFF76A
:100CF00070FF4520FFF76DFFA120FFF76AFFC020BE
:100D0000FFF767FFA620FFF764FFA820FFF761FF4A
:100D10001F20FFF75EFFD320FFF75BFF0020FFF7E8
:100D200058FFD520FFF755FF8020FFF752FFD9204D
:100D3000FFF74FFF2220FFF74CFFDA20FFF749FFB4
:100D40001220FFF746FFDB20FFF743FF2020FFF7CD
:100D500040FF8D20FFF73DFF1420FFF73AFFAF2043
:100D6000FFF737FFFFF777FF00F03CF8002000F0B7
:100D700015F8012000F002F80120AAE7FE494871A9
:100D80007047FD4840797047FB4A1080518070479A
:100D9000F94800887047F84840887047F64908715C
:100DA000097911B1012918D10AE00821F34A11701B
:100DB000102151709170D1701171202151710CE08E
:100DC0000C21EE4A117018215170302191701821B8
:100DD000D17011714821517100BF00BF7047E648C2
:100DE0000079704710B500200EE0002108E00022D5
:100DF00000EB4003E24C04EB43135A544A1CD1B2BB
:100E00006029F4DB421CD0B20428EEDB10BD10B523
:100E100000240DE021460020FFF7F5FE04EB44011D
:100E2000D74A02EB41106021FFF7E3FE601CC4B219
:100E3000042CEFDB10BDF0B503461446602B00DB3D
:100E4000F0BD202900DBFBE7FCB10846CD1701EB24
:100E50005575ED1005EB4505C94E06EB4515ED5CE6
:100E60000A46CE1701EB5676F610A1EBC60701260F
:100E7000BE403543CE1701EB5676F61006EB46061C
:100E8000BF4F07EB4616F5541EE0CD1701EB557525
:100E9000ED1005EB4505BA4E06EB4515ED5C0A462F
:100EA000CE1701EB5676F610A1EBC6070126BE4021
:100EB000B5430846CE1701EB5676F61006EB46060C
:100EC000AF4F07EB4616F55400BFB9E72DE9F041E7
:100ED00005460E46174698462C4606E042463946D9
:100EE0002046FFF7A8FF601CC4B2B442F6DDBDE89F
:100EF000F0812DE9F04180460D4616461F462C46EE
:100F000006E03A4621464046FFF795FF601CC4B212
:100F1000B442F6DDBDE8F0812DE9F047064688468B
:100F20004FF000090024B8F1000F29D09248007951
:100F300010B101280AD104E0924FDFF84C92082545
:100F400007E0924FDFF84892042502E00020BDE858
:100F5000F08700BF0DE007EB44010222304603F0AA
:100F6000FBF920B98548407904FB009903E0601C37
:100F700084B2AC42EFDB00BFAC421ADB0020E6E7F4
:100F80007D48007910B1012810D107E07B488178B5
:100F9000307820387F4A01FB002909E077488178C2
:100FA000307820387C4A01FB002901E00020CEE7A0
:100FB00000BF4846CBE72DE9FF4F81B08046894608
:100FC0000020824605460646DDE90301FFF7A4FF3F
:100FD000044614B905B0BDE8F08F049820B1674805
:100FE000C77890F804B003E06448077890F801B03F
:100FF00014F8010B0090002634E000252EE0CAF121
:101000000701012088400099084209D009EB060237
:10101000D1B208EB0502D0B20122FFF70CFF0CE0C1
:1010200055484079012808D109EB0602D1B208EBF6
:101030000502D0B20022FFF7FEFE0AF1010000F027
:10104000FF0ABAF1070F02DC681CB84204DB4FF05C
:10105000000A14F8010B0090681CC5B2BD42CEDB3B
:10106000701CC6B25E45C8DB00BFB3E72DE9F04790
:1010700007468846154600243E46C1461CE0285DCA
:1010800010F0800F0CD02A19012349463046FFF793
:1010900092FF3A48C078304486B2A01C84B20BE07C
:1010A0002A19002349463046FFF785FF3348007868
:1010B000304486B2601C84B2285D0028DFD1BDE8D0
:1010C000F0872DE9F04107460D460026002410E088
:1010D000A85D10F0800F06D02848C078204484B264
:1010E000B01C86B205E025480078204484B2701C0C
:1010F00086B2A85D0028EBD1602C01DB002405E05E
:10110000C4F1600000EBD071C1F34F042A463946A8
:101110002046FFF7ABFFBDE8F08170B504461749E4
:101120000979C1F1200000EBD071C1F34F052146D0
:101130002846FFF7C6FF70BD10B50446FFF752FE04
:101140002046FFF7EAFFFFF762FE10BD70B50546C7
:101150000E460A4800792021A1EB4000032190FBB4
:10116000F1F084B2FFF73EFE29462046FFF7A9FFC3
:101170000249097912E000001E000020180000203A
:1011800098120020164B0008264B0008865E0008C7
:101190008E5E000816450008864C000801EB4401ED
:1011A00088B23146FFF78DFFFFF731FE70BD0000BA
:1011B00008B501210D2003F063F80121042003F09C
:1011C0005FF80121124802F074FE03208DF802003E
:1011D00010208DF80300A020ADF8000069460D48EE
:1011E00002F098FD20210B4802F03FFE80210948C3
:1011F00002F03BFE4FF40040ADF80000694606489F
:1012000002F088FD4FF40041034802F02EFE08BDB5
:1012100000023000000C014000080140002033496A
:10122000088070477047704770477047704770B5C7
:10123000044610464FF080750560051F28462C6057
:101240006FF00106051F28462E604FF01236051F6D
:1012500028462E604FF00336051F28462E604FF0BB
:101260000236051F28462E607610051F28462E6080
:10127000051F284629604FF01136051F28462E60AD
:101280004FF01036051F28462E604FF00936051F17
:1012900028462E604FF00836051F28462E604FF076
:1012A0000736051F28462E604FF00636051F2846D4
:1012B0002E604FF00536051F28462E604FF004368D
:1012C000051F28462E6070BD7047704710B507484F
:1012D0000088401C0549088008460088642803D31C
:1012E0000020088002F0D2FB10BD704724000020CF
:1012F000EFF3108072B6704780F3108870471D4876
:101300004FF0FF010170002080F309881A48012185
:1013100001701A484FF08051016062B6FEE717482D
:101320004FF080510160704714484FF080510160C8
:10133000704772B6EFF3098028B1203880E8F00FCB
:101340000F490968086000B50E4880475DF804EB56
:101350000D480E490A78027009480D490A68026072
:10136000106890E8F00F203080F309884EF0040EEA
:1013700062B6704722ED00E04A00002004ED00E074
:1013800050000020C91200083F000020400000204B
:10139000580000200146002002E0491C421CD0B247
:1013A0000A78002AF9D170472DE9F04105460E462A
:1013B00014460027FA48007820B111202070002040
:1013C000BDE8F0812878012808D0022807D003283A
:1013D00002D0042804D100E000BF00BF00BF03E03A
:1013E000012020700020EBE700BFFFF781FF0746D8
:1013F000686930603068FFF7CDFF80463846FFF7F8
:101400007BFF002020704046DAE72DE9F0410546D9
:101410000E4614460027E248007818B112202070CA
:10142000BDE8F0812878012808D0022807D00328D9
:1014300002D0042804D100E000BF00BF00BF02E0DA
:1014400001202070ECE700BFFFF752FF07466E61F6
:101450003846FFF751FF0020207000BFE0E7F0B5ED
:10146000024612F8304F95785678A2F130020B46BA
:1014700018680FE000F10B073F5DB74300F10B0C5C
:101480000CF8047067463F5D17B9877AAF438772DF
:101490001B1D18680028EDD1F0BDC249C24A127860
:1014A000885CC249095CBF4A515C01EBC001C04A7B
:1014B0001170704710B50024FFF71AFF0446B848B2
:1014C0000078F8B9BB480078E0B9FFF7E6FFBA4802
:1014D000B749097850F82100B8490860B448007845
:1014E000B749097888420DD0B4480068406B401C69
:1014F000B24909684863B3480068401CB1490860B4
:10150000FFF70DFF2046FFF7F7FE10BD70B501464F
:101510000024AD4D2D68EC61AB4C246821620B4674
:1015200018681BE0A84C246894F8305000F10B04B4
:10153000645DA54D2D6895F831502C43A24D2D6862
:1015400095F8306000F10B05AC55847A9E4D2D68FE
:1015500095F832502C4384721B1D18680028E1D185
:10156000994C246894F83020904CA45C964D2D68DA
:1015700095F83150AC438D4DAC542C46A45C44B925
:10158000914C246894F83250874C2478AC43864DB3
:101590002C7070BD2DE9FF4F83B083460E46154673
:1015A000DDF84080002000903060D946D9F8004036
:1015B00018E02078062807D2DFE800F006040503CB
:1015C00007080AE009E008E000BF00BF012088F832
:1015D0000000002007B0BDE8F08F00BF09F104094A
:1015E000D9F80040002CE4D16D48007820B10220E9
:1015F00088F800000020EDE76E48007820B10D204B
:1016000088F800000020E5E7FFF772FE0090002058
:10161000029082460190D946D9F800405DE02078DA
:10162000062849D2DFE800F048172A03494A2089F2
:1016300060B12089401E208110C601200290002048
:1016400001C50AF101001FFA80FA03E0019840F099
:10165000010001903CE0606858B1606801C500205D
:10166000606010C6012002900AF101001FFA80FAA2
:1016700003E0019840F00200019029E06768F88AD1
:10168000A8B13969081D3861086801C5B9683869A9
:10169000884201D178683861F88A401EF88210C605
:1016A000012002900AF101001FFA80FA03E001987C
:1016B00040F0040001900BE000BF00BF0098FFF76E
:1016C0001BFE00203060012088F80000504681E7B2
:1016D00000BF09F10409D9F80040002C9FD10298FD
:1016E000012809D1002030600098FFF705FE002096
:1016F00088F8000050466DE73348006890F82C00E9
:10170000019941F0800108432F49096881F82C00B4
:1017100000202D49096881F82D002B490698096899
:1017200088625846FFF7F2FE0098FFF7E5FDFFF7E5
:10173000C1FEFFF7DDFD00902348006890F82D0002
:1017400020B101281BD0022818D100E000BF1E489C
:101750000068C4693CB110C6002030600AF1010085
:101760001FFA80FA09E001201749096881F82D0065
:10177000594615480068FFF772FE06E000BF59465B
:1017800011480068FFF76BFE00BF00BF0E480068FD
:1017900090F82D00D0B1012841D002283ED137E089
:1017A0003D000020AE5F0008410000204200002004
:1017B000400000203E0000200819002058000020B2
:1017C0003F0000202800002050000020207806283C
:1017D0000DD2DFE800F00C0607030D0E002001C556
:1017E00011E000BFFC480068406A01C50BE000BF83
:1017F00000BF0098FFF780FD00203060012088F8CE
:1018000000005046E6E600BF002088F800000CE02B
:10181000002001C50E2088F8000006E000BF00206F
:1018200001C50A2088F8000000BF00BF0020EA4977
:10183000096881F82C00E849096881F82D00E6491B
:101840000968C861E44909680862E34909684862AF
:101850000098FFF751FD5046BCE67CB5002514E02A
:101860006946284601F0D8FC064666B9DB4850F8C0
:10187000254044B1012C06D0D4E9020100EB8100DF
:10188000206401986064681CC5B23F2DE8D97CBD16
:10189000002400BF02E0C82001F0C8FDD048007855
:1018A0000028F8D0CF4800686421B0FBF1F0CD49A2
:1018B00008600846006828B90020CB490870FF205E
:1018C00001F0ECFC00BFFFF713FD0446C7480068B9
:1018D000C74908600020C54908602046FFF70CFD95
:1018E000C3480068BF490968B0FBF1F0C0F164006B
:1018F000BD490870FFF79AFCFFF7AFFF642001F0C5
:1019000095FDE0E700B587B0032000218022B94BA8
:10191000CDE90132CDE903104FF6FE703E23B64A01
:101920000090AFF2930001F08EFA06AAB3A13E2018
:1019300001F0F1FB07B000BD002400BF00BFFFF7BE
:10194000D7FC0446A9480068401CA8490860204606
:10195000FFF7D2FCFFF769FCF1E700B587B0032081
:1019600000218022A94BCDE90132CDE903104FF6C9
:10197000FF703F23A64A0090AFF2430001F063FAE4
:1019800006AAA4A13F2001F0C6FB07B000BD04E0F9
:10199000002200F8012B4A1E91B20029F8D17047AD
:1019A00070B5F0219F48FFF7F2FF002411E0601CA2
:1019B00085B204EB44009B4901EBC00305EB4500F5
:1019C00001EBC006002018705E6097A05861601C93
:1019D00084B2092CEBD304EB4400924901EBC00321
:1019E00000201870586090A0586108468F49086020
:1019F00070BD70B54FF4DC618D48FFF7C8FF4FF440
:101A000080717648FFF7C3FF00230FE0581CC5B272
:101A100003EB8300864901EB001405EB850001EB25
:101A20000016666180A0A064581CC3B2152BEDD3CC
:101A300003EB83007E4901EB0014002060617AA073
:101A4000A06400207B49086079487B49086070BD2C
:101A500000217A4A1170002004E00021784A1154D4
:101A6000411CC8B20828F8D30021764A1170764A82
:101A70001170764A1160584A11607047002074490D
:101A80000860744908707449087074490870744992
:101A90000870744908605549086055490860514903
:101AA00008604F490870704710B5FFF7B7FBFFF7A4
:101AB000E5FFFFF7CDFFFFF79CFFFFF771FF00F099
:101AC000A6FB00F0A8FEFFF748FFFFF71BFF02F0A0
:101AD00037F8FFF7A7FB10BD61480078012808D14F
:101AE0005C480078FF2804D25A480078401C5949C5
:101AF0000870704710B5002459480078012830D18B
:101B0000FFF7F6FB04465348007820B151480078AF
:101B1000401E504908704F480078F8B94E48007888
:101B2000E0B9FFF7BAFC2D484749097850F8210081
:101B300046490860444800784249097888420DD0F7
:101B400042480068406B401C40490968486345486A
:101B50000068401C43490860FFF7E6FB2046FFF79A
:101B6000CBFB10BD10B500243D480078012811D1F1
:101B7000FFF7BEFB04463748007840B93648007886
:101B8000FF2804D234480078401C334908702046AE
:101B9000FFF7B2FB10BD10B50024314800780128D2
:101BA0006DD1FFF7A5FB04462B48007880B12A4889
:101BB0000078401E284908700846007848B9254832
:101BC000007838B92046FFF797FBFFF773FC56E023
:101BD00052E04DE048E000005000002008190020CD
:101BE0003C00002034000020300000204C00002089
:101BF00038000020081500200417002075432F4FDF
:101C0000532D4949205374617400000008170020C7
:101C10000419002075432F4F532D49492049646C06
:101C200065000000181400203F0000002C00002078
:101C3000081A00205C000020540000204100002011
:101C4000420000203F0000204000002058000020FB
:101C50006C0000203D0000203E0000204B000020D2
:101C60004A000020280000202046FFF745FB06E040
:101C70002046FFF741FB02E02046FFF73DFB10BD89
:101C800010B5EF48007890B9FFF707FCED480078F1
:101C9000ED490870ED48EB49097850F82100EC490E
:101CA000086008460068EB490860FFF728FB10BD94
:101CB00010B50024022001F0B9FBFFF719FB044620
:101CC0000020E54908602046FFF716FB642001F07C
:101CD000ADFBFFF70DFB0446DF480068DF490860F5
:101CE0000120DF4908702046FFF706FB10BD70B5E4
:101CF0000026FFF7EBFAFFF7FBFA0646D948006823
:101D0000401CD84908603046FFF7F6FACC48007806
:101D1000012857D1D448007820B1012804D00228E6
:101D200009D103E001250BE0002509E00125012090
:101D3000CD49087004E001250020CB49087000BFA0
:101D400000BF05B970BDC948046837E0FFF7D0FA95
:101D50000646A06A70B3A06A401EA062A06A48BB93
:101D600094F82C0010F0370F09D014F82C0F00F065
:101D7000C800207001206070A4F12C0402E0002053
:101D800084F82D0094F82C0010F0080F12D104F103
:101D90003004A078B649097840EA0100B4490870D7
:101DA0002078B449085C617840EA010014F83019E1
:101DB000B04A505464693046FFF79EFA94F82E00FA
:101DC0003F28C3D100BFBDE740F2231070477047E2
:101DD00010B590F8302001F10B039B5C90F8314076
:101DE000A34301F10B04A35423469B5C23B98B7AD4
:101DF00090F83240A3438B7210BD2DE9F04F054699
:101E00000F4690469946A87A9B490E5C05F10B0057
:101E1000805D11F800B00BEBC60000F0FF0A8B48A4
:101E200050F82A40002004F1240460602760207AE2
:101E300020EA0800207284F80990207AA4F1240492
:101E400010F0080F0DD194F8320089490978084341
:101E5000874908708748805D94F8311008438549A8
:101E6000885529462046FFF7B3FF206A20B1204657
:101E7000216AFFF7F4FAE5615046BDE8F08F10B52E
:101E8000744A1268D061734A126892F8303000F1D7
:101E90000B02D25C6F4B1B6893F831301A436D4BC9
:101EA0001B6893F8304000F10B031A55827A694B96
:101EB0001B6893F832301A438272664A126892F8AD
:101EC00030106C4A525C634B1B6893F831309A4374
:101ED000684B5A541A46525C42B95E4A126892F8EC
:101EE0003230634A12789A43614B1A7010BD014632
:101EF00000228A72002005E0002301F10B02135436
:101F0000421CD0B20828F7D3704705E011F8013B16
:101F100000F8013B531E9AB2002AF7D170472DE911
:101F2000F84F05460F4690469946DDE90AAB00207A
:101F30000090FFF7DDF9009050480468002C7AD03B
:101F400054F8140F4D4908600098FFF7D5F944F88C
:101F5000147CA576002020766076606144F810BC81
:101F600044F808AC44F80C8C0C9824F8040C24F8C1
:101F7000029C0020E077E810207705F00700E0766B
:101F8000217F01208840A077E17E01208840607792
:101F90000020A060E06020612062A0626062E062D8
:101FA0002063AFF27C306063A4F114044FF00006AC
:101FB00006E0002104F14C0040F82610701CC6B267
:101FC000002EF6D02046FFF780F92046FFF72BF9C8
:101FD000FFF78EF900901D4840F82540234800681F
:101FE00060610020A0612148006810B11F480068AE
:101FF00084611E48046004F13004A0781C4909780B
:1020000040EA01001A49087020781A49085C617892
:1020100040EA010014F83019164A50541848007864
:1020200000F10100164908700098FFF765F90020DB
:10203000BDE8F88FFFE70098FFF75EF94220F7E769
:102040004A000020400000203F0000200819002026
:1020500058000020500000204C00002034000020D8
:102060003C0000206C000020600000205C0000208C
:102070004100002042000020AE5F00085400002014
:102080004B0000202DE9FC5F05460F4691469A461D
:1020900000200090FFF72CF900906F48046800685A
:1020A00020B16D48006840686B4908600098FFF7F0
:1020B00023F92CB95A208AF800000020BDE8FC9FC3
:1020C000A8462E46781E01904FF0000B05E04E44C6
:1020D000C8F80060B0460BF1010B01988345F6D3B8
:1020E0000020C8F80000256065602761E760C4F83B
:1020F00008908AF800002046E0E72DE9F041044608
:102100000D460027FFF7F4F80746206968B16668B6
:10211000306860602069401E20613846FFF7ECF8A7
:10212000002028703046BDE8F0813846FFF7E4F81B
:102130005D2028700020F6E72DE9F04106460C46A8
:10214000154600274548007820B11120287000204E
:10215000BDE8F081FFF7CCF8074670692060206881
:10216000FFF718F980463846FFF7C6F800202870B8
:102170004046EDE72DE9F04105460E46144600279E
:102180003648007818B112202070BDE8F081FFF7C2
:10219000AFF807466E613846FFF7AEF800202070B2
:1021A00000BFF2E770B504460D460026FFF7A0F821
:1021B0000646D4E90310884204D33046FFF79CF862
:1021C0005E2070BD6068286065602069401C2061E9
:1021D0003046FFF791F80020F3E770B505460C464E
:1021E0000026FFF785F8064628682060686860606A
:1021F000A868A060E868E060286920613046FFF7C1
:102200007BF8D4E90301401A6061002070BD70B50D
:1022100078211348FFF7BBFB00240EE004EB4400D9
:102220000F4901EBC005601C00EB400001EBC00052
:1022300068600CA06861601C84B2042CEED304EBCF
:102240004400074901EBC0050020686005A06861F3
:1022500008460149086070BD640000203D00002070
:10226000E82000203F0000002DE9F04106460D4621
:102270004FF000083078022804D001202870002098
:10228000BDE8F081FFF734F880467468E08A78B1E1
:102290002169081D20610F68E08A401EE082A16864
:1022A0002069884201D1606820610020287002E026
:1022B0001F20287000274046FFF71EF83846DFE74A
:1022C0002DE9F04106460F464FF00008F748007828
:1022D00010B10020BDE8F081FFF70AF88046F4480D
:1022E0000468006820B1F24800684068F04908605E
:1022F0004046FFF701F8FCB1FEF7FAFF8046ED48D3
:102300000568D5B100680068EA4908604046FEF7F4
:10231000F3FF6E6006EB8700A860EE602E61AF826F
:102320000020E88202202070002020816560E2A069
:1023300060612046FFF7DBFD08E0DD480068606073
:10234000DB4804604046FEF7D7FF00242046C1E783
:102350002DE9F0470446894615464FF0000A2078DB
:10236000022804D0012028702046BDE8F087CF481D
:10237000007818B10F2028702046F6E7FEF7B8FF66
:102380008246A07A10B14FF0010801E04FF000083A
:10239000B9F1000F03D0B9F1010F49D121E0B8F133
:1023A000000F17D1C4A060616668C2480068306041
:1023B000C048066000202070BD48006860600020B2
:1023C0002081BB4804605046FEF796FF002028702D
:1023D000002705E05046FEF78FFF4920287027466A
:1023E0002DE005E00023042219462046FFF705FDF5
:1023F000A07A0028F6D1B0A060616668AD48006898
:102400003060AC48066000202070A9480068606019
:1024100000202081A64804605046FEF76DFFB8F109
:10242000010F01D1FFF746F800202870002706E0D1
:102430005046FEF761FF07202870274600BF00BF07
:10244000384692E770B505460026FEF751FF06466E
:102450006C686068E060606820610020E08230465F
:10246000FEF74AFF002070BD2DE9F0470746884679
:1024700015464FF000093878022804D00120287052
:102480000020BDE8F0878948007818B10220287044
:102490000020F6E78948007818B10D202870002048
:1024A000EFE7FEF725FF81467C68E08A98B1216955
:1024B000081D20610E68E08A401EE082A168206944
:1024C000884201D1606820614846FEF715FF002070
:1024D00028703046D5E77A48006890F82C0040F024
:1024E00004007749096881F82C00002074490968C4
:1024F00081F82D0072480068C0F828803846FFF740
:10250000BEFC4846FEF7F8FEFEF7D4FFFEF7F0FEED
:1025100081466B48006890F82D0020B101280DD04D
:1025200002280AD105E066480068466A0020287043
:102530000DE000260E20287009E000BF39466048F3
:102540000068FFF745FC00260A20287000BF00BF86
:1025500000205B49096881F82C005949096881F815
:102560002D0057490968C8615549096808625449EE
:10257000096848624846FEF7BFFE304681E72DE90C
:10258000F04104460F4615464FF000082078022817
:1025900004D0012028700020BDE8F081FEF7A8FEDD
:1025A0008046A07A20B300267FB1012F0CD107E02E
:1025B0000223042200212046FFF71FFC701CC6B234
:1025C000A07A0028F4D109E000BF022304220021F0
:1025D0002046FFF712FC701CC6B200BF00BF404689
:1025E000FEF78AFEFEF766FF0E2028703046D3E71E
:1025F0004046FEF781FE0020287000BFCCE72DE9A1
:10260000F04105460E4600272878022802D0012016
:10261000BDE8F081FEF76CFE0746A87A60B10023A2
:10262000042231462846FFF7E8FB3846FEF764FEF1
:10263000FEF740FF0020EBE76C68E08AA18A884241
:1026400004DB3846FEF758FE1E20E1E7E168081D6E
:10265000E0600E60E08A401CE082D4E9021088420B
:1026600001D16068E0603846FEF746FE0020CFE703
:102670002DE9F04105460E4600272878022802D0B1
:102680000120BDE8F081FEF733FE0746A87AC8B105
:102690000023042231462846FFF7AFFB3846FEF7F9
:1026A0002BFEFEF707FF0020EBE700003D000020B7
:1026B0002C000020680000203F0000003E000020A9
:1026C000500000206C68E08AA18A884204DB38460A
:1026D000FEF712FE1E20D4E761682069884201D10E
:1026E000A06820612069001F206120690660E08ADF
:1026F000401CE0823846FEF7FFFD0020C1E72DE9CF
:10270000F04105460F4616464FF00008287802288B
:1027100002D00120BDE8F081FEF7EAFD8046A87AEC
:10272000E8B116F0010F0AD005E000230422394673
:102730002846FFF762FBA87A0028F6D105E00023BF
:10274000042239462846FFF758FB4046FEF7D4FDE1
:1027500016F0040F01D1FEF7ADFE0020DAE76C6839
:10276000E08AA18A884204DB4046FEF7C5FD1E20B0
:10277000D0E716F0020F0BD061682069884201D1C2
:10278000A06820612069001F20612069076009E0BE
:10279000E168081DE0600F60D4E90210884201D1B1
:1027A0006068E060E08A401CE0824046FEF7A4FDDD
:1027B0000020AFE72DE9F04705460C464FF0000A30
:1027C0002878022802D00120BDE8F087FEF790FDAE
:1027D0008246A87A207405F10B0804F10809002745
:1027E00005E018F8010B09F8010B781CC7B2082F97
:1027F000F7D36E68F08A18B130690068206001E094
:1028000000202060F08AA080B08AE0805046FEF769
:1028100073FD0020D8E72DE9F04160211048FFF753
:10282000B6F800240DE0601C86B204EB44000C49AD
:1028300001EBC00506EB460001EBC0072F60601CF2
:1028400084B2032CEFD304EB4400054901EBC0052F
:1028500000202860084603490860BDE8F0810000B8
:10286000602100206800002070B504460026207812
:10287000032801D0002070BDFEF73AFD06462589E9
:1028800015B12089401E20813046FEF735FD2846CF
:10289000F1E770B505460026D748007808B100205A
:1028A00070BDFEF725FD0646D4480468006820B1D7
:1028B000D24800684068D14908603046FEF71CFDE8
:1028C0004CB103202070258100206060CCA06061A5
:1028D0002046FFF70CFB2046E2E72DE9F0470446CF
:1028E000884615464FF000092078032804D00120BF
:1028F00028702046BDE8F087BF48007818B10F2047
:1029000028702046F6E7FEF7F3FC8146A07A08B16E
:10291000012700E00027B8F1000F03D0B8F1010F44
:102920003AD119E08FB9B6A0606100202070B34899
:102930000068606000202081B04804604846FEF7CF
:10294000DBFC00202870002605E04846FEF7D4FC9A
:1029500049202870264626E005E00023012219467A
:102960002046FFF74AFAA07A0028F6D1A4A06061B9
:1029700000202070A14800686060002020819F48EE
:1029800004604846FEF7B8FC012F01D1FEF792FD26
:1029900000202870002606E04846FEF7ADFC072020
:1029A0002870264600BF00BF3046A3E72DE9F0415E
:1029B00005460E46144600272878032803D0012038
:1029C0002070BDE8F0818C48007810B102202070A2
:1029D000F7E78C48007810B10D202070F1E7FEF782
:1029E00087FC0746288940B12889401E288138463F
:1029F000FEF782FC00202070E3E78348006890F82F
:102A00002C0040F001008049096881F82C0000206A
:102A10007D49096881F82D007B4800688662284658
:102A2000FFF72DFA3846FEF767FCFEF743FDFEF789
:102A30005FFC07467448006890F82D0020B101281B
:102A400009D0022806D102E0002020700BE00E2001
:102A5000207008E000BF29466B480068FFF7B8F90E
:102A60000A20207000BF00BF00206749096881F874
:102A70002C006549096881F82D0063490968C8611F
:102A80006149096808623846FEF736FC00BF98E7DE
:102A90002DE9F04104460F4615464FF00008207816
:102AA000032804D0012028700020BDE8F081FEF743
:102AB0001FFC8046A07A20B300267FB1012F0CD1E5
:102AC00007E00223012200212046FFF796F9701C3F
:102AD000C6B2A07A0028F4D109E000BF0223012287
:102AE00000212046FFF789F9701CC6B200BF00BF65
:102AF0004046FEF701FCFEF7DDFC0E202870304654
:102B0000D3E74046FEF7F8FB0020287000BFCCE773
:102B100070B5044600252078032801D0012070BD3F
:102B2000FEF7E6FB0546A07A60B1002301221946B4
:102B30002046FFF762F92846FEF7DEFBFEF7BAFCF7
:102B40000020ECE720894FF6FF71884207D22089E8
:102B5000401C20812846FEF7CFFB0020DFE72846F7
:102B6000FEF7CAFB3320DAE72DE9F04704460D46AD
:102B70004FF000092078032802D00120BDE8F0873B
:102B8000FEF7B6FB8146A07AA87204F10B0705F1A7
:102B90000208002605E017F8010B08F8010B701C6D
:102BA000C6B2082EF7D3208928804846FEF7A4FB3A
:102BB0000020E3E72DE9F04104460E4615460027C4
:102BC0002078032803D001202870BDE8F081FEF7AB
:102BD0008FFB074600202870208908B1268105E078
:102BE000A07A08B9268101E0492028703846FEF70E
:102BF00083FB00BFE9E700003D0000202C0000201F
:102C00003F0000003E000020500000202DE9F34F5F
:102C100085B0884600200190FEF76AFB0190FD48D0
:102C200050F8280030B10198FEF766FB282007B065
:102C3000BDE8F08F0598FF2804D1F748006890F8A8
:102C40002E000590F349059851F8205025B90198B8
:102C5000FEF752FB2920EAE7012D04D10198FEF787
:102C60004BFB4320E3E74FEAE80708F00700039037
:102C70000120B84000F0FF0901210398814001F0D4
:102C8000FF0A0021E34A059842F82010104640F858
:102C9000285095F8306095F83200029095F831B0E0
:102CA000DE48805D10EA0B0F1AD0DC48805D20EA18
:102CB0000B00DA4988550846805D28B9D848007865
:102CC00002998843D6490870D548007840EA09003F
:102CD000D3490870D148C05D40EA0A00CF49C855C1
:102CE000EC69D4B104F10B00805D20EA0B0004F123
:102CF0000B0188550846805D18B9A07A029988436F
:102D0000A072A07A40EA0900A07204F10B00C05D35
:102D100040EA0A0004F10B01C855286A30B3286A5A
:102D20000490049804681FE004F10B00805D20EA21
:102D30000B0004F10B0188550846805D18B9A07A94
:102D400002998843A072A07A40EA0900A07204F1B7
:102D50000B00C05D40EA0A0004F10B01C85504985D
:102D6000001D049004980468002CDDD185F82E80A5
:102D700085F83070039885F82F0085F8329085F833
:102D800031A00198FEF7B8FAA6480078012801D1D1
:102D9000FEF790FB00204AE72DE9FE4F06460F465E
:102DA00090461C464FF00009FEF7A2FA81469E4865
:102DB000007828B14846FEF79FFA3C20BDE8FE8F18
:102DC000944850F8240060BB0120924941F8240047
:102DD0004846FEF791FA0023424639463046FEF750
:102DE00026FA824600200090019003460246514692
:102DF00002902046FFF793F8054635B989480078D8
:102E000001280CD1FEF756FB09E0FEF771FA814666
:102E10000020804941F824004846FEF76DFA284614
:102E2000CCE74846FEF768FA2820C7E712F0010F02
:102E300008D012F0020F05D002E0491E002308C09E
:102E40000029FAD170472DE9F04F85B081468A46B6
:102E500093461C46DDE90F78129D00200390FEF793
:102E600047FA03907048007830B10398FEF744FAAF
:102E70003C2005B0BDE8F08F664850F8240088BBC0
:102E80000120644941F824000398FEF735FA2A46E8
:102E900041463846FFF7CAFF2B465A465146484638
:102EA000FEF7C5F904901198CDE9008002953A46E5
:102EB00020460E9B0499FFF732F8064636B959486A
:102EC000007801280CD1FEF7F5FA09E0FEF710FAB8
:102ED000039000204F4941F824000398FEF70CFAB4
:102EE0003046C6E7FFE70398FEF706FA2820C0E75A
:102EF00070B5054600264C48007808B1402070BDEA
:102F00003F2D01D13E20FAE7FEF7F2F90646FF2DEC
:102F100003D14148006890F82E503E4850F82540B3
:102F200024B93046FEF7E8F94320E8E7012C04D144
:102F30003046FEF7E1F93D20E1E714F8300F37495C
:102F4000085C617888432178344A505414F8300979
:102F50001146085C30B994F8321031480078884343
:102F60002F490870E06918B12046E169FEF730FF8B
:102F7000206A18B12046216AFEF771FA0020A0628B
:102F800084F82C0084F82D0028480078FF2804D20B
:102F900026480078401C254908703046FEF7ACF9F9
:102FA000FEF715FFFEF7A4F906462048007820B189
:102FB0001E480078401E1D4908702046FEF734F96F
:102FC0001B480078401E1A4908700020114941F83A
:102FD0002500A06930B900206169886115496069E0
:102FE000086005E0D4E905014861D4E9051088616D
:102FF0001148006860611048046010A0A064304669
:10300000FEF77AF907480078012801D1FEF752FA55
:10301000002074E708190020500000204200002022
:10302000410000204A0000203D0000203E0000201A
:103030004B0000205C000020540000203F000000F6
:103040002DE9F041044600273F2C02D13E20BDE887
:10305000F081FF2C0BD1FEF74BF90746ED480068D5
:1030600090F833603846FEF747F93046EFE7FEF751
:103070003FF90746E84850F8245025B93846FEF78E
:103080003BF94320E3E7012D04D13846FEF734F93C
:103090003D20DCE73F2085F833003846FEF72CF969
:1030A0000020D4E72DE9F04706460F4614464FF0BE
:1030B0000008DA48007820B1112020700020BDE817
:1030C000F087FEF715F98046FF2E03D1D14800683E
:1030D00090F82E60D04850F8265035B94046FEF79B
:1030E0000BF9432020700020E9E7012D06D140466E
:1030F000FEF702F9432020700020E0E7A86C38605A
:103100003868FEF747F981464046FEF7F5F800209B
:1031100020704846D3E72DE9F04106460F46144695
:103120004FF00008BD48007818B112202070BDE8AB
:10313000F081FEF7DDF88046FF2E03D1B548006828
:1031400090F82E60B44850F826502DB94046FEF74E
:10315000D3F843202070EAE7012D05D14046FEF761
:10316000CBF843202070E2E7AF644046FEF7C4F896
:103170000020207000BFDAE770B505460026FEF794
:10318000B7F80646A44850F8254024B93046FEF763
:10319000B3F8462070BD012C04D13046FEF7ACF8E0
:1031A0004320F7E794F82C0010F0080F2FD014F804
:1031B0002C0F00F0F700207014F82C0910BBA06A47
:1031C000E0B904F13004A0789549097840EA01009B
:1031D0009349087020789349085C617840EA0100BF
:1031E00014F830198F4A50543046FEF785F88E484F
:1031F0000078012809D1FEF75DF906E03046FEF7B8
:103200007BF802E03046FEF777F80020C2E7304650
:10321000FEF772F84420BDE72DE9F04707460D465A
:103220004FF0000A002028606860FEF761F88246CF
:10323000FF2F03D17748006890F82E70764850F839
:1032400027402CB95046FEF757F84320BDE8F087D9
:10325000012C04D15046FEF74FF84320F6E7207CBE
:1032600010F0010F04D15046FEF746F84520EDE777
:103270000026D4F80C90D4F808805046FEF73CF8AD
:1032800000E0761C58F8041B0029FAD0B000286032
:10329000A9EB0600800068600020D7E72DE9F04127
:1032A00005464FF00008FEF723F88046FF2D05D1B4
:1032B0005848006890F82E50012608E055480068EC
:1032C00090F82E00A84201D1012600E000265248C5
:1032D00050F825402CB94046FEF70EF84820BDE8CE
:1032E000F081012C04D14046FEF706F84320F6E7B2
:1032F00094F830704B48C05D94F8311088434949C8
:10330000C8550846C05D30B994F83210444800787A
:1033100088434349087094F82C0040F0080084F872
:103320002C004046FDF7E8FF012E01D1FEF7C2F860
:103330000020D4E72DE9F04105460E460027FDF7B1
:10334000D7FF0746FF2D03D13248006890F82E5072
:10335000314850F825402CB93846FDF7CDFF2920DB
:10336000BDE8F081012C04D13846FDF7C5FF4320AC
:10337000F6E7502221463046FEF7C7FD3846FDF7F6
:10338000BBFF0020ECE72DE9F04704460E46174648
:103390004FF00009FDF7ACFF8146FF2C02D11D481C
:1033A000056802E01C4850F8245005F14C0050F824
:1033B00026804846FDF7A0FF002038704046BDE853
:1033C000F0872DE9F04704460E46174698464FF021
:1033D0000009FDF78DFF8146FF2C02D10D480568DD
:1033E00002E00D4850F8245005F14C0040F82670DA
:1033F0004846FDF781FF002088F80000BDE8F0870F
:1034000010B504480068FDF770FFFF20FFF770FD5E
:1034100010BD000050000020081900203D000020D1
:1034200041000020420000204A00002070B50546FF
:1034300000266548007800B170BD6448007800B18E
:10344000FAE71DB3FDF754FF06466148006890F89F
:1034500030406048005D5E49096891F8311088434A
:103460005C4908550846005D40B95948006890F825
:10347000321059480078884357490870544800680A
:1034800085623046FDF738FFFEF714F800BFD3E73A
:103490002DE9F04105460E4617461C464A4800787D
:1034A00010B15520BDE8F0814848007808B13220BD
:1034B000F8E74FF47A7060434FF47A71B0FBF1F1A2
:1034C0004FF461606843C6EB061200EB820038449B
:1034D00000EB4002C2EBC01001EBC0084046FFF712
:1034E000A5FF0020DEE770B5054600263F2D01D37D
:1034F0002A2070BDFDF7FCFE0646384850F82540EE
:1035000024B93046FDF7F8FE4320F2E7012C04D140
:103510003046FDF7F1FE4320EBE7A06A20B93046C4
:10352000FDF7EAFE5020E4E70020A06294F82C00AA
:1035300010F0370F09D014F82C0F20F0370020704E
:1035400001206070A4F12C0402E0002084F82D001A
:1035500094F82C0010F0080F18D104F13004A07872
:103560001D49097840EA01001B4908702078194973
:10357000085C617840EA010014F83019154A50548B
:103580003046FDF7B9FEFDF795FF02E03046FDF746
:10359000B3FE0020ADE770B50025FDF7A9FE054696
:1035A0000F4804682846FDF7A7FE204670BD70B599
:1035B00004460025FDF79CFE0546094804602846A0
:1035C000FDF79AFE70BD00003D0000203E00002087
:1035D0005000002042000020410000200819002077
:1035E0006C000020FC48006808B900207047FA48C9
:1035F0000168F94AC86810600020C8600861F7488F
:103600000088401CF54A1080F5480088401EF44AA6
:1036100010800846EAE72DE9F05F06460F4690461F
:103620009946DDE90AAB0C9DEE48007820B18B206D
:1036300028700020BDE8F09FFEF794FAFFF7D2FF54
:1036400004462CB9FEF7A7FA862028700020F1E77F
:10365000012084F82500A661E76184F82480C4F87D
:103660000490C4F808A0C4F820B0FEF794FA002033
:1036700028702046DEE7002180F8251080F824100D
:10368000C161416141608160D7A101620021016196
:10369000D1490968C160D0490860D0490988491EEC
:1036A000CE4A1180CE490988491CCD4A1180704705
:1036B00030B5057D05F00704CC4D05EBC4031D684E
:1036C000854205D1C168196039B100250D6104E05A
:1036D0000169C268CA6002B11161012580F82550F4
:1036E0000025C56005619D886D1E9D8030BD70B54B
:1036F00005460C462878642803D0892020700020D5
:1037000070BDB848007818B18B2020700020F7E712
:10371000FEF728FA95F82500D8B101280FD0022825
:103720000ED003281BD12846FFF7C2FF2846FFF71B
:10373000A2FFFEF730FA002020700120E0E700BF72
:103740002846FFF798FFFEF726FA00202070012098
:10375000D6E7FEF720FA872020700020D0E7FEF79A
:103760001AFA8D2020700020CAE72DE9F0410546A5
:103770000E4614462878642804D089202070002042
:10378000BDE8F0819748007818B111202070002022
:10379000F6E7FEF7E7F995F8250098B1012804D07F
:1037A000022803D0032813D100BF00BF286A30606D
:1037B0003068FDF7EFFD0746FEF7EDF900202070B9
:1037C0003846DDE7FEF7E7F9872020700020D7E7CD
:1037D000FEF7E1F98D2020700020D1E770B5044696
:1037E0000D462078642803D089202870002070BD01
:1037F0007C48007818B18B2028700020F7E7FEF78E
:10380000B1F994F8250070B301280DD0022825D015
:1038100003282FD1764960690968461AFEF7BBF97B
:10382000002028703046E2E794F8240001280CD0EC
:10383000022809D1A06908B9E66900E0A669FEF787
:10384000AAF90020287006E000BFA669FEF7A3F9D8
:103850000020287000BF00BF3046C8E7FEF79BF984
:1038600000202870C3E7FFE7FEF795F9872028704E
:103870000020BCE7FEF78FF98D2028700020B6E706
:1038800070B505460C462878642803D0892020703E
:10389000002070BD5348007818B18B2020700020A4
:1038A000F7E7FEF75FF995F8256036B1012E05D0F0
:1038B000022E04D0032E06D102E000BF00BF00BFDD
:1038C0000020207002E08D20207000BF00BFFEF7B6
:1038D00062F93046DDE770B50B46032580F82550C8
:1038E000012B05D1424EC5693668354445610CE06F
:1038F00085692DB93E4EC56936683544456104E099
:103900003B4E8569366835444561057D05F0070401
:10391000364D05EBC4010D682DB908600025C56062
:1039200001258D8006E00A680860C26010618D88FC
:103930006D1C8D800025056170BD70B505460C4677
:103940002878642803D089202070002070BD254885
:10395000007818B18B2020700020F7E7FEF702F9FD
:1039600095F82500E8B1012810D002280FD00328CF
:103970001DD12846FFF79CFE00212846FFF7ABFF2C
:10398000FEF709F9002020700120DFE700BF0021C9
:103990002846FFF7A0FFFEF7FEF800202070012068
:1039A000D4E7FEF7F8F8872020700020CEE7FEF776
:1039B000F2F88D2020700020C8E72DE9F04105467F
:1039C0000F4690461C462878642813D08920207022
:1039D0000020BDE8F081000080000020720000207F
:1039E000700000203D0000203F0000004026002025
:1039F000740000207D48007818B18B2020700020D2
:103A0000E7E7FEF7AFF895F82500002832D0012847
:103A10002AD0022827D0032832D12846FFF748FEB3
:103A200000202070B7B1032F02D0042F13D108E07B
:103A30006E681EB12846A968B04701E08F2020704B
:103A40000CE06E681EB141462846B04701E08F2069
:103A5000207003E002E08420207000BF00BFFEF76A
:103A60009AF80120B5E700BFFEF795F88E20207088
:103A70000120AEE7FEF78FF8872020700020A8E72E
:103A8000FEF789F88D2020700020A2E710B5584875
:103A90000068FFF73DF80446204610BD08B500BF9A
:103AA00000BF6A46002152480068FEF77FFFFEF71C
:103AB00059F850480068401C4E4908600846007894
:103AC00000F007084C4800EBC8073C681AE0E668BD
:103AD000484960690968884213D12046FFF7E8FD2C
:103AE00094F82400022804D101212046FFF7F3FEB8
:103AF00002E0022084F82500656815B12046A1681F
:103B0000A8473446002CE2D1FEF745F8C9E700B5D6
:103B100087B0032000218022384BCDE90132CDE966
:103B200003104FF6FD703D23354A00903548FFF7EE
:103B30008AF906AA34A13D20FFF7EDFA07B000BDCF
:103B4000F8B54FF420713448FDF721FF40212A4891
:103B5000FDF71DFF002515E0681C86B205EB85000A
:103B60002D4901EBC00406EB860001EBC007642081
:103B70002070002084F82500E760AFF294102062E6
:103B8000681C85B20F2DE7D305EB8500224901EBB8
:103B9000C00464202070002084F82500E060AFF2AB
:103BA000B81020620020134908601C4908801020CA
:103BB0001B49088018481B4908600120FEF769FE70
:103BC000194908600020FEF764FE094908606A464A
:103BD00016A115480068FDF718FC6A4618A10448AC
:103BE0000068FDF712FCFFF792FFF8BD3D000020D2
:103BF0007C0000207400002040260020402400208B
:103C00003C2600209D3A000875432F4F532D49490B
:103C100020546D7200000000C021002072000020BE
:103C200070000020800000207800002075432F4F96
:103C3000532D494920546D724C6F636B0000000096
:103C400075432F4F532D494920546D725369676E48
:103C5000616C000010B50446CA48844208D10121B5
:103C6000042000F027FB0021042000F023FB46E0A5
:103C7000C548844208D10121082000F01BFB002127
:103C8000082000F017FB3AE0C048844208D1012127
:103C9000102000F00FFB0021102000F00BFB2EE0A5
:103CA000BB48844208D10121202000F003FB002101
:103CB000202000F0FFFA22E0B648844208D101211A
:103CC000402000F0F7FA0021402000F0F3FA16E05F
:103CD000B148844208D10121802000F0EBFA002194
:103CE000802000F0E7FA0AE0AC48844207D10121C5
:103CF000801500F0DFFA0021A01500F0DBFA10BDFE
:103D000010B50121084600F0D5FA0021012000F08D
:103D1000D1FA10BD2DE9F041024600250026002011
:103D200000230024002791F803C00CF00F0591F840
:103D300003C01CF0100F03D091F802C04CEA050537
:103D400091F800C0BCF1000F31D0146800202BE0C6
:103D50004FF0010C0CFA00F3B1F800C00CEA0306B6
:103D60009E4220D183004FF00F0C0CFA03F7BC43A6
:103D700005FA03FC4CEA040491F803C0BCF1280FD7
:103D800006D14FF0010C0CFA00FCC2F814C00AE096
:103D900091F803C0BCF1480F05D14FF0010C0CFAAB
:103DA00000FCC2F810C0401C0828D1D31460B1F840
:103DB00000C0BCF1FF0F34DD546800202EE000F19C
:103DC000080C4FF0010808FA0CF3B1F800C00CEA37
:103DD00003069E4221D183004FF00F0C0CFA03F72B
:103DE000BC4305FA03FC4CEA040491F803C0BCF19F
:103DF000280F05D100F1080C08FA0CF8C2F814805D
:103E000091F803C0BCF1480F07D100F1080C4FF046
:103E1000010808FA0CF8C2F81080401C0828CED31C
:103E20005460BDE8F0814FF6FF710180022181707E
:103E30000421C17070470246002093680B4201D0F4
:103E4000012000E0002070470146886880B270477A
:103E500002460020D3680B4201D0012000E0002080
:103E600070470146C86880B2704701617047416180
:103E700070470AB1016100E041617047C16070475D
:103E80004FF480320A438261816182618269826972
:103E9000704702460020424B18684FF68073184066
:103EA00040EA021008433E4B186070473D49C86124
:103EB0007047F0B50A46002300240021002500F0D9
:103EC0000046B6F1004F02D1354EF16901E0344EA3
:103ED0007168C0F3034583B200F44016B6F5401F85
:103EE00008D121F070612E4E766826F070662C4F56
:103EF0007E6012E000F48016B6F5801F06D103261E
:103F000006FA05F4A14341F0706106E0460D360162
:103F100003FA06F6B14341F0706122B1460D360155
:103F200003FA06F6314300F00046B6F1004F02D125
:103F30001B4EF16101E01A4E7160F0BD30B50022F8
:103F40008B071C0F0F2303FA04F2154B08338C1058
:103F500053F824309343124C08348D1044F8253024
:103F600023468C1053F824308C07240F00FA04F4F5
:103F700023430B4C08348D1044F8253030BD0A49DA
:103F80000860704700080140000C0140001001402B
:103F90000014014000180140001C014000200140B5
:103FA0000000014000002042DC002042DD480068A3
:103FB00040F00100DB49086008464068DA490840E3
:103FC000D849486008460068D8490840D549086083
:103FD0000846006820F4802008600846406820F405
:103FE000FE0048604FF41F0088607047CD490968A3
:103FF00021F48031CB4A11601146096821F48021F7
:104000001160B0F5803F03D0B0F5802F0ED106E0EF
:10401000C449096841F48031C24A116007E0C149CE
:10402000096841F4A021BF4A116000E000BF00BF51
:10403000704710B501460022002300204A11012AD2
:1040400002D1B84C236806E0022A02D1B54C236A9B
:1040500001E0B44C636A01F01F02012494401C4249
:1040600001D0012000E0002010BD38B500200090F4
:104070000024002500BF3120FFF7DBFF0546009834
:10408000401C00900098B0F5A06F01D0002DF2D038
:104090003120FFF7CEFF08B1012400E000242046C4
:1040A00038BD014600209F4A106820F0F80040EA21
:1040B000C100106070479E490860704702460020AA
:1040C000984B586820F47C1042EA01031843954B42
:1040D0005860704796490866704701460020914A2B
:1040E000506820F003000843506070478D484068D6
:1040F00000F00C007047014600208A4A506820F00A
:10410000F00008435060704701460020854A50681F
:1041100020F4E06008435060704701460020814A67
:10412000506820F4605040EAC1005060704729B1E7
:104130007C4A527A02437B4B5A7204E0794A527AA3
:104140008243784B5A7270477A490860704701463B
:104150000020744A506820F4404008435060704783
:104160000021754A11706F4A82F82010012802D090
:10417000042808D103E001216F4A117004E00521F1
:104180006D4A117000E000BF00BF70476B490860C6
:1041900070476449096A0143624A1162704767497E
:1041A00044390860704730B5002100220024002304
:1041B0005C4D6D6805F00C0121B1042905D008297A
:1041C00023D105E05E4D056022E05E4D05601FE0F5
:1041D000544D6D6805F47012524D6D6805F48034CD
:1041E000022505EB92421CB9574D554305600BE083
:1041F0004C4D6D6815F4003F03D0544D5543056098
:1042000002E0504D5543056002E04D4D056000BF92
:1042100000BF444D6D6805F0F00109094C4D6B5C21
:104220000568DD4045603F4D6D6805F4E061090AB1
:10423000474D6B5C4568DD4085603A4D6D6805F41F
:104240006051C90A424D6B5C4568DD40C560354D23
:104250006D6805F44041890B3E4D6B5CC568B5FB4C
:10426000F3F5056130BD29B12E4A526902432D4B49
:104270005A6104E02B4A526982432A4B5A617047C3
:1042800029B1284A92690243264B9A6104E0254AE3
:1042900092698243234B9A61704729B1214AD269BE
:1042A0000243204BDA6104E01E4AD26982431D4B6F
:1042B000DA61704729B11B4AD2680243194BDA60B0
:1042C00004E0184AD2688243164BDA60704729B17D
:1042D000144A12690243134B1A6104E0114A12692D
:1042E0008243104B1A617047144940390860704787
:1042F0000F49C86470470B49C87170470948406A44
:1043000040F0807007494862704701460020054A26
:1043100092680A4201D0012000E000207047014964
:1043200088727047001002400000FFF8FFFFF6FEA1
:1043300000004242D8004242201002408004424223
:1043400000127A00001BB70000093D00808D5B0061
:10435000840000209400002040EA010310B59B0770
:104360000FD1042A0DD310C808C9121F9C42F8D0DF
:1043700020BA19BA884201D9012010BD4FF0FF3090
:1043800010BD1AB1D30703D0521C07E0002010BDA6
:1043900010F8013B11F8014B1B1B07D110F8013B32
:1043A00011F8014B1B1B01D1921EF1D1184610BD13
:1043B0004FF000020429C0F0128010F0030C00F04E
:1043C0001E80CCF1040CBCF1020F18BF00F8012BC9
:1043D000A8BF20F8022BA1EB0C0100F010B85FEA97
:1043E000C17C24BF00F8012B00F8012B48BF00F866
:1043F000012B70477047704770474FF0000200B5BF
:10440000134694469646203922BFA0E80C50A0E8F7
:104410000C50B1F12001BFF4F7AF090728BFA0E8A5
:104420000C5048BF0CC05DF804EB890028BF40F871
:10443000042B08BF704748BF20F8022B11F0804FB3
:1044400018BF00F8012B7047754600F029F8AE46FA
:1044500005006946534620F00700854618B020B590
:10446000FBF7C2FEBDE820404FF000064FF000070A
:104470004FF000084FF0000B21F00701AC46ACE80C
:10448000C009ACE8C009ACE8C009ACE8C0098D4679
:1044900070470446AFF300802046FBF790FE000013
:1044A000004870478026002001491820ABBEFEE777
:1044B00026000200704720212223242526272829B0
:1044C0002A2B2C2D2E2F30313233343536373839D4
:1044D0003A3B3C3D3E3F40414243444546474849C4
:1044E0004A4B4C4D4E4F50515253545556575859B4
:1044F0005A5B5C5D5E5F60616263646566676869A4
:104500006A6B6C6D6E6F7071727374757677787993
:104510007A7B7C7D7E7F00000000000000000000B0
:10452000000000000000000000101010101010101B
:104530000000181800000012362448000000000097
:10454000000000000000000000242424FE48484829
:10455000FE484848000000001038545450301814E9
:1045600014545438101000000044A4A8A8A8541AE9
:104570002A2A2A44000000000030484848506EA40F
:1045800094888976000000606020C0000000000070
:1045900000000000000000020408081010101010B5
:1045A000100808040200004020101008080808083D
:1045B000081010204000000000001010D63838D637
:1045C0001010000000000000000010101010FE107D
:1045D00010101000000000000000000000000000AB
:1045E0000000606020C000000000000000007F00AC
:1045F00000000000000000000000000000000000BB
:1046000000006060000000000102020404080810BD
:104610001020204040000000001824424242424244
:1046200042422418000000000010701010101010FA
:104630001010107C00000000003C424242040408BC
:104640001020427E00000000003C42420418040298
:10465000024244380000000000040C1424244444A6
:104660007E04041E00000000007E404040586402AA
:104670000242443800000000001C244040586442BC
:104680004242241800000000007E44440808101034
:104690001010101000000000003C42424224182478
:1046A0004242423C00000000001824424242261AC6
:1046B000020224380000000000000000181800006A
:1046C00000001818000000000000000000100000AA
:1046D00000000010102000000002040810204020FC
:1046E000100804020000000000000000FE000000AE
:1046F000FE0000000000000000402010080402043A
:104700000810204000000000003C42426202040801
:1047100008001818000000000038445AAAAAAAAAE3
:10472000B442443800000000001010182828243C2F
:10473000444242E70000000000F844444478444208
:10474000424244F800000000003E424280808080E7
:10475000804244380000000000F844424242424295
:10476000424244F80000000000FC424848784848B3
:10477000404242FC0000000000FC424848784848A3
:10478000404040E000000000003C44448080808EB7
:10479000844444380000000000E7424242427E4226
:1047A000424242E700000000007C10101010101080
:1047B0001010107C00000000003E080808080808DF
:1047C0000808080888F0000000EE4448507050487F
:1047D000484444EE0000000000E0404040404040BB
:1047E000404042FE0000000000EE6C6C6C6C5454C3
:1047F000545454D60000000000C7626252524A4A24
:104800004A4646E2000000000038448282828282EA
:10481000828244380000000000FC424242427C4058
:10482000404040E0000000000038448282828282E2
:10483000B2CA4C380600000000FC4242427C4848A4
:10484000444442E300000000003E4242402018047D
:104850000242427C0000000000FE92101010101076
:10486000101010380000000000E74242424242426D
:104870004242423C0000000000E742424424242817
:10488000281810100000000000D692929292AAAA56
:104890006C4444440000000000E742242418181827
:1048A000242442E70000000000EE444428281010B1
:1048B0001010103800000000007E8404080810204A
:1048C000204242FC0000001E1010101010101010AA
:1048D000101010101E000000404020201010100882
:1048E00008040404020200780808080808080808F8
:1048F000080808087800001C2200000000000000E2
:1049000000000000000000000000000000000000A7
:104910000000000000FF0060100000000000000028
:10492000000000000000000000000000003C421EEB
:104930002242423F0000000000C040404058644214
:10494000424264580000000000000000001C2240A9
:104950004040221C0000000000060202021E22420B
:104960004242261B0000000000000000003C427E86
:104970004040423C00000000000F1110107E10105B
:104980001010107C0000000000000000003E4444B5
:1049900038403C42423C000000C04040405C624223
:1049A000424242E70000000000303000007010106A
:1049B0001010107C00000000000C0C00001C04040F
:1049C000040404044478000000C04040404E4850B5
:1049D000684844EE00000000007010101010101025
:1049E0001010107C000000000000000000FE49498B
:1049F000494949ED000000000000000000DC62426F
:104A0000424242E70000000000000000003C424239
:104A10004242423C000000000000000000D8644216
:104A20004242447840E0000000000000001E2242A4
:104A30004242221E020700000000000000EE322069
:104A4000202020F80000000000000000003E42404E
:104A50003C02427C0000000000000010107C10109E
:104A60001010100C000000000000000000C64242C0
:104A70004242463B000000000000000000E74224E4
:104A800024281010000000000000000000D79292BF
:104A9000AAAA44440000000000000000006E241890
:104AA00018182476000000000000000000E74224EF
:104AB0002428181010E0000000000000007E4408C8
:104AC0001010227E000000030404040404080404FF
:104AD0000404040403000808080808080808080873
:104AE00008080808080800601010101010081010BE
:104AF000101010106000304C430000000000000057
:104B000000000000000000000000000000000000A5
:104B1000000000000000D6F7BBFAC4A3CABDB4D39E
:104B2000B5E7D4B4C1F70200010001087FFC010021
:104B30000100010001103FF8010001000100010027
:104B40000104FFFE00001000101011F81110FD10FC
:104B500011103110391055105110911011101112FF
:104B60001212140E1800111011141FFE1110FD184E
:104B700013FC32083BF8560853F890401FFE1040D3
:104B800010B0110E1604008000A000900084FFFEFB
:104B9000008000803E8008800840084009200E22E6
:104BA0007012200A000400000820082008200820B5
:104BB00008200820085008500850145012882188F6
:104BC000210C420684040200020002107FF8421009
:104BD00042107FF0421042107FF0421002000204A7
:104BE000020401FC0000000447FE34201420844429
:104BF00065FE25040DFC150425FCE42024A829A647
:104C00002A2230A020400080404837FC104080908D
:104C1000610827FC080411502150E1502150215215
:104C20002152224E244020212223242526272829D0
:104C30002A2B2C2D2E2F303132333435363738395C
:104C40003A3B3C3D3E3F404142434445464748494C
:104C50004A4B4C4D4E4F505152535455565758593C
:104C60005A5B5C5D5E5F606162636465666768692C
:104C70006A6B6C6D6E6F707172737475767778791C
:104C80007A7B7C7D7E7F0000000000000000000039
:104C90000000000000000000000000000000000014
:104CA0000000000000000000000000000000000004
:104CB00000000000000000000000000000000700ED
:104CC00007000700070007000200020002000200C0
:104CD00002000200000000000000070007000700BB
:104CE00000000000000000000000066006600CC02C
:104CF00019801100220000000000000000000000E8
:104D000000000000000000000000000000000000A3
:104D10000000000000000000000000000000000093
:104D200010401040104010407FE07FE010401040E5
:104D3000208020807FE07FE02080208020802080F5
:104D4000000000000000000000000000020002005F
:104D50000F801AC032C032C032001A000E000700A5
:104D60000380038002C032C032C032C012800F0004
:104D7000020002000000000000000000000000002F
:104D800070C050808880890089008B008A005FC0D5
:104D9000754006200A200A201A201220114021C046
:104DA0000000000000000000000000000000000003
:104DB0001C00260026002600260025C038803080F2
:104DC00058804900CD00C700C600C300652038C028
:104DD0000000000000000000000030003800080063
:104DE000080010006000000000000000000000004B
:104DF00000000000000000000000000000000000B3
:104E000000000000000000000000002000400080C2
:104E100001800100030003000600060006000600F2
:104E20000600060006000300030001000180008068
:104E300000400020000000000000400020001000A2
:104E4000180008000C000C00060006000600060012
:104E50000600060006000C000C00080018001000F8
:104E600020004000000000000000000000000000E2
:104E7000000002000200020072703AE00F800F8012
:104E80003AE0727002000200020000000000000020
:104E90000000000000000000000000000000000012
:104EA00000000000020002000200020002007FF089
:104EB00002000200020002000200000000000000E8
:104EC00000000000000000000000000000000000E2
:104ED00000000000000000000000000000000000D2
:104EE0000000000000000000000030003800080052
:104EF000080010006000000000000000000000003A
:104F000000000000000000000000000000007FE042
:104F10000000000000000000000000000000000091
:104F20000000000000000000000000000000000081
:104F30000000000000000000000000000000000071
:104F400000000000000000000000380038003800B9
:104F50000000000000000000000000200060004091
:104F600000C0008000800100010002000200060075
:104F700004000400080008001000100030002000A9
:104F80006000400000000000000000000000000081
:104F90000F00198030C030C0606060606060606089
:104FA000606060606060606030C030C019800F0079
:104FB00000000000000000000000000000000000F1
:104FC000020006003E00060006000600060006007D
:104FD00006000600060006000600060006003FC0A8
:104FE00000000000000000000000000000000000C1
:104FF0001F00218040C060C060C000C001800180EF
:105000000300040008001040204040407FC07FC0E3
:105010000000000000000000000000000000000090
:105020001E002300618061806180018003000E000A
:105030000180008000C060C060C060C021801F008F
:1050400000000000000000000000000000000080E0
:105050000180038003800580098009801180218000
:10506000218041807FE0018001800180018007E094
:105070000000000000000000000000000000000030
:105080003FC03FC020002000200020002F003180C2
:1050900020C000C000C060C060C0418021801F00EF
:1050A0000000000000000000000000000000000000
:1050B000078018C030C0300020006000678068C0E2
:1050C00070606060606060602060304018C00F00F9
:1050D00000000000000000000000000000000000D0
:1050E0001FE03FE030402080208000800100010070
:1050F000020002000200060006000600060006008C
:10510000000000000000000000000000000000009F
:105110001F8030C060606060606070403CC00F0005
:10512000338020C0606060606060606030C00F806D
:10513000000000000000000000000000000000006F
:105140000F00308030C0604060606060606060E090
:1051500031601E60006000C000C0308031801E00E1
:10516000000000000000000000000000000000003F
:10517000000000000000000007000700070000001A
:10518000000000000000000000000700070007000A
:10519000000000000000000000000000000000000F
:1051A00000000000000000000000060006000000F3
:1051B00000000000000000000000000006000600E3
:1051C00002000400000000000000000000000020B9
:1051D00000400080010002000400080010002000D0
:1051E00010000800040002000100008000400020C0
:1051F00000000000000000000000000000000000AF
:10520000000000000000000000007FE0000000003F
:10521000000000007FE0000000000000000000002F
:10522000000000000000000000000000000020005E
:10523000100008000400020001000080004000206F
:10524000004000800100020004000800100020005F
:1052500000000000000000000000000000000F80BF
:1052600030C0406040606060606000C00180060047
:10527000040004000400000000000E000E000E00F8
:10528000000000000000000000000000000000001E
:1052900007801C601020335026D064906490689082
:1052A0006890699069A066C030103020184007806F
:1052B00000000000000000000000000000000000EE
:1052C000060006000E000B000B0013001180118079
:1052D00011801F8020C020C020C020606060F0F0DE
:1052E00000000000000000000000000000000000BE
:1052F000FF00618060C060C060C060C061807F00EE
:1053000060C06040606060606060606060C0FF803E
:10531000000000000000000000000000000000008D
:1053200007E018603020302020006000600060003E
:1053300060006000600060203020304018800F0066
:10534000000000000000000000000000000000005D
:10535000FE00618060C060C060606060606060602E
:10536000606060606060606060C060C06380FE001C
:10537000000000000000000000000000000000002D
:10538000FFC06040602060006000610061007F003D
:105390006100610060006000602060206040FFC02C
:1053A00000000000000000000000000000000000FD
:1053B000FFC060C0602060206000610061007F006D
:1053C0006100610060006000600060006000F0004B
:1053D00000000000000000000000000000000000CD
:1053E0000F4018C030403040200060006000600076
:1053F000600063F060C060C030C030C018C00F00F3
:10540000000000000000000000000000000000009C
:10541000F0F06060606060606060606060607FE0CD
:105420006060606060606060606060606060F0F05C
:10543000000000000000000000000000000000006C
:105440003FC0060006000600060006000600060033
:1054500006000600060006000600060006003FC023
:10546000000000000000000000000000000000003C
:105470000FF00180018001800180018001800180A6
:105480000180018001800180018001800180018014
:10549000618063003E00000000000000000000008A
:1054A000F3E0608061006200620064006C007C00D8
:1054B0007600670063006380618060C060E0F1F0A7
:1054C00000000000000000000000000000000000DC
:1054D000F00060006000600060006000600060003C
:1054E0006000600060006000602060206040FFC0DD
:1054F00000000000000000000000000000000000AC
:10550000F0F070E070E070E05960596059605960E7
:105510005A604E604E604E604E6044604460E4F0FD
:10552000000000000000000000000000000000007B
:10553000E07070207020582058204C2046204620D3
:105540004320432041A040E040E040604060E02034
:10555000000000000000000000000000000000004B
:105560000F00198030C03040606060606060606033
:105570006060606060606060304030C019800F0023
:10558000000000000000000000000000000000001B
:10559000FF8060C06060606060606060606060C08C
:1055A0007F80600060006000600060006000F000CC
:1055B00000000000000000000000000000000000EB
:1055C0000F00198030C030406060606060606060D3
:1055D0006060606060606E60324031C011800F803A
:1055E00001E000C00000000000000000000000001A
:1055F000FF8060C0606060606060606060C07F006D
:105600006600630063006180618060C060C0F0700C
:10561000000000000000000000000000000000008A
:105620001F2030E060206020600070003C000F0010
:1056300003C000C0006040604060606070C04F8088
:10564000000000000000000000000000000000005A
:105650007FE0462086108610060006000600060041
:1056600006000600060006000600060006000F0001
:10567000000000000000000000000000000000002A
:10568000F07060206020602060206020602060203A
:1056900060206020602060206020602030401F80FB
:1056A00000000000000000000000000000000000FA
:1056B000F8F0706030403040304030801880188002
:1056C000188018800D000D000D000F000600060068
:1056D00000000000000000000000000000000000CA
:1056E000F770662066206640664067403740374066
:1056F0003B803B803B803B803980110011001100D2
:105700000000000000000000000000000000000099
:1057100079E030C01880188019000D000E000600D6
:10572000060007000B000B801980118030C079E063
:105730000000000000000000000000000000000069
:10574000F8F0706030403080188018800D000D0037
:105750000E000600060006000600060006001F8078
:105760000000000000000000000000000000000039
:105770003FE020C041C00180038003000300060019
:1057800006000C000C0018001820382030407FC0A4
:105790000000000000000000000007E0040004001A
:1057A00004000400040004000400040004000400D9
:1057B00004000400040004000400040004000400C9
:1057C000040007E0000000000000000000002000CE
:1057D000100010001000080008000400040004007D
:1057E0000200020001000100010000800080004072
:1057F000004000400020000000003F0001000100C8
:105800000100010001000100010001000100010090
:105810000100010001000100010001000100010080
:1058200001003F0000000000000007000D80104054
:105830000000000000000000000000000000000068
:105840000000000000000000000000000000000058
:105850000000000000000000000000000000000048
:105860000000000000000000000000000000000038
:105870000000000000000000000000000000000028
:1058800000000000FFF0000000001800060000000B
:105890000000000000000000000000000000000008
:1058A00000000000000000000000000000000000F8
:1058B00000000000000000000000000000000000E8
:1058C000000000000000000000000F8030C030C069
:1058D00007C01CC030C060C060C060C071D03EF066
:1058E00000000000000000000000000000001000A8
:1058F0007000300030003000300033803CC0386031
:1059000030603060306030603060304038C02F80B0
:105910000000000000000000000000000000000087
:10592000000000000000000000000F003180318006
:1059300061806000600060006040304030800F0097
:105940000000000000000000000000000000004017
:1059500001C000C000C000C000C01EC031C030C0C7
:1059600060C060C060C060C060C020C031E01E8008
:105970000000000000000000000000000000000027
:1059800000000000000000000000078018C0106048
:1059900030603FE030003000300018201C400780AD
:1059A00000000000000000000000000000000000F7
:1059B00003C006600C600C000C007FC00C000C00E3
:1059C0000C000C000C000C000C000C000C003F80C4
:1059D00000000000000000000000000000000000C7
:1059E000000000000000000000000F70199030C09F
:1059F00030C030C019801F0030003E001FC0606002
:105A0000606070E01F8000000000000000001000D7
:105A100070003000300030003000378038C030C0B7
:105A200030C030C030C030C030C030C030C079E08D
:105A30000000000000000000000000000000000066
:105A4000060006000000000000003E000600060000
:105A500006000600060006000600060006003FC01D
:105A60000000000000000000000000000000000036
:105A7000018001800000000000000F800180018093
:105A8000018001800180018001800180018001800E
:105A9000018033003E000000000000000000100004
:105AA0007000300030003000300033C0310033006F
:105AB000320036003E003B0033003180318079E017
:105AC00000000000000000000000000000000200D4
:105AD0003E0006000600060006000600060006005E
