:020000040800F2
:10000000F0070020CD010008290C000809040008B1
:10001000250C0008D7020008A90D00080000000008
:100020000000000000000000000000004D0C00086F
:10003000DB02000800000000E3010008350D0008A5
:10004000E7010008E7010008E7010008E7010008F0
:10005000E7010008E7010008E7010008E7010008E0
:10006000E7010008E7010008E7010008E7010008D0
:10007000E7010008E7010008E7010008E7010008C0
:10008000E7010008E7010008E7010008E7010008B0
:10009000E7010008E7010008E7010008E7010008A0
:1000A000E7010008E7010008E7010008E701000890
:1000B000E7010008E7010008E7010008E701000880
:1000C000E7010008E7010008E7010008E701000870
:1000D000E7010008E7010008E7010008E701000860
:1000E000E7010008E7010008E7010008E701000850
:1000F000E7010008E7010008E7010008E701000840
:10010000E7010008E7010008E7010008E70100082F
:10011000E7010008E7010008E7010008E70100081F
:10012000E7010008E7010008E7010008E70100080F
:1001300000F002F800F03AF80AA090E8000C8244BF
:100140008344AAF10107DA4501D100F02FF8AFF29C
:10015000090EBAE80F0013F0010F18BFFB1A43F0A5
:1001600001031847E428000004290000103A24BFC6
:1001700078C878C1FAD8520724BF30C830C144BF0C
:1001800004680C607047000000230024002500264E
:10019000103A28BF78C1FBD8520728BF30C148BFEA
:1001A0000B6070471FB51FBD10B510BD00F05DF8A6
:1001B0001146FFF7F7FF00F0F9FD00F07BF803B4FC
:1001C000FFF7F2FF03BC00F07FF80000094880470A
:1001D00009480047FEE7FEE7FEE7FEE7FEE7FEE729
:1001E000FEE7FEE7FEE7FEE704480549054A064B41
:1001F00070470000490D000831010008F00100209F
:10020000F0070020F0030020F003002040EA010383
:1002100010B59B070FD1042A0DD310C808C9121FAF
:100220009C42F8D020BA19BA884201D9012010BDE9
:100230004FF0FF3010BD1AB1D30703D0521C07E0B6
:10024000002010BD10F8013B11F8014B1B1B07D11A
:1002500010F8013B11F8014B1B1B01D1921EF1D18B
:10026000184610BD704770477047754600F028F873
:10027000AE4605006946534620F00700854618B093
:1002800020B5FFF7B1FFBDE820404FF000064FF06A
:1002900000074FF000084FF0000B21F00701AC46BB
:1002A000ACE8C009ACE8C009ACE8C009ACE8C009DA
:1002B0008D4670470446AFF300802046FFF77FFF6E
:1002C000004870478C01002001491820ABBEFEE7B2
:1002D00026000200704700BFFEE770472DE9F0419D
:1002E000024600250026002000230024002791F864
:1002F00003C00CF00F0591F803C01CF0100F03D0E1
:1003000091F802C04CEA050591F800C0BCF1000F5D
:1003100031D0146800202BE04FF0010C0CFA00F3F0
:10032000B1F800C00CEA03069E4220D183004FF0D2
:100330000F0C0CFA03F7BC4305FA03FC4CEA040467
:1003400091F803C0BCF1280F06D14FF0010C0CFA54
:1003500000FCC2F814C00AE091F803C0BCF1480FD9
:1003600005D14FF0010C0CFA00FCC2F810C0401C83
:100370000828D1D31460B1F800C0BCF1FF0F34DD00
:10038000546800202EE000F1080C4FF0010808FA34
:100390000CF3B1F800C00CEA03069E4221D18300A1
:1003A0004FF00F0C0CFA03F7BC4305FA03FC4CEAC0
:1003B000040491F803C0BCF1280F05D100F1080C2A
:1003C00008FA0CF8C2F8148091F803C0BCF1480F89
:1003D00007D100F1080C4FF0010808FA0CF8C2F838
:1003E0001080401C0828CED35460BDE8F08102463E
:1003F000002093680B4201D0012000E000207047EC
:10040000416170470161704700BFFEE710B50446C7
:1004100001E000F090FC2000A4F10104F9D110BD2E
:1004200010B50620FFF7F2FF002411E04FF48071B1
:100430000948FFF7E5FF0620FFF7E8FF4FF480715A
:100440000548FFF7DFFF0620FFF7E0FF601CC4B29E
:10045000092CEBDB10BD0000000C014008B50121A8
:10046000082000F0E3FB03208DF8020014208DF833
:1004700003004FF48070ADF8000069460A48FFF7AA
:100480002DFF4FF40070ADF8000069460648FFF7F5
:1004900025FF4FF480710448FFF7B4FF4FF48071DB
:1004A0000148FFF7AFFF08BD000C014070B50446DE
:1004B00008250320FFF7AAFF22E04FF480711648B9
:1004C000FFF79EFF0320FFF7A1FF14F0800F05D078
:1004D0004FF400711048FFF795FF04E04FF40071EE
:1004E0000D48FFF78DFF6006040E0120FFF78EFF19
:1004F0004FF480710848FFF785FF0620FFF786FF5D
:100500002800A5F10101CDB2D7D14FF48071024886
:10051000FFF776FF70BD0000000C014010B503200E
:10052000FFF774FF4FF400711A48FFF76BFF4FF4A9
:1005300080711848FFF766FF0620FFF767FF4FF44A
:1005400000711448FFF753FF48B9FFF769FF4FF4F4
:1005500000711048FFF74BFF08B9002010BD4FF4A1
:1005600000710C48FFF74CFF0320FFF74FFF4FF4DB
:1005700000710848FFF73BFF08B10020EEE74FF499
:1005800080710448FFF73CFF0320FFF73FFF012085
:10059000E4E70000000C014010B50320FFF736FF30
:1005A0004FF480710F48FFF72BFF0320FFF72EFF5A
:1005B0004FF400710B48FFF723FF0320FFF726FFDE
:1005C0004FF480710748FFF71DFF0620FFF71EFF5D
:1005D0004FF400710348FFF715FF0320FFF716FFE4
:1005E00010BD0000000C014010B50320FFF70EFF06
:1005F0004FF480711448FFF703FF0320FFF706FF55
:100600004FF400711048FFF7FDFE0320FFF7FEFED8
:100610004FF480710C48FFF7F5FE0320FFF7F6FE5C
:100620004FF400710848FFF7E2FE30B14FF48071DB
:100630000548FFF7E5FE002010BD4FF48071024829
:10064000FFF7DEFE0120F7E7000C014070B506461B
:100650000C461546FFF762FF08B9002070BD05F093
:10066000FE00FFF723FFFFF7BFFF18B9FFF794FF66
:100670000020F3E7E0B2FFF719FFFFF7B5FF18B965
:10068000FFF78AFF0020E9E73046FFF70FFFFFF78B
:10069000ABFF18B9FFF780FF0020DFE7FFF77CFF13
:1006A0000A20FFF7B3FE0120D8E72DE9F041054607
:1006B0000E4617469846FFF731FF10B90020BDE8F7
:1006C000F08105F0FE00FFF7F1FEFFF78DFF18B98E
:1006D000FFF762FF0020F2E7F0B2FFF7E7FEFFF757
:1006E00083FF18B9FFF758FF0020E8E700240AE06D
:1006F000385DFFF7DBFEFFF777FF18B9FFF74CFF18
:100700000020DCE7641C4445F2D3FFF745FF0120DD
:10071000D5E7000010B500200EE0002108E000221F
:1007200000EB4003064C04EB43135A544A1CD1B26D
:100730006029F4DB421CD0B20428EEDB10BD0000BF
:100740000C00002010B500240DE02146002000F030
:100750001DFA04EB4401054A02EB4110602100F050
:1007600057FA601CC4B2042CEFDB10BD0C00002053
:100770002DE9F047064688464FF000090024B8F1FD
:10078000000F29D02248007910B101280AD104E0D5
:10079000204FDFF88490132507E0204FDFF880908A
:1007A000042502E00020BDE8F08700BF0DE007EB64
:1007B000440102223046FFF729FD20B9194840794B
:1007C00004FB009903E0601C84B2AC42EFDB00BF85
:1007D000AC421ADB0020E6E70D48007910B1012891
:1007E00010D107E00F488178307820380E4A01FB9D
:1007F000002909E00B488178307820380B4A01FB4A
:10080000002901E00020CEE700BF4846CBE700000A
:1008100006000020381400085E1400081E29000895
:100820002629000800000020380E00081E170008C6
:1008300070B5002415E004F1B001C8B200F0D8F999
:10084000002000F0D5F9102000F0D2F9002504E0D6
:10085000002000F0D5F9681CC5B2802DF8DB601CC3
:10086000C4B2082CE7DB70BD2DE9FF4F81B0804694
:1008700089460020824605460646DDE90301FFF76A
:1008800077FF044614B905B0BDE8F08F049820B195
:100890002348C77890F804B003E02148077890F81F
:1008A00001B014F8010B0090002634E000252EE082
:1008B000CAF10701012088400099084209D009EBDC
:1008C0000602D1B208EB0502D0B2012200F02CF8EA
:1008D0000CE014484079012808D109EB0602D1B296
:1008E00008EB0502D0B2002200F01EF80AF1010068
:1008F00000F0FF0ABAF1070F02DC681CB84204DB03
:100900004FF0000A14F8010B0090681CC5B2BD42FC
:10091000CEDB701CC6B25E45C8DB00BFB3E700008B
:100920000000002006000020F0B503461446602BAE
:1009300000DBF0BD202900DBFBE7FCB10846CD174A
:1009400001EB5575ED1005EB45051D4E06EB451504
:10095000ED5C0A46CE1701EB5676F610A1EBC60702
:100960000126BE403543CE1701EB5676F61006EB56
:100970004606134F07EB4616F5541EE0CD1701EB64
:100980005575ED1005EB45050D4E06EB4515ED5C77
:100990000A46CE1701EB5676F610A1EBC6070126E4
:1009A000BE40B5430846CE1701EB5676F61006EB6F
:1009B0004606034F07EB4616F55400BFB9E70000A3
:1009C0000C0000202DE9F047074688461546002414
:1009D0003E46C1461CE0285D10F0800F0CD02A195D
:1009E000012349463046FFF73FFF0C48C0783044AA
:1009F00086B2A01C84B20BE02A1900234946304677
:100A0000FFF732FF05480078304486B2601C84B29C
:100A1000285D0028DFD1BDE8F0870000000000203D
:100A20002DE9F04107460D460026002410E0A85DA0
:100A300010F0800F06D01048C078204484B2B01C5B
:100A400086B205E00C480078204484B2701C86B25F
:100A5000A85D0028EBD1602C01DB002405E0C4F187
:100A6000600000EBD071C1F34F042A46394620469E
:100A7000FFF7A8FFBDE8F0810000002010B5AE2010
:100A800000F0B6F808B9002010BD002000F0B0F862
:100A9000102000F0ADF8402000F0AAF8B02000F0DF
:100AA000A7F8812000F0A4F8452000F0A1F8A120CB
:100AB00000F09EF8C02000F09BF8A62000F098F807
:100AC000A82000F095F81F2000F092F8D32000F045
:100AD0008FF8002000F08CF8D52000F089F88020F5
:100AE00000F086F8D92000F083F8222000F080F88A
:100AF000DA2000F07DF8122000F07AF8DB2000F018
:100B000077F8202000F074F88D2000F071F81420A0
:100B100000F06EF8AF2000F06BF8FFF789FEFFF7EA
:100B2000F9FD002000F006F8012000F029F801206E
:100B3000AAE7000010490871097911B1012918D1FB
:100B40000AE008210D4A1170102151709170D17086
:100B50001171202151710CE00C21084A11701821EB
:100B60005170302191701821D1701171482151714B
:100B700000BF00BF704700000600002000000020FA
:100B800001494871704700000600002070B5044616
:100B90000D4605F1B001C8B200F02AF8102141EA73
:100BA000141000F025F804F00F0000F021F870BDDB
:100BB00070B505460E460D4800792021A1EB400096
:100BC000032190FBF1F084B2FFF7A4FD29462046F3
:100BD000FFF726FF0549097901EB440188B2314648
:100BE000FFF71EFFFFF7AEFD70BD00000000002004
:100BF00010B50446782200212046FFF727FD10BDDE
:100C000010B50446782240212046FFF71FFD10BD95
:100C100070B504460D462B46224640217820FFF74A
:100C200044FD70BD00BFFEE77047000029B1064AD1
:100C300092690243044B9A6104E0034A9269824339
:100C4000014B9A617047000000100240704710B5D8
:100C500000F002F810BD00000CB5002001900090DB
:100C60003248006840F480303049086000BF2F48A7
:100C7000006800F4003000900198401C019000983A
:100C800018B90198B0F5A06FF1D12848006810F4A8
:100C9000003F02D00120009001E000200090009869
:100CA000012842D12248006840F010002049086025
:100CB0000846006820F0030008600846006840F01D
:100CC00002000860194840681849486008464068B2
:100CD00048600846406840F48060486008464068C4
:100CE00020F47C1048600846406840F48810486052
:100CF0000846006840F08070086000BF0B4800683C
:100D000010F0007FFAD00948406820F0030007493E
:100D100048600846406840F00200486000BF034851
:100D2000406800F00C000828F9D10CBD001002400A
:100D30000020024070471E2000BF0100A0F1010208
:100D4000D0B2FAD17047000010B51348006840F0E7
:100D500001001149086008464068104908400E49E2
:100D60004860084600680E4908400B49086008467C
:100D7000006820F4802008600846406820F4FE00E7
:100D800048604FF41F008860FFF761FF4FF000607C
:100D90000449086010BD0000001002400000FFF888
:100DA000FFFFF6FE08ED00E000BFFEE7FFF756FB91
:100DB000FFF764FE03E002A104A0FFF7F9FEFAE7E3
:100DC000B0E6B1BEBAC556312E300000F6EFB3CC56
:100DD000B5E7D7D3000000002021222324252627B1
:100DE00028292A2B2C2D2E2F30313233343536370B
:100DF00038393A3B3C3D3E3F4041424344454647FB
:100E000048494A4B4C4D4E4F5051525354555657EA
:100E100058595A5B5C5D5E5F6061626364656667DA
:100E200068696A6B6C6D6E6F7071727374757677CA
:100E300078797A7B7C7D7E7F0000000000000000D6
:100E40000000000000000000000000101010101052
:100E5000101000001818000000123624480000008E
:100E60000000000000000000000000242424FE48D0
:100E70004848FE484848000000001038545450309C
:100E8000181414545438101000000044A4A8A8A842
:100E9000541A2A2A2A4400000000003048484850CA
:100EA0006EA494888976000000606020C000000075
:100EB00000000000000000000002040808101010EC
:100EC0001010100808040200004020101008080844
:100ED0000808081010204000000000001010D6384C
:100EE00038D6101000000000000000001010101094
:100EF000FE101010100000000000000000000000B4
:100F000000000000606020C0000000000000000041
:100F10007F00000000000000000000000000000052
:100F200000000000606000000000010202040408EC
:100F300008101020204040000000001824424242C7
:100F400042424242241800000000001070101010AD
:100F500010101010107C00000000003C42424204BF
:100F600004081020427E00000000003C42420418A9
:100F70000402024244380000000000040C1424243F
:100F800044447E04041E00000000007E404040589F
:100F900064020242443800000000001C2440405813
:100FA00064424242241800000000007E44440808C5
:100FB00010101010101000000000003C42424224AB
:100FC00018244242423C00000000001824424242E1
:100FD000261A020224380000000000000000181841
:100FE00000000000181800000000000000000010C1
:100FF0000000000000101020000000020408102073
:101000004020100804020000000000000000FE0064
:101010000000FE0000000000000000402010080456
:1010200002040810204000000000003C424262021E
:10103000040808001818000000000038445AAAAA42
:10104000AAAAB44244380000000000101018282852
:10105000243C444242E70000000000F84444447845
:101060004442424244F800000000003E4242808078
:101070008080804244380000000000F84442424230
:101080004242424244F80000000000FC42484878D6
:101090004848404242FC0000000000FC42484878BA
:1010A0004848404040E000000000003C444480804C
:1010B000808E844444380000000000E742424242EF
:1010C0007E42424242E700000000007C10101010F7
:1010D00010101010107C00000000003E08080808E6
:1010E00008080808080888F0000000EE444850701E
:1010F0005048484444EE0000000000E040404040BA
:101100004040404042FE0000000000EE6C6C6C6C01
:101110005454545454D60000000000C76262525226
:101120004A4A4A4646E20000000000384482828271
:101130008282828244380000000000FC4242424227
:101140007C40404040E00000000000384482828241
:101150008282B2CA4C380600000000FC4242427C47
:101160004848444442E300000000003E4242402020
:1011700018040242427C0000000000FE9210101091
:101180001010101010380000000000E742424242E8
:1011900042424242423C0000000000E742424424F6
:1011A0002428281810100000000000D69292929275
:1011B000AAAA6C4444440000000000E7422424181A
:1011C0001818242442E70000000000EE44442828B8
:1011D00010101010103800000000007E8404080871
:1011E0001020204242FC0000001E101010101010B1
:1011F0001010101010101E00000040402020101091
:101200001008080404040202007808080808080806
:101210000808080808087800001C220000000000E8
:1012200000000000000000000000000000000000BE
:1012300000000000000000FF00601000000000003F
:101240000000000000000000000000000000003C62
:10125000421E2242423F0000000000C04040405871
:101260006442424264580000000000000000001C7C
:1012700022404040221C0000000000060202021E24
:1012800022424242261B0000000000000000003CF9
:10129000427E4040423C00000000000F1110107ED2
:1012A00010101010107C0000000000000000003E34
:1012B000444438403C42423C000000C04040405C56
:1012C0006242424242E700000000003030000070FD
:1012D00010101010107C00000000000C0C00001C0E
:1012E0000404040404044478000000C04040404E5C
:1012F0004850684844EE00000000007010101010C4
:1013000010101010107C000000000000000000FE13
:101310004949494949ED000000000000000000DC97
:101320006242424242E70000000000000000003C30
:1013300042424242423C000000000000000000D84F
:1013400064424242447840E0000000000000001E79
:1013500022424242221E020700000000000000EE6E
:101360003220202020F80000000000000000003E95
:1013700042403C02427C0000000000000010107C53
:1013800010101010100C000000000000000000C63B
:1013900042424242463B000000000000000000E7DD
:1013A000422424281010000000000000000000D794
:1013B0009292AAAA44440000000000000000006EBF
:1013C000241818182476000000000000000000E730
:1013D00042242428181010E0000000000000007EC5
:1013E00044081010227E00000003040404040408D2
:1013F0000404040404040300080808080808080892
:1014000008080808080808080060101010101008E4
:101410001010101010106000304C4300000000004D
:1014200000000000000000000000000000000000BC
:101430000000000000000000F6EFB3CCB5E7D7D302
:10144000B0E6B1BEBAC50000000000000000000018
:10145000000000000000000000000000000020006C
:1014600021FC7D04450489FC7D04550455FC7C0069
:10147000551255D47D1801101D52E192410E0800FD
:101480001DFCF10411041104FDFC1000300039FEB4
:101490005420542091FC1020102013FE1000010055
:1014A000010001003FF82108210821083FF8210828
:1014B000210821083FF8210A0102010200FE000074
:1014C0007FF800100020004001800100FFFE0100B5
:1014D00001000100010001000100050002000808F0
:1014E000481C49E0490049007DFC4144414479449D
:1014F00049284928491049104A284A448C82010049
:101500000100010001007FFC038005400540092027
:10151000111021084FE481020100010001000000C8
:101520001FF01010101010101FF00000FFFE080038
:1015300010001FF000100010001000A0004000007C
:10154000000000000000000000000000000000009B
:10155000000000000000000000000000000000008B
:10156000000000000000000000000000000000007B
:10157000000000000000000000000000000000006B
:10158000000000000000000000000000000000005B
:10159000000000000000000000000000000000004B
:1015A000000000000000000000000000000000003B
:1015B000000000000000000000000000000000002B
:1015C000000000000000000000000000000000001B
:1015D000000000000000000000000000000000000B
:1015E00000000000000000000000000000000000FB
:1015F00000000000000000000000000000000000EB
:1016000000000000000000000000000000000000DA
:1016100000000000000000000000000000000000CA
:1016200000000000000000000000000000000000BA
:1016300000000000000000000000000000000000AA
:10164000000000000000000000000000000000009A
:10165000000000000000000000000000000000008A
:10166000000000000000000000000000000000007A
:10167000000000000000000000000000000000006A
:10168000000000000000000000000000000000005A
:10169000000000000000000000000000000000004A
:1016A000000000000000000000000000000000003A
:1016B00000000000000000000000000000002021E9
:1016C00022232425262728292A2B2C2D2E2F303182
:1016D00032333435363738393A3B3C3D3E3F404172
:1016E00042434445464748494A4B4C4D4E4F505162
:1016F00052535455565758595A5B5C5D5E5F606152
:1017000062636465666768696A6B6C6D6E6F707141
:1017100072737475767778797A7B7C7D7E7F000032
:1017200000000000000000000000000000000000B9
:1017300000000000000000000000000000000000A9
:101740000000000000000000000000000000000099
:101750000000000000000700070007000700070066
:10176000020002000200020002000200000000006D
:101770000000070007000700000000000000000054
:101780000000066006600CC01980110022000000F5
:101790000000000000000000000000000000000049
:1017A0000000000000000000000000000000000039
:1017B00000000000000000001040104010401040E9
:1017C0007FE07FE010401040208020807FE07FE0BD
:1017D0002080208020802080000000000000000089
:1017E00000000000020002000F801AC032C032C0A8
:1017F00032001A000E0007000380038002C032C0CE
:1018000032C032C012800F0002000200000000004F
:10181000000000000000000070C050808880890037
:1018200089008B008A005FC0754006200A200A20CC
:101830001A201220114021C000000000000000000A
:1018400000000000000000001C002600260026000A
:10185000260025C03880308058804900CD00C70060
:10186000C600C300652038C0000000000000000072
:101870000000300038000800080010006000000080
:101880000000000000000000000000000000000058
:101890000000000000000000000000000000000048
:1018A00000000020004000800180010003000300D0
:1018B00006000600060006000600060006000300FB
:1018C00003000100018000800040002000000000B3
:1018D0000000400020001000180008000C000C0060
:1018E00006000600060006000600060006000C00C2
:1018F0000C0008001800100020004000000000004C
:1019000000000000000000000000020002000200D1
:1019100072703AE00F800F803AE0727002000200AD
:1019200002000000000000000000000000000000B5
:1019300000000000000000000000000002000200A3
:101940000200020002007FF002000200020002001A
:101950000200000000000000000000000000000085
:101960000000000000000000000000000000000077
:101970000000000000000000000000000000000067
:10198000000030003800080008001000600000006F
:101990000000000000000000000000000000000047
:1019A0000000000000007FE00000000000000000D8
:1019B0000000000000000000000000000000000027
:1019C0000000000000000000000000000000000017
:1019D0000000000000000000000000000000000007
:1019E000000038003800380000000000000000004F
:1019F000000000200060004000C000800080010066
:101A000001000200020006000400040008000800B3
:101A100010001000300020006000400000000000B6
:101A200000000000000000000F00198030C030C02E
:101A300060606060606060606060606060606060A6
:101A400030C030C019800F0000000000000000000E
:101A50000000000000000000020006003E0006003A
:101A60000600060006000600060006000600060046
:101A70000600060006003FC0000000000000000055
:101A800000000000000000001F00218040C060C076
:101A900060C000C001800180030004000800104005
:101AA000204040407FC07FC00000000000000000D8
:101AB00000000000000000001E0023006180618023
:101AC0006180018003000E000180008000C060C0C2
:101AD00060C060C021801F00000000000000000006
:101AE000000000000000008001800380038005806A
:101AF0000980098011802180218041807FE0018060
:101B000001800180018007E000000000000000006B
:101B100000000000000000003FC03FC02000200087
:101B2000200020002F00318020C000C000C060C015
:101B300060C0418021801F00000000000000000004
:101B40000000000000000000078018C030C0300016
:101B500020006000678068C07060606060606060E6
:101B60002060304018C00F0000000000000000009E
:101B700000000000000000001FE03FE03040208037
:101B80002080008001000100020002000200060027
:101B9000060006000600060000000000000000002D
:101BA00000000000000000001F8030C06060606026
:101BB000606070403CC00F00338020C06060606097
:101BC0006060606030C00F80000000000000000016
:101BD00000000000000000000F00308030C06040B6
:101BE00060606060606060E031601E60006000C046
:101BF00000C0308031801E000000000000000000A6
:101C000000000000000000000000000000000000D4
:101C100007000700070000000000000000000000AF
:101C2000000007000700070000000000000000009F
:101C300000000000000000000000000000000000A4
:101C40000000060006000000000000000000000088
:101C50000000000006000600020004000000000072
:101C60000000000000000020004000800100020091
:101C7000040008001000200010000800040002000A
:101C80000100008000400020000000000000000073
:101C90000000000000000000000000000000000044
:101CA00000007FE000000000000000007FE0000076
:101CB0000000000000000000000000000000000024
:101CC00000000000000020001000080004000200D6
:101CD0000100008000400020004000800100020060
:101CE00004000800100020000000000000000000B8
:101CF0000000000000000F8030C040604060606065
:101D0000606000C0018006000400040004000000C0
:101D100000000E000E000E00000000000000000099
:101D2000000000000000000007801C6010203350FD
:101D300026D06490649068906890699069A066C0AD
:101D40003010302018400780000000000000000024
:101D50000000000000000000060006000E000B005E
:101D60000B0013001180118011801F8020C020C043
:101D700020C020606060F0F0000000000000000063
:101D80000000000000000000FF00618060C060C033
:101D900060C060C061807F0060C060406060606063
:101DA0006060606060C0FF80000000000000000014
:101DB000000000000000000007E018603020302024
:101DC0002000600060006000600060006000602033
:101DD0003020304018800F0000000000000000009C
:101DE0000000000000000000FE00618060C060C0D4
:101DF00060606060606060606060606060606060E3
:101E000060C060C06380FE000000000000000000B1
:101E10000000000000000000FFC060406020600083
:101E20006000610061007F0061006100600060008F
:101E3000602060206040FFC0000000000000000043
:101E40000000000000000000FFC060C060206020B3
:101E50006000610061007F0061006100600060005F
:101E6000600060006000F000000000000000000062
:101E700000000000000000000F4018C0304030405B
:101E80002000600060006000600063F060C060C01F
:101E900030C030C018C00F0000000000000000007B
:101EA0000000000000000000F0F060606060606012
:101EB0006060606060607FE0606060606060606083
:101EC000606060606060F0F00000000000000000F2
:101ED00000000000000000003FC0060006000600F1
:101EE00006000600060006000600060006000600C2
:101EF0000600060006003FC00000000000000000D1
:101F000000000000000000000FF00180018001804F
:101F100001800180018001800180018001800180B9
:101F20000180018001800180618063003E0000002B
:101F30000000000000000000F3E06080610062002B
:101F4000620064006C007C007600670063006380C0
:101F5000618060C060E0F1F000000000000000005F
:101F60000000000000000000F00060006000600061
:101F70006000600060006000600060006000600061
:101F8000602060206040FFC00000000000000000F2
:101F90000000000000000000F0F070E070E070E071
:101FA00059605960596059605A604E604E604E6089
:101FB0004E6044604460E4F0000000000000000057
:101FC0000000000000000000E07070207020582029
:101FD00058204C20462046204320432041A040E08A
:101FE00040E040604060E020000000000000000091
:101FF00000000000000000000F00198030C03040D9
:1020000060606060606060606060606060606060D0
:10201000304030C019800F000000000000000000B8
:102020000000000000000000FF8060C06060606091
:1020300060606060606060C07F8060006000600021
:10204000600060006000F000000000000000000080
:1020500000000000000000000F00198030C0304078
:1020600060606060606060606060606060606E6062
:10207000324031C011800F8001E000C0000000003C
:102080000000000000000000FF8060C06060606031
:102090006060606060C07F00660063006300618014
:1020A000618060C060C0F0700000000000000000AF
:1020B00000000000000000001F2030E060206020D1
:1020C000600070003C000F0003C000C00060406072
:1020D0004060606070C04F800000000000000000A1
:1020E00000000000000000007FE0462086108610FF
:1020F00006000600060006000600060006000600B0
:102100000600060006000F000000000000000000AE
:102110000000000000000000F070602060206020DF
:1021200060206020602060206020602060206020AF
:102130006020602030401F80000000000000000090
:102140000000000000000000F8F0706030403040F7
:102150003040308018801880188018800D000D00E5
:102160000D000F0006000600000000000000000047
:102170000000000000000000F77066206620664046
:1021800066406740374037403B803B803B803B8028
:102190003980110011001100000000000000000053
:1021A000000000000000000079E030C018801880B6
:1021B00019000D000E000600060007000B000B8042
:1021C0001980118030C079E000000000000000009C
:1021D0000000000000000000F8F070603040308027
:1021E000188018800D000D000E0006000600060085
:1021F0000600060006001F8000000000000000002E
:1022000000000000000000003FE020C041C001804D
:10221000038003000300060006000C000C001800F9
:102220001820382030407FC000000000000000006F
:10223000000007E00400040004000400040004009F
:10224000040004000400040004000400040004006E
:102250000400040004000400040007E00000000083
:102260000000000000002000100010001000080016
:102270000800040004000400020002000100010044
:10228000010000800080004000400040002000006D
:1022900000003F00010001000100010001000100F9
:1022A0000100010001000100010001000100010026
:1022B000010001000100010001003F0000000000DA
:1022C000000007000D80104000000000000000002A
:1022D00000000000000000000000000000000000FE
:1022E00000000000000000000000000000000000EE
:1022F00000000000000000000000000000000000DE
:1023000000000000000000000000000000000000CD
:10231000000000000000000000000000FFF00000CE
:10232000000018000600000000000000000000008F
:10233000000000000000000000000000000000009D
:10234000000000000000000000000000000000008D
:10235000000000000000000000000000000000007D
:1023600000000F8030C030C007C01CC030C060C04B
:1023700060C060C071D03EF00000000000000000AE
:10238000000000000000100070003000300030003D
:10239000300033803CC03860306030603060306086
:1023A0003060304038C02F80000000000000000086
:1023B000000000000000000000000000000000001D
:1023C00000000F003180318061806000600060009B
:1023D0006040304030800F0000000000000000002E
:1023E000000000000000004001C000C000C000C0AC
:1023F00000C01EC031C030C060C060C060C060C0DE
:1024000060C020C031E01E8000000000000000001D
:1024100000000000000000000000000000000000BC
:102420000000078018C0106030603FE030003000CE
:10243000300018201C400780000000000000000051
:10244000000000000000000003C006600C600C00EB
:102450000C007FC00C000C000C000C000C000C00E9
:102460000C000C000C003F80000000000000000089
:10247000000000000000000000000000000000005C
:1024800000000F70199030C030C030C019801F009C
:1024900030003E001FC06060606070E01F80000080
:1024A000000000000000100070003000300030001C
:1024B0003000378038C030C030C030C030C030C08D
:1024C00030C030C030C079E00000000000000000E3
:1024D00000000000000000000600060000000000F0
:1024E00000003E000600060006000600060006008A
:1024F0000600060006003FC00000000000000000CB
:1025000000000000000000000180018000000000C9
:1025100000000F8001800180018001800180018026
:102520000180018001800180018033003E000000B5
:10253000000000000000100070003000300030008B
:10254000300033C031003300320036003E003B0023
:1025500033003180318079E000000000000000008D
:1025600000000000000002003E0006000600060019
:10257000060006000600060006000600060006002B
:102580000600060006003FC000000000000000003A
:10259000000000000000000000000000000000003B
:1025A0000000EEE0776066606660666066606660A8
:1025B000666066606660F770000000000000000062
:1025C000000000000000000000000000000000000B
:1025D000000073803CC030C030C030C030C030C05C
:1025E00030C030C030C079E00000000000000000C2
:1025F00000000000000000000000000000000000DB
:1026000000000F00198030C0606060606060606032
:10261000606030C030C00F0000000000000000000B
:1026200000000000000000000000000000000000AA
:102630000000778038C030603060306030603060DB
:10264000306030C038C03780300030007C0000007F
:10265000000000000000000000000000000000007A
:1026600000001E4031C030C060C060C060C060C0AB
:1026700060C020C031C01EC000C000C003E0000028
:10268000000000000000000000000000000000004A
:102690000000F9E01A601C0018001800180018006B
:1026A000180018001800FF000000000000000000E3
:1026B000000000000000000000000000000000001A
:1026C00000000FE01860302030001C000F8001C0B7
:1026D0002060206030C03F8000000000000000004B
:1026E00000000000000000000000040004000C00D6
:1026F0000C007F800C000C000C000C000C000C0087
:102700000C000C400C40078000000000000000009E
:1027100000000000000000000000000000000000B9
:10272000104071C030C030C030C030C030C030C088
:1027300030C030C039E01E80000000000000000002
:102740000000000000000000000000000000000089
:1027500000007CF03860184018400C800C800C8021
:102760000700070007000200000000000000000052
:102770000000000000000000000000000000000059
:102780000000F7B0632063206720372035C039C0D0
:1027900039C039C010801080000000000000000027
:1027A0000000000000000000000000000000000029
:1027B00000007DE0188019800D000E000600070063
:1027C0000B00198011C07BE0000000000000000039
:1027D00000000000000000000000000000000000F9
:1027E00000007DE03880188018800D000D000D007D
:1027F0000600060002000400040028003800000063
:1028000000000000000000000000000000000000C8
:1028100000003FC0218023800300070006000E0057
:102820000C201C2018603FC00000000000000000C9
:10283000000000C001800100010001000100010052
:102840000100010003000400030001000100010079
:102850000100010001000100018000C00000020031
:102860000200020002000200020002000200020058
:102870000200020002000200020002000200020048
:10288000020002000200020002000200020000003A
:1028900000003000180008000800080008000800C8
:1028A000080008000C0002000C00080008000800E6
:1028B00008000800080008001800300000000000B0
:1028C000380024004210412000E000000000000019
:1028D00000000000000000000000000000000000F8
:1028E00000000000000000000000000000000000E8
:1028F00000000000000000000000000000000000D8
:1029000000000000000000000000000000000000C7
:102910000000000000000000000000000000B5C240
:10292000D6DDF6EFB3CC04020007038006030C0CDF
:10293000FFFE180600304418247FFC4764980664A4
:10294000980C64980C64981C7FF82C40102C0004A0
:102950004DFFFE0C02000C91100C9D8C0C99260C66
:1029600098260D98240D1FF00C0FE00800000200BF
:102970001003881C030E18030C18030C18030C1802
:10298000030C18138E18134D18136D98336CD873ED
:102990004CD8630C98030C18030C18060C18060C82
:1029A000180C0C180C0C18180C181008182000180B
:1029B0004000180000100800000E08180C0FFC1949
:1029C0000C181F8C18310C18224FF87FEC18A64CED
:1029D00018264C18264FF83FC040264870264C64F5
:1029E000264D663FCF6C204C70200C6001EC640FCC
:1029F0000D647C0E66301C7E00083C000000000068
:102A00000001901807DFFC1E181866181806181821
:102A1000061818069FF87FD0100E00000E000C1745
:102A20003FFE16818016C180264180260198461FF0
:102A3000FC06018006018006018006018C06FFFE6F
:102A40000600000400000000682A000800000020C2
:102A50000C0000006C010008742A00080C00002023
:102A6000E4070000880100080000000000000000EA
:042A70000000000062
:0400000508000131BD
:00000001FF
