:10000000022E4EE540C394105007120B63EF6001BF
:10001000221238E2EF600122C20A786DE6645C6069
:1000200004E6B42F05752D6E8017786EE6643A608D
:10003000030200EF18E6C3944350030200EF752D4E
:1000400070E547B40310900283E0FCA3E0FDA3E059
:10005000FEA3E0FF8005E4FFFEFDFC8F3D8E3C8D9E
:100060003B8C3AA82DE660030200F274FFF544F5DC
:1000700043F542F541E54764036057753D02900240
:1000800077E0FCA3E0FDA3E0FEA3E0FF900286E0A2
:10009000FBC3EF9BFFEE9400FEED9400FDEC94009B
:1000A000FC900277121026900285E0FEA3E0A830B3
:1000B000088005C333CE33CED8F9FFE48F448E4396
:1000C000F542F541AF22FCFDFE9002831210267529
:1000D0002280853D34853C33853B32853A31E4F5D9
:1000E0004EF54DF54CF54BF5357540127F412275B7
:1000F0002D6DA82DE6B4E5027605E53D700CE53AD8
:100100007008E53B7004E53C6038852235E53D2408
:10011000FEFFE53C34FFFEE53B34FFFDE53A34FFEE
:10012000FC90026EE0F8120FEE900277E0F8A3E088
:10013000F9A3E0FAA3E02FFFEA3EFEE93DFDE83C2B
:100140008024900286E0F535AF35CB900277E0FC55
:10015000A3E0FDA3E0FEA3E0C39BFFEE9400FEED51
:100160009400FDEC9400FC90027E121026E53570A0
:100170000302042212243FEF600122E4F53EF53F22
:10018000D390027CE0953F90027BE0953E500302C5
:1001900003FEE549253FF52FE548353EF52E852F31
:1001A00082F583E0FF700302044FEF64E570030201
:1001B00003F0BF05027FE5A82DE6FE6F6008EE6440
:1001C0002A60030203F0E4F539FFEFC3940B507883
:1001D000E52F2FF582E4352EF583E0FEAD39E52DD0
:1001E0002DF8EE66605DAD39E52D2DF8E66015ADB4
:1001F00039E52D2DF8E6645C600AAD39E52D2DF862
:10020000E6B42F1FEE6420703FEFC394085010E552
:100210002F2408F582E4352EF583E0642070297FD1
:100220000B8025AE39E52D2EF8E6B42E1BE539649A
:1002300008600EE52F2FF582E4352EF583E0B4201B
:10024000077F070F05398082EFC3940B5003020329
:1002500031E52F240BF582E4352EF583E030E303FE
:10026000020331C20BE52F241AFFE4352EFE123AA9
:1002700073E48F3D8E3CF53BF53AE547B40310E55A
:100280002F2414FFE4352EFE123A738E3A8F3BAFC3
:1002900039E52D2FF8E66006200B03020327853D84
:1002A00034853C33853B32853A31E4F54EF54DF5E6
:1002B0004CF54BF535E52F240BF582E4352EF5830F
:1002C000E030E41F74FFF544F543F542F5417D133A
:1002D0007F101238E6EF600122300B047F4380026A
:1002E0007F4122E52F241CFFE4352EFE1239FB8FBF
:1002F000448E438D428C41E53D7017E53A7013E51D
:100300003B700FE53C700B7535FFF544F543F54246
:10031000F5417D147F101238E6EF600122300B04A6
:100320007F4380027F0022E53904252DF52D020050
:10033000F2AF39E52D2FF8E6642A60030203F0E5F9
:100340002F240BF582E4352EF583E030E30302031E
:10035000F0E53904252DF8E67053E4FFF537E52F75
:100360002FF582E4352EF583E06420602FBF080A64
:10037000AE37E52D2EF8762E0537E52F2FF582E4E2
:10038000352EF583E0FEAD37E52D2DF8EEF6E53799
:100390007008A82DE6B4050276E505370FBF0BBE41
:1003A000AF37E52D2FF8E4F6D20B020265E53904EC
:1003B000252DF8E6F47032E544700CE5417008E54F
:1003C000427004E5436093E54130E703123AB3E538
:1003D0004424FFF544E54334FFF543E54234FFF59B
:1003E00042E54134FFF5418007E53904252DF81633
:1003F0007420253FF53FE4353EF53E020180900232
:100400007EE0FCA3E0FDA3E0FEA3E02401FFE43EC8
:10041000FEE43DFDE43CFC90027E12102615350200
:10042000016DE53D700CE53A7008E53B7004E53C74
:10043000601D7F3AE4FD121447EF600122200B0F8C
:1004400085363A85373B85383C85393D0200F2E4F4
:10045000FFE52D2FF8E6FE6013642A600FEE645C62
:100460006004EEB42F037FB3220F80E57F4222E5C4
:1004700040D3940240037540021229F9EF60012233
:10048000900288E060030205517F07123A8A8F3795
:10049000E53754F0FD7F07123A3E900282E0600497
:1004A0007DC080027D807F06123A3EE4FD7F0E1201
:1004B0003A3E7F01123673900282E06034B4020C3F
:1004C0007F03123A8AEF54F044028011900282E0D6
:1004D000B4030F7F03123A8AEF540F4420FD7F03C9
:1004E00080137F02123A8AEF54F04402FD7F0280AB
:1004F000047D817F06123A3E7F011236731235C0A9
:10050000EF60061235C0EF70057F19123673900246
:1005100082E0600A1236E07F0112367380077D8028
:100520007F06123A3E7DC07F06123A3E7538801231
:1005300036E07F021236737D1F7F09123A3EAD37D7
:100540007F07123A3E1229F9EF6054D538E17F82D5
:10055000227F0A123673123A35123A0B7D037F411D
:10056000123A3E0D0F123A3E122BD2E54A6010129B
:100570003A0B7D017F42123A3E122BD20207031240
:100580003A49E54A700C854982854883A3A3E03047
:10059000E4ED123A0B7D147F42123A3E122BD27FC9
:1005A00040123673E4FD7F08123A3E7C337D3A12E6
:1005B00039B5122BD2E54A70B67C337D427F0812E2
:1005C00039B5900282E0FF60082402FD7F42123AB2
:1005D0003E900288E0600E900287E0547F2410FD78
:1005E0007F42123A3E122BD2E54A70837F42123A82
:1005F0008AEFCD7F08123A3E7F0A1236737C337D34
:100600004A7F081239B5122BD2E54A60030207036C
:10061000854982854883A3A3E0FD7F46123A3EE4E4
:10062000FD0F123A3E122BD2E54A6003020703E5A2
:10063000492405F582E43548F583E0F537E549249A
:100640000EF582E43548F583E0FD6408706AE549FB
:10065000240FF582E43548F583E0B40605434520D0
:1006600080035345DFE549240BF582E43548F583E3
:10067000E0900265F0E4F538AF38EF75F007A42597
:1006800049FFE5F03548CF2414CF34008F82F5833D
:10069000E0F539A3A3E06440704DE53930E7085434
:1006A0000F4490F52B8008E539540F4410F52C05C4
:1006B00038E538B402C28034ED6409702A900288AB
:1006C000E070247C337D527F081239B5122BD2E5BD
:1006D0004A7030E4900287F0854982854883A3A35D
:1006E000E0900288F07005754A1F80177C337D5AB0
:1006F0007F081239B5AD377F42123A3E122BD2E550
:100700004A6045900287E0603C20E739854A37908F
:100710000288E0FF900287E0C39F5021E004F0F5DB
:10072000381229F98F39E5397003020551E539B4DA
:100730008203AF3922900287E538F080D285374AAC
:10074000E4900287F0AF4A22900288E0603690027F
:1007500087E07030900287E004F0123A0B7D037F4F
:1007600041123A3E7D080F123A3E122BD290028877
:10077000E0FF900287E0C39F40DAE4F07FC81236C2
:1007800073020479E54F54044408F54F7C337D62CD
:10079000122BC3E54A700B854982854883E0F53703
:1007A0008012E54AB42E0AE4FF1236AAE4F5378037
:1007B00003AF4A227F02123673E490027DF07D245B
:1007C0007F12123778122AEF8F39E5397023E53717
:1007D000601890027DE07012854982854883E0B4FC
:1007E000050890027D7401F080D47D037F020238F9
:1007F000E6E537600E90027DE0C394035005E00407
:10080000F080BB1234F722E568245CF8E605682224
:100810007859300702785CE475F001121134020F48
:10082000722000EB7F2ED2008018EF540F2490D45A
:100830003440D4FF30040BEF24BFB41A005003241B
:1008400061FFE56960021569056CE56C7002056B76
:1008500030070D7859E475F001121134EF020FB82A
:100860000238577403D2078003E4C207F5688B5936
:100870008A5A895BE4F569F56BF56CE56960077F79
:100880002012084280F5756AFFC201C200C202C28E
:1008900003C205C206C208120810FF700D3007051A
:1008A0007F00120853AF6CAE6B22B4255FC2D5C275
:1008B00004120810FF24D0B40A00501A75F00A7808
:1008C0006930D50508B6FF0106C6A426F620D50472
:1008D0007002D20380D924CFB41A00EF5004C2E5CD
:1008E000D204020A53D20180C6D20080C0D2028054
:1008F000BCD2D580BAD20580B47F20120842200233
:10090000077401B5690040F1120807FF120842029E
:10091000087BD208D2068095120807FB120807FA56
:10092000120807F94A4B700679247A0B7BFF2002E4
:100930002EE569602A7E008E82758300120F8B601F
:10094000060EEE656A70F0C2D5EBC0E0EAC0E0E9E1
:10095000C0E0EE120A9AD0E0F9D0E0FAD0E0FB1243
:100960000F72FF60AAEBC0E0EAC0E0E9C0E0120845
:1009700042D0E02401F9D0E03400FAD0E0FBE56A8F
:100980000460DCD56AD980877BFF7A0A7996D20227
:10099000809C791080027908C206C2088008D2D5EE
:1009A000790A8004790AC2D5E56A047002F56AE41E
:1009B000FAFDFEFF120807FC7B082001131208074E
:1009C000FD7B1030000A120807FE120807FF7B208B
:1009D000EC3382D592D55013C3E43000069FFFE478
:1009E0009EFEE42001039DFDE49CFCE4CBF8C201E3
:1009F000EC700CCFCECDCCE824F8F870F38017C3A0
:100A0000EF33FFEE33FEED33FDEC33FCEB33FB99BC
:100A10004002FB0FD8E9EB300105F8D0E0C448B242
:100A200001C0E00AEC4D4E4F78207B0070C2EAB561
:100A30006A0040BCC0E0120A9CD0F0D0E020010463
:100A4000C4C0E0C4B201C0F012082BD0F0D5F0EB66
:100A500002087B12114409185309925808E94C08FE
:100A6000E54209964F099E44099E4908FE4309A4A0
:100A7000550988460988450988470B445008ED2DDB
:100A800008F12E09142B08F5230912200B2D2A0832
:100A9000AD480000090C3F3F3F00790AA2D5200372
:100AA00014300509B910020404B9080104A2D520C4
:100AB00006025001042002689202B569005034C059
:100AC000E07F203003197F30A20272067205500FBA
:100AD000120AF3C202C206C205C2087F30800F307C
:100AE0000503E9C0E0120842300503D0E0F9D0E088
:100AF000B569CC3005177F30B9100C1208427F5809
:100B00003004077F788003B90803120842300205D9
:100B10007F2D0208427F202008F87F2B2006F32239
:100B2000920280CF286E756C6C2900D201120807E2
:100B30003001F8C201786930D50108F60208AD2D00
:100B4000504349581208072403B405004001E490BB
:100B50000B3F93120833743A120833D203756904B9
:100B6000020992E540C39403500A12046FEF60013A
:100B700022122F62123A7DE4F52EE4F526F525F5D2
:100B800024F523122451EF600D123638122F621211
:100B90002451EF600122E52E700D8549828548833E
:100BA000E054FD64E96053E4FDED64406049E549CB
:100BB00024BEFFE5483401FEED7A002FFFEA3EF542
:100BC00083EF2404F582E43583F583E06023E5496F
:100BD00024BEFFE5483401FEED2FFFEA3ECF240896
:100BE000CF3400FE1239FB8F268E258D248C238076
:100BF0000974102DFD80B27F9222AF26AE25AD2460
:100C0000AC23900266121026122451EF6001228557
:100C10004982854883E054FD64E960037FA122E5B1
:100C200049240DF582E43548F583E0F522F5479037
:100C3000026E7406F0E54720E611E54725E0F5472A
:100C400090026EE014F070ED752201E54924161251
:100C50003A6E90026CEEF0A3EFF04E702CE5492452
:100C6000241239F68F348E338D328C31E4FBFA79CD
:100C700001F8D3120FCA5007E52E60037FA222901D
:100C8000026CE533F0A3E534F0E5492414F582E481
:100C90003548F583E0FFE5492413F582E43548F54E
:100CA00083E04F6012E5492413123A6EE48F3D8EC3
:100CB0003CF53BF53A800FE54924201239F68F3D8B
:100CC0008E3C8D3B8C3AE5492411123A6ECCEECC29
:100CD000CDEFCD90027BE0FEA3E07805CEC313CE2E
:100CE00013D8F9147E002DFFEE3CFEE53024FBFD09
:100CF000EFC8EDC8088005CEC313CE13D8F9FFE4C2
:100D0000FCFD900283121026E549240E123A6E8EE5
:100D10003E8F3F90026DE0253FFF90026CE0353E34
:100D2000FEE4FCFD900283E0F8A3E0F9A3E0FAA35F
:100D3000E02FF534EA3EF533ED39F532EC38F53194
:100D4000E5492410F582E43548F583E0D394014069
:100D50001E90026CE0FEA3E0FFE5342FF534E5338E
:100D60003EF533ED3532F532EC3531F5318007E4BF
:100D700090026CF0A3F0C3E53D9534FFE53C95335C
:100D8000FEE53B9532FDE53A9531FC90026EE0F8C8
:100D9000120FDB900273121026E47BF57AFFF9F84C
:100DA000D3120FCA401FE490026AF0A3F0900275BC
:100DB000E0FEA3E094F5EE940F5005754701802402
:100DC000754702801FE5492430123A6E90026AEEA0
:100DD000F0A3EFF0E549242C1239F69002831210AB
:100DE00026754703E53F453E604E900283E0FCA335
:100DF000E0FDA3E0FEA3E0FFEC4D4E4F603AE54975
:100E00002410F582E43548F583E0D39401400A903C
:100E1000026CE07002A3E0601FE549240BF582E458
:100E20003548F583E07011E549240CF582E4354836
:100E3000F583E0C39402500AE52E7006752E010278
:100E40000B7AE53F2526FFE53E3525FEE43524FDFA
:100E5000E43523FC90026F121026E5342526FFE5C9
:100E6000333525FEE5323524FDE5313523FC90028E
:100E7000771210267D107F031238E622E709F60864
:100E8000DFFA8046E709F208DFFA803E88828C8329
:100E9000E709F0A3DFFA8032E309F608DFFA807889
:100EA000E309F208DFFA807088828C83E309F0A3FB
:100EB000DFFA806489828A83E0A3F608DFFA80582B
:100EC00089828A83E0A3F208DFFA804C80D280FA1C
:100ED00080C680D4806980F28033801080A680EA4A
:100EE000809A80A880DA80E280CA803389828A83EF
:100EF000ECFAE493A3C8C582C8CCC583CCF0A3C8E0
:100F0000C582C8CCC583CCDFE9DEE7800D89828A43
:100F100083E493A3F608DFF9ECFAA9F0EDFB22894C
:100F2000828A83ECFAE0A3C8C582C8CCC583CCF022
:100F3000A3C8C582C8CCC583CCDFEADEE880DB89E4
:100F4000828A83E493A3F208DFF980CC88F0EF6013
:100F5000010E4E60C388F0ED2402B4040050B9F5D0
:100F600082EB2402B4040050AF2323458223900E69
:100F7000CC73BB010689828A83E0225002E722BB40
:100F8000FE02E32289828A83E49322BB010CE5827C
:100F900029F582E5833AF583E0225006E92582F8B7
:100FA000E622BBFE06E92582F8E222E58229F582E7
:100FB000E5833AF583E49322BB010689828A83F0B4
:100FC000225002F722BBFE01F322EB9FF5F0EA9ECE
:100FD00042F0E99D42F0E89C45F022E8600FECC346
:100FE00013FCED13FDEE13FEEF13FFD8F122E860C2
:100FF0000FEFC333FFEE33FEED33FDEC33FCD8F1DE
:1010000022E6FC08E6FD08E6FE08E6FF22E6FB080D
:10101000E6F908E6FA08E6CBF822ECF608EDF60861
:10102000EEF608EFF622ECF0A3EDF0A3EEF0A3EF5E
:10103000F022D083D082E493F608740193F608740A
:101040000293F608740393F6740473E709F60870C4
:10105000FA8046E709F20870FA803E88828C83E7BE
:1010600009F0A370FA807EE309F60870FA8076E34F
:1010700009F20870FA806E88828C83E309F0A3700D
:10108000FA806289828A83E0A3F60870FA80568922
:10109000828A83E0A3F20870FA804A80D280FA80C4
:1010A000C680D4806580F28031801080A680EA807E
:1010B0009A80A880DA80E280CA803189828A83ECB3
:1010C000FAE493A3C8C582C8CCC583CCF0A3C8C535
:1010D00082C8CCC583CC70E9800D89828A83E49371
:1010E000A3F60870F9ECFAA9F0EDFB2289828A8355
:1010F000ECFAE0A3C8C582C8CCC583CCF0A3C8C5B0
:1011000082C8CCC583CC70EA80DD89828A83E4936F
:10111000A3F20870F980CE88F0ED2402B4040050E8
:10112000C4F582EB2402B4040050BA232345822381
:1011300090109B73FAE6FB0808E6F925F0F618E62E
:10114000CA3AF622D083D082F8E4937012740193E5
:10115000700DA3A393F8740193F5828883E47374EC
:1011600002936860EFA3A3A380DF8F527BFF7A17FF
:101170007922755C008F5D120869AF52122EDAE495
:10118000F553F554AF521227E6EF600CE4F5530522
:1011900054E554D39464500E7F011236730553E521
:1011A00053C3946440DEE5536017AF521233827B21
:1011B000FF7A17793C755C0085525D1208697F00E3
:1011C00022E55225E025E0245BF582E43402F58334
:1011D000E0FF1235517BFF7A177968755C00855204
:1011E0005D1208691234B08F54E554641460030230
:1011F000141EF553901994E493FFE553C39F501EBA
:101200007BFF7A17798174082553F582E43402F55F
:1012100083E0755C00F55D120869055380D67BFF9D
:101220007A17798912086990020CE0F5569019A096
:10123000E4932552FF1237A98F54E55464146003D8
:1012400002141E9019A0932552FFE55225E025E0D7
:10125000245AF582E43402F583EFF07BFF7A1779A4
:101260008B120869122DC18F54E554641460030277
:10127000141E90020DE0F555E4F55390020AE0FFCC
:10128000E553C39F501E7BFF7A177981740825535D
:10129000F582E43402F583E0755C00F55D120869BF
:1012A000055380D77BFF7A17798912086990021657
:1012B000E0F557E5567040E5576408703AE540C3DD
:1012C000940340097BFF7A17799C120869754001E5
:1012D0001235FD8F54E554600302141EE55225E0DB
:1012E00025E02459F582E43402F5837403F07BFF92
:1012F0007A1779C10213B2E556702DE5576407706D
:1013000027900217E06401701FAF5512391F8F54E8
:10131000E5546414600302141E12353D7BFF7A17F6
:1013200079D11208697F7022E556704EE557640343
:101330007048900217E0D39401503FAF5512391F07
:101340008F54E5546414600302141E12353D90025C
:1013500018E0F554E554B4010C7BFF7A1779E212DA
:1013600008697F3122E5546402600302141E7BFF8A
:101370007A1779F61208697F3222E556640960030C
:1013800002140CE540D3940250661235FD8F54E5EB
:101390005470257F08123A8AE55225E025E0245A48
:1013A000F582E43402F583EFF012353D7BFF7A18C5
:1013B00079071208697F8022754001E55225E025F2
:1013C000E0245AF582E43402F583E0FF1237A98F56
:1013D00054E554B41405122DC18F54E554641460BF
:1013E0000F7BFF7A187928755C0085545D120869B7
:1013F000AF5512391F8F54E5546414702112353DD6
:101400007BFF7A1879501208697F9022AF55123904
:101410001F8F54E554B4140612353D7FFF227BFF25
:101420007A18795F755C0085545D120869E552256C
:10143000E025E02459F582E43402F5837402F07F5C
:10144000011235517F00228D55EFC8E547B40207E0
:1014500012100178018008B40312121001780212F0
:101460000FEE8F598E588D578C56802B1210018E8F
:10147000568F57EF30E00543451080035345EFE5A5
:1014800056C313FEE557132557FFE5563EFEE48F7E
:10149000598E58F557F55690027CE024FFFD9002D6
:1014A0007BE034FF5EFEED5F2549F52FEE3548F514
:1014B0002EAF59AE58AD57AC5612390290026FE0BC
:1014C000F8A3E0F9A3E0FAA3E02FF559EA3EF558B6
:1014D000E93DF557E83CF556E559652A7012E5589F
:1014E0006529700CE55765287006E5566527601D6F
:1014F0003009071231EAEF6001228556238557240F
:10150000855825855926122451EF600122E5556042
:1015100023B4FF028006E555B4010BE4F559F558F4
:10152000F557F556800C85315985325885335785E6
:101530003456D209E5476402703F852F82852E8399
:10154000E0F536A3E0F537853639853738E4F536EA
:10155000F537AE38AF39C3EF94F7EE94FF4003D3BD
:101560008001C3920BE555600D852F82852E83E5A2
:1015700056F0A3E557F07F0022E5476403705A85D3
:101580002F82852E83E0FCA3E0FDA3E0FEA3E0F51F
:10159000398E388D378C36E53954F0FFE559540FC4
:1015A0004FF559E539540F853639F536AF3885375B
:1015B000388F37AF36EFC3940F4003D38001C39207
:1015C0000BE5556011AF59AE58AD57AC56852F821B
:1015D000852E831210267F002253570F90027CE045
:1015E0002549FF90027BE03548CF24FFCF34FFFE32
:1015F000EF652F7003EE652E6050852F82852E8358
:10160000E0F536A3E0F537E55570030216CCE54565
:1016100030E423E556C454F0FFE536540F4F852FD0
:1016200082852E83F0E557C454F0FFE556C4540F6D
:101630004FA3F00216CC852F82852E83E556F0E568
:101640003754F04557A3F00216CC852F82852E83A0
:10165000E0F536E555601DE54530E40EE556C45429
:10166000F0FFE536540F4FFF8002AF56852F82857D
:101670002E83EFF03009071231EAEF600122E52AEC
:101680002401F526E43529F525E43528F524E4354B
:1016900027F523122451EF60012285498285488372
:1016A000E0F537E5556025E54530E40FE557C454CE
:1016B000F0FFE556C4540F4FFF8007E53754F0455F
:1016C00057FF854982854883EFF0D209E54530E42C
:1016D00013E537C454F0FFE536C4540F4FF539E530
:1016E00037C48005853639E537540FF538E4F536CB
:1016F000F537AE38AF39C3EF94F7EE940F4003D30C
:101700008001C3920B7F00224572726F723A2025CE
:101710003032580A004469736B5265616479203F26
:101720000A005374617274207265736574204855A1
:10173000422530316420706F72740A00446973610D
:10174000626C65204855422530316420706F727498
:101750002062656361757365206F662064697363D9
:101760006F6E6E6563740A004765744465766963DD
:1017700065446573637220404855422531643A20C0
:101780000030782530325820000A00476574436FD6
:101790006E66696744657363723A0A00546F6F201E
:1017A0006D616E79205553422D4469736B2C206412
:1017B0006973636172642070726576696F75730A0C
:1017C000005553422D4469736B2052656164790A58
:1017D000005553422D5072696E74205265616479D0
:1017E0000A005553422D4B6579626F617264205235
:1017F000656164790A005553422D4D6F75736520FC
:1018000052656164790A005553422D4469736B2017
:1018100028656D626564207769746820485542299F
:101820002052656164790A004875622072652D61F5
:10183000646472657373206F722072652D636F6EBE
:10184000666967206572726F7220253032780A00EF
:101850005553422D4875622052656164790A0049EA
:101860006E6974446576696365204572726F722093
:101870003D20253032580A004F70656E0A002F4D0A
:10188000595F4144432E5458540046696C65207397
:10189000697A65203D20256C640A004C6F63617491
:1018A00065207461696C0A004372656174650A00A1
:1018B000577269746520626567696E0A00B4CBC7A8
:1018C000B0CEC4BCFEB3A4B6C83D20256C6420D7FE
:1018D000D6BDDA0D0A005772697465204144432071
:1018E000646174610A00253032642E253032642E22
:1018F00025303264204144433D25750D0A0057725E
:1019000069746520656E640A00BDF1CCECB5C44114
:101910004443CAFDBEDDB5BDB4CBBDE1CAF80D0A76
:1019200000436C6F73650A0053746172740A00455A
:10193000726173650A0045726173652066696C6542
:10194000206572726F7220253032580A0057726912
:10195000746546696C6520746F205553422D446947
:10196000736B0A00577269746546696C652065720D
:10197000726F7220636F6465203D20253032580AF3
:10198000005175657279204D6F7573650A00800688
:1019900000010000120080060002000004000005A3
:1019A0000300000000000009000000000000120019
:1019B000038F35E535700A122C96EF7003021B2158
:1019C00022E53564426003AF352290027CE024E0DA
:1019D000FF90027BE034FFFEC3E53F9FE53E9E5053
:1019E00003021B21E53D700FE53A700BE53B7007E4
:1019F000E53C7003021AAF90027AE0FF900281E0AA
:101A0000C39FFFE52214FE5FF535E53F6008EE65F4
:101A1000356003021B217F3AE4FD121447EF600199
:101A200022200B03021B2112396DEF6001227F3A45
:101A30007D02121447EF6001221231EAEF600122A9
:101A4000123A7DE4FFFE90027BE06EFCA3E06F4C57
:101A50006013E5492FF582E5483EF583E4F00FBFBA
:101A600000010E80E1E4F5351233D4E53F7012F544
:101A70003EF53FAF26AE25AD24AC2390027E12107A
:101A800026852236E5366020122304EF600122E528
:101A9000262401F526E43525F525E43524F524E44E
:101AA0003523F523153680DC1230F0EF607322E524
:101AB0003F706E90027EE0FCA3E0FDA3E0FEA3E099
:101AC00024FFFFEE34FFFEED34FFFDEC34FFFC900D
:101AD000027E12102612243FEF600122E4F53EF54B
:101AE0003FD390027CE0953F90027BE0953E402EF4
:101AF000E549253FFFE548353E8F82F583E0B4E5B3
:101B000010E582240BF582E43583F583E0540E6002
:101B1000107420253FF53FE4353EF53E80C37FB28B
:101B20002212396DEF6001221231EAEF6001227F4B
:101B300006123A8AEF54BF648060037F1122853415
:101B40003D85333C85323B85313A1230F0EF600100
:101B50002212243FEF600122E549253FFFE5483589
:101B60003EFEE4FDEDC3940B50047C2080027C001B
:101B7000EF2DF582E43EF583ECF00DBD20E6EF2479
:101B800018F582E43EF5837421F0A37430F0EF245D
:101B90001CF582E43EF5837401F0E4FDEDC3940B83
:101BA0005021A82DE6FC601BECB42E047D08052D09
:101BB000A82DE6FCEF2DF582E43EF583ECF00D0553
:101BC0002D80D9853D36853C37853B38853A39EFC0
:101BD000241AF582E43EF583E536F0A3E537F0EF0D
:101BE0002414F582E43E1222FBEF600122853D348D
:101BF000853C33853B32853A31E4F544F543F54283
:101C0000F541F54EF54DF54CF54BF5357D147F104E
:101C10001238E622D294C2947F64123673D29412A0
:101C200039867BFF7A197928120869E4F550E55066
:101C300025E025E02459F582E43402F583E4F0053B
:101C400050E550B403E8E490028AF0A3F0A3F0A3B7
:101C5000F01238C28F5112387E1239E17F0A1236E3
:101C600073E4F550E55004900282F01235C08F51B4
:101C7000E551702EE55025E025E02459F582E43445
:101C800002F583E4F0E55025E025E0245CF582E4EC
:101C90003402F583E064806003021D3F7540010259
:101CA0001D3FE5516408601CE5516003021D3FE5DE
:101CB0005025E025E02459F582E43402F583E0D391
:101CC0009401507BC294E55025E025E02459F5822B
:101CD000E43402F5837401F07FC8123673AF5012FA
:101CE000116A8F51E55025E025E0245CF582E4344B
:101CF00002F583E551F064807043900289E550F06D
:101D00007BFF7A19792F120869AF50123747786D27
:101D10007C007D007BFF7A18797E121117122C96B9
:101D20008F51E55160126442600E7BFF7A1979365B
:101D3000755C008F5D1208697F01123551D29405E0
:101D400050E550C394035003021C647F0A1236739B
:101D500090028BE004F0700690028AE004F0C390D9
:101D6000028BE094E890028AE09403406A7F80123C
:101D700037158F50900289E0FF65506019E550F4E7
:101D80006014E55025E025E02459F582E43402F59D
:101D9000837402F080D7E5506F703C7BFF7A19792D
:101DA0004D120869AF501237471235808F51E551F7
:101DB000648260171221A88F51E551600E7BFF7A73
:101DC000197964755C00F55D1208697F011235515F
:101DD000E490028AF0A3F090028DE004F070069087
:101DE000028CE004F0C390028DE094F490028CE049
:101DF00094015003021C5C7F321237158F50E5505E
:101E0000F47003021C5C7BFF7A197981120869AFB8
:101E1000501237471234B08F51E55164147035F5C4
:101E200051901994E493FFE551C39F501E7BFF7AB4
:101E300017798174082551F582E43402F583E07541
:101E40005C00F55D120869055180D67BFF7A177931
:101E5000891208697F01123551E490028CF0A3F0D9
:101E6000021C5CE5406415600712382FEF60012208
:101E7000786DE6F52D7006300A0302341EE4786DA5
:101E8000F6E52D7003022012E535F47077E53D701C
:101E90000CE53A7008E53B7004E53C602585344E5E
:101EA00085334D85324C85314B123979EF600122F3
:101EB0007F4B7D02121447EF6001221231EAEF607E
:101EC000082212316FEF60012285344E85334D8533
:101ED000324C85314B74FFF534F533F532F5311260
:101EE00030FACBEFCB854E34854D33854C32854B64
:101EF00031EB60012285444E85434D85424C85413E
:101F00004BE4F5351233D4122451EF6001229002D4
:101F10007BE0FCA3E0FD24FFFBEC34FF554DFEEB22
:101F2000554EFFC3ED9FFFEC9EFEC3EF952DEE9443
:101F3000004005852D368006E54EF404F536900206
:101F40007CE024FFFD90027BE034FF554DFEED5513
:101F50004E2549F52FEE3548F52EAF36E4FCFDFE53
:101F6000E54E2FF54EEE354DF54DED354CF54CEC7F
:101F7000354BF54BC3E52D9536F52D786DE6246E82
:101F8000FFE53626F6C8EFC8E6852F82852E83F05A
:101F9000052FE52F7002052E0FD536E9122304EF29
:101FA000600122AF4EAE4DAD4CAC4BAB44AA43A941
:101FB00042A841C3120FCA500E854E44854D438539
:101FC0004C42854B41D20A90027CE024FFFD9002F6
:101FD0007BE034FF554DFEED554E4E6003021E81F1
:101FE0000535E535C395225003021E817F31E4FD9E
:101FF000121447EF600122300B067535FF021E8177
:10200000853631853732853833853934E4F5350204
:102010001E817F0022E4F534F533F532F53190026C
:1020200073E0FCA3E0FDA3E0FEA3E0FFAB34AA3322
:10203000A932A831D3120FCA40037FB122E534245C
:1020400001F534E43533F533E43532F532E4353136
:10205000F5317F31E4FD121447EF600122E539705C
:102060000FE536700BE5377007E53870030221A0E5
:10207000E547640160A885482E85492FE54764023D
:10208000705190027BE0C313FEA3E01324FFFFEE28
:1020900034FFF5368F37F5388F397402252FF52F39
:1020A000F582E4352EF52EF583E07011A3E0700D76
:1020B000852F82852E8374FFF0A3022128E53760E7
:1020C00009D537D6E536600880D01536153780CA71
:1020D00002218790027BE0FEA3E07802CEC313CEFC
:1020E00013D8F924FFFFEE34FFF5368F37F5388F1C
:1020F000397404252FF52FF582E4352EF52EF5835E
:10210000E0600302216CA3E0600302216CA3E07095
:102110005BA3E0540F7055852F82852E8374FFF0EA
:10212000A3F0A3F0A3E0440FF0AE38AF39EF45348D
:10213000FFEE4533FEE532FDE531FCEEC0E0EFC0D9
:10214000E0E53724FFFFE53634FFCBEFCBFAD0E0F4
:10215000FFD0E0FEC3EF9BF534EE9AF533ED94002B
:10216000F532EC9400F531D2097F0022E53760109A
:102170001537E53760030220F1E536600A0220F1E9
:10218000153615370220F1AE38AF39E5344FF53446
:10219000E5334EF533E532F532E531F53102201EF7
:1021A0007F317DFF12144722C2957BFF7A18797820
:1021B000120869786D7C007D007BFF7A18797E12A9
:1021C00011171200038F52E55270317BFF7A187994
:1021D0008A85445F85435E85425D85415C1208695E
:1021E0007BFF7A18799B120869786D121032FFFF15
:1021F000FFFF1234688F52E552602122E552B4424B
:1022000015C2967BFF7A1879A81208691219AE8F49
:1022100052E552600722E5526002FF22C2967BFF20
:102220007A1879B0120869755CFF755D18755EBD26
:1022300085446285436185426085415F7B007A0009
:10224000796E1208638F52786DA652121E638F52F8
:10225000E5526001227BFF7A1879D612086975541D
:1022600008D28C755305E58B541FFDAF8CEFFEAB88
:102270008AEB755CFF755D18755EE6755F008553CA
:10228000607561008D627563008554648E65F566C6
:102290007B007A00796E120863786DA607121E63C0
:1022A0008F52E5526001220554E554B414B37BFF0C
:1022B0007A1879FE120869786E7C007D007BFF7ABF
:1022C0001979091211177B007A00796E123A208F62
:1022D00052786DA652121E638F52E5526001227B26
:1022E000FF7A197921120869786D76011230708FA2
:1022F00052E552600122D296D29522F583E538F05C
:10230000A3E539F0E4F5467F237B2A7D011232589C
:10231000E54A60030224177DC87F06123A3EE54F66
:1023200030E6047F4080027F80AC48AD498C278D29
:10233000281238038E278F287D407F0B123A3E6388
:102340004F40AD4F7F0E123A3EE530B409047F088E
:102350008010B40A047F108009B40B047F2080022F
:102360007F408F37E53764016016E54F30E6047F24
:102370004080027F80AD28AC271238038E278F283B
:102380001226C6E54A60187DC07F06123A3EE54A2D
:10239000642E6003022417E546707CAF2C805063E6
:1023A0004F40E53764016007AD4F7F0E123A3ED5CE
:1023B00037B27DC07F06123A3E90BDF1740DF090A9
:1023C000BCF0E52BF0E54FF0D20B852327852428C0
:1023D00085252985262A634F801226C6E54A60177F
:1023E000634F80E54A642E702EE546702AAF2B12AB
:1023F00036AA75460180C27F0B123A8ABF0D187F3C
:10240000CC123A8AEF7006123AA37F00227FCC12D8
:102410003A8AEF6401600BE54AB416037F82221208
:102420003638E546C39405500FE546C39403400390
:102430001234F7054602230712393A1234F7229074
:10244000027EE0F523A3E0F524A3E0F525A3E0F563
:1024500026E526652A7015E5256529700FE52465B2
:10246000287009E5236527700302257AE4F5467F85
:10247000237B287D01123258E54A600302255390E0
:10248000BDF17406F090BCF074CCF090BDF1740D09
:10249000F090BCF0E52BF0E54FF0D20B634F408598
:1024A0004827854928E530B409047F088010B40A1C
:1024B000047F108009B40B047F2080027F408F3797
:1024C0001226C6E54A60097DC07F06123A3E80505A
:1024D000634F80E53764016007AD4F7F0E123A3ECF
:1024E000E54F30E7047FC080027F80AD28AC271223
:1024F00037D78E278F28D537C77DC07F06123A3E43
:10250000AD4F7F0E123A3E85232785242885252945
:1025100085262A634F801226C6E54A601A634F80DB
:10252000E54A642E702DE5467029AF2B1236AA7548
:102530004601123A5C80D07F0B123A8ABF0D147F9D
:10254000CC123A8AEF7002FF227FCC123A8AEF64F3
:1025500001600BE54AB416037F8222123638E54645
:10256000C39405500FE546C3940340031234F705A6
:102570004602246F12393A0234F77F0022E54064A4
:1025800015600712382FEF600122786DE6F52DE413
:10259000F6E52D70030226B290027BE0FCA3E0FD7D
:1025A00024FFFBEC34FF554DFEEB554EFFC3ED9F72
:1025B000FFEC9EFEC3EF952DEE94004005852D3671
:1025C0008006E54EF404F536AF36EF254EFFE435D0
:1025D0004DFEE4354CFDE4354BFCAB44AA43A94227
:1025E000A841D3120FCA500CC3E544954EF536707E
:1025F000030226B21233D4122451EF60012290025A
:102600007CE024FFFD90027BE034FF554DFEED554C
:102610004E2549F52FEE3548F52EAF36E4FCFDFE8C
:10262000E54E2FF54EEE354DF54DED354CF54CECB8
:10263000354BF54BC3E52D9536F52D786DE6246EBB
:10264000FFE53626F6852F82852E83E0C8EFC8F693
:102650000F052FE52F7002052ED536E990027CE09C
:1026600024FFFD90027BE034FF554DFEED554E4EAC
:1026700060030225910535E535C3952250030225F7
:10268000917F31E4FD121447EF600122300B117588
:1026900035FF854E44854D43854C42854B41801224
:1026A000853631853732853833853934E4F535025E
:1026B00025917F002290BDF1740DF090BCF0E52CC7
:1026C000F0E54FF0C20BE4F539E4F54A123AA89070
:1026D000BDF17409F0E030E06B90BCF07411F0E0F3
:1026E000FF300B0E5407B40313EF30E436E4F54A21
:1026F000FF22540FB40205E4F54AFF22EF540FFE07
:10270000BE0A05E54520E729EF54037003D3800195
:10271000C34007EE4420FFF54A227F09123A8AEFB0
:1027200020E121E545540FFF0539AE39EED39F5026
:102730000D7F0E123A8AEF4408FD7F0E8027754AFE
:10274000207F2022754AFF7F04123A8AD54AF87FFB
:1027500009123A8A8F39E53930E1731235C0BF0961
:102760000A7D027F09123A3E0226C9754001E490B3
:102770000288F07D137F09123A3E900282E06004E5
:102780007DC080027D807F06123A3E1235C0EF6028
:1027900037754002900282E0D394015007E5395426
:1027A00080FF80157F02123A8A900282E0B403040F
:1027B0007E2080027E10EF5EFFEF6006754A157F77
:1027C0001522754A137F1322754A167F16227D1F24
:1027D0007F09123A3EE53930E306754A067F062244
:1027E000754A057F05228F58EF25E025E02459F52D
:1027F00082E43402F583E0C394015011EF25E02513
:10280000E02459F582E43402F5837401F0E558645C
:1028100001704A7F03123A8AEF20E3030228FE7F09
:1028200003123A8AEF20E02B7F02123A8AEF20E46B
:102830000E7F03123A8AEF6404FD7F03123A3E7F53
:1028400003123A8AEF20E2047F0180027F009002A7
:102850005FEFF07F03123A8AEF4401804EE558643F
:1028600002704D7F03123A8AEF20E7030228FE7FB1
:1028700003123A8AEF20E42B7F02123A8AEF20E516
:102880000E7F03123A8AEF6440FD7F03123A3E7FC7
:1028900003123A8AEF20E6047F0180027F00900253
:1028A00063EFF07F03123A8AEF4410FD7F03804804
:1028B0007F02123A8AEF30E3457F02123A8AEF2014
:1028C000E02B7F09123A8AEF20E70E7F02123A8A44
:1028D000EF6404FD7F02123A3E7F02123A8AEF2033
:1028E000E2047F0180027F0090025BEFF07F021222
:1028F0003A8AEF4401FD7F02123A3E7F01227F00B7
:1029000022E540C3941350037FB42212243FEF60AA
:102910000122C209E549253FFFE548353ECBEFCB13
:10292000FA7875E6FFEB240BF582E43AF583E0F6DE
:10293000EFF460138B828A83E582240BF582E43501
:1029400083F583EFF0D2097873E6F53908E6F538B8
:10295000EB2416FFE43AFE123A7318EEF608EFF68F
:10296000E538F4FEE539F44E6012EB2416F582E406
:102970003AF583E538F0A3E539F0D2097871E6F548
:102980003908E6F538EB2418FFE43AFE123A7318DA
:10299000EEF608EFF6E538F4FEE539F44E6012EB9A
:1029A0002418F582E43AF583E538F0A3E539F0D24E
:1029B00009786D121001787912101AEB241CFFE4CB
:1029C0003AFE1239FB786D12101A7879E6F4601E1F
:1029D0001210018F448E438D428C41123A9CEB249D
:1029E0001CF582E43AF583121026D209C20A300996
:1029F00005C2090223047F00227F06123A8AEF549F
:102A0000404480FD7F06123A3E7F09123A8AEF3039
:102A1000E1121235C0EF640960031238A07D137F04
:102A200009123A3E1235C0EF7003022AEBE540C3AB
:102A300094025008754002E4900288F0900288E009
:102A40007002FF22123A35900287E06049123A493B
:102A5000E54A702E854982854883A3A3E030E009CA
:102A6000754002123A0B122BD2854982854883E0C9
:102A700030E01E900287E02410FD7F08123A3E7F6E
:102A80000022E54A64166063E54A30E504540360B9
:102A90005A754002804D900287E004F0123A49E5F1
:102AA0004A7024854982854883A3A3E030E006125A
:102AB0003A0B122BD2854982854883E030E017A378
:102AC000E020E1127F0022E54A6416601EE54A30EC
:102AD000E50454036015900288E0FF900287E0C38C
:102AE0009F40B3E4900287F07F84221238A022E452
:102AF000900249F0A3F0A3F090027DE090024DF027
:102B0000E4F5387C337D2D7F041239B57A027B4899
:102B10007D117F481239CB7D1F7F0B123A3E122662
:102B2000B5E54AB416037F8222E54A600FE53860B6
:102B300003022BB412363875380180C7634F4090BA
:102B40000248E06049123A5C1226C6E54A600DE58B
:102B50004A642E705FAF2B1236AA8032634F807F9B
:102B60000B123A8A8F397F4F123A8ABF030A7F537A
:102B7000123A8AEF6412600E123A7DAB49AA48AD50
:102B8000397FC0123954900248E0C39539F0123AA7
:102B90005C1226C6E54A701C634F807FCC123A8ACD
:102BA0008F397F0B123A8ABF0D07E539C394024073
:102BB00006754A1F023638E5397002FF22754A1F32
:102BC0007F1F227F081239B5900265E0FD7F441215
:102BD0003A3E7F011236737D087F0B123A3E7DD05C
:102BE0007F0D123A3E7D080F123A3EC20B1226C6E6
:102BF000E54A6003AF4A22D20B7F46123A8AEF6061
:102C00006C123A7D7F011236737D907F0D123A3E31
:102C10000F123A8AEF64804408FD7F0E123A3E128A
:102C200026C6E54A6003AF4A227F0B123A8A8F4AD2
:102C30007F47123A8A8F39AF39EF2549FBE435488F
:102C4000FAAD4A7FC0123954E54A2539F539AD3914
:102C50007F47123A3E1F123A8AE539C39F500CE56E
:102C60004A5407609F754A177F1722C20B7F0112D3
:102C70003673E4FD7F0B123A3E300B047F0980026D
:102C80007F01EFC454F0FD7F0D123A3E7DC80F1254
:102C90003A3E1226C622E540C394135007120003A1
:102CA000EF6001221238E2EF60012212243FEF6050
:102CB0000122E549253FFFE548353E8F82F58374C3
:102CC000E5F0122304EF600122AF3DAE3CAD3BAC1A
:102CD0003A8F398E388D378C36EC4D4E4F604EE53D
:102CE0003D24FFF53DE53C34FFF53CE53B34FFF585
:102CF0003BE53A34FFF53AE4F534F533F532F53196
:102D00007F367D01121447EF600122E5342401F57E
:102D100034E43533F533E43532F532E43531F53129
:102D2000300BDD1231EAEF6001220230FA7F00221F
:102D3000E53D700CE53A7008E53B7004E53C6072D7
:102D4000853D34853C33853B32853A31AF22E4FC06
:102D5000FDFE786D12100DC3120FCA40387F31E4AA
:102D6000FD121447EF600122200B4785363185376D
:102D700032853833853934786D121001AB22C3EFB8
:102D80009BFFEE9400FEED9400FDEC9400FC786D4A
:102D900012101A80B77870E6FFE522145FF535123D
:102DA00033D4AF26AE25AD24AC23786D12101A7F34
:102DB00000227535FF786D121032FFFFFFFF7F0094
:102DC000227B017A0279088B588A59895A8B5F8A4B
:102DD00060896175620075630075645B7BFF7A19B9
:102DE0007996123006EF6414706390199C93FEE597
:102DF0005BC39E50047F178054AB58AA59A95A90C0
:102E00000002120F8BF55B78007C027D017BFF7A5C
:102E10001979967E007F08120F4C900206E55BF050
:102E200085585F855960855A6175620075630075C4
:102E3000645B123000BF1415AB58AA59A95A900010
:102E400002120F8BFEE55BC39E50027F1722787F34
:102E5000E4F6D8FD758190022E95021C14E493A32C
:102E6000F8E493A34003F68001F208DFF48029E43C
:102E700093A3F85407240CC8C333C4540F4420C888
:102E8000834004F456800146F6DFE4800B0102041F
:102E90000810204080903AACE47E019360BCA3FF10
:102EA000543F30E509541FFEE493A360010ECF5454
:102EB000C025E060A840B8E493A3FAE493A3F8E443
:102EC00093A3C8C582C8CAC583CAF0A3C8C582C8AF
:102ED000CAC583CADFE9DEE780BE8F58750808E4FB
:102EE000FF123A95E4FD7F0E123A3EE558640170F8
:102EF0001F7F03123A8AEF54FB4402FD7F03123A0C
:102F00003E7F0F1236737F03123A8AEF54FD8023FF
:102F1000E558640270227F03123A8AEF54BF4420BE
:102F2000FD7F03123A3E7F0F1236737F03123A8AF7
:102F3000EF54DFFD7F0380207F02123A8AEF54FBBB
:102F40004402FD7F02123A3E7F0F1236737F021257
:102F50003A8AEF54FDFD7F02123A3E7D167F090248
:102F60003A3E7537647D087F2512377890024E749B
:102F70000AF0E4900253F0122AEF8F36E5367044DF
:102F8000E5492406F582E43548F583E0FFB40405FD
:102F900075300A8013B4080575300B800BB410052A
:102FA00075300C800375300974017E00A8300880EC
:102FB00005C333CE33CED8F990027CF0EE90027B7D
:102FC000F07F0022E5366416601DE5366415601753
:102FD000E5366413601112399E7F4012367315373F
:102FE000E5376003022F65AF3622900202F0755F6D
:102FF000007560007561007562007563007564009E
:103000007B017A0279008B5C8A5D895EE4F565E577
:10301000652440FFAB5CAA5DA95E8565827583006F
:10302000120F8BFD123A3E0565E565B408E1123AD0
:103030007D122BD28F65E5657033AB5CAA5DA95E0E
:10304000900006120F8BAB62AA63A964120FB8AB93
:1030500062AA63A964120F72FF7E00AA48A9497B85
:1030600001A861AC60AD5F120F4C7F1422AF6522E6
:10307000E540C3941250037FB422E5406412704FC0
:10308000E54764036049900286E0F522AE43E544DB
:10309000A830088005CEC313CE13D8F9FFE4FCFD99
:1030A000900283121026900277E0F8A3E0F9A3E0E3
:1030B000FAA3E0FB900286E0FFE4FCFDFEEB2FFFAD
:1030C000EE3AFEED39FDEC38FC900277121026E561
:1030D00040D39413400AE540B41407786DE67002BB
:1030E000C20A300A0712341EEF6001221238E222AF
:1030F00074FFF534F533F532F53190026AE0FCA344
:10310000E0FD4C7002FF22EDCFECCEE4FCFD90021E
:1031100066E0F8A3E0F9A3E0FAA3E02FF526EA3E83
:10312000F525ED39F524EC38F523122451EF600133
:1031300022E54924E8FFE5483401FE1239FBE53475
:103140002FF534E5333EF533E5323DF532E5313CDC
:10315000F531AF34AE33AD32FC123A9CE54924E888
:10316000F582E5483401F583121026122304221259
:10317000201EEF600564B1600122EF600712201588
:10318000EF6001221231EAEF60012285343D853380
:103190003C85323B85313A12243FEF600122E549FC
:1031A000253FFFE548353EFEF583EF241CF582E41C
:1031B0003583F5837401F0853D36853C37853B3892
:1031C000853A398F828E83E582241AF582E435832D
:1031D000F583E536F0A3E537F08F828E83E5822410
:1031E00014F582E435831222FB22852723852824C7
:1031F000852925852A26122304EF60012290026C7E
:10320000E0FEA3E0FF4E604BE4FCFDE5262FF52633
:10321000E5253EF525ED3524F524EC3523F523127F
:103220002304EF60012290026CE0FEA3E0FBCAEEF3
:10323000CAC3E5269BF526E5259AF525E5249400E5
:10324000F524E5239400F523F527852428852529F1
:1032500085262AC2097F002290BDF17440F090BCFF
:10326000F07455F07453F07442F004F090BDF174B2
:1032700048F0E490BCF0F0E53024F8F8ED08800266
:10328000C333D8FCF0E4F0F0BB2A03FE80027E805A
:10329000EEF090027DE090BCF0F0740AF0EBF0E408
:1032A000F0EFC8E6F008E6F008E6F008E6F0E4F033
:1032B000F0EDF0E4F090BDF1740BF090BCF0741FF1
:1032C000F00226B5E4F5407D557F80123A3E7DAA96
:1032D0000F123A3E1F123A8ABF550A7F81123A8A6C
:1032E000EF64AA60037F8122E4FD7F06123A3E7FED
:1032F0000E123A3E754585E4F54690027B7402F065
:10330000A3E4F0900282F0F54F7D1F7F09123A3E50
:103310007F07123A8AEF54F04403FD7F07123A3ECA
:103320007D407F05123A3E1238A07F00225553425D
:10333000430021FF000000000000800600010000A3
:1033400012000005020000000000800600020000DC
:103350000400A00600290000090000090000000088
:103360000000A1FE000000000100020100000000BA
:103370000000A30000000100040023011000010070
:1033800000008F58EF25E025E02459F582E434024F
:10339000F583E4F0EF25E025E0245AF582E43402D9
:1033A000F583E4F0E558B4010A7F03123A8AEF543A
:1033B000F0800DE558B4020D7F03123A8AEF540FE6
:1033C000FD7F03800B7F02123A8AEF54F0FD7F02EB
:1033D000123A3E22E53424FEFFE53334FFFEE532A7
:1033E00034FFFDE53134FFFC90026EE0F8120FEE81
:1033F000900277E0F8A3E0F9A3E0FAA3E02FFBEA5C
:103400003EFAE93DF9E83CF8E4FCFDFEEB2535F534
:1034100026EE3AF525ED39F524EC38F52322C20ADB
:10342000E540C39414403E12243FEF600122E54979
:10343000253FFFE548353ECBEFCBFAF583EB240B78
:10344000F582E43583F583E020E41AAF44AE43AD62
:1034500042AC41123A9CEB241CF582E43AF583120B
:1034600010260223047F0022E5406415600712380D
:103470002FEF600122786D1210018F4E8E4D8D4C12
:103480008C4BAB44AA43A942A841C3120FCA500CAB
:1034900085444E85434D85424C85414BAF4EAE4DE4
:1034A000AD4CAC4B123902786D12101A122D30222D
:1034B0007B017A0279088B588A59895A7508088BDA
:1034C0005F8A60896175620075630075645B7BFF6C
:1034D0007A19798E123006BF141CAB58AA59A95A12
:1034E000900007120F8BF508901994E493FEE55BAA
:1034F000C39E50027F17227F021236737D117F090F
:10350000123A3E1235C0EF600BE54A64166005E5DD
:1035100040B401030238A0E540C394034015854A36
:10352000377D127F03123778122AEF85374A7F02E0
:10353000123673E54A70037F1022AF4A22E5522506
:10354000E025E02459F582E43402F5837403F07F2A
:1035500001EF7F06601B123A8AEF540C44C0FD7FD6
:1035600006123A3E7F02123A8AEF54BFFD7F028074
:103570000B123A8AEF540C44E0FD7F06123A3E22C9
:103580001229F9EF600122E540C39403501B120495
:103590006FEF600C7F4012367312046FEF600122F0
:1035A000122F62EF60030234F7E4FDFF1237781246
:1035B0002AEF8F36E5367002FF2212399EAF36228F
:1035C000900282E0FEB401047F028006EEB4020A9B
:1035D0007F03123A8AEF5409FF22900282E0B4037B
:1035E0000D7F03123A8AEF5490C4540FFF22E490E7
:1035F0000282F07F09123A8AEF5420FF22E4F55844
:103600007BFF7A177915120869123580EF601CE587
:1036100040C394034007E558D39401500E7F6412D1
:1036200036730558E558C3940540D5E540C3940367
:1036300040037F00227F8222854A387F0212367340
:103640001229F98F4AE54A6003AF4A227C337D3262
:10365000122BC3E54AB416037F8222E54A700AAFF3
:103660002B1236AAAF2C1236AA7F02123673AF384D
:103670008F4A22CEEFCE7F06123A8AEFF4602AEF0D
:1036800030E7268E397F04123A8AEF20E5F7AF390A
:103690001539EF60147F04123A8AEF30E5F77F04A2
:1036A000123A8AEF30E5E780F5228F397C337D6A64
:1036B0007F081239B5E539C4540FFFBF090DE5394C
:1036C000540F4480F539534F7F800FE539C4540FB0
:1036D000FFBF010653390F534FBFAD39122BCD2217
:1036E000900282E0B4020C7F03123A8AEF54F04455
:1036F00001800DB4030F7F03123A8AEF540F441078
:10370000FD7F03800D7F02123A8AEF54F04401FDE1
:103710007F02023A3EE4FEEE25E025E0245CF582DD
:10372000E43402F583E0B50717EE25E025E02459DF
:10373000F582E43402F583E0C394034003AF06222C
:103740000EBE03D37FFF228F52EF25E025E0245ADF
:10375000F582E43402F583E0FF123A95E55225E064
:1037600025E0245BF582E43402F583E0FF12355155
:10377000E55204900282F022900248EDF060047E4F
:103780008080027E0090024CEEF090024E7406F0B3
:10379000A3EFF0E4A3F0A3F0A3F0A3EDF0E4A3F013
:1037A000A3F0A3F0A3F0A3F0228F5878007C027D51
:1037B000017BFF7A19799E7E007F08120F4CE55835
:1037C000122FEA8F59E559B41405AF58123A957F74
:1037D0000A123673AF592290BDF1EFF0ECFEEDFF07
:1037E0007D1090BCF0E0FCE0FBE0FAE08E838F827D
:1037F000CCF0A3EBF0A3EAF0A3ECF0A3AE83AF828E
:10380000DDE02290BDF1EFF0ECFEEDFF7D108E8348
:103810008F82E0A3FCE0A3FBE0A3FAE0A3AE83AFBA
:103820008290BCF0CCF0EBF0EAF0ECF0DDE022E5C9
:1038300040641460037FB422853D34853C33853B6E
:1038400032853A31E4F54EF54DF54CF54BF5357DC5
:10385000157F141238E622EFB40A07740D1238628D
:10386000740A309811A899B8130CC2983098FDA822
:1038700099C298B811F63099FDC299F59922EF6076
:103880001E7BFF7A177908755C008F5D120869C28C
:10389000947F64123673D2947F6412367380F02260
:1038A000754001E4900288F0FD7F08123A3E9002D4
:1038B00082E060047DC080027D807F06123A3E7FF8
:1038C0008222E581D394EE40037FFC22123AB0EFCE
:1038D000C3941650037FFF227548007549001232C9
:1038E000C4227D107F10E540C39F40028D40E5401B
:1038F0006D7002FF227540011229F9EF6001227FED
:103900008322C3E4CC13CD13CE13FFE53024F7603C
:103910000DF8C3ED13FDEE13FEEF13FFD8F4228F65
:103920005878007C027D017BFF7A1979A67E007FA2
:1039300008120F4CE558122FEA22123A7D754A1FE1
:10394000E540B4120475400322E540D394104003CF
:103950007540102290BDF1EFF0ED601090BCF0E0EA
:103960008B828A83F00BBB00010ADDF022853D3497
:10397000853C33853B32853A3112201EEF64B160BD
:1039800001221220152275985075878075CAF3752B
:10399000CCF375CBFF75CDFF75C834D299227F0A61
:1039A0001236737D127F03123778122AEF7F0212CC
:1039B0003673AF4A2290BDF17440F07E008D828C48
:1039C00083EE9390BCF0F00EDFF32290BDF1EFF0A8
:1039D0008B828A83E090BCF0F00BBB00010ADDF023
:1039E000227DC07F06123A3EE4FD7F02123A3EE499
:1039F000FD7F03023A3EFFE43548FE8F828E83E06E
:103A0000FFA3E0FEA3E0FDA3E0FC227C337D7A7FF0
:103A1000081239B5900287E0547FFD7F44023A3E98
:103A2000E4FFFE120F72600C0FEF70010E09E970D7
:103A3000F20A80EF22900282E02402FD7F0890BD0E
:103A4000F1EFF090BCF0EDF0227C337D727F081234
:103A500039B5900287E0547F122BCC2290BDF174CF
:103A60000DF090BCF0E52BF0E54FF0D20B22FFE417
:103A70003548FE8F828E83E0FFA3E0FE2274FFF5BF
:103A80002AF529F528F527C2092290BDF1EFF0901B
:103A9000BCF0E0FF22AD077F08023A3EEFCCFFEE1C
:103AA000CDFE227FFADFFE2220B2FD2201080800AF
:043AB0007F16222239
:00000001FF
