:10000000022EA1E540C3941050071207F3EF6001E0
:1000100022122D30EF600122C20A786BE6645C6028
:1000200004E6B42F05752D6C8017786CE6643A6091
:10003000030200EA18E6C3944350030200EA752D58
:100040006EE547B4031090021EE0FCA3E0FDA3E0C0
:10005000FEA3E0FF8005E4FFFEFDFC8F3D8E3C8D9E
:100060003B8C3AA82DE660030200ED74FFF544F5E1
:1000700043F542F541E54764036052753D02900245
:1000800012E0FCA3E0FDA3E0FEA3E0FF900221E06C
:10009000FBC3EF9BFFEE9400FEED9400FDEC94009B
:1000A000FC90021212164A900220E0FEA3E0A83053
:1000B000088005C333CE33CED8F9FFE48F448E4396
:1000C000F542F54190021EE522F0752280853D340F
:1000D000853C33853B32853A31E4F54EF54DF54CA0
:1000E000F54BF5357540127F4122752D6BA82DE635
:1000F000B4E5027605E53D700CE53A7008E53B7025
:1001000004E53C6038852235E53D24FEFFE53C34BE
:10011000FFFEE53B34FFFDE53A34FFFC900209E0C9
:10012000F8121612900212E0F8A3E0F9A3E0FAA385
:10013000E02FFFEA3EFEE93DFDE83C8024900221ED
:10014000E0F535AF35CB900212E0FCA3E0FDA3E073
:10015000FEA3E0C39BFFEE9400FEED9400FDEC9443
:1001600000FC90021912164AE535700302041D12B4
:100170001DB1EF600122E4F53EF53FD3900217E098
:10018000953F900216E0953E50030203F9E549259C
:100190003FF52FE548353EF52E852F82F583E0FFAC
:1001A000700302044AEF64E570030203EBBF05022B
:1001B0007FE5A82DE6FE6F6008EE642A6003020367
:1001C000EBE4F539FFEFC3940B5078E52F2FF58260
:1001D000E4352EF583E0FEAD39E52D2DF8EE6660B1
:1001E0005DAD39E52D2DF8E66015AD39E52D2DF81D
:1001F000E6645C600AAD39E52D2DF8E6B42F1FEEFC
:100200006420703FEFC394085010E52F2408F58256
:10021000E4352EF583E0642070297F0B8025AE390C
:10022000E52D2EF8E6B42E1BE5396408600EE52FA7
:100230002FF582E4352EF583E0B420077F070F0504
:10024000398082EFC3940B500302032CE52F240B5B
:10025000F582E4352EF583E030E30302032CC20B74
:10026000E52F241AFFE4352EFE122E8AE48F3D8EF0
:100270003CF53BF53AE547B40310E52F2414FFE4C1
:10028000352EFE122E8A8E3A8F3BAF39E52D2FF890
:10029000E66006200B03020322853D34853C33854E
:1002A0003B32853A31E4F54EF54DF54CF54BF535DD
:1002B000E52F240BF582E4352EF583E030E41F743E
:1002C000FFF544F543F542F5417D137F10122D34BF
:1002D000EF600122300B047F4380027F4122E52F33
:1002E000241CFFE4352EFE122E018F448E438D42D6
:1002F0008C41E53D7017E53A7013E53B700FE53C26
:10030000700B7535FFF544F543F542F5417D147FDB
:1003100010122D34EF600122300B047F4380027FE6
:100320000022E53904252DF52D0200EDAF39E52D2C
:100330002FF8E6642A60030203EBE52F240BF58215
:10034000E4352EF583E030E3030203EBE5390425C1
:100350002DF8E67053E4FFF537E52F2FF582E435ED
:100360002EF583E06420602FBF080AAE37E52D2EFE
:10037000F8762E0537E52F2FF582E4352EF583E04C
:10038000FEAD37E52D2DF8EEF6E5377008A82DE621
:10039000B4050276E505370FBF0BBEAF37E52D2F4D
:1003A000F8E4F6D20B020260E53904252DF8E6F4F4
:1003B0007032E544700CE5417008E5427004E54395
:1003C0006093E54130E703122ECBE54424FFF5446A
:1003D000E54334FFF543E54234FFF542E54134FFA0
:1003E000F5418007E53904252DF8167420253FF5E1
:1003F0003FE4353EF53E02017B900219E0FCA3E0AC
:10040000FDA3E0FEA3E02401FFE43EFEE43DFDE4A5
:100410003CFC90021912164A1535020168E53D7040
:100420000CE53A7008E53B7004E53C601D7F3AE45A
:10043000FD120EBBEF600122200B0F85363A853787
:100440003B85383C85393D0200EDE4FFE52D2FF872
:10045000E6FE6013642A600FEE645C6004EEB42F65
:10046000037FB3220F80E57F4222E540D394024010
:1004700003754002122118EF600122900223E06010
:100480000302054C7F07122EAD8F37E53754F0FD80
:100490007F07122E4490021DE060047DC080027D23
:1004A000807F06122E44E4FD7F0E122E447F01123F
:1004B0002B7990021DE06034B4020C7F03122EAD44
:1004C000EF54F04402801190021DE0B4030F7F034B
:1004D000122EADEF540F4420FD7F0380137F0212D4
:1004E0002EADEF54F04402FD7F0280047D817F0633
:1004F000122E447F01122B79122B01EF6006122B72
:1005000001EF70057F19122B7990021DE0600A122D
:100510002BB07F01122B7980077D807F06122E443D
:100520007DC07F06122E44753880122BB07F0212D8
:100530002B797D1F7F09122E44AD377F07122E4481
:10054000122118EF6045D538E17F82227F0A122BF5
:1005500079122E3B122E117D037F41122E440D0F76
:10056000122E441223CCE54A6010122E117D017F19
:1005700042122E441223CC0206F4122E4FE54A708A
:100580000A854982854883E020E4EF7F40122B7979
:10059000E4FD7F08122E447C297D0C122DD01223FD
:1005A000CCE54A70C57C297D147F08122DD09002BD
:1005B0001DE0FF60082402FD7F42122E44900223BA
:1005C000E0600E900222E0547F2410FD7F42122E44
:1005D000441223CCE54A70927F42122EADEFCD7FBC
:1005E00008122E447F0A122B797C297D1C7F081269
:1005F0002DD01223CCE54A60030206F4854982859A
:100600004883A3A3E0FD7F46122E44E4FD0F122E83
:10061000441223CCE54A60030206F4E5492405F5BB
:1006200082E43548F583E0F537E549240EF582E4A8
:100630003548F583E0FF6408706FE549240FF582C3
:10064000E43548F583E0B40605434520800353456F
:10065000DFE549240BF582E43548F583E09002009C
:10066000F0E4F538E5386006E54924198004E549E9
:100670002412FDE43548FCED2402FDE43C8D82F5B6
:1006800083E0F539A3A3E06440704DE53930E70815
:10069000540F4490F52B8008E539540F4410F52C85
:1006A0000538E538B402BD8034EF6409702A900241
:1006B00023E070247C297D247F08122DD01223CCC6
:1006C000E54A7030E4900222F0854982854883A390
:1006D000A3E0900223F07005754A1F80177C297DE6
:1006E0002C7F08122DD0AD377F42122E441223CC1E
:1006F000E54A6045900222E0603C20E739854A37B0
:10070000900223E0FF900222E0C39F5021E004F01A
:10071000F5381221188F39E539700302054CE53997
:10072000B48203AF3922900222E538F080D28537B7
:100730004AE4900222F0AF4A22900223E060369011
:100740000222E07030900222E004F0122E117D03AC
:100750007F41122E447D080F122E441223CC9002AA
:1007600023E0FF900222E0C39F40DAE4F07FC8124A
:100770002B79020474754F087C297D341223BDE562
:100780004A700B854982854883E0F5378012E54A37
:10079000B42E0AE4FF122BE6E4F5378003AF4A22B9
:1007A0007F02122B79E4900218F07D247F12122C24
:1007B0001C1222E98F39E5397023E5376018900261
:1007C00018E07012854982854883E0B405089002DC
:1007D000187401F080D47D037F02022D34E5376068
:1007E0000E900218E0C394035005E004F080BB12A1
:1007F0002A3D22E540C39403500A12046AEF6001C7
:10080000221225CF122E94900201E064127019A3D7
:10081000E0B43414A3E0B4560FA3E054F8FFBF785B
:1008200007E05407F52E8003E4F52EE4F526F525C0
:10083000F524F523121DC3EF600D122B3E1225CFB8
:10084000121DC3EF600122E52E700D854982854897
:1008500083E054FD64E96072E4F547E54764406075
:1008600066E54924BEFFE5483401FE7C00EF2547DC
:10087000FFEC3ECF2408CF3400FE122E018F268ECF
:10088000258D248C23E54924BEFFE5483401FE7CF8
:1008900000EF2547FFEC3EF583EF2404F582E435B5
:1008A00083F583E0F536E53664056088E536640F48
:1008B0006082E5366009E52ED39401400D152E7453
:1008C000102547F54780947F9222AF26AE25AD24B0
:1008D000AC2390020112164A121DC3EF600122855B
:1008E0004982854883E054FD64E960037FA122E5E5
:1008F00049240DF582E43548F583E0F522F547906B
:1009000002097406F0E54720E611E54725E0F547C2
:10091000900209E014F070ED752201E549241612E9
:100920002E85900207EEF0A3EFF04E702CE54924DF
:1009300024122DFC8F348E338D328C31E4FBFA7906
:1009400001F8D31215EE5007E52E60037FA2229026
:100950000207E533F0A3E534F0E5492414F582E419
:100960003548F583E0FFE5492413F582E43548F581
:1009700083E04F6012E5492413122E85E48F3D8EEB
:100980003CF53BF53A800FE5492420122DFC8F3DC4
:100990008E3C8D3B8C3AE5492411122E85CCEECC51
:1009A000CDEFCD900216E0FEA3E07805CEC313CEC6
:1009B00013D8F9147E002DFFEE3CFEE53024FBFD3C
:1009C000EFC8EDC8088005CEC313CE13D8F9FFE4F5
:1009D000FCFD90021E12164AE549240E122E858E49
:1009E0003E8F3F900208E0253FFF900207E0353E32
:1009F000FEE4FCFD90021EE0F8A3E0F9A3E0FAA3F8
:100A0000E02FF534EA3EF533ED39F532EC38F531C7
:100A1000E5492410F582E43548F583E0D39401409C
:100A20001E900207E0FEA3E0FFE5342FF534E53326
:100A30003EF533ED3532F532EC3531F5318007E4F2
:100A4000900207F0A3F0C3E53D9534FFE53C9533F4
:100A5000FEE53B9532FDE53A9531FC900209E0F860
:100A60001215FF90020E12164AE47BF57AFFF9F890
:100A7000D31215EE401FE4900205F0A3F09002108F
:100A8000E0FEA3E094F5EE940F5005754701802435
:100A9000754702801FE5492430122E85900205EE2D
:100AA000F0A3EFF0E549242C122DFC90021E121643
:100AB0004A754703E53F453E604E90021EE0FCA3A9
:100AC000E0FDA3E0FEA3E0FFEC4D4E4F603AE549A8
:100AD0002410F582E43548F583E0D39401400A9070
:100AE0000207E07002A3E0601FE549240BF582E4F1
:100AF0003548F583E07011E549240CF582E435486A
:100B0000F583E0C39402500AE52E7006752E0102AB
:100B1000082BE4FCFD900201E0F8A3E0F9A3E0FA61
:100B2000A3E0253FFFEA353EFEED39FDEC38FC90B1
:100B3000020A12164A900201E0FCA3E0FDA3E0FEC7
:100B4000A3E02534FFEE3533FEED3532FDEC3531D3
:100B5000FC90021212164A7D107F03122D3422E5FA
:100B600066245AF8E60566227857300702785AE478
:100B700075F0011217B00217582000EB7F2ED2003B
:100B80008018EF540F2490D43440D4FF30040BEF7E
:100B900024BFB41A0050032461FFE56760021567A3
:100BA000056AE56A7002056930070D7857E475F04B
:100BB000011217B0EF02179E022CA57403D2078012
:100BC00003E4C207F5668B578A588959E4F567F53F
:100BD00069F56AE56760077F20120B9A80F57568F2
:100BE000FFC201C200C202C203C205C206C208128D
:100BF0000B68FF700D3007057F00120BABAF6AAEBC
:100C00006922B4255FC2D5C204120B68FF24D0B498
:100C10000A00501A75F00A786730D50508B6FF014A
:100C200006C6A426F620D5047002D20380D924CFAC
:100C3000B41A00EF5004C2E5D204020DABD2018019
:100C4000C6D20080C0D20280BCD2D580BAD2058084
:100C5000B47F20120B9A2002077401B5670040F19F
:100C6000120B5FFF120B9A020BD3D208D2068095AB
:100C7000120B5FFB120B5FFA120B5FF94A4B700607
:100C8000797C7A0E7BFF20022EE567602A7E008E3B
:100C90008275830012177160060EEE656870F0C2EF
:100CA000D5EBC0E0EAC0E0E9C0E0EE120DF2D0E022
:100CB000F9D0E0FAD0E0FB121758FF60AAEBC0E0D1
:100CC000EAC0E0E9C0E0120B9AD0E02401F9D0E0DC
:100CD0003400FAD0E0FBE5680460DCD568D9808791
:100CE0007BFF7A0D79EED202809C79108002790820
:100CF000C206C2088008D2D5790A8004790AC2D512
:100D0000E568047002F568E4FAFDFEFF120B5FFC73
:100D10007B08200113120B5FFD7B1030000A120BC1
:100D20005FFE120B5FFF7B20EC3382D592D5501310
:100D3000C3E43000069FFFE49EFEE42001039DFD16
:100D4000E49CFCE4CBF8C201EC700CCFCECDCCE837
:100D500024F8F870F38017C3EF33FFEE33FEED3362
:100D6000FDEC33FCEB33FB994002FB0FD8E9EB3091
:100D70000105F8D0E0C448B201C0E00AEC4D4E4F86
:100D800078207B0070C2EAB5680040BCC0E0120D5C
:100D9000F4D0F0D0E0200104C4C0E0C4B201C0F03F
:100DA000120B83D0F0D5F0EB020BD31217C00C70EE
:100DB000530CEA580C414C0C3D420CEE4F0CF644DF
:100DC0000CF6490C56430CFC550CE0460CE0450C67
:100DD000E0470E9C500C452D0C492E0C6C2B0C4DF5
:100DE000230C6A200E852A0C054800000C643F3F46
:100DF0003F00790AA2D5200314300509B910020476
:100E000004B9080104A2D52006025001042002689A
:100E10009202B567005034C0E07F203003197F3064
:100E2000A20272067205500F120E4BC202C206C217
:100E300005C2087F30800F300503E9C0E0120B9A2D
:100E4000300503D0E0F9D0E0B567CC3005177F302E
:100E5000B9100C120B9A7F583004077F788003B9C1
:100E60000803120B9A3002057F2D020B9A7F202077
:100E700008F87F2B2006F322920280CF286E756C33
:100E80006C2900D201120B5F3001F8C20178673083
:100E9000D50108F6020C052D50434958120B5F246A
:100EA00003B405004001E4900E9793120B8B743A43
:100EB000120B8BD203756704020CEA8D57EFC8E55D
:100EC00047B4020712162578018008B403121216DF
:100ED0002578021216128F5B8E5A8D598C58802BF2
:100EE0001216258E588F59EF30E0054345108003C8
:100EF0005345EFE558C313FEE559132559FFE5584F
:100F00003EFEE48F5B8E5AF559F558900217E024A7
:100F1000FFFD900216E034FF5EFEED5F2549F52FE0
:100F2000EE3548F52EAF5BAE5AAD59AC58122D5088
:100F300090020AE0F8A3E0F9A3E0FAA3E02FF55B42
:100F4000EA3EF55AE93DF559E83CF558E55B652A76
:100F50007012E55A6529700CE55965287006E55848
:100F60006527601D300907122751EF60012285585F
:100F700023855924855A25855B26121DC3EF600100
:100F800022E5576023B4FF028006E557B4010BE465
:100F9000F55BF55AF559F558800C85315B85325A69
:100FA000853359853458D209E5476402703F852F4F
:100FB00082852E83E0F536A3E0F53785363985370F
:100FC00038E4F536F537AE38AF39C3EF94F7EE9421
:100FD000FF4003D38001C3920BE557600D852F823C
:100FE000852E83E558F0A3E559F07F0022E547649C
:100FF00003706B852F82852E83E0FCA3E0FDA3E0C8
:10100000FEA3E0F5398E388D378C36E53954F0FF84
:10101000E55B540F4FF55BE539540F853639F536EE
:10102000AF388537388F37C20BE536B40F18E53740
:10103000B4FF13E538B4FF0EAF39EFC394F74003A4
:10104000D38001C3920BE5576011AF5BAE5AAD5927
:10105000AC58852F82852E8312164A7F0022535961
:101060000F900217E02549FF900216E03548CF2483
:10107000FFCF34FFFEEF652F7003EE652E605085C5
:101080002F82852E83E0F536A3E0F537E557700310
:10109000021151E54530E423E558C454F0FFE5362C
:1010A000540F4F852F82852E83F0E559C454F0FFED
:1010B000E558C4540F4FA3F0021151852F82852E9D
:1010C00083E558F0E53754F04559A3F002115185F6
:1010D0002F82852E83E0F536E557601DE54530E427
:1010E0000EE558C454F0FFE536540F4FFF8002AFB1
:1010F00058852F82852E83EFF0300907122751EF94
:10110000600122E52A2401F526E43529F525E43598
:1011100028F524E43527F523121DC3EF600122854D
:101120004982854883E0F537E5576025E54530E499
:101130000FE559C454F0FFE558C4540F4FFF800722
:10114000E53754F04559FF854982854883EFF0D251
:1011500009E54530E413E537C454F0FFE536C454DF
:101160000F4FF539E537C48005853639E537540F1B
:10117000F538E4F536F537AE38AF39C3EF94F7EE0E
:10118000940F4003D38001C3920B7F00221200030F
:101190008F35E535700A122535EF70030212DF2214
:1011A000E53564426003AF3522D3900217E0953FE6
:1011B000900216E0953E40030212DFE53D700FE518
:1011C0003A700BE53B7007E53C700302126DE53F9A
:1011D00060030212DF7F3AFD120EBBEF6001222096
:1011E0000B030212DF122DA0EF6001227F3A7D0275
:1011F000120EBBEF600122122751EF600122122E66
:1012000094E4FFFE900216E06EFCA3E06F4C6013C6
:10121000E5492FF582E5483EF583E4F00FBF000174
:101220000E80E1E4F5351229A9E53F7012F53EF58F
:101230003FAF26AE25AD24AC2390021912164A8585
:101240002236E5366020121B36EF600122E52624A7
:1012500001F526E43525F525E43524F524E4352388
:10126000F523153680DC122657EF607322E53F70B8
:101270006E900219E0FCA3E0FDA3E0FEA3E024FFD2
:10128000FFEE34FFFEED34FFFDEC34FFFC9002195D
:1012900012164A121DB1EF600122E4F53EF53FD36C
:1012A000900217E0953F900216E0953E402EE549EA
:1012B000253FFFE548353E8F82F583E0B4E510E534
:1012C00082240BF582E43583F583E0540E601074BC
:1012D00020253FF53FE4353EF53E80C37FB2221224
:1012E0002DA0EF600122122751EF6001227F06122C
:1012F0002EADEF54AF648060037F112285343D85AD
:10130000333C85323B85313A122657EF6001221279
:101310001DB1EF600122E549253FFFE548353EFE5E
:10132000E4FDEDC3940B50047C2080027C00EF2D83
:10133000F582E43EF583ECF00DBD20E6EF2418F5D0
:1013400082E43EF5837421F0A37430F0EF241CF5A1
:1013500082E43EF5837401F0E4FDEDC3940B50216B
:10136000A82DE6FC601BECB42E047D08052DA82DED
:10137000E6FCEF2DF582E43EF583ECF00D052D80C3
:10138000D9853D36853C37853B38853A39EF241A77
:10139000F582E43EF583E536F0A3E537F0EF24145B
:1013A000F582E43E121B2DEF600122853D34853C21
:1013B00033853B32853A31E4F544F543F542F54156
:1013C000F54EF54DF54CF54BF5357D147F10122D8E
:1013D0003422D294C2947F64122B79D294122E7448
:1013E0007BFF7A24799D120BC1122D108F50122C85
:1013F000CC7BFF7A2479A4120BC17F0A122B7912BD
:101400002118EF70F5C2947FC8122B79E4F5507F54
:1014100064122B797BFF7A2479B0120BC1122A83D4
:10142000EF60090550E550C3940540E3E540D394CF
:101430000240BEC295E4F552E552603B754003E4BC
:10144000FFFEFDFC900201E0F8A3E0F9A3E0FAA39F
:10145000E0FBC31215EE70030215CEE5522401FF26
:10146000E433FEEF4478FFEE4456FE7434FD74120C
:10147000FC90020112164A7BFF7A2479B9120BC143
:10148000786B7C007D007BFF7A2479BF12173B12BA
:1014900000038F50E55064B36009E5506442600377
:1014A000021529E550B4B3067555247556CB755A07
:1014B000FF85555B85565C7BFF7A2479CE120BC184
:1014C000E4F551AA55A9567BFFC002C001786B7C98
:1014D000007D00D001D00212173B7B007A00796BAF
:1014E000122E268F50746B2FF8A6511200038F50C6
:1014F000E550644270030215C2E550B4431A755AB0
:101500000085515B755C00755D00755E6B7BFF7AD5
:101510002479DC120BC18005AF500215BF0551E5DF
:1015200051C394FE409D0215C2AF50122CCC75538E
:10153000027554587BFF7A2479F485535A85545B9D
:10154000120BC1E55445536068D3E554941DE5532F
:101550009400400575511D8003855451786BA65148
:10156000121C718F50122CCC786BE6FFC3E5549F90
:10157000F554E5539400F553E4F550E550786B6667
:1015800060157BFF7A257911746C2550F8E6F55AC1
:10159000120BC1055080E4786BE6C3955150A47BD3
:1015A000FF7A257914120BC17BFF7A257916120B6D
:1015B000C17BFF7A257924120BC11228988F501213
:1015C0002CCC0552E552C394075003021438D2952F
:1015D0007BFF7A25792B120BC17F0A122B791221FE
:1015E00018EF60F5D2947FC8122B790213F1EB9FAC
:1015F000F5F0EA9E42F0E99D42F0E89C45F022E8D1
:10160000600FECC313FCED13FDEE13FEEF13FFD8D8
:10161000F122E8600FEFC333FFEE33FEED33FDEC54
:1016200033FCD8F122E6FC08E6FD08E6FE08E6FFFA
:1016300022E6FB08E6F908E6FA08E6CBF822ECF623
:1016400008EDF608EEF608EFF622ECF0A3EDF0A3B5
:10165000EEF0A3EFF022D083D082E493F608740179
:1016600093F608740293F608740393F6740473E710
:1016700009F60870FA8046E709F20870FA803E8899
:10168000828C83E709F0A370FA807EE309F6087084
:10169000FA8076E309F20870FA806E88828C83E320
:1016A00009F0A370FA806289828A83E0A3F6087049
:1016B000FA805689828A83E0A3F20870FA804A8011
:1016C000D280FA80C680D4806580F280318010801C
:1016D000A680EA809A80A880DA80E280CA80318978
:1016E000828A83ECFAE493A3C8C582C8CCC583CCB4
:1016F000F0A3C8C582C8CCC583CC70E9800D8982AF
:101700008A83E493A3F60870F9ECFAA9F0EDFB22C2
:1017100089828A83ECFAE0A3C8C582C8CCC583CC91
:10172000F0A3C8C582C8CCC583CC70EA80DD8982AD
:101730008A83E493A3F20870F980CE88F0ED240246
:10174000B4040050C4F582EB2402B4040050BA2360
:10175000234582239016BF73BB010689828A83E0EA
:10176000225002E722BBFE02E32289828A83E493AD
:1017700022BB010CE58229F582E5833AF583E0225C
:101780005006E92582F8E622BBFE06E92582F8E24A
:1017900022E58229F582E5833AF583E49322BB01B1
:1017A0000689828A83F0225002F722BBFE01F322CF
:1017B000FAE6FB0808E6F925F0F618E6CA3AF6223A
:1017C000D083D082F8E4937012740193700DA3A3B8
:1017D00093F8740193F5828883E4737402936860CC
:1017E000EFA3A3A380DFE54064156007122AC3EFCF
:1017F000600122786BE6F52D7006300A030229F3AA
:10180000E4786BF6E52D7003021997E535F47079ED
:10181000E53D700CE53A7008E53B7004E53C602559
:1018200085344E85334D85324C85314B122DACEFCE
:101830006001227F4B7D02120EBBEF600122122756
:1018400051EF6008221226D6EF60012285344E85C2
:10185000334D85324C85314B74FFF534F533F53219
:10186000F531122661CBEFCB854E34854D33854C57
:1018700032854B31EB60012285444E85434D8542D4
:101880004C85414BE4F535800A1229A9121DC3EF9E
:10189000600122900216E0FCA3E0FD24FFFBEC3483
:1018A000FF554DFEEB554EFFC3ED9FFFEC9EFEC373
:1018B000EF952DEE94004005852D368006E54EF41B
:1018C00004F536900217E024FFFD900216E034FF85
:1018D000554DFEED554E2549F52FEE3548F52EAF09
:1018E00036E4FCFDFEE54E2FF54EEE354DF54DEDA3
:1018F000354CF54CEC354BF54BC3E52D9536F52DB8
:10190000786BE6246CFFE53626F6C8EFC8E6852F2F
:1019100082852E83F0052FE52F7002052E0FD53618
:10192000E9121B36EF600122AF4EAE4DAD4CAC4B11
:10193000AB44AA43A942A841C31215EE500E854EEE
:1019400044854D43854C42854B41D20A900217E0B5
:1019500024FFFD900216E034FF554DFEED554E4E2E
:1019600060030218040535E535C3952250030218BB
:10197000047F31E4FD120EBBEF600122300B0675CF
:1019800035FF02180485363185373285383385397D
:1019900034E4F5350218047F0022E4F534F533F51C
:1019A00032F53190020EE0FCA3E0FDA3E0FEA3E0DF
:1019B000FFAB34AA33A932A831D31215EE40037F0E
:1019C000B122E5342401F534E43533F533E435321E
:1019D000F532E43531F5317F31E4FD120EBBEF60B5
:1019E0000122E539700FE536700BE5377007E538F1
:1019F0007003021B25E547640160A885482E8549D0
:101A00002FE54764027051900216E0C313FEA3E075
:101A10001324FFFFEE34FFF5368F37F5388F397416
:101A200002252FF52FF582E4352EF52EF583E07093
:101A300011A3E0700D852F82852E8374FFF0A30221
:101A40001AADE5376009D537D6E536600880D01580
:101A500036153780CA021B0C900216E0FEA3E07810
:101A600002CEC313CE13D8F924FFFFEE34FFF536B0
:101A70008F37F5388F397404252FF52FF582E4352B
:101A80002EF52EF583E06003021AF1A3E060030255
:101A90001AF1A3E0705BA3E0540F7055852F828587
:101AA0002E8374FFF0A3F0A3F0A3E0440FF0AE3850
:101AB000AF39EF4534FFEE4533FEE532FDE531FC4D
:101AC000EEC0E0EFC0E0E53724FFFFE53634FFCBA2
:101AD000EFCBFAD0E0FFD0E0FEC3EF9BF534EE9AF7
:101AE000F533ED9400F532EC9400F531D2097F0026
:101AF00022E53760101537E5376003021A76E536C0
:101B0000600A021A7615361537021A76AE38AF39E2
:101B1000E5344FF534E5334EF533E532F532E53152
:101B2000F5310219A37F317DFF120EBB22F583E54B
:101B300038F0A3E539F0E4F5467F237B2A7D0112D6
:101B4000282CE54A6003021C497DC87F06122E44FA
:101B5000E54F30E6047F4080027F80AC48AD498C81
:101B6000278D28122C798E278F287D407F0B122EEF
:101B700044634F40AD4F7F0E122E44E530B409044C
:101B80007F088010B40A047F108009B40B047F2002
:101B900080027F408F37E53764016016E54F30E6FD
:101BA000047F4080027F80AD28AC27122C798E27DD
:101BB0008F28121F00E54A60187DC07F06122E4450
:101BC000E54A642E6003021C49E546707CAF2C8018
:101BD00050634F40E53764016007AD4F7F0E122E12
:101BE00044D537B27DC07F06122E4490BDF1740DEE
:101BF000F090BCF0E52BF0E54FF0D20B8523278564
:101C0000242885252985262A634F80121F00E54A4E
:101C10006017634F80E54A642E702EE546702AAF48
:101C20002B122BE675460180C27F0B122EADBF0D25
:101C3000187FCC122EADEF7006122EBF7F00227FD0
:101C4000CC122EADEF6401600BE54AB416037F821F
:101C500022122B3EE546C39405500FE546C394037C
:101C60004003122A3D0546021B39122D6D122A3DF2
:101C700022E54064156007122AC3EF600122786BE9
:101C8000E6F52DE4F6E535B4FF037F0022E52D707F
:101C900003021DAE900216E0FCA3E0FD24FFFBEC66
:101CA00034FF554DFEEB554EFFC3ED9FFFEC9EFEFE
:101CB000C3EF952DEE94004005852D368006E54E48
:101CC000F404F536AF36EF254EFFE4354DFEE4352E
:101CD0004CFDE4354BFCAB44AA43A942A841D312C6
:101CE00015EE500CC3E544954EF5367003021DAE5B
:101CF0001229A9121DC3EF600122900217E024FFF0
:101D0000FD900216E034FF554DFEED554E2549F588
:101D10002FEE3548F52EAF36E4FCFDFEE54E2FF5EF
:101D20004EEE354DF54DED354CF54CEC354BF54B58
:101D3000C3E52D9536F52D786BE6246CFFE5362648
:101D4000F6852F82852E83E0C8EFC8F60F052FE5B4
:101D50002F7002052ED536E9900217E024FFFD9082
:101D60000216E034FF554DFEED554E4E6003021C49
:101D70008D0535E535C395225003021C8D7F31E476
:101D8000FD120EBBEF600122300B117535FF854E41
:101D900044854D43854C42854B41801285363185C3
:101DA0003732853833853934E4F535021C8D7F00B0
:101DB00022900219E0F523A3E0F524A3E0F525A382
:101DC000E0F526E526652A7015E5256529700FE5FD
:101DD0002465287009E52365277003021EECE4F5ED
:101DE000467F237B287D0112282CE54A6003021ED2
:101DF000C590BDF17406F090BCF074CCF090BDF1CC
:101E0000740DF090BCF0E52BF0E54FF0D20B634F72
:101E100040854827854928E530B409047F088010AB
:101E2000B40A047F108009B40B047F2080027F4035
:101E30008F37121F00E54A60097DC07F06122E44CD
:101E40008050634F80E53764016007AD4F7F0E120D
:101E50002E44E54F30E7047FC080027F80AD28AC80
:101E600027122C4D8E278F28D537C77DC07F0612AD
:101E70002E44AD4F7F0E122E4485232785242885BE
:101E8000252985262A634F80121F00E54A601A63C0
:101E90004F80E54A642E702DE5467029AF2B122B3A
:101EA000E6754601122E6280D07F0B122EADBF0D5B
:101EB000147FCC122EADEF7002FF227FCC122EAD1C
:101EC000EF6401600BE54AB416037F8222122B3EB9
:101ED000E546C39405500FE546C394034003122A18
:101EE0003D0546021DE1122D6D022A3D7F00229024
:101EF000BDF1740DF090BCF0E52CF0E54FF0C20B95
:101F0000E4F539E4F54A122EC490BDF17409F0E00D
:101F100030E06B90BCF07411F0E0FF300B0E540712
:101F2000B40313EF30E436E4F54AFF22540FB40251
:101F300005E4F54AFF22EF540FFEBE0A05E54520F1
:101F4000E729EF54037003D38001C34007EE442018
:101F5000FFF54A227F09122EADEF20E121E545541D
:101F60000FFF0539AE39EED39F500D7F0E122EAD07
:101F7000EF4408FD7F0E8027754A207F2022754A96
:101F8000FF7F04122EADD54AF87F09122EAD8F398E
:101F9000E53930E173122B01BF090A7D027F091276
:101FA0002E44021F03754001E4900223F07D137F4D
:101FB00009122E4490021DE060047DC080027D80E5
:101FC0007F06122E44122B01EF60377540029002FB
:101FD0001DE0D394015007E5395480FF80157F023E
:101FE000122EAD90021DE0B403047E2080027E100C
:101FF000EF5EFFEF6006754A157F1522754A137F65
:102000001322754A167F16227D1F7F09122E44E582
:102010003930E306754A067F0622754A057F052298
:10202000E540C3941350037FB422121DB1EF600149
:1020300022C209E549253FFFE548353ECBEFCBFA03
:102040007873E6FFEB240BF582E43AF583E0F6EFD4
:10205000F460138B828A83E582240BF582E4358356
:10206000F583EFF0D2097871E6F53908E6F538EB3B
:102070002416FFE43AFE122E8A18EEF608EFF6E573
:1020800038F4FEE539F44E6012EB2416F582E43A9A
:10209000F583E538F0A3E539F0D209786FE6F53934
:1020A00008E6F538EB2418FFE43AFE122E8A18EE03
:1020B000F608EFF6E538F4FEE539F44E6012EB244D
:1020C00018F582E43AF583E538F0A3E539F0D20952
:1020D000786B121625787712163EEB241CFFE43A33
:1020E000FE122E01786B12163E7877E6F4601E120F
:1020F00016258F448E438D428C41122EB8EB241C42
:10210000F582E43AF58312164AD209C20A3009056B
:10211000C209021B367F00227F06122EADEF54400B
:102120004480FD7F06122E447F09122EADEF30E170
:1021300012122B01EF64096003122CEE7D137F094C
:10214000122E44122B01EF700302220AE540C394C1
:10215000025008754002E4900223F0900223E070E0
:1021600002FF22122E3B900222E06049122E4FE520
:102170004A702E854982854883A3A3E030E0097523
:102180004002122E111223CC854982854883E0300B
:10219000E01E900222E02410FD7F08122E447F00F2
:1021A00022E54A64166063E54A30E5045403605A48
:1021B000754002804D900222E004F0122E4FE54A55
:1021C0007024854982854883A3A3E030E006122E5F
:1021D000111223CC854982854883E030E017A3E0C3
:1021E00020E1127F0022E54A6416601EE54A30E5D0
:1021F0000454036015900223E0FF900222E0C39F85
:1022000040B3E4900222F07F8422122CEE22E53DBE
:10221000700FE53A700BE53B7007E53C7003022256
:10222000DA786F121625122D50AB35C3EF9BFFEEF7
:102230009400FEED9400FDEC9400FC786F12163EC5
:10224000786F121625786B121631C31215EE4018EE
:10225000786B121625786F121631C3EF9BFFEE9A3A
:10226000FEED99FDEC98804D853D34853C33853BF2
:1022700032853A31AF22E4FCFDFE786B121631C391
:102280001215EE40387F31E4FD120EBBEF600122E3
:10229000200B478536318537328538338539347898
:1022A0006B121625AB22C3EF9BFFEE9400FEED945C
:1022B00000FDEC9400FC786B12163E80B7786EE659
:1022C000FFE522145FF5351229A9AF26AE25AD240E
:1022D000AC23786B12163E7F00227535FF786B12A7
:1022E0001656FFFFFFFF7F0022E4900225F0A3F0C7
:1022F000A3F0900218E0900229F0E4F5387C287DE4
:10230000FF7F04122DD07A027B247D117F48122D8D
:10231000E67D1F7F0B122E44121EEFE54AB4160312
:102320007F8222E54A600FE53860030223AE122B5C
:102330003E75380180C7634F40900224E060491227
:102340002E62121F00E54A600DE54A642E705FAFF1
:102350002B122BE68032634F807F0B122EAD8F390C
:102360007F4F122EADBF030A7F53122EADEF6412C2
:10237000600E122E94AB49AA48AD397FC0122D874A
:10238000900224E0C39539F0122E62121F00E54A34
:10239000701C634F807FCC122EAD8F397F0B122EB5
:1023A000ADBF0D07E539C394024006754A1F022BE5
:1023B0003EE5397002FF22754A1F7F1F227F0812F7
:1023C0002DD0900200E0FD7F44122E447F01122B9D
:1023D000797D087F0B122E447DD07F0D122E447D17
:1023E000080F122E44C20B121F00E54A6003AF4AC9
:1023F00022D20B7F46122EADEF606C122E947F011D
:10240000122B797D907F0D122E440F122EADEF64AA
:10241000804408FD7F0E122E44121F00E54A60031F
:10242000AF4A227F0B122EAD8F4A7F47122EAD8FFF
:1024300039AF39EF2549FBE43548FAAD4A7FC01280
:102440002D87E54A2539F539AD397F47122E441FCE
:10245000122EADE539C39F500CE54A5407609F75B5
:102460004A177F1722C20B7F01122B79E4FD7F0BE5
:10247000122E44300B047F0980027F01EFC454F018
:10248000FD7F0D122E447DC80F122E44121F002214
:102490004572726F723A20253032580A00537461C7
:1024A00072740A005761697420556469736B0A007D
:1024B0005265616479203F0A004F70656E0A002FF3
:1024C00043483337344846542E43002F2A004C6982
:1024D00073742066696C652025730A0020206D6185
:1024E0007463682066696C652025303364233A2064
:1024F00025730A00B4D3CEC4BCFED6D0B6C1B3F6A1
:10250000B5C4C7B02564B8F6D7D6B7FBCAC73A0A70
:10251000002543000A00CEC4BCFED2D1BEADBDE151
:10252000CAF80A00436C6F73650A0054616B65203A
:102530006F75740A00E540C394135007120003EF4F
:10254000600122122D30EF600122121DB1EF6001F7
:1025500022E549253FFFE548353E8F82F58374E546
:10256000F0121B36EF600122AF3DAE3CAD3BAC3A02
:102570008F398E388D378C36EC4D4E4F604EE53DA1
:1025800024FFF53DE53C34FFF53CE53B34FFF53BEE
:10259000E53A34FFF53AE4F534F533F532F5317FB9
:1025A000367D01120EBBEF600122E5342401F534C3
:1025B000E43533F533E43532F532E43531F5313095
:1025C0000BDD122751EF6001220226617F00227588
:1025D00037647D087F25122C1C90022A740AF0E4CF
:1025E00090022FF01222E98F36E5367044E5492437
:1025F00006F582E43548F583E0FFB4040575300A3A
:102600008013B4080575300B800BB4100575300CC1
:10261000800375300974017E00A830088005C3333B
:10262000CE33CED8F9900217F0EE900216F07F006C
:1026300022E5366416601DE53664156017E53664DC
:10264000136011122DB97F40122B791537E53760D1
:10265000030225D2AF362274FFF534F533F532F597
:1026600031900205E0FCA3E0FD4C7002FF22EDCFAB
:10267000ECCEE4FCFD900201E0F8A3E0F9A3E0FA5F
:10268000A3E02FF526EA3EF525ED39F524EC38F5E3
:1026900023121DC3EF600122E54924E8FFE5483419
:1026A00001FE122E01E5342FF534E5333EF533E516
:1026B000323DF532E5313CF531AF34AE33AD32FC6D
:1026C000122EB8E54924E8F582E5483401F5831275
:1026D000164A121B36221219A3EF600564B160017D
:1026E00022EF600712199AEF600122122751EF6062
:1026F000012285343D85333C85323B85313A121DBC
:10270000B1EF600122E549253FFFE548353EFEF582
:1027100083EF241CF582E43583F5837401F0853D55
:1027200036853C37853B38853A398F828E83E58202
:10273000241AF582E43583F583E536F0A3E537F016
:102740008F828E83E5822414F582E43583121B2D5B
:1027500022852723852824852925852A26121B36AC
:10276000EF600122900207E0FEA3E0FF4E604BE421
:10277000FCFDE5262FF526E5253EF525ED3524F56E
:1027800024EC3523F523121B36EF6001229002075B
:10279000E0FEA3E0FBCAEECAC3E5269BF526E525CD
:1027A0009AF525E5249400F524E5239400F523F516
:1027B0002785242885252985262AC2097F0022E429
:1027C000F540900204F07D557F80122E447DAA0FC3
:1027D000122E441F122EADBF550A7F81122EADEF6F
:1027E00064AA60037F8122E4FD7F06122E447F0EDF
:1027F000122E44754585E4F5469002167402F0A346
:10280000E4F090021DF0F54F7D1F7F09122E447FEA
:1028100007122EADEF54F04403FD7F07122E447DC6
:10282000407F05122E44122CEE7F002290BDF174E1
:1028300040F090BCF07455F07453F07442F004F022
:1028400090BDF17448F0E490BCF0F0E53024F8F865
:10285000ED088002C333D8FCF0E4F0F0BB2A03FE9D
:1028600080027E80EEF0900218E090BCF0F0740AD6
:10287000F0EBF0E4F0EFC8E6F008E6F008E6F00868
:10288000E6F0E4F0F0EDF0E4F090BDF1740BF090C0
:10289000BCF0741FF0021EEFE540C3941250037F9A
:1028A000B422E540B41237E5476403603190021E5C
:1028B000E0F522E4F0900212E0F8A3E0F9A3E0FAD8
:1028C000A3E0FB900221E0FFE4FCFDFEEB2FFFEE16
:1028D0003AFEED39FDEC38FC90021212164AE54042
:1028E000D39413400AE540B41407786BE67002C233
:1028F0000A300A071229F3EF600122122D30225507
:102900005342430021FF0000000000008006000148
:102910000000120000050200000000008006000216
:1029200000000400A00600290000090000090000C2
:1029300000000000A1FE00000000010002010000F4
:1029400000000000A30000000100040023011000AB
:1029500001000000E54064156007122AC3EF600122
:1029600022AF4EAE4DAD4CAC4B786F12163E786B2D
:102970001216258F4E8E4D8D4C8C4BAB44AA43A91D
:1029800042A841C31215EE500C85444E85434D8537
:10299000424C85414BAF4EAE4DAD4CAC4B122D5021
:1029A000786B12163E12220E22E53424FEFFE53328
:1029B00034FFFEE53234FFFDE53134FFFC900209BF
:1029C000E0F8121612900212E0F8A3E0F9A3E0FA80
:1029D000A3E02FFBEA3EFAE93DF9E83CF8E4FCFD10
:1029E000FEEB2535F526EE3AF525ED39F524EC38E4
:1029F000F52322C20AE540C39414403E121DB1EFF4
:102A0000600122E549253FFFE548353ECBEFCBFA93
:102A1000F583EB240BF582E43583F583E020E41A9B
:102A2000AF44AE43AD42AC41122EB8EB241CF5824C
:102A3000E43AF58312164A021B367F00227F021207
:102A40002B797D117F09122E44122B01EF600BE5CB
:102A50004A64166005E540B40103022CEEE540C36C
:102A600094034015854A377D127F03122C1C1222D5
:102A7000E985374A7F02122B79E54A70037F1022DD
:102A8000AF4A22122118EF600122E540C39403509F
:102A90001B12046AEF600C7F40122B7912046AEF5C
:102AA0006001221225CFEF6003022A3DE4FDFF12F0
:102AB0002C1C1222E98F36E5367002FF22122DB946
:102AC000AF3622E540641460037FB422853D34852F
:102AD0003C33853B32853A31E4F54EF54DF54CF506
:102AE0004BE53D700CE53A7008E53B7004E53C6051
:102AF00005E4F53580037535FF7D157F14122D34FF
:102B00002290021DE0FEB401047F028006EEB402B2
:102B10000A7F03122EADEF5409FF2290021DE0B48C
:102B2000030D7F03122EADEF5490C4540FFF22E427
:102B300090021DF07F09122EADEF5420FF22854A2E
:102B4000387F02122B791221188F4AE54A6003AFB1
:102B50004A227C297D041223BDE54AB416037F82F4
:102B600022E54A700AAF2B122BE6AF2C122BE67F20
:102B700002122B79AF388F4A22CEEFCE7F06122E6B
:102B8000ADEFF4602AEF30E7268E397F04122EADC8
:102B9000EF20E5F7AF391539EF60147F04122EAD41
:102BA000EF30E5F77F04122EADEF30E5E780F52238
:102BB00090021DE0B4020C7F03122EADEF54F044DE
:102BC00001800DB403107F03122EADEF540F44109B
:102BD000FD7F03022E447F02122EADEF54F044011C
:102BE000FD7F02022E448F397C297D3C7F08122D07
:102BF000D0E539C4540FFFBF090DE539540F4480A7
:102C0000F539534F7F800FE539C4540FFFBF0106DC
:102C100053390F534FBFAD391223C722900224ED11
:102C2000F060047E8080027E00900228EEF0900228
:102C30002A7406F0A3EFF0E4A3F0A3F0A3F0A3ED51
:102C4000F0E4A3F0A3F0A3F0A3F0A3F02290BDF171
:102C5000EFF0ECFEEDFF7D1090BCF0E0FCE0FBE05F
:102C6000FAE08E838F82CCF0A3EBF0A3EAF0A3EC22
:102C7000F0A3AE83AF82DDE02290BDF1EFF0ECFE79
:102C8000EDFF7D108E838F82E0A3FCE0A3FBE0A329
:102C9000FAE0A3AE83AF8290BCF0CCF0EBF0EAF0A8
:102CA000ECF0DDE022EFB40A07740D122CB0740AC8
:102CB000309811A899B8130CC2983098FDA899C201
:102CC00098B811F63099FDC299F59922EF601E7BF4
:102CD000FF7A247990755A008F5B120BC1C2947FE2
:102CE00064122B79D2947F64122B7980F022754084
:102CF00001E4900223F0FD7F08122E4490021DE0B3
:102D000060047DC080027D807F06122E447F822277
:102D1000E581D394EE40037FFC22122EC8EFC394CA
:102D20001750037FFF227548007549001227BF2204
:102D30007D107F10E540C39F40028D40E5406D70DF
:102D400002FF22754001122118EF6001227F8322C9
:102D5000C3E4CC13CD13CE13FFE53024F7600DF898
:102D6000C3ED13FDEE13FEEF13FFD8F422122E94E1
:102D7000754A1FE540B4120475400322E540D39420
:102D80001040037540102290BDF1EFF0ED601090FF
:102D9000BCF0E08B828A83F00BBB00010ADDF022DD
:102DA000853D34853C33853B32853A311219A3EF9A
:102DB00064B160012212199A227F0A122B797D12C6
:102DC0007F03122C1C1222E97F02122B79AF4A22B8
:102DD00090BDF17440F07E008D828C83EE9390BCA8
:102DE000F0F00EDFF32290BDF1EFF08B828A83E0EA
:102DF00090BCF0F00BBB00010ADDF022FFE4354887
:102E0000FE8F828E83E0FFA3E0FEA3E0FDA3E0FC43
:102E1000227C297D4C7F08122DD0900222E0547F25
:102E2000FD7F44022E44E4FFFE121758600C0FEFA2
:102E300070010E09E970F20A80EF2290021DE02471
:102E400002FD7F0890BDF1EFF090BCF0EDF0227C28
:102E5000297D447F08122DD0900222E0547F122356
:102E6000C62290BDF1740DF090BCF0E52BF0E54F5B
:102E7000F0D20B22759850758780758920758DF377
:102E8000D28ED29922FFE43548FE8F828E83E0FFF6
:102E9000A3E0FE2274FFF52AF529F528F527C209DB
:102EA00022787FE4F6D8FD7581880213D290BDF1B7
:102EB000EFF090BCF0E0FF22EFCCFFEECDFE227FE2
:0C2EC000FADFFE2220B2FD227F17222242
:00000001FF
