:020000040800F2
:1000000020080020CD0100086104000863040008F6
:10001000670400086B0400086F040008000000007B
:100020000000000000000000000000007304000851
:100030007504000800000000E301000879040008CE
:10004000E7010008E7010008E7010008E7010008F0
:10005000E7010008E7010008E7010008E7010008E0
:10006000E7010008E7010008E7010008E7010008D0
:10007000E7010008E7010008E7010008E7010008C0
:10008000E7010008E7010008E7010008E7010008B0
:10009000E7010008E7010008E7010008E7010008A0
:1000A000E7010008E7010008E7010008E701000890
:1000B000E7010008E7010008E7010008E701000880
:1000C000E7010008E7010008E7010008E701000870
:1000D000E7010008E7010008E7010008E701000860
:1000E000E7010008E7010008E7010008E701000850
:1000F000E7010008E7010008E7010008E701000840
:10010000E7010008E7010008E7010008E70100082F
:10011000E7010008E7010008E7010008E70100081F
:10012000E7010008E7010008E7010008E70100080F
:1001300000F002F800F03AF80AA090E8000C8244BF
:100140008344AAF10107DA4501D100F02FF8AFF29C
:10015000090EBAE80F0013F0010F18BFFB1A43F0A5
:100160000103184780320000A0320000103A24BF7B
:1001700078C878C1FAD8520724BF30C830C144BF0C
:1001800004680C607047000000230024002500264E
:10019000103A28BF78C1FBD8520728BF30C148BFEA
:1001A0000B6070471FB51FBD10B510BD01F066FB99
:1001B0001146FFF7F7FF00F01BF901F084FB03B4D1
:1001C000FFF7F2FF03BC01F089FB000009488047FC
:1001D00009480047FEE7FEE7FEE7FEE7FEE7FEE729
:1001E000FEE7FEE7FEE7FEE704480549054A064B41
:1001F00070470000E90200083101000820020020D9
:100200002008002020040020200400200CB500203D
:10021000019000906B48006840F4803069490860A4
:1002200000BF6848006800F4003000900198401C4E
:100230000190009818B90198B0F5A06FF1D161480C
:10024000006810F4003F02D00120009001E000207F
:1002500000900098012842D15B48006840F01000EF
:10026000594908600846006820F003000860084605
:10027000006840F0020008605248406851494860F8
:100280000846406848600846406840F4806048601E
:100290000846406820F47C1048600846406840F4F6
:1002A000881048600846006840F08070086000BF11
:1002B0004448006810F0007FFAD04248406820F0BF
:1002C0000300404948600846406840F0020048602A
:1002D00000BF3C48406800F00C000828F9D10CBD74
:1002E00010B5FFF793FF10BD10B53648006840F019
:1002F00001003449086008464068344908403149E3
:10030000486008460068324908402E49086008469F
:10031000006820F4802008600846406820F4FE0051
:1003200048604FF41F008860FFF7DAFF4FF000606D
:100330002849086010BD10B5002100200022214B83
:100340005B6803F00C0121B1042906D0082928D1EB
:1003500007E0214B214C236027E0214B1F4C2360F9
:1003600023E0184B5B6803F47010164B5B6803F4D2
:100370008032022303EB904022B91A4B4343174CBF
:1003800023600DE00F4B5B6813F4003F04D0164B65
:100390004343124C236003E0114B43430F4C236053
:1003A00003E00D4B0D4C236000BF00BF054B5B68A5
:1003B000C3F303130D4CE15C084B1B68CB40074CA7
:1003C000236010BD00100240002002400000FFF832
:1003D000FFFFF6FE08ED00E000127A0000000020AA
:1003E000001BB70000093D00808D5B000400002069
:1003F00000F00BFF00F018FC01F07CF901F0B0F9FF
:1004000027E02021134800F022FBC82000F0E9FB80
:100410002021104800F019FBC82000F0E2FB4FF447
:1004200000610D4800F0F7FA012809D18021094840
:1004300000F00DFB4FF40041084800F006FB08E017
:100440004FF40041054800F002FB8021014800F014
:10045000FCFAD6E7000C0140001001400008014002
:10046000704700BFFEE700BFFEE700BFFEE700BF2A
:10047000FEE770477047704702480068401C01491A
:100480000860704714000020DD48006840F001005B
:10049000DB49086008464068DA490840D8494860A6
:1004A00008460068D8490840D549086008460068F1
:1004B00020F4802008600846406820F4FE00486070
:1004C0004FF41F0088607047CD49096821F48031DE
:1004D000CB4A11601146096821F480211160B0F502
:1004E000803F03D0B0F5802F0ED106E0C4490968E3
:1004F00041F48031C24A116007E0C149096841F402
:10050000A021BF4A116000E000BF00BF704710B5D6
:1005100001460022002300204A11012A02D1B84CD2
:10052000236806E0022A02D1B54C236A01E0B44CEC
:10053000636A01F01F02012494401C4201D0012093
:1005400000E0002010BD38B50020009000240025F8
:1005500000BF3120FFF7DBFF05460098401C0090EC
:100560000098B0F5A06F01D0002DF2D03120FFF738
:10057000CEFF08B1012400E00024204638BD01462A
:1005800000209F4A106820F0F80040EAC100106087
:1005900070479E490860704702460020984B586893
:1005A00020F47C1042EA01031843954B58607047D1
:1005B00096490866704701460020914A506820F02D
:1005C00003000843506070478D48406800F00C00FD
:1005D0007047014600208A4A506820F0F000084326
:1005E0005060704701460020854A506820F4E06062
:1005F00008435060704701460020814A506820F44B
:10060000605040EAC1005060704729B17C4A527A7C
:1006100002437B4B5A7204E0794A527A8243784B08
:100620005A7270477A490860704701460020744A40
:10063000506820F440400843506070470021754ADC
:1006400011706F4A82F82010012802D0042808D1C6
:1006500003E001216F4A117004E005216D4A117019
:1006600000E000BF00BF70476B49086070476449F5
:10067000096A0143624A1162704767494439086058
:10068000704730B500210022002400235C4D6D68C6
:1006900005F00C0121B1042905D0082923D105E07A
:1006A0005E4D056022E05E4D05601FE0544D6D68B3
:1006B00005F47012524D6D6805F48034022505EB87
:1006C00092421CB9574D554305600BE04C4D6D6887
:1006D00015F4003F03D0544D5543056002E0504DE2
:1006E0005543056002E04D4D056000BF00BF444D1D
:1006F0006D6805F0F00109094C4D6B5C0568DD4043
:1007000045603F4D6D6805F4E061090A474D6B5C3B
:100710004568DD4085603A4D6D6805F46051C90A51
:10072000424D6B5C4568DD40C560354D6D6805F434
:100730004041890B3E4D6B5CC568B5FBF3F5056127
:1007400030BD29B12E4A526902432D4B5A6104E053
:100750002B4A526982432A4B5A61704729B1284A71
:1007600092690243264B9A6104E0254A92698243CA
:10077000234B9A61704729B1214AD2690243204B29
:10078000DA6104E01E4AD26982431D4BDA61704788
:1007900029B11B4AD2680243194BDA6004E0184AB7
:1007A000D2688243164BDA60704729B1144A126945
:1007B0000243134B1A6104E0114A12698243104B41
:1007C0001A61704714494039086070470F49C8647E
:1007D00070470B49C87170470948406A40F0807003
:1007E00007494862704701460020054A92680A425C
:1007F00001D0012000E00020704701498872704755
:10080000001002400000FFF8FFFFF6FE0000424229
:10081000D8004242201002408004424200127A0076
:10082000001BB70000093D00808D5B002000002008
:100830003000002010B50446CA48844208D1012186
:100840000420FFF7A5FF00210420FFF7A1FF46E0E9
:10085000C548844208D101210820FFF799FF0021F3
:100860000820FFF795FF3AE0C048844208D10121F3
:100870001020FFF78DFF00211020FFF789FF2EE0E9
:10088000BB48844208D101212020FFF781FF0021CD
:100890002020FFF77DFF22E0B648844208D10121E5
:1008A0004020FFF775FF00214020FFF771FF16E0A1
:1008B000B148844208D101218020FFF769FF00215F
:1008C0008020FFF765FF0AE0AC48844207D1012190
:1008D0008015FFF75DFF0021A015FFF759FF10BD40
:1008E00010B501210846FFF753FF00210120FFF753
:1008F0004FFF10BD2DE9F0410246002500260020E3
:1009000000230024002791F803C00CF00F0591F894
:1009100003C01CF0100F03D091F802C04CEA05058B
:1009200091F800C0BCF1000F31D0146800202BE01A
:100930004FF0010C0CFA00F3B1F800C00CEA03060A
:100940009E4220D183004FF00F0C0CFA03F7BC43FA
:1009500005FA03FC4CEA040491F803C0BCF1280F2B
:1009600006D14FF0010C0CFA00FCC2F814C00AE0EA
:1009700091F803C0BCF1480F05D14FF0010C0CFAFF
:1009800000FCC2F810C0401C0828D1D31460B1F894
:1009900000C0BCF1FF0F34DD546800202EE000F1F0
:1009A000080C4FF0010808FA0CF3B1F800C00CEA8B
:1009B00003069E4221D183004FF00F0C0CFA03F77F
:1009C000BC4305FA03FC4CEA040491F803C0BCF1F3
:1009D000280F05D100F1080C08FA0CF8C2F81480B1
:1009E00091F803C0BCF1480F07D100F1080C4FF09B
:1009F000010808FA0CF8C2F81080401C0828CED371
:100A00005460BDE8F0814FF6FF71018002218170D2
:100A10000421C17070470246002093680B4201D048
:100A2000012000E0002070470146886880B27047CE
:100A300002460020D3680B4201D0012000E00020D4
:100A400070470146C86880B27047016170474161D4
:100A500070470AB1016100E041617047C1607047B1
:100A60004FF480320A4382618161826182698269C6
:100A7000704702460020424B18684FF680731840BA
:100A800040EA021008433E4B186070473D49C86178
:100A90007047F0B50A46002300240021002500F02D
:100AA0000046B6F1004F02D1354EF16901E0344EF7
:100AB0007168C0F3034583B200F44016B6F5401FD9
:100AC00008D121F070612E4E766826F070662C4FAA
:100AD0007E6012E000F48016B6F5801F06D1032672
:100AE00006FA05F4A14341F0706106E0460D3601B7
:100AF00003FA06F6B14341F0706122B1460D3601AA
:100B000003FA06F6314300F00046B6F1004F02D179
:100B10001B4EF16101E01A4E7160F0BD30B500224C
:100B20008B071C0F0F2303FA04F2154B08338C10AC
:100B300053F824309343124C08348D1044F8253078
:100B400023468C1053F824308C07240F00FA04F449
:100B500023430B4C08348D1044F8253030BD0A492E
:100B60000860704700080140000C0140001001407F
:100B70000014014000180140001C01400020014009
:100B80000000014000002042DC00204200B585B09A
:100B90006846FFF776FD05B000BD042000BF0100E8
:100BA000A0F10102D0B2FAD1704710B5034600247B
:100BB00003E0FFF7F2FF601C84B203EB8300400008
:100BC000A042F6DC10BD002108E0002201E0531C29
:100BD0009AB2B2F5467FFADD4B1CD9B28142F4DB02
:100BE000704730B50446002504E00A20FFF7EBFF0C
:100BF000681C85B2A542F8DB30BD1E2000BF010095
:100C0000A0F10102D0B2FAD1704710B5034600241A
:100C100003E0FFF7F2FF601C84B203EB83004000A7
:100C2000A042F6DC10BD000008B501210820FFF746
:100C300095FD03208DF8020014208DF803004FF479
:100C40008070ADF800006946FA48FFF753FE4FF494
:100C50000070ADF800006946F648FFF74BFE4FF410
:100C60008071F448FFF7F1FE4FF48071F148FFF70F
:100C7000ECFE08BD10B5044601E0FFF7BEFF200002
:100C8000A4F10104F9D110BD10B50620FFF7F2FF61
:100C9000002411E04FF48071E648FFF7D8FE0620EB
:100CA000FFF7E8FF4FF48071E248FFF7CEFE062021
:100CB000FFF7E0FF601CC4B2092CEBDB10BD10B5E0
:100CC0000320FFF7D7FF4FF40071DA48FFF7BDFEAE
:100CD0004FF48071D748FFF7B8FE0620FFF7CAFF30
:100CE0004FF40071D348FFF796FE48B9FFF7CCFFE9
:100CF0004FF40071CF48FFF78EFE08B9002010BDF9
:100D00004FF40071CB48FFF7A2FE0320FFF7B2FFBC
:100D10004FF40071C748FFF77EFE08B10020EEE7F0
:100D20004FF48071C348FFF792FE0320FFF7A2FF44
:100D30000120E4E710B50320FFF79CFF4FF480711A
:100D4000BC48FFF784FE0320FFF794FF4FF40071C7
:100D5000B848FFF77CFE0320FFF78CFF4FF480714B
:100D6000B448FFF772FE0620FFF784FF4FF40071CE
:100D7000B048FFF76AFE0320FFF77CFF10BD10B5F7
:100D80000620FFF777FF4FF48071AA48FFF75FFE58
:100D90000620FFF76FFF4FF40071A648FFF757FEDC
:100DA0000620FFF767FF4FF48071A248FFF74DFE62
:100DB0000620FFF75FFF4FF480719E48FFF747FE64
:100DC0000320FFF757FF10BD10B50320FFF752FFB8
:100DD0004FF480719748FFF73AFE0320FFF74AFF70
:100DE0004FF400719348FFF730FE0320FFF742FFF6
:100DF0004FF480718F48FFF728FE0620FFF73AFF77
:100E00004FF480718B48FFF722FE0320FFF732FF7B
:100E100010BD10B50320FFF72DFF4FF480718548FA
:100E2000FFF715FE0320FFF725FF4FF400718148FF
:100E3000FFF70BFE0320FFF71DFF4FF480717D4885
:100E4000FFF703FE0320FFF715FF4FF40071794809
:100E5000FFF7E1FD30B14FF480717648FFF7F7FD01
:100E6000002010BD4FF480717248FFF7F0FD0120A3
:100E7000F7E770B5044608250320FFF7FBFE22E0E4
:100E80004FF480716B48FFF7E2FD0320FFF7F2FE9D
:100E900014F0800F05D04FF400716648FFF7D5FDC0
:100EA00004E04FF400716348FFF7D1FD6006040EC3
:100EB0000120FFF7DFFE4FF480715E48FFF7C5FDAC
:100EC0000620FFF7D7FE2800A5F10101CDB2D7D14A
:100ED0004FF480715748FFF7BAFD70BD70B5082513
:100EE00000240320FFF7C6FEA9015248FFF7ADFD1D
:100EF0001CE00320FFF7BEFE6006040E4FF4807175
:100F00004C48FFF7A4FD0620FFF7B4FE4FF48071B4
:100F10004848FFF79AFD0320FFF7ACFE4FF400713D
:100F20004448FFF778FD08B144F001042800A5F11A
:100F30000101CDB2DDD14FF480713E48FFF787FD4E
:100F4000204670BD70B506460C461546FFF7B7FE45
:100F500008B9002070BD05F0FE00FFF78AFFFFF71B
:100F600058FF18B9FFF7E6FE0020F3E7E0B2FFF7FD
:100F700080FFFFF74EFF18B9FFF7DCFE0020E9E71E
:100F80003046FFF776FFFFF744FF18B9FFF7D2FEB0
:100F90000020DFE7FFF7CEFE0A20FFF76BFE0120FF
:100FA000D8E72DE9F04106460C461546FFF787FEC7
:100FB00010B90020BDE8F08104F0FE00FFF759FFF2
:100FC000FFF727FF18B9FFF7B5FE0020F2E7F0B2F0
:100FD000FFF74FFFFFF71DFF18B9FFF7ABFE00202B
:100FE000E8E7FFF76CFE08B90020E3E704F0FE0134
:100FF000481CFFF73EFFFFF70CFF18B9FFF79AFEFA
:101000000020D7E7FFF76AFF0746FFF7DDFEFFF78F
:1010100091FE05B12F700120CCE72DE9F041054686
:101020000E4617469846FFF74AFE28B90020BDE84D
:10103000F0810000000C014005F0FE00FFF719FFF1
:10104000FFF7E7FE18B9FFF775FE0020EFE7F0B2F3
:10105000FFF70FFFFFF7DDFE18B9FFF76BFE00206B
:10106000E5E700240AE0385DFFF703FFFFF7D1FE54
:1010700018B9FFF75FFE0020D9E7641C4445F2D39E
:10108000FFF758FE0120D2E72DE9F04105468846DA
:1010900016461F463946304600F0A4FBFFF70FFE08
:1010A00010B90020BDE8F08105F0FE00FFF7E1FE79
:1010B000FFF7AFFE18B9FFF73DFE0020F2E708F09A
:1010C000FF00FFF7D6FEFFF7A4FE18B9FFF732FEC8
:1010D0000020E7E7FFF7F3FD08B90020E2E705F09D
:1010E000FE01481CFFF7C5FEFFF793FE18B9FFF796
:1010F00021FE0020D6E7002405E0FFF7EFFE305583
:10110000FFF73DFE641CBC42F7D3FFF75DFEFFF71F
:1011100011FE0120C6E710B50446782200212046C2
:10112000FFF710FF10BD10B504467822402120467D
:10113000FFF708FF10BD70B504460D462B4622464A
:1011400040217820FFF769FF70BD70B504460D4659
:1011500005F1B001C8B2FFF7DEFF102141EA14101B
:10116000FFF7D9FF04F00F00FFF7D5FF70BD10B5F2
:101170008D20FFF7D0FF1420FFF7CDFFAF20FFF742
:10118000CAFF10BD10B58D20FFF7C5FF1020FFF777
:10119000C2FFAE20FFF7BFFF10BD70B5002415E001
:1011A00004F1B001C8B2FFF7B6FF0020FFF7B3FFAC
:1011B0001020FFF7B0FF002504E00020FFF7B3FF89
:1011C000681CC5B2802DF8DB601CC4B2082CE7DBBC
:1011D00070BD70B5002415E004F1B001C8B2FFF78E
:1011E0009AFF0020FFF797FF1020FFF794FF0025DC
:1011F00004E0FF20FFF797FF681CC5B2802DF8DBE5
:10120000601CC4B2082CE7DB70BD10B5AE20FFF740
:1012100082FF08B9002010BD0020FFF77CFF1020DE
:10122000FFF779FF4020FFF776FFB020FFF773FF4D
:101230008120FFF770FF4520FFF76DFFA120FFF72A
:101240006AFFC020FFF767FFA620FFF764FFA82012
:10125000FFF761FF1F20FFF75EFFD320FFF75BFF63
:101260000020FFF758FFD520FFF755FF8020FFF73C
:1012700052FFD920FFF74FFF2220FFF74CFFDA2063
:10128000FFF749FF1220FFF746FFDB20FFF743FF80
:101290002020FFF740FF8D20FFF73DFF1420FFF7D0
:1012A0003AFFAF20FFF737FFFFF777FF00F03CF87A
:1012B000002000F015F8012000F002F80120AAE754
:1012C000FE4948717047FD4840797047FB4A1080DD
:1012D00051807047F94800887047F8484088704747
:1012E000F6490871097911B1012918D10AE00821DC
:1012F000F34A1170102151709170D1701171202139
:1013000051710CE00C21EE4A1170182151703021FE
:1013100091701821D17011714821517100BF00BF27
:101320007047E6480079704710B500200EE00021B4
:1013300008E0002200EB4003E24C04EB43135A5454
:101340004A1CD1B26029F4DB421CD0B20428EEDB87
:1013500010BD10B500240DE021460020FFF7F5FE7A
:1013600004EB4401D74A02EB41106021FFF7E3FE92
:10137000601CC4B2042CEFDB10BDF0B5034614466C
:10138000602B00DBF0BD202900DBFBE7FCB1084649
:10139000CD1701EB5575ED1005EB4505C94E06EB74
:1013A0004515ED5C0A46CE1701EB5676F610A1EB1B
:1013B000C6070126BE403543CE1701EB5676F61020
:1013C00006EB4606BF4F07EB4616F5541EE0CD1759
:1013D00001EB5575ED1005EB4505BA4E06EB4515CD
:1013E000ED5C0A46CE1701EB5676F610A1EBC60768
:1013F0000126BE40B5430846CE1701EB5676F610DF
:1014000006EB4606AF4F07EB4616F55400BFB9E7AB
:101410002DE9F04105460E46174698462C4606E053
:10142000424639462046FFF7A8FF601CC4B2B442CA
:10143000F6DDBDE8F0812DE9F04180460D46164607
:101440001F462C4606E03A4621464046FFF795FFE8
:10145000601CC4B2B442F6DDBDE8F0812DE9F0476E
:10146000064688464FF000090024B8F1000F29D045
:101470009248007910B101280AD104E0924FDFF8B8
:101480004C92082507E0924FDFF84892042502E0CD
:101490000020BDE8F08700BF0DE007EB4401022209
:1014A000304600F073F920B98548407904FB009973
:1014B00003E0601C84B2AC42EFDB00BFAC421ADB3D
:1014C0000020E6E77D48007910B1012810D107E03F
:1014D0007B488178307820387F4A01FB002909E079
:1014E00077488178307820387C4A01FB002901E078
:1014F0000020CEE700BF4846CBE72DE9FF4F81B083
:10150000804689460020824605460646DDE90301FD
:10151000FFF7A4FF044614B905B0BDE8F08F0498A6
:1015200020B16748C77890F804B003E064480778B2
:1015300090F801B014F8010B0090002634E000256B
:101540002EE0CAF10701012088400099084209D025
:1015500009EB0602D1B208EB0502D0B20122FFF777
:101560000CFF0CE055484079012808D109EB060230
:10157000D1B208EB0502D0B20022FFF7FEFE0AF15D
:10158000010000F0FF0ABAF1070F02DC681CB84244
:1015900004DB4FF0000A14F8010B0090681CC5B280
:1015A000BD42CEDB701CC6B25E45C8DB00BFB3E7F0
:1015B0002DE9F04707468846154600243E46C146B9
:1015C0001CE0285D10F0800F0CD02A190123494639
:1015D0003046FFF792FF3A48C078304486B2A01CEC
:1015E00084B20BE02A19002349463046FFF785FFF5
:1015F00033480078304486B2601C84B2285D0028ED
:10160000DFD1BDE8F0872DE9F04107460D46002601
:10161000002410E0A85D10F0800F06D02848C078A4
:10162000204484B2B01C86B205E0254800782044EE
:1016300084B2701C86B2A85D0028EBD1602C01DB5F
:10164000002405E0C4F1600000EBD071C1F34F0449
:101650002A4639462046FFF7ABFFBDE8F08170B55A
:10166000044617490979C1F1200000EBD071C1F39C
:101670004F0521462846FFF7C6FF70BD10B504464A
:10168000FFF752FE2046FFF7EAFFFFF762FE10BDAC
:1016900070B505460E460A4800792021A1EB4000AE
:1016A000032190FBF1F084B2FFF73EFE294620466D
:1016B000FFF7A9FF0249097912E000003A00002073
:1016C00034000020400000204A1F00085A1F000874
:1016D000BA320008C23200084A190008BA200008CD
:1016E00001EB440188B23146FFF78DFFFFF731FE71
:1016F00070BD000008B501210D20FFF72FF8012172
:101700000420FFF72BF801211248FFF7C2F903204C
:101710008DF8020010208DF80300A020ADF8000025
:1017200069460D48FFF7E6F820210B48FFF78DF9D1
:1017300080210948FFF789F94FF40040ADF8000017
:1017400069460648FFF7D6F84FF400410348FFF713
:101750007CF908BD00023000000C01400008014087
:1017600008B501211020FEF7F9FF03208DF80200D3
:1017700048208DF803004FF40060ADF80000694682
:101780000148FFF7B7F808BD0010014040EA010327
:1017900010B59B070FD1042A0DD310C808C9121F1A
:1017A0009C42F8D020BA19BA884201D9012010BD54
:1017B0004FF0FF3010BD1AB1D30703D0521C07E021
:1017C000002010BD10F8013B11F8014B1B1B07D185
:1017D00010F8013B11F8014B1B1B01D1921EF1D1F6
:1017E000184610BD4FF000020429C0F0128010F01E
:1017F000030C00F01E80CCF1040CBCF1020F18BFEA
:1018000000F8012BA8BF20F8022BA1EB0C0100F07F
:1018100010B85FEAC17C24BF00F8012B00F8012B4F
:1018200048BF00F8012B70477047704770474FF072
:10183000000200B5134694469646203922BFA0E820
:101840000C50A0E80C50B1F12001BFF4F7AF09072C
:1018500028BFA0E80C5048BF0CC05DF804EB89001D
:1018600028BF40F8042B08BF704748BF20F8022B60
:1018700011F0804F18BF00F8012B7047754600F03B
:1018800029F8AE4605006946534620F00700854614
:1018900018B020B5FEF7A8FCBDE820404FF00006C8
:1018A0004FF000074FF000084FF0000B21F0070148
:1018B000AC46ACE8C009ACE8C009ACE8C009ACE88B
:1018C000C0098D4670470446AFF300802046FEF7FE
:1018D00076FC000000487047C00100200149182034
:1018E000ABBEFEE7260002007047202122232425FC
:1018F000262728292A2B2C2D2E2F30313233343510
:10190000363738393A3B3C3D3E3F404142434445FF
:10191000464748494A4B4C4D4E4F505152535455EF
:10192000565758595A5B5C5D5E5F606162636465DF
:10193000666768696A6B6C6D6E6F707172737475CF
:10194000767778797A7B7C7D7E7F000000000000CE
:101950000000000000000000000000000010101057
:101960001010101000001818000000123624480053
:1019700000000000000000000000000000242424FB
:10198000FE484848FE4848480000000010385454BB
:101990005030181414545438101000000044A4A8F7
:1019A000A8A8541A2A2A2A440000000000304848F7
:1019B00048506EA494888976000000606020C000C2
:1019C00000000000000000000000000204080810F1
:1019D0001010101010080804020000402010100819
:1019E000080808080810102040000000000010102F
:1019F000D63838D61010000000000000000010108B
:101A00001010FE1010101000000000000000000078
:101A1000000000000000606020C000000000000026
:101A200000007F0000000000000000000000000037
:101A300000000000000060600000000001020204DD
:101A40000408081010202040400000000018244224
:101A5000424242424242241800000000001070102E
:101A6000101010101010107C00000000003C4242CA
:101A7000420404081020427E00000000003C424264
:101A800004180402024244380000000000040C1450
:101A9000242444447E04041E00000000007E4040D4
:101AA000405864020242443800000000001C2440F8
:101AB000405864424242241800000000007E444422
:101AC000080810101010101000000000003C4242E6
:101AD000422418244242423C0000000000182442E4
:101AE0004242261A020224380000000000000000D2
:101AF0001818000000001818000000000000000086
:101B00000010000000000010102000000002040877
:101B10001020402010080402000000000000000017
:101B2000FE000000FE000000000000000040201049
:101B3000080402040810204000000000003C42425B
:101B40006202040808001818000000000038445A17
:101B5000AAAAAAAAB4424438000000000010101833
:101B60002828243C444242E70000000000F8444496
:101B700044784442424244F800000000003E4242A1
:101B800080808080804244380000000000F8444299
:101B900042424242424244F80000000000FC4248F7
:101BA00048784848404242FC0000000000FC42489F
:101BB00048784848404040E000000000003C444471
:101BC0008080808E844444380000000000E7424258
:101BD00042427E42424242E700000000007C101078
:101BE000101010101010107C00000000003E0808BB
:101BF000080808080808080888F0000000EE4448B3
:101C000050705048484444EE0000000000E040405E
:101C100040404040404042FE0000000000EE6C6C3E
:101C20006C6C5454545454D60000000000C76262D7
:101C300052524A4A4A4646E20000000000384482B6
:101C400082828282828244380000000000FC42428C
:101C500042427C40404040E00000000000384482A6
:101C600082828282B2CA4C380600000000FC4242E6
:101C7000427C4848444442E300000000003E4242A7
:101C8000402018040242427C0000000000FE921036
:101C900010101010101010380000000000E7424231
:101CA000424242424242423C0000000000E74242BF
:101CB00044242428281810100000000000D6929216
:101CC0009292AAAA6C4444440000000000E7422417
:101CD00024181818242442E70000000000EE4444B1
:101CE000282810101010103800000000007E840416
:101CF00008081020204242FC0000001E10101010A6
:101D000010101010101010101E0000004040202075
:101D100010101008080404040202007808080808DB
:101D200008080808080808087800001C22000000BD
:101D300000000000000000000000000000000000A3
:101D4000000000000000000000FF00601000000024
:101D50000000000000000000000000000000000083
:101D6000003C421E2242423F0000000000C04040B2
:101D700040586442424264580000000000000000E5
:101D8000001C22404040221C00000000000602020D
:101D9000021E22424242261B0000000000000000FA
:101DA000003C427E4040423C00000000000F111009
:101DB000107E10101010107C0000000000000000C9
:101DC000003E444438403C42423C000000C0404099
:101DD000405C6242424242E70000000000303000B6
:101DE000007010101010107C00000000000C0C009F
:101DF000001C0404040404044478000000C04040B3
:101E0000404E4850684844EE00000000007010103A
:101E1000101010101010107C0000000000000000D6
:101E200000FE4949494949ED00000000000000005A
:101E300000DC6242424242E7000000000000000075
:101E4000003C42424242423C0000000000000000D0
:101E500000D864424242447840E0000000000000A4
:101E6000001E22424242221E020700000000000023
:101E700000EE3220202020F80000000000000000CA
:101E8000003E42403C02427C000000000000001086
:101E9000107C10101010100C00000000000000005A
:101EA00000C642424242463B0000000000000000E3
:101EB00000E7422424281010000000000000000069
:101EC00000D79292AAAA444400000000000000003B
:101ED000006E24181818247600000000000000008E
:101EE00000E742242428181010E000000000000041
:101EF000007E44081010227E000000030404040445
:101F0000040804040404040403000808080808087A
:101F100008080808080808080808006010101010D1
:101F200010081010101010106000304C430000001A
:101F300000000000000000000000000000000000A1
:101F400000000000000000000000D6F7BBFAC4A3A8
:101F5000CABDB4D3B5E7D4B4C1F70200010001088B
:101F60007FFC01000100010001103FF801000100A9
:101F7000010001000104FFFE00001000101011F824
:101F80001110FD1011103110391055105110911011
:101F9000111011121212140E1800111011141FFE3C
:101FA0001110FD1813FC32083BF8560853F8904006
:101FB0001FFE104010B0110E1604008000A000900B
:101FC0000084FFFE008000803E80088008400840BA
:101FD00009200E227012200A0004000008200820A8
:101FE00008200820082008200850085008501450E5
:101FF00012882188210C420684040200020002108B
:102000007FF8421042107FF0421042107FF04210E1
:1020100002000204020401FC0000000447FE342018
:102020001420844465FE25040DFC150425FCE420E1
:1020300024A829A62A2230A020400080404837FC4E
:1020400010408090610827FC080411502150E15095
:10205000215021522152224E244020212223242586
:10206000262728292A2B2C2D2E2F30313233343598
:10207000363738393A3B3C3D3E3F40414243444588
:10208000464748494A4B4C4D4E4F50515253545578
:10209000565758595A5B5C5D5E5F60616263646568
:1020A000666768696A6B6C6D6E6F70717273747558
:1020B000767778797A7B7C7D7E7F00000000000057
:1020C0000000000000000000000000000000000010
:1020D0000000000000000000000000000000000000
:1020E00000000000000000000000000000000000F0
:1020F00000000700070007000700070002000200B9
:1021000002000200020002000000000000000700C0
:10211000070007000000000000000000000006604B
:1021200006600CC0198011002200000000000000B1
:10213000000000000000000000000000000000009F
:10214000000000000000000000000000000000008F
:102150000000000010401040104010407FE07FE081
:1021600010401040208020807FE07FE02080208091
:10217000208020800000000000000000000000001F
:10218000020002000F801AC032C032C032001A00B2
:102190000E0007000380038002C032C032C032C08C
:1021A00012800F000200020000000000000000008A
:1021B0000000000070C050808880890089008B007A
:1021C0008A005FC0754006200A200A201A201220CB
:1021D000114021C0000000000000000000000000CD
:1021E000000000001C00260026002600260025C056
:1021F0003880308058804900CD00C700C600C30039
:10220000652038C000000000000000000000300021
:102210003800080008001000600000000000000006
:1022200000000000000000000000000000000000AE
:10223000000000000000000000000000000000207E
:10224000004000800180010003000300060006003A
:102250000600060006000600060003000300010059
:1022600001800080004000200000000000004000CD
:1022700020001000180008000C000C0006000600EA
:10228000060006000600060006000C000C00080010
:1022900018001000200040000000000000000000B6
:1022A00000000000000002000200020072703AE02C
:1022B0000F800F803AE072700200020002000000FE
:1022C000000000000000000000000000000000000E
:1022D00000000000000000000200020002000200F6
:1022E00002007FF002000200020002000200000073
:1022F00000000000000000000000000000000000DE
:1023000000000000000000000000000000000000CD
:10231000000000000000000000000000000030008D
:1023200038000800080010006000000000000000F5
:10233000000000000000000000000000000000009D
:1023400000007FE00000000000000000000000002E
:10235000000000000000000000000000000000007D
:10236000000000000000000000000000000000006D
:102370000000000000000000000000000000380025
:1023800038003800000000000000000000000020BD
:102390000060004000C000800080010001000200D9
:1023A00002000600040004000800080010001000ED
:1023B000300020006000400000000000000000002D
:1023C000000000000F00198030C030C06060606005
:1023D00060606060606060606060606030C030C09D
:1023E00019800F0000000000000000000000000045
:1023F00000000000020006003E0006000600060085
:10240000060006000600060006000600060006009C
:1024100006003FC0000000000000000000000000B7
:10242000000000001F00218040C060C060C000C0EC
:10243000018001800300040008001040204040405B
:102440007FC07FC00000000000000000000000000E
:10245000000000001E002300618061806180018017
:1024600003000E000180008000C060C060C060C03A
:1024700021801F000000000000000000000000009C
:1024800000000080018003800380058009800980AE
:1024900011802180218041807FE0018001800180C6
:1024A000018007E0000000000000000000000000C4
:1024B000000000003FC03FC020002000200020009E
:1024C0002F00318020C000C000C060C060C04180CB
:1024D00021801F000000000000000000000000003C
:1024E00000000000078018C030C0300020006000ED
:1024F000678068C0706060606060606020603040CD
:1025000018C00F00000000000000000000000000E4
:10251000000000001FE03FE030402080208000806D
:102520000100010002000200020006000600060091
:10253000060006000000000000000000000000008F
:10254000000000001F8030C060606060606070400C
:102550003CC00F00338020C06060606060606060DD
:1025600030C00F80000000000000000000000000EC
:10257000000000000F00308030C06040606060608C
:10258000606060E031601E60006000C000C03080AC
:1025900031801E000000000000000000000000006C
:1025A000000000000000000000000000070007001D
:1025B000070000000000000000000000000007000D
:1025C00007000700000000000000000000000000FD
:1025D00000000000000000000000000000000600F5
:1025E00006000000000000000000000000000000E5
:1025F00006000600020004000000000000000000C9
:1026000000000020004000800100020004000800DB
:1026100010002000100008000400020001000080EB
:10262000004000200000000000000000000000004A
:1026300000000000000000000000000000007FE03B
:1026400000000000000000007FE00000000000002B
:10265000000000000000000000000000000000007A
:1026600000002000100008000400020001000080AB
:10267000004000200040008001000200040008002B
:10268000100020000000000000000000000000001A
:1026900000000F8030C0406040606060606000C03B
:1026A00001800600040004000400000000000E0089
:1026B0000E000E00000000000000000000000000FE
:1026C0000000000007801C601020335026D064906A
:1026D000649068906890699069A066C0301030205E
:1026E000184007800000000000000000000000000B
:1026F00000000000060006000E000B000B00130097
:102700001180118011801F8020C020C020C0206057
:102710006060F0F000000000000000000000000019
:1027200000000000FF00618060C060C060C060C049
:1027300061807F0060C06040606060606060606079
:1027400060C0FF80000000000000000000000000EA
:102750000000000007E018603020302020006000FA
:102760006000600060006000600060203020304049
:1027700018800F00000000000000000000000000B2
:1027800000000000FE00618060C060C060606060AA
:1027900060606060606060606060606060C060C079
:1027A0006380FE0000000000000000000000000048
:1027B00000000000FFC06040602060006000610019
:1027C00061007F00610061006000600060206020A7
:1027D0006040FFC00000000000000000000000009A
:1027E00000000000FFC060C0602060206000610049
:1027F00061007F00610061006000600060006000B7
:102800006000F00000000000000000000000000078
:10281000000000000F4018C0304030402000600031
:1028200060006000600063F060C060C030C030C015
:1028300018C00F00000000000000000000000000B1
:1028400000000000F0F060606060606060606060E8
:1028500060607FE0606060606060606060606060D9
:102860006060F0F0000000000000000000000000C8
:10287000000000003FC0060006000600060006003B
:102880000600060006000600060006000600060018
:1028900006003FC000000000000000000000000033
:1028A000000000000FF001800180018001800180A4
:1028B0000180018001800180018001800180018010
:1028C00001800180618063003E0000000000000084
:1028D00000000000F3E060806100620062006400BC
:1028E0006C007C007600670063006380618060C0DC
:1028F00060E0F1F0000000000000000000000000B7
:1029000000000000F00060006000600060006000F7
:102910006000600060006000600060006020602077
:102920006040FFC000000000000000000000000048
:1029300000000000F0F070E070E070E05960596055
:10294000596059605A604E604E604E604E604460FF
:102950004460E4F0000000000000000000000000FF
:1029600000000000E07070207020582058204C209B
:10297000462046204320432041A040E040E0406004
:102980004060E020000000000000000000000000A7
:10299000000000000F00198030C0304060606060AF
:1029A000606060606060606060606060304030C047
:1029B00019800F000000000000000000000000006F
:1029C00000000000FF8060C0606060606060606068
:1029D000606060C07F806000600060006000600038
:1029E0006000F00000000000000000000000000097
:1029F000000000000F00198030C03040606060604F
:102A0000606060606060606060606E60324031C0D5
:102A100011800F8001E000C00000000000000000F5
:102A200000000000FF8060C0606060606060606007
:102A300060C07F006600630063006180618060C0E9
:102A400060C0F07000000000000000000000000006
:102A5000000000001F2030E0602060206000700057
:102A60003C000F0003C000C0006040604060606038
:102A700070C04F8000000000000000000000000057
:102A8000000000007FE04620861086100600060049
:102A90000600060006000600060006000600060006
:102AA00006000F0000000000000000000000000011
:102AB00000000000F0706020602060206020602036
:102AC0006020602060206020602060206020602006
:102AD00030401F80000000000000000000000000E7
:102AE00000000000F8F0706030403040304030802E
:102AF00018801880188018800D000D000D000F0040
:102B000006000600000000000000000000000000B9
:102B100000000000F770662066206640664067404F
:102B2000374037403B803B803B803B803980110001
:102B30001100110000000000000000000000000073
:102B40000000000079E030C01880188019000D00E6
:102B50000E000600060007000B000B801980118094
:102B600030C079E00000000000000000000000001C
:102B700000000000F8F0706030403080188018804D
:102B80000D000D000E0006000600060006000600FF
:102B900006001F8000000000000000000000000090
:102BA000000000003FE020C041C00180038003001E
:102BB0000300060006000C000C0018001820382046
:102BC00030407FC00000000000000000000007E06F
:102BD00004000400040004000400040004000400D5
:102BE00004000400040004000400040004000400C5
:102BF00004000400040007E00000000000000000E2
:102C00000000200010001000100008000800040060
:102C10000400040002000200010001000100008025
:102C200000800040004000400020000000003F0005
:102C3000010001000100010001000100010001008C
:102C4000010001000100010001000100010001007C
:102C50000100010001003F0000000000000007002B
:102C60000D80104000000000000000000000000087
:102C70000000000000000000000000000000000054
:102C80000000000000000000000000000000000044
:102C90000000000000000000000000000000000034
:102CA0000000000000000000000000000000000024
:102CB0000000000000000000FFF00000000018000D
:102CC00006000000000000000000000000000000FE
:102CD00000000000000000000000000000000000F4
:102CE00000000000000000000000000000000000E4
:102CF00000000000000000000000000000000F8045
:102D000030C030C007C01CC030C060C060C060C0F0
:102D100071D03EF000000000000000000000000044
:102D200000001000700030003000300030003380B0
:102D30003CC03860306030603060306030603040BF
:102D400038C02F80000000000000000000000000DC
:102D500000000000000000000000000000000F0064
:102D600031803180618060006000600060403040F0
:102D700030800F0000000000000000000000000094
:102D80000000004001C000C000C000C000C01EC064
:102D900031C030C060C060C060C060C060C020C0D2
:102DA00031E01E8000000000000000000000000074
:102DB000000000000000000000000000000007808C
:102DC00018C0106030603FE0300030003000182044
:102DD0001C40078000000000000000000000000010
:102DE0000000000003C006600C600C000C007FC0F7
:102DF0000C000C000C000C000C000C000C000C0073
:102E00000C003F80000000000000000000000000F7
:102E100000000000000000000000000000000F7033
:102E2000199030C030C030C019801F0030003E0003
:102E30001FC06060606070E01F8000000000000044
:102E4000000010007000300030003000300037808B
:102E500038C030C030C030C030C030C030C030C0EA
:102E600030C079E000000000000000000000000019
:102E700000000000060006000000000000003E0008
:102E80000600060006000600060006000600060012
:102E900006003FC00000000000000000000000002D
:102EA00000000000018001800000000000000F8091
:102EB000018001800180018001800180018001800A
:102EC00001800180018033003E000000000000000E
:102ED000000010007000300030003000300033C0BF
:102EE00031003300320036003E003B0033003180B9
:102EF000318079E0000000000000000000000000C8
:102F0000000002003E000600060006000600060063
:102F10000600060006000600060006000600060081
:102F200006003FC00000000000000000000000009C
:102F30000000000000000000000000000000EEE0C3
:102F40007760666066606660666066606660666040
:102F50006660F77000000000000000000000000044
:102F6000000000000000000000000000000073806E
:102F70003CC030C030C030C030C030C030C030C0C5
:102F800030C079E0000000000000000000000000F8
:102F900000000000000000000000000000000F0022
:102FA000198030C06060606060606060606030C0E8
:102FB00030C00F0000000000000000000000000012
:102FC000000000000000000000000000000077800A
:102FD00038C030603060306030603060306030C0A9
:102FE00038C03780300030007C0000000000000056
:102FF00000000000000000000000000000001E4073
:1030000031C030C060C060C060C060C060C020C05F
:1030100031C01EC000C000C003E00000000000007E
:103020000000000000000000000000000000F9E0C7
:103030001A601C001800180018001800180018006A
:103040001800FF0000000000000000000000000069
:1030500000000000000000000000000000000FE081
:103060001860302030001C000F8001C020602060FC
:1030700030C03F80000000000000000000000000A1
:10308000000000000000040004000C000C007F8021
:103090000C000C000C000C000C000C000C000C4090
:1030A0000C4007800000000000000000000000004D
:1030B000000000000000000000000000104071C08F
:1030C00030C030C030C030C030C030C030C030C080
:1030D00039E01E8000000000000000000000000039
:1030E00000000000000000000000000000007CF074
:1030F0003860184018400C800C800C8007000700D6
:1031000007000200000000000000000000000000B6
:103110000000000000000000000000000000F7B008
:10312000632063206720372035C039C039C039C0DB
:10313000108010800000000000000000000000006F
:1031400000000000000000000000000000007DE022
:10315000188019800D000E00060007000B00198072
:1031600011C07BE000000000000000000000000033
:1031700000000000000000000000000000007DE0F2
:103180003880188018800D000D000D000600060024
:1031900002000400040028003800000000000000C5
:1031A00000000000000000000000000000003FC020
:1031B000218023800300070006000E000C201C2045
:1031C00018603FC00000000000000000000000C0C8
:1031D0000180010001000100010001000100010067
:1031E00003000400030001000100010001000100D0
:1031F00001000100018000C0000002000200020086
:1032000002000200020002000200020002000200AE
:10321000020002000200020002000200020002009E
:103220000200020002000200020000000000300064
:10323000180008000800080008000800080008003E
:103240000C0002000C00080008000800080008003C
:1032500008000800180030000000000038002400BA
:103260004210412000E000000000000000000000CB
:10327000000000000000000000000000000000004E
:10328000000000000000000000000000000000003E
:10329000000000000000000000000000000000002E
:1032A000000000000000000000000000000000001E
:1032B00000000000000000000000B5C2D6DDF6EFFF
:1032C000B3CC04020007038006030C0CFFFE1806B3
:1032D00000304418247FFC4764980664980C649876
:1032E0000C64981C7FF82C40102C00044DFFFE0C41
:1032F00002000C91100C9D8C0C99260C98260D98B0
:10330000240D1FF00C0FE008000002001003881CC1
:10331000030E18030C18030C18030C18030C1813D5
:103320008E18134D18136D98336CD8734CD8630CEA
:1033300098030C18030C18060C18060C180C0C1823
:103340000C0C18180C181008182000184000180051
:1033500000100800000E08180C0FFC190C181F8C28
:1033600018310C18224FF87FEC18A64C18264C1870
:10337000264FF83FC040264870264C64264D663FD5
:10338000CF6C204C70200C6001EC640F0D647C0E3F
:1033900066301C7E00083C00000000000001901810
:1033A00007DFFC1E181866181806181806181806E5
:1033B0009FF87FD0100E00000E000C173FFE168104
:1033C0008016C180264180260198461FFC06018098
:1033D00006018006018006018C06FFFE060000043F
:1033E000000000000434000800000020400000003D
:1033F0006C0100084434000840000020E007000091
:103400008801000800A24A0400000000000000003B
:103410000102030406070809000000000000000084
:103420000000000000000000010203040102030488
:10343000060708090204060800000000000000005A
:043440000000000088
:0400000508000131BD
:00000001FF
