:020000040800F2
:1000000000A300207D0200083D2A0008C12400084A
:10001000092A0008E10D0008099F000800000000FF
:10002000000000000000000000000000FD5A000871
:10003000AD180008000000000D0300084567000827
:10004000970200089702000897020008970200082C
:10005000970200089702000897020008970200081C
:10006000970200089702000897020008970200080C
:1000700097020008970200089702000897020008FC
:1000800097020008970200089702000897020008EC
:10009000970200089702000897020008891A0008D2
:1000A00097020008970200089702000897020008CC
:1000B000A968000897020008970200089702000844
:1000C00097020008970200089702000897020008AC
:1000D000970200089702000897020008970200089C
:1000E000691A0008970200086D4900089702000885
:1000F000A16A00089702000897020008970200080A
:1001000097020008C9590008816900089702000891
:10011000970200089702000897020008970200085B
:10012000970200089702000897020008970200084B
:10013000970200089702000897020008970200083B
:100140009702000897020008970200084549000836
:10015000970200089702000897020008970200081B
:10016000970200089702000897020008970200080B
:10017000CD490008A5490008970200089702000829
:10018000970200089702000800F002F800F067F8F4
:100190000AA090E8000C82448344AAF10107DA45E2
:1001A00001D100F05CF8AFF2090EBAE80F0013F0CD
:1001B000010F18BFFB1A43F001031847CCC5030019
:1001C000ECC503000A444FF0000C10F8013B13F09B
:1001D000070408BF10F8014B1D1108BF10F8015BA0
:1001E000641E05D010F8016B641E01F8016BF9D193
:1001F00013F0080F1EBF10F8014BAD1C0C1B09D1EA
:100200006D1E58BF01F801CBFAD505E014F8016B5B
:1002100001F8016B6D1EF9D59142D6D370470000ED
:100220000023002400250026103A28BF78C1FBD8FF
:10023000520728BF30C148BF0B607047642900F0E7
:100240000981782900F04281732900F0968300200B
:1002500070471FB50EF042FE1FBD10B510BD00F077
:10026000C2FB1146FFF7F5FF0EF025FA00F0E0FBA8
:1002700003B4FFF7F2FF03BC00F0E4FB094880473A
:1002800009480047FEE7FEE7FEE7FEE7FEE7FEE778
:10029000FEE7FEE7FEE7FEE704480549054A064B90
:1002A000704700004168000889010008008F0020A5
:1002B00000A300200093002000930020EFF31080A3
:1002C00072B6704780F310887047264C4FF6FF7562
:1002D00025604FF0000484F30988234C4FF001059A
:1002E0002570224C4FF08055256062B6FEE730B491
:1002F0001E4C4FF08055256030BC704730B41B4C0D
:100300004FF08055256030BC704700BF72B6EFF3E8
:10031000098050B11EF0100F08BF20ED108A203860
:1003200080E8F00F12490968086000B5114880475D
:100330005DF804EB104811490A7802700C48104926
:100340000A680260106890E8F00F20301EF0100F6D
:1003500008BFB0EC108A80F309884EF0040E62B634
:10036000704700BF22ED00E07804002004ED00E0BB
:10037000800400204D3C0008730400207404002019
:10038000880400200FB41CB5084B06AA7B446946BC
:100390000090059800F0C7FA04460020694600F076
:1003A000D5FA20461CBC5DF814FB0000BD0500001A
:1003B00070B5044685690068C10601D5302600E0A5
:1003C0002026C00708D070BDD4E9012130469047EF
:1003D000206A00F1010020626D1EF5D570BD70B578
:1003E000044685690078C00708D170BDD4E90121B1
:1003F00020209047206A00F1010020626D1EF5D593
:1004000070BD70B50C460546012A05D028788006D7
:1004100000D5EA69002302E0012305E05B1C93425A
:1004200002D2E05C0028F9D1A869E618C01AA861D8
:10043000286A184428622846FFF7BAFF04E0D5E985
:10044000012114F8010B9047B442F8D32846FFF776
:10045000C6FF70BD2DE9F0410646002410687529DD
:10046000314616A511D0AFF30080002803DAC0F1A1
:10047000000013A507E031688A0701D511A502E045
:10048000490704D510A5012401E0AFF30080002145
:100490000A2306F1240707E0B0FBF3F203FB120086
:1004A000303078541046491C0028F5D123462A469E
:1004B0003046BDE8F04100F0D5B900000000000072
:1004C0002D0000002B0000002000000070B5044645
:1004D0000D4621461068AFF300802188090502D53A
:1004E000104A7A4402E00F4A7A440E32002104F1A5
:1004F000240307E000F00F064FEA1010965D5E54EB
:1005000001F101010028F5D103462078000704D548
:10051000702D02D009B1113202232046BDE870408F
:1005200000F0A0B967C203002DE9F05F89460446D8
:100530004FF0000ADFF828B1FB44C0F820A02046A5
:10054000E168884700287CD0252806D0D4E901211D
:100550009047206A401C2062F1E700255F46204654
:10056000E16888472028064608DB312E06D207EBD3
:10057000060010F8200C08B10543F0E7A80701D5E4
:1005800025F00405C4F81CA00027C4F818A02A2EE2
:1005900009D030460AF01CF838B304EB8708303E27
:1005A000C8F8186019E059F8041B204604EB8702CC
:1005B0009161E1688847012F064618D1E06900285B
:1005C00020DA25F020051DE0D8F8180000EB8000A7
:1005D00006EB40003038C8F818002046E16888472C
:1005E000064609F0F5FF0028EED1012F0AD02E2E85
:1005F00008D12046E16888477F1C0646022F45F057
:100600002005C4DBA069002803DA404245F001055B
:10061000A061E80701D025F0100596B1A6F14100D0
:10062000192802D8203645F400654A46314620464E
:1006300025604D46FFF702FE60B1012807D0ED1D91
:1006400000E009E025F0070000F1080977E705F16F
:10065000040974E7304679E7206ABDE8F09F00009E
:1006600039C2030040EA010310B59B070FD1042AE9
:100670000DD310C808C9121F9C42F8D020BA19BA6D
:10068000884201D9012010BD4FF0FF3010BD1AB1D2
:10069000D30703D0521C07E0002010BD10F8013B27
:1006A00011F8014B1B1B07D110F8013B11F8014B4E
:1006B0001B1B01D1921EF1D1184610BD40EA010367
:1006C000024630B59B0710D14FF0013400E008C25C
:1006D00008C91D1B9D4315EAC41FF8D013F0FF0184
:1006E00002F8011B0DD01B0AF8E711F8013B002BA3
:1006F00002F8013B05D011F8013B002B02F8013B49
:10070000F3D130BD10B5431C02E010F8011B71B1EC
:100710008107FAD14FF0013202C88C1A8C4314EAD7
:10072000C211F9D0C01A0A0603D0C01E10BDC01AEB
:1007300010BD0A0401D0801E10BD0902FCD0401E6D
:1007400010BD032A40F2308010F0030C00F0158039
:1007500011F8013BBCF1020F624498BF11F801CBC4
:1007600000F8013B38BF11F8013BA2F1040298BF29
:1007700000F801CB38BF00F8013B11F0030300F093
:100780000081083AC0F0088051F8043B083A51F85B
:1007900004CBA0E80810F5E7121D5CBF51F8043B3C
:1007A00040F8043BAFF30080D20724BF11F8013BAF
:1007B00011F801CB48BF11F8012B24BF00F8013B11
:1007C00000F801CB48BF00F8012B70474FF0000242
:1007D0000429C0F0128010F0030C00F01B80CCF153
:1007E000040CBCF1020F18BF00F8012BA8BF20F8C1
:1007F000022BA1EB0C0100F00DB85FEAC17C24BF15
:1008000000F8012B00F8012B48BF00F8012B7047BE
:100810004FF0000200B5134694469646203922BF99
:10082000A0E80C50A0E80C50B1F12001BFF4F7AFE4
:10083000090728BFA0E80C5048BF0CC05DF804EBC6
:10084000890028BF40F8042B08BF704748BF20F834
:10085000022B11F0804F18BF00F8012B7047704732
:10086000704770472DE9F0470D4699469246044679
:1008700000F124080168880604D5E06921F0100120
:10088000216000E00120A84202DDA0EB050700E0A6
:100890000027A16907EB050202EB0900A1EB0000AC
:1008A000A0612078C00602D42046FFF781FD002613
:1008B00008E0D4E901211AF806009047206A401C9C
:1008C000761C20624E45F4DB2078C0060AD520460F
:1008D000FFF76EFD06E0D4E9012130209047206A41
:1008E000401C2062381EA7F10107F4DC07E0D4E9C0
:1008F000012118F805009047206A401C2062281E3C
:10090000A5F10105F3DC2046FFF769FD207800061C
:1009100002D50220BDE8F0870120FBE701694A1CEF
:1009200002610878704700B58FB0CDE90131002130
:10093000059105497944CDE9031011466846FFF752
:10094000F3FD0FB000BD0000E5FFFFFF0A6802F8ED
:10095000010B0A60704710B5436913B1AFF3008013
:1009600001E0FFF74EFD012010BD127800F12401D7
:100970000A7000224A700122EDE711684FF0FF3241
:10098000E9E710B5203AC0F00B80B1E81850203AE2
:10099000A0E81850B1E81850A0E81850BFF4F5AF1F
:1009A0005FEA027C24BFB1E81850A0E8185044BFA9
:1009B00018C918C0BDE810405FEA827C24BF51F816
:1009C000043B40F8043B08BF7047D20728BF31F80A
:1009D000023B48BF11F8012B28BF20F8023B48BF5B
:1009E00000F8012B7047754600F028F8AE46050068
:1009F0006946534620F00700854618B020B5FFF73A
:100A00004BFCBDE820404FF000064FF000074FF0D0
:100A100000084FF0000B21F00701AC46ACE8C0091C
:100A2000ACE8C009ACE8C009ACE8C0098D46704725
:100A30000446AFF300802046FFF71AFC00487047D9
:100A40009C8E002001491820ABBEFEE72600020064
:100A50007047000000B58DB00121084604F05CF835
:100A600003208DF8180000208DF81B008DF81A0067
:100A700002208DF819002020059005A9164801F0E4
:100A8000ADF94020059005A9134801F0A7F901210F
:100A9000480204F071F800200190049003904FF494
:100AA0008030029001A800F027F8002007908DF810
:100AB00020008DF8210009900A900B9001208DF8FC
:100AC000300007A9054800F049F80121034800F06B
:100AD00007F80DB000BD00000000024000210140F9
:100AE00021B1826842F00102826003E0826822F054
:100AF000010282607047000000210A4A11680A4A18
:100B000001EA0201D0E9002342EA0302836842EAD3
:100B10000302C36842EA030242EA0101034AC2F83F
:100B20000413704704230140E030FCFF0020014023
:100B300021B1826842F48072826003E0826822F40C
:100B400080728260704721B1826842F400728260D4
:100B500003E0826822F400728260704730B502467A
:100B6000002000235068104C20400D790C6844EAA6
:100B700005242043506090680C4C2040D1E9035478
:100B80002C438D682C434D7944EA45042043906002
:100B9000D06A20F470000C7D641EE4B2234340EA66
:100BA0000350D06230BD0000FFFEFFFCFDF7FFC028
:100BB000F0B504460D4600200021092D11DDE06846
:100BC000A5F10A0606EB4607072606FA07F1884351
:100BD000A5F10A0606EB460603FA06F10843E060B3
:100BE0000CE0206905EB4507072606FA07F1884364
:100BF00005EB450603FA06F108432061072A0FDAE0
:100C0000606B561E06EB86071F2606FA07F188431F
:100C1000561E06EB860605FA06F10843606322E0DD
:100C20000D2A0FDA206BD61F06EB86071F2606FA61
:100C300007F18843D61F06EB860605FA06F108433E
:100C4000206310E0E06AA2F10D0606EB86071F267E
:100C500006FA07F18843A2F10D0606EB860605FAAF
:100C600006F10843E062F0BD816841F08041816097
:100C70007047000038B10849096841F40001074A8B
:100C8000C2F8041306E00449096821F40001034A8C
:100C9000C2F8041370470000042301400020014003
:100CA00008B50848006828B96946092002F058F8D4
:100CB000044908606A4600210248006802F0A4F86E
:100CC00008BD00001C04002010B50248006802F0B6
:100CD000BDF910BD1C04002008B501F097FE0FE01F
:100CE00008496A464868002102F0AAFA04463CB165
:100CF00004221821204609F009F9204603F002FFDA
:100D0000EEE700001004002009E00548006880F4C8
:100D10000050034908604FF4FA7002F099FFF4E7BD
:100D20001408024005F044FD05F052FD50B108E002
:100D300008210F4801F0BDF84FF400510D4801F0B3
:100D4000B8F8F5E70DF050FF3223002211461046A7
:100D500002F0BCFF00211B2005F01EFF002119201E
:100D600005F01AFF02E0322002F072FFFBE70000FC
:100D7000001002400008024008B5002002F082FB8B
:100D8000134908600DF0BEFE20E011496A4608686C
:100D9000002102F0A1FB0F490F4809F053F8012888
:100DA0000FD10E490B4801F023FB0C48008840B1DD
:100DB00008490A4803F02CFE06480188C01C0DF0C3
:100DC000BFFE00200449088010208870DDE7000085
:100DD000100400203E490020080000203A45002071
:100DE00000BFFEE770B506460C4604F08000802880
:100DF00008D104F07F0000EB800106F58E7000EB57
:100E0000C10507E004F07F0000EB800106F55D708E
:100E100000EBC10504F07F00287004F08000C009D9
:100E200068702946304607F0D5FC002070BD70B5CB
:100E300006460C4604F08000802808D104F07F00AC
:100E400000EB800106F58E7000EBC10505E004EBB8
:100E5000840106F55D7000EBC1050020A87004F068
:100E60007F002870C4F3C01068702946304607F030
:100E700089FC002070BD70B505460C4604F080006A
:100E8000802805D104F07F01284607F09FFE02E08C
:100E9000284607F075FE002070BD2DE9F04106469A
:100EA0000D4690461F4605F08000802808D105F0C9
:100EB0007F0000EB800106F58E7000EBC10407E0B7
:100EC00005F07F0000EB800106F55D7000EBC104CA
:100ED00005F07F00207005F08000C0096070C4F844
:100EE0000880E770607808B12078E080022F01D197
:100EF000002020712146304607F0F8FB0020BDE8B5
:100F0000F0812DE9F04105460E461746984606F059
:100F10007F0000EB800105F55D7000EBC104E76028
:100F2000C4F814800020A061607006F07F0020707B
:100F3000E878012800D12761207820B92146284689
:100F400007F0F8FA03E02146284607F0A4FC002049
:100F5000BDE8F08108B500220092009A61F30A1200
:100F6000009202691268009B1A4303691A6008BD67
:100F700070B506460C4604F08000802808D104F0C5
:100F80007F0000EB800106F58E7000EBC10505E0E7
:100F900004EB840106F55D7000EBC1050120A8702B
:100FA00004F07F002870C4F3C010687029463046F2
:100FB00007F03FFC002070BD2DE9F04107460D46CB
:100FC0001646984605F07F0000EB800107F58E700D
:100FD00000EBC1040120607005F07F002070E66026
:100FE00026610020A061C4F81480207820B9214631
:100FF000384607F09FFA03E02146384607F04BFCDD
:101000000020BDE8F0811CB50446204607F05DFADB
:10101000E068C0680090204607F002FE03280BD16C
:101020000020A0704FF40070A080009820F4705051
:1010300000F51050009009E00120A0704020A08031
:10104000009820F4705000F5A05000900098E168DE
:10105000C86000200190019820F4005000F5005075
:1010600001900198E168486101201CBDF8B5054672
:10107000002400200090284607F095FE06468FE0E9
:1010800016F0010F7ED0E1B2284600F003FB00907D
:10109000009810F0010F26D0012000FA04F728690B
:1010A000406BB8432969486300200090009820F005
:1010B0000100401C009005F1180050F82400009930
:1010C0008160E1B239480068426828469047E87874
:1010D000012808D13CB940F21110405D042802D12A
:1010E000284607F0D2FA0098C0F3C00060B1002093
:1010F0000090009820F008000830009005F11800DA
:1011000050F82400009981600098C0F3001060B18D
:1011100000200090009820F010001030009005F1A1
:10112000180050F82400009981600098C0F38010E6
:1011300060B100200090009820F040004030009006
:1011400005F1180050F82400009981600098C0F360
:10115000400060B100200090009820F00200801C48
:10116000009005F1180050F8240000998160009863
:10117000C0F3C01030B12146284600F09FFA00208D
:10118000009000E00AE0009820F08000803000909D
:1011900005F1180050F8240000998160641C76085D
:1011A000002E7FF46DAF0120F8BD0000E0050020A7
:1011B0007CB50446002500200190204607F0FBFD89
:1011C00006466EE016F0010F69D0E9B2204607F03E
:1011D000FAFD0190019810F0010F39D00020019024
:1011E000019820F00100401C019004F1540050F8D7
:1011F000250001998160E078012817D104F154009D
:1012000050F825000069009005EB850104F55D703C
:1012100000EBC10080680099C1F31201411A05EB8F
:10122000850204F55D7000EBC2008161E9B21F48E0
:101230000068026820469047E078012808D13DB94F
:1012400040F21110005D052802D1204607F01DFA7A
:101250000198C0F3400060B100200190019820F097
:101260000200801C019004F1540050F825000199FF
:1012700081600198C0F3C00088B10C4800688168A3
:101280002046884700200190019820F0080008308F
:10129000019004F1540050F82500019981606D1C03
:1012A0007608002E8ED101207CBD0000E0050020D4
:1012B0003EB50446A07A70B1D4F80C0100900098B5
:1012C00020F002000090009820F0010000900099AA
:1012D000D4F80C01016000200190019820F0010079
:1012E000401C019020694068019988432169486049
:1012F00008480068816920468847002002900298CB
:1013000020F0004000F1004002900298E16848613E
:1013100001203EBDE00500207CB504460020019080
:10132000019820F0100010300190E0688069019968
:101330008843E1688861E068006A0090009800F0E6
:101340000F0000EB800104F55D7000EBC105009813
:10135000C0F3434007282DD2DFE800F02C04051D20
:101360001E2C1F0027E00098C0F30A1090B10098CF
:10137000C0F30A122046E96807F04BFDE8680099BF
:10138000C1F30A110844E860A8690099C1F30A1181
:101390000844A8610FE00EE00DE0082204F2CC51F1
:1013A000204607F036FDA8690099C1F30A110844E8
:1013B000A86100E000BF00BFE068806901990843B0
:1013C000E168886101207CBD38B5044608480068A2
:1013D000C1682046884700200090009820F008004F
:1013E000083000900098E1684861012038BD000095
:1013F000E00500201FB50446002000904FF48970DE
:10140000005D0090234800684169204688472069B4
:101410008068019000200390039820F4006000F59C
:10142000006003900398E1684861A07A70B3019866
:1014300010F0010F2AD040F21510005D012825D1CF
:101440009DF80000032821D100200290029820F08E
:101450000100401C0290D4F80C0100680299084376
:10146000D4F80C110860029820F00200801C029051
:10147000D4F80C01006802990843D4F80C110860F4
:101480000548006840F0060003490860012004B0E8
:1014900010BD0000E005002010ED00E030B587B081
:1014A000044600200290069005900490039001905D
:1014B000029820F00100401C0290206940680299C7
:1014C0008843216948600021204607F07FFB002502
:1014D0000BE0FF2104F1180050F82500816004F1B1
:1014E000540050F8250081606D1C6078A842F0D847
:1014F0004FF0FF312069816106986FF30F00401CA7
:101500000690069880B200F5803006900699206912
:10151000C161059820F0080008300590059820F07A
:101520000100401C0590059820F00200801C0590E9
:10153000059920694161049820F00100401C049045
:10154000049820F0080008300490049820F002006D
:10155000801C04900499206901612069006803904F
:10156000039820F4FE6003900399206901602046EF
:1015700007F08BF800200190019820F4805000F5CE
:10158000805001900198E168486104480068016951
:1015900020468847012007B030BD0000E00500204C
:1015A0002DE9F04106460F463946304607F066FC05
:1015B00001214FF4897081550021801C815500253F
:1015C00011E005EB850106F58E7000EBC1040120EA
:1015D00060702570E5800020E0704020A060002051
:1015E000E06060616D1C7078A842EAD8002510E0C8
:1015F00005EB850106F55D7000EBC104002060700D
:101600002570E580E0704020A0600020E06060610F
:101610006D1C7078A842EBD8304606F045FF304686
:1016200006F074FD0021304607F090FC304606F0CD
:1016300000FE304607F093FABDE8F08138B5044665
:101640000020009007480068C1692046884700983C
:1016500020F4801000F5801000900098E168486147
:10166000012038BDE005002038B504460020009078
:1016700007480068016A20468847009820F4001057
:1016800000F5001000900098E1684861012038BD25
:10169000E005002030B5024615692B6915696C6BB1
:1016A00024FA01F505F0010543EAC51302F1180516
:1016B00055F82150AD6805EA030030BD2DE9F84327
:1016C00007460E4600250020009006EB860107F530
:1016D0008E7000EBC104D4E90501451AA068A84248
:1016E00000D2A568E81C4FEA900807F1180050F8EE
:1016F0002600806900901BE0D4E90501451AA06826
:10170000A84200D2A568E81C4FEA9008ABB2F2B23A
:101710003846E16808F075FBE0682844E060A0699D
:101720002844A06107F1180050F826008069009055
:10173000009880B2404506D9D4E90510884202D20B
:1017400060690028D8D10120BDE8F88300B599B0C0
:101750000121364803F0E0F90121080203F00CFAF8
:1017600000200090324801903248029000200390FF
:1017700001200490002005904FF480600690400006
:101780000790800008904011099040020A900020C4
:101790000B9001200C9000200D900E906946264879
:1017A00000F058F80121244800F048F800200F907C
:1017B000109011904FF4706012900FA8FFF79CF9F1
:1017C0000020139001208DF850008DF8510000206A
:1017D0001590179001208DF8600013A914484C381B
:1017E000FFF7BCF9012112484C38FFF7A1F9072394
:1017F000012205210E484C38FFF7DAF901210C4887
:101800004C38FFF795F90120FFF734FA0121084819
:101810004C38FFF798F9012105484C38FFF760F97B
:1018200003484C38FFF720FA19B000BD0100400012
:101830004C200140200400201064024021B10268C5
:1018400042F00102026003E0026822F0010202603D
:101850007047000010B500220268134B1A40CC6894
:101860000B6823434C6923438C692343CC6923438E
:101870000C6A23434C6A23438C6A23434C6B2343F7
:101880008C6B23431A430260426922F00702D1E9BC
:101890000B3423431A4342610B6943604B688360F6
:1018A0008B68C36010BD00003F801CF070470000D3
:1018B0001FB50121880303F05FF90121082003F01F
:1018C0004BF90020ADF80400ADF80600401E029070
:1018D0000020ADF80C008DF80E0001A90F4805F0AE
:1018E00019F901210D4805F0E8F8012211460B48CD
:1018F00005F003F932208DF8000000208DF801007A
:101900008DF8020001208DF80300684601F098F878
:101910000121024805F0D4F81FBD0000000C004072
:1019200000B585B00121082003F0F6F801208DF8FC
:10193000100000208DF8120002208DF81100002008
:101940008DF813004FF480711E4800F0B2FA4FF486
:101950008070039003A91B4800F040FA012188031E
:1019600003F00AF90921032004F0CAF800208DF8D9
:1019700010008DF813004FF40070039003A9114874
:1019800000F02CFA4FF40070019000208DF8080050
:1019900010208DF8090001208DF80A0001A800F040
:1019A000B7F917208DF8000000208DF801008DF8A0
:1019B000020001208DF80300684601F041F805B0EF
:1019C00000BD0000000C024010B500200A4908705C
:1019D00000214FF0804005F09BF84FF0FF314FF0B1
:1019E000804005F093F80020034908710876002133
:1019F0000148417610BD0000946600201FB501210A
:101A0000880303F0B9F80121084603F0A5F8002087
:101A1000ADF80400ADF80600401E02900020ADF8BD
:101A20000C008DF80E0001A94FF0804005F072F80F
:101A30000121880705F041F801221146900705F0C1
:101A40005CF81C208DF8000000208DF801008DF856
:101A5000020001208DF80300684600F0F1FF01212B
:101A6000880705F02DF81FBD10B501F085F84FF47B
:101A7000004000F041F918B14FF4004000F036F991
:101A800001F08CF810BD000070B501F075F84FF44E
:101A9000007000F031F9002821D04FF4007000F000
:101AA00025F94FF08040446A002105F031F889485B
:101AB000007860BB45F20720844211D947F2D72055
:101AC00084420DD20120834908700021800705F06F
:101AD0001FF844F29F114FF0804005F017F8F5E031
:101AE0007D48844210D97D4884420DD20220794934
:101AF0000870084601790079401C764A107102F19D
:101B0000080040F82140E1E0FFF75EFFDEE07148A9
:101B1000007801287BD16F4801790079401C6D4A1B
:101B2000107102F1080040F82140083800790228BD
:101B3000D5DB10468168C0680E1800201146087178
:101B400042F25F7086425FD943F27F4086425BD2A9
:101B5000FF2508468068B0F5D26F07D30846806835
:101B600041F2AF31884201D200250BE0594880682C
:101B7000B0F5D25F06D35748806842F25F71884261
:101B800000D201250DB1012D3BD15248407E0728DE
:101B900023DC75B14F48017E1A30405C4D494A7EC6
:101BA000012191400843C1B24A48027E1A30815453
:101BB0000CE04848017E1A30415C1A38427E012010
:101BC000904081434348027E1A3081544148407E10
:101BD000401CC1B23F48417615E03E490A7E1A31A9
:101BE000885C00F099FBA84208D100213948417671
:101BF000007E401C3749087605E008E0FFF7E4FE68
:101C000001E0FFF7E1FE01E0FFF7DEFE5EE03148B4
:101C1000007802285AD12F480079012810D1304885
:101C200084420DD92F4884420AD22A48017900798A
:101C3000401C284A107102F1080040F8214045E09C
:101C400024480079022810D1234884420DD9234822
:101C500084420AD21F4801790079401C1D4A107144
:101C600002F1080040F8214030E01A4800790328CA
:101C70002AD1184801790079401C164A107102F1E6
:101C8000080040F8214000F05BFB0546CDB1012083
:101C90002870104800792871002609E00D480830A6
:101CA00050F8261005F1080040F82610701CC6B246
:101CB0002879B042F2DC0C494868294601F056FB0D
:101CC00000BFFFF781FE01E0FFF77EFE00F066FF38
:101CD00070BD0000946600206F3F23008F872400B2
:101CE000AF4D1100CF95120010040020014908608B
:101CF00070470000143C014001460020034A12686E
:101D00000A4201D0012000E000207047143C01404D
:101D1000002123498279002A3AD00A4612680368D2
:101D20009A430B461A600A1D126803689A430B1DFA
:101D30001A60027911440A6803681A430A60184A53
:101D40000832126803689A43154B08331A601A1D4B
:101D5000126803689A43124B0C331A604279102AB6
:101D60000ED11A1F126803681A430D4B08331A600C
:101D70001A1D126803681A43094B0C331A600DE0F0
:101D80000749427911440A6803681A430A6005E06A
:101D9000027911440A6803689A430A607047000098
:101DA000003C014008B50848006828B969460B2086
:101DB00000F0D6FF044908606A4600210248006826
:101DC00001F022F808BD00001804002010B50248F8
:101DD000006801F03BF910BD18040020F0B50A4678
:101DE00000210023002400BF3DE0012505FA01F396
:101DF000156805EA03049C4234D105684F000326A8
:101E0000BE40B543056015794E00B54006683543C0
:101E100005601579012D02D01579022D16D185683E
:101E20004F000326BE40B543856055794E00B5404E
:101E3000866835438560456801268E40B543456018
:101E4000456896798E40B6B235434560C5684F0007
:101E50000326BE40B543C560D5794E00B540C6687F
:101E60003543C560491C1029BFD3F0BDF0B5002330
:101E700000244D07ED0E02FA05F3CE1000F1200507
:101E800055F826504E07F70E0F26BE40B543CF102B
:101E900000F1200646F82750CE1000F1200555F835
:101EA000265045EA0304CE1000F1200545F82640EF
:101EB000F0BD41837047018370472DE9F0418AB03E
:101EC00004460F4600260CB10A2C00DD0A2400252A
:101ED00013E000F083FAB0F1000801DB404601E0B6
:101EE000C8F1000005A921F81500681CA04202DA1B
:101EF000012004F049FC681CC5B2A542E9DB052CB1
:101F000014DD2246694605A804F0F1FE022505E02D
:101F10003DF81500304486B2681CC5B2A01EA84228
:101F2000F6DC201F96FBF0F086B20DE0002506E0FF
:101F300005A830F81500304486B2681CC5B2A54229
:101F4000F6DB96FBF4F086B207B13E8030B200F0CB
:101F50000BF8B0F1000801DB404601E0C8F10000D9
:101F600080B20AB0BDE8F08170B52DED048B054656
:101F70000026002D02DA684286B200E0AEB2334895
:101F800090ED020ADFED320A20EE200ABCEEC00A14
:101F900010EE100A0004000C1CD130460CF08DFE2F
:101FA00041EC100BB0EE409AF0EE609A9FED290BD9
:101FB00053EC102B51EC190B0CF092FE41EC100B72
:101FC000B0EE408AF0EE608A51EC180B0CF046FE41
:101FD000044631E01D48808910F4004F16D01B489C
:101FE0008089C0F30E0000EE100AF8EEC00A174810
:101FF00090ED021A00EE106AB8EE400A50EE010AA7
:10200000BDEEE00A10EE100A04B215E00F48808918
:10201000C0F30E0000EE100AF8EEC00A0B4890ED77
:10202000021A00EE106AB8EE400A40EE010ABDEE58
:10203000E00A10EE100A04B2002C00DA0024002D91
:1020400000DA644220B2BDEC048B70BD2053002046
:1020500000007A44F6285C8FC2351040F0B5044683
:102060001E46FF23FF2500272312E5B209E012F8E0
:10207000010B80EA05070948C05D80EA03050848AE
:10208000C35D3000A6F1010C1FFA8CF6EFD109B147
:102090000B704D7005EB032080B2F0BD10170108E6
:1020A0001018010870B504460D4601265A2C6ED052
:1020B00018DC322C57D00CDC1A2C36D004DC0A2C5D
:1020C0002ED0122C73D13FE0222C42D02A2CF9D1F1
:1020D00068E03A2C61D0422C1DD04A2C69D0522C99
:1020E000F0D16BE0CA2C4DD00CDCAA2C40D004DC23
:1020F0006A2C73D07A2C7BD165E0B22C2ED0C22C06
:1021000076D145E0DA2C38D0E22C13D0EA2C6AD014
:10211000FA2C6DD113E039A12846FEF7CFFA69E019
:1021200038A12846FEF7CAFA64E039A12846FEF72E
:10213000C5FA5FE03AA12846FEF7C0FA5AE03CA192
:102140002846FEF7BBFA55E03DA12846FEF7B6FA51
:1021500050E03EA12846FEF7B1FA4BE03EA12846EA
:10216000FEF7ACFA46E03FA12846FEF7A7FA41E0A9
:102170003FA12846FEF7A2FA3CE040A12846FEF720
:102180009DFA37E041A12846FEF798FA32E01FE0B9
:1021900042A12846FEF792FA2CE045A12846FEF718
:1021A0008DFA27E046A12846FEF788FA22E01FE0D4
:1021B000FFE747A12846FEF781FA1BE048A1284621
:1021C000FEF77CFA16E04AA12846FEF777FA11E0FE
:1021D0004AA12846FEF772FA0CE0FFE749A128461B
:1021E000FEF76CFA06E049A12846FEF767FA01E01F
:1021F000002600BF00BF304670BD0000B2E9C2A992
:1022000000000000C8ABBED6C8EDB8B4CEBB00001D
:10221000C8ABBED6D3B2BCFEB8B4CEBB0000000083
:10222000C8ABBED6B3E4B5E7D4CAD0ED0000000019
:10223000C8ABBED6D7BCB1B8C6F0B1AC0000000088
:10224000D0F2C1D0C2EBBBD8B6C10000CAFDBEDD22
:10225000B1E0B3CC00000000C3DCC2EBB6C1C8A142
:1022600000000000C6C1B1CED6B8C1EE000000002B
:10227000BDE2C3DCD6B8C1EE00000000D0B4B9CCDA
:10228000B6A8D1D3C6DABDE2CBF80000D0B4CAFDFF
:10229000BEDDBDE2CBF8BDE2CBF80000D0B4B9CCD6
:1022A000B6A8D1D3C6DACAB1BCE4B1E0B3CC000061
:1022B000B5A5B8F6D3B2BCFEB8B4CEBB00000000E2
:1022C000C8ABBED6CAB1D6D3D0A3D7BC00000000DD
:1022D000C9E8D6C3D1D3C6DACAB1BCE40000000055
:1022E000D1D3C6DACAB1BCE4BBD8B6C10000000085
:1022F000D7B4CCACBBD8B6C100000000424954B240
:10230000E2CAD400B3E4B5E700000000C8ABBED613
:10231000B3E4B5E70000000010B504460022012335
:10232000002107E01C4201D0501CC2B25806030E27
:10233000481CC1B20829F5DB02F0010010BD000005
:1023400008B569460248006800F0C4FC08BD0000FA
:102350003C04002030B5002303800F4B93F840402D
:1023600005886B1C0380C31C5C550C1205886B1C14
:102370000380C31C5C5505886B1C0380C31C595526
:10238000140A05886B1C0380C31C5C5505886B1CF4
:102390000380C31C5A5530BDF844002070B5054673
:1023A00018E0002411E00C48005D18B90A480555F2
:1023B000204670BD0849085D04F08EFC18B9064837
:1023C00005552046F5E7601CC4B2042CEBDB012068
:1023D00001F03EFCE5E700000400002020B50025E8
:1023E000FEF75EFC301B05B2FEF76EFC284620BDF2
:1023F0002DE9F04105460C460026002740F2044135
:102400002046FEF7E3F9288805284ADBE8782649C4
:1024100091F84010884202D0E878002841D16979CB
:10242000287901EB002086B2E979A87901EB002038
:1024300087B2B6F5007F04D0A6F57F40FF3826D1DD
:1024400018E0A7F57F40FF3813D13A4631462046C1
:10245000FFF780FF2288E11C501814A1FEF72EF927
:102460002088103020800D212288501C2080E01C04
:1024700081540DE0A7F57F40FF3807D12888052853
:1024800004D13A4631462046FFF764FF00E000BF22
:1024900000BFE87828B9A6F57F40FF3801D00020BA
:1024A0002080BDE8F0810000F84400204D4231302A
:1024B0005F56312E355F313930383038000000003A
:1024C00000BFFEE71CB50121142002F025FB01200E
:1024D0008DF8040000208DF8060002208DF805001C
:1024E00000208DF807004020009069461348FFF750
:1024F00075FC0820009069461048FFF76FFC042027
:10250000009069460D48FFF769FC4FF400500090B9
:1025100069460B48FFF762FC40210848FFF7CBFCF7
:1025200008210648FFF7C7FC04210448FFF7C3FC55
:102530004FF400510248FFF7BEFC1CBD00100240E2
:10254000000802402DE9F043D1B04FF000096A487D
:102550000F904FF480701090FFF724FC0FF29C183E
:10256000B6216948FEF754F9414668460BF0CCF8AD
:102570000746002F6AD100BF09A968460BF03AFA56
:10258000074617B99DF82D0000B95EE09DF82D00B3
:102590002E2800D1F0E70F98007808B10F9801E0DD
:1025A0000DF12D0006469DF82C0010F0100F4BD1B8
:1025B0003046FEF7A7F80A282DD1042253A1B01DFA
:1025C000FEF750F838BB002507E0705D302802DBCD
:1025D000705D392800DD02E06D1C062DF5D300BFCB
:1025E000062D18D1484890F8B4001E2813DA464842
:1025F00090F8B40000EB4000434901EB4000316823
:102600000160B1888180404890F8B400401C3E4988
:1026100081F8B400B0E7334642463EA111A8FDF769
:10262000B1FE11A80BF090FA07466FB127222021C6
:1026300011A80AF055FD11A80BF086FA07461FB144
:102640000020314981F8B40096E700BF002546E03C
:102650004FF00109002436E004EB44022A4B03EB5F
:102660004201621C02EB420203EB42000622FDF72C
:10267000F9FF002825DD4FF00009601C00EB400049
:10268000214901EB4000016811918088ADF84800B4
:10269000601C00EB40001C4901EB400004EB4401CE
:1026A000194A02EB41010A6802608988818004EBC3
:1026B0004400154901EB400011990160BDF8481034
:1026C0008180601C84B2104890F8B400401B401E0A
:1026D000A042C1DCB9F1000F00D006E06D1C0A4831
:1026E00090F8B400401EA842B2DC00BFFFF76EFBBA
:1026F00051B0BDE8F0830000444D0020303ACFB522
:10270000CDB3C8D5D6BE0000685200202E747874B0
:102710000000000025732F257300000010B504464B
:102720000D48007B48B90C48806830B10B480078F0
:1027300018B901212046FEF71BFC81212046FEF737
:1027400017FC06480078022805D11F23024A012100
:102750002046FEF7D6FB10BD0C8E00204905002058
:1027600010B504462B4840682B49486029488068CA
:1027700088600121204604F006FD1F2810D125485D
:102780000068264988420BD12248407B012807DC9B
:102790002048807B012803DB1E48807B10280CDD4D
:1027A0001C49487B2022052102F0FEFF02201C4923
:1027B00008702046FFF7B2FF2AE01648417B00F17F
:1027C0000F02204602F074FD002803DA2046FFF7CE
:1027D000A5FF1DE013480078022819D011480078A1
:1027E000012815D00F480078032811D00E48008822
:1027F000002806DD0C4802880C49204600F0E0F86D
:1028000006E00948008818B90021204600F0B8F811
:1028100010BD00000C8E00202C8E0020555342432A
:102820004905002048050020460500200C7E0020B8
:1028300070B505460C460C480078022807D1812166
:102840002846FEF795FB0020074908700BE004F0CE
:102850008000802807D104480078012803D0012196
:10286000284600F08DF870BD4905002070B504467B
:102870000D4610480078022804D0032811D00428FF
:1028800014D10DE00C48417B00F10F02204602F00C
:102890000FFD002803DA0121204600F071F806E060
:1028A00000BF0021204600F06BF800E000BF00BF31
:1028B00070BD0000480500200C8E002070B5044655
:1028C0000D460D48007810B1012812D103E02046D2
:1028D000FFF746FF0EE00948417B00F10F0220465A
:1028E00002F0E6FC002803DA0121204600F048F857
:1028F00000E000BF00BF70BD480500200C8E002026
:102900000021014A117070474805002010B50446A7
:1029100000200C4908700C4908700C4800680168D8
:102920000020884701212046FEF7A5FA8121204694
:10293000FEF7A1FA1F23064A01212046FEF7E1FA1D
:1029400010BD00004805002049050020A406002015
:102950000C8E002010B504460020064908700120A6
:10296000054908701F23054A01212046FEF7C9FAD0
:1029700010BD000048050020490500200C8E0020F5
:1029800070B505460C460A480A49086008460473B3
:102990000020094908700D23064A81212846FEF7C8
:1029A0000BFB1F23054A01212846FEF7AAFA70BD3A
:1029B000555342532C8E0020480500200C8E0020D9
:1029C00070B506460D4614460C488068A04202D2F7
:1029D0000A48806800E0204684B209488068001BED
:1029E00007498860002008730420064908702346C0
:1029F0002A4681213046FEF7DFFA70BD0C8E00209A
:102A00002C8E00204805002000BFFEE708B50321FA
:102A1000064800F0C5FB064948606B4618220321B2
:102A2000044800F003F90449086008BDC0660020AE
:102A300010040020CC6600203C04002070470000F9
:102A400070B5002100230F22C47824B3174C2468EA
:102A500004F4E064C4F5E064C4F30721C1F10404A4
:102A6000E3B20A4144789C40E1B2847814402143A7
:102A70000C07210E0E4C05786155047804F01F05F3
:102A80000124AC4005786D114FF0E02606EB85057A
:102A9000C5F8004109E0047804F01F040125A540B1
:102AA000044C0678761144F8265070BD0CED00E019
:102AB00000E400E080E100E002490143024A1160C5
:102AC000704700000000FA050CED00E02DE9F04130
:102AD00005460E46144600271DB904202070BDE8A7
:102AE000F08116B90C202070F9E71148007810B178
:102AF00012202070F3E72878012808D0022807D098
:102B0000032802D0042804D100E000BF00BF00BFAA
:102B100002E001202070E2E700BFFDF7CFFB07468F
:102B2000AE613846FDF7CEFB0020207000BFD6E72F
:102B30007104002010B500F017F801F02DFC01F031
:102B400055FC01F077FC01F0F7FB01F0B7FB01F059
:102B50000BFD01F035FD01F0ADFC01F0D3FC01F0FF
:102B60008BF900F007F810BD00200149088070477C
:102B7000540400207047000006480078012808D15E
:102B800005480078FF2804D203480078401C024919
:102B900008707047780400207104002010B50024EC
:102BA0001A480078012830D1FDF788FB0446184800
:102BB000007820B116480078401E15490870144866
:102BC0000078F8B913480078E0B901F05BFD1248CD
:102BD0001249097850F82100114908600F4800781F
:102BE0001049097888420DD00D480068006C401CDF
:102BF0000B49096808640C480068401C0A490860D1
:102C0000FDF77CFB2046FDF75DFB10BD780400203E
:102C10007104002072040020A06D002074040020C4
:102C20008804002073040020580400202DE9FC5F74
:102C300005460F4691461E460020009025B96220A9
:102C400030700020BDE8FC9F15F0030F03D0622018
:102C500030700020F6E7022F03D25B203070002096
:102C6000F0E7B9F1040F03D25C2030700020E9E7EF
:102C7000FDF724FB009016480468006820B1144852
:102C800000684068124908600098FDF71BFB1CB9FA
:102C90005A2030700020D5E7AA46A846781E019039
:102CA0004FF0000B05E0C844CAF80080C2460BF1A3
:102CB000010B01988345F6D30020CAF80000256077
:102CC00065602761E760C4F8089030702046B9E776
:102CD000940400202DE9F04104460D46002724B954
:102CE000602028700020BDE8F081FDF7E7FA074674
:102CF000206960B16668306860602069401E2061AC
:102D00003846FDF7DFFA002028703046EBE73846FA
:102D1000FDF7D8FA5D2028700020E4E770B504467E
:102D20000D4600260CB9602070BD0DB95F20FBE791
:102D3000FDF7C4FA0646D4E90310884204D33046AE
:102D4000FDF7C0FA5E20EFE76068286065602069E3
:102D5000401C20613046FDF7B5FA0020E4E7000092
:102D60002DE9F04105460E460027402D04D32A20C8
:102D700030700020BDE8F0811F48007818B11020A5
:102D800030700020F6E7FDF799FA07461B4850F827
:102D9000250030B13846FDF795FA28203070002024
:102DA000E8E70120154941F82500154804684CB9A9
:102DB000002041F825003846FDF784FA04203070E1
:102DC0002046D7E70E48006840680D49086038463D
:102DD000FDF778FA04202070FF2040EA05202081CA
:102DE0000020606007A0A061204601F057FA002093
:102DF00030702046BEE7000071040020A06D002066
:102E00005C0400203F0000002DE9F74F82B005462A
:102E100017460020019025B90420387005B0BDE8A0
:102E2000F08F2878042802D001203870F6E7814816
:102E3000007810B102203870F0E77F48007810B1B8
:102E40000D203870EAE7FDF739FA019028894FEA3A
:102E50002029287AFF281FD1288900F47F40288163
:102E600028897649096891F8361008432881734803
:102E7000006868607148006890F83600484505DCD5
:102E80000198FDF71FFA7820387004E00198FDF7EB
:102E900019FA00203870C1E795F808B06C6894F80A
:102EA000360048457ADD6548006890F83600584598
:102EB00074DA94F83880624830F81800618F08425C
:102EC00014D05F4830F81800618F88435C4921F8BE
:102ED0001800084630F8180028B9A18F5948008812
:102EE0008843584908804FF0010A17E0E6699EB10F
:102EF00094F8388006F10C0030F81800618F884390
:102F000006F10C0121F81800084630F8180018B92D
:102F10007089A18F884370814FF0000A04F8369FB2
:102F200020780009A070207800F00F006070A17870
:102F300001208840E080617801208840A080A4F1D1
:102F40003604BAF1010F12D1A08F3E490988084317
:102F50003C49088094F83800394931F81000618FF5
:102F6000084394F83810364A22F8110013E0E66955
:102F70008EB17089A18F0843708194F8381006F1E2
:102F80000C0030F81100618F084394F8382006F1E6
:102F90000C0121F812002C4840F82940274800680D
:102FA00090F8340040F010002449096881F834009A
:102FB00000202249096881F83500204903980968F2
:102FC0000863284601F02AF90198FDF77BF901F022
:102FD0001FFBFDF773F901901848006890F8350061
:102FE00020B1012809D0022806D102E00020387063
:102FF0000BE00E20387008E000BF29460F4800683B
:1030000001F0D8F80A20387000BF00BF00200B493B
:10301000096881F834000949096881F835000749D1
:103020000968C8610549096808620198FDF74AF90D
:1030300000BFF3E671040020720400208004002029
:10304000946B002076040020A06D00202DE9F04153
:10305000044600272D48007810B10520BDE8F08116
:103060000CB90420FAE72078042801D00120F5E704
:10307000FDF724F9074620890612257A244960685D
:103080000968884204D03846FDF71CF96420E5E75A
:103090001F48006890F83600B04204D129461C4809
:1030A000006800F039F801201A4941F826006089CB
:1030B00008B3002310221946204601F019F80546EE
:1030C000208900F47F4020812089284320811148F5
:1030D00050F825006060B54206DC3846FDF7F2F88E
:1030E00001F096FA7820B9E73846FDF7EBF801F0E1
:1030F0008FFA0020B2E7208940F0FF0020810020F5
:1031000060603846FDF7DEF80020A7E77104002074
:1031100080040020A06D002030B590F838201C4BB2
:1031200033F81230448FA343194C24F8123023464D
:1031300033F812302BB9848F164B1B88A343154CE0
:10314000238000F8361F144B19700B09837001F0AF
:103150000F03437084780123A340C3804478012384
:10316000A3408380C3880B4C24882343094C2380CD
:103170008378074C34F81330848823438478A0F193
:103180003600034D25F81430044B43F8210030BDC0
:10319000946B00207604002073040020A06D0020B2
:1031A0002DE9F04106460F464FF000082048007810
:1031B00010B10020BDE8F081FDF780F880461D4881
:1031C0000468006820B11B4800684068194908601D
:1031D0004046FDF777F8FCB1FDF770F880461648D9
:1031E0000568D5B100680068134908604046FDF7DE
:1031F00069F86E6006EB8700A860EE602E61AF8212
:103200000020E882022020700020208165600BA051
:10321000A061204601F042F808E0064800686060BE
:10322000044804604046FDF74DF800242046C1E7FD
:10323000710400205C040020980400203F0000007E
:103240002DE9F0470646884615464FF0000926B995
:10325000042028700020BDE8F0873078022803D0D1
:10326000012028700020F6E73D48007818B10220C0
:1032700028700020EFE73B48007818B10D20287037
:103280000020E8E7FDF71AF881467468E08A98B1F3
:103290002169081D20610F68E08A401EE082A16854
:1032A0002069884201D1606820614846FDF70AF82C
:1032B000002028703846CEE72B48006890F834008C
:1032C00040F004002849096881F8340000202649AC
:1032D000096881F8350024480068C0F8308030461D
:1032E00000F09CFF4846FCF7EDFF01F091F9FCF778
:1032F000E5FF81461C48006890F8350020B10128A0
:103300000DD002280AD105E017480068476A00205E
:1033100028700DE000270E20287009E000BF31461C
:103320001148006800F046FF00270A20287000BFFF
:1033300000BF00200C49096881F834000A49096877
:1033400081F8350008490968C861074909680862B9
:103350000549096848624846FCF7B4FF38467AE7F1
:103360007104002072040020800400202DE9F04147
:1033700005460E46002715B90420BDE8F0812878DF
:10338000022801D00120F8E7FCF798FF074668897A
:1033900060B1002304223146284600F0A9FE3846D9
:1033A000FCF790FF01F034F90020E6E76C68E08A52
:1033B000A18A884204DB3846FCF784FF1E20DCE744
:1033C000E168081DE0600E60E08A401CE082D4E9FC
:1033D0000210884201D16068E0603846FCF772FF55
:1033E0000020CAE710B500240B480078012811D14D
:1033F000FCF764FF04460948007840B908480078A3
:10340000FF2804D206480078401C05490870204671
:10341000FCF758FF10BD0000780400207104002064
:103420007204002010B5002413480078012821D12F
:10343000FCF744FF044611480078C0B10F480078FB
:10344000401E0E4908700846007860B90C480078A4
:1034500028B92046FCF736FF01F0DAF80AE02046EA
:10346000FCF730FF06E02046FCF72CFF02E0204688
:10347000FCF728FF10BD0000780400207204002033
:103480007104002070B5054600261048007808B188
:10349000002070BDFCF712FF06460D480468006866
:1034A00020B10B4800684068094908603046FCF7C5
:1034B00009FF4CB10320207025810020606005A029
:1034C000A061204600F0EAFE2046E2E771040020F9
:1034D0005C0400203F0000002DE9F04105460E4647
:1034E000144600271DB904202070BDE8F08128781B
:1034F000032802D001202070F7E73248007810B18D
:1035000002202070F1E73048007810B10D202070C3
:10351000EBE7FCF7D3FE0746288940B12889401E17
:1035200028813846FCF7CEFE00202070DDE72748D2
:10353000006890F8340040F001002449096881F8DF
:10354000340000202149096881F835001F480068CF
:103550000663284600F062FE3846FCF7B3FE01F031
:1035600057F8FCF7ABFE07461848006890F835009E
:1035700020B1012809D0022806D102E000202070E5
:103580000BE00E20207008E000BF29460F480068BD
:1035900000F010FE0A20207000BF00BF00200B4981
:1035A000096881F834000949096881F8350007493C
:1035B0000968C8610549096808623846FCF782FE57
:1035C00000BF92E7710400207204002080040020F4
:1035D00070B5044600250CB9042070BD207803287E
:1035E00001D00120F9E7FCF769FE0546608960B16A
:1035F000002301221946204600F07AFD2846FCF7F8
:1036000061FE01F005F80020E7E720894FF6FF7121
:10361000884207D22089401C20812846FCF752FEB0
:103620000020DAE72846FCF74DFE3320D5E70000FE
:1036300010B50B48007890B901F024F809480078DB
:103640000949087009480749097850F821000849D4
:1036500008600846006807490860FCF736FE10BDA0
:10366000780400207404002073040020A06D002062
:103670008804002080040020704700002DE9F04FEE
:1036800085B081468A4693461C46DDE90F78129D37
:1036900000200390402C03D92A2005B0BDE8F08F0C
:1036A000FCF70CFE03902248007820B10398FCF749
:1036B00009FE3C20F1E71F4850F8240088BB012098
:1036C0001C4941F824000398FCF7FCFD2A464146BA
:1036D000384601F029F92B465A465146484600F033
:1036E0007DF904901198CDE9008002953A46204674
:1036F0000E9B049900F0F6FF064636B90E48007896
:1037000001280CD100F084FF09E0FCF7D7FD0390FD
:103710000020084941F824000398FCF7D3FD304607
:10372000BBE7FFE70398FCF7CDFD2820B5E70000D5
:1037300071040020A06D0020780400207047000074
:103740002DE9F041054600274E48007810B1402091
:10375000BDE8F081402D01D13E20F9E7402D03D393
:10376000FF2D01D02A20F3E7FCF7A8FD0746FF2D27
:1037700003D14548006890F83650444850F8254039
:1037800024B93846FCF79EFD4320E1E7012C04D123
:103790003846FCF797FD3D20DAE714F8380F3C492E
:1037A00031F81000618888432178394A22F81100E5
:1037B00014F83809114631F8100028B9A18F35489E
:1037C0000088884333490880E06918B12046E169E0
:1037D00000F0F0FC206A18B12046216A00F000FDDC
:1037E000A66A16B1304600F095FD0020206384F8EB
:1037F000340084F8350028480078FF2804D2264891
:103800000078401C244908703846FCF75BFD00F046
:103810006DFCFCF753FD07461F48007820B11E4899
:103820000078401E1C490870204600F041F81B48F3
:103830000078401E194908700020144941F82500FD
:10384000A06930B900206169886115496069086024
:1038500005E0D4E905014861D4E905108861114803
:10386000006860610F4804600FA060653846FCF78F
:1038700029FD0E480078012801D100F0C9FE002082
:1038800066E700007104002080040020A06D002085
:10389000946B00207604002072040020790400203C
:1038A0008C040020840400203F00000078040020E5
:1038B000704770472DE9F04105460F4614464FF01A
:1038C0000008402D05D9FF2D03D02A202070BDE827
:1038D000F08117B90C202070F9E71448007810B176
:1038E00012202070F3E7FCF7E9FC8046FF2D03D19E
:1038F0000F48006890F836500E4850F825602EB9F1
:103900004046FCF7DFFC43202070E0E7012E05D1A4
:103910004046FCF7D7FC43202070D8E77765404647
:10392000FCF7D0FC0020207000BFD0E7710400201D
:1039300080040020A06D0020704770472DE9F047FB
:1039400006460C464FF0000A402E04D9FF2E02D046
:103950002A20BDE8F0870CB90920FAE70020206092
:103960006060FCF7ABFC8246FF2E03D1194800686B
:1039700090F83660184850F8265025B95046FCF7A4
:10398000A1FC4320E5E7012D04D15046FCF79AFC49
:103990004320DEE7287C10F0010F04D15046FCF7ED
:1039A00091FC4520D5E70027D5F80C90D5F8088084
:1039B0005046FCF787FC00E07F1C58F8041B0029E8
:1039C000FAD0B8002060A9EB0700800060600020FA
:1039D000BFE7000080040020A06D002070B5044601
:1039E00010460026051F28462E604FF48056051FFE
:1039F00028462E601526051F28462E601426051F12
:103A000028462E601326051F28462E601226051F05
:103A100028462E601126051F28462E601026051FF9
:103A200028462E600926051F28462E600826051FF9
:103A300028462E600726051F28462E600626051FED
:103A400028462E600526051F28462E600426051FE1
:103A500028462E600326051F28462E600226051FD5
:103A600028462E600126051F28462E600026051FC9
:103A700028462E604FF080750560051F28462C6093
:103A8000414E051F28462E604FF01236051F28466E
:103A90002E604FF00336051F28462E604FF0023689
:103AA000051F28462E607610051F28462E60051F2C
:103AB000284629603126051F28462E603026051F1E
:103AC00028462E602926051F28462E602826051F19
:103AD00028462E602726051F28462E602626051F0D
:103AE00028462E602526051F28462E602426051F01
:103AF00028462E602326051F28462E602226051FF5
:103B000028462E602126051F28462E602026051FE8
:103B100028462E601926051F28462E601826051FE8
:103B200028462E601726051F28462E601626051FDC
:103B300028462E604FF01136051F28462E604FF0A4
:103B40001036051F28462E604FF00936051F2846FF
:103B50002E604FF00836051F28462E604FF00736BE
:103B6000051F28462E604FF00636051F28462E609A
:103B70004FF00536051F28462E604FF00436051F0E
:103B800028462E6070BD00004D4800082DE9F04128
:103B900005464FF00008402D02D14720BDE8F081D6
:103BA000402D03D3FF2D01D02A20F7E7FCF786FB39
:103BB0008046FF2D05D12148006890F83650012637
:103BC00008E01E48006890F83600A84201D101269E
:103BD00000E000261A4850F8254024B94046FCF77A
:103BE00071FB4820DAE7012C04D14046FCF76AFB60
:103BF0004320D3E794F83870124830F81700618FEB
:103C00008843104921F81700084630F8170028B9F2
:103C1000A18F0D48008888430B49088094F8340030
:103C200040F0080084F834004046FCF74BFB012EBE
:103C300001D100F0EDFC0020B0E70000800400207E
:103C4000A06D0020946B00207604002070470000D7
:103C500070B5054600261848007800B170BD1748B9
:103C6000007800B1FAE725B3FCF728FB06461448B4
:103C7000006890F83840134830F81400104909687B
:103C8000498F88430F4921F81400084630F8140082
:103C900038B90B480068818F0B48008888430A496F
:103CA00008800748006805633046FCF70BFB00F00E
:103CB000AFFC00BFD2E700007104002072040020B6
:103CC00080040020946B0020760400202DE9F04150
:103CD00007460D4616461C461B48007810B1552075
:103CE000BDE8F0811948007808B13220F8E727B91B
:103CF0001DB916B90CB95420F2E73B2D01D951205A
:103D0000EEE73B2E01D95220EAE7B4F57A7F01D3E2
:103D10005320E5E74FF47A7060434FF47A71B0FBBB
:103D2000F1F14FF461607843C5EB051200EB8200BE
:103D3000304400EB4002C2EBC01001EBC00840462B
:103D4000FFF786FF0020CBE77104002072040020FB
:103D500070B5002600F074F8FCF7B0FA0646324859
:103D60000068401C304908603046FCF7ABFA2F4829
:103D70000078012856D12E48007820B1012804D0BF
:103D8000022809D103E001250BE0002509E0012507
:103D900001202749087004E001250020244908700B
:103DA00000BF00BF05B970BD2248046836E0FCF7CB
:103DB00085FA0646206B68B3206B401E2063206B9B
:103DC00040BB94F8340010F0370F09D014F8340FCA
:103DD00000F0C800207001206070A4F1340402E0FB
:103DE000002084F8350094F8340010F0080F11D149
:103DF000A08F1149098808430F49088094F83800BA
:103E00000E4931F81000618F084394F838100B4ABE
:103E100022F8110064693046FCF754FA94F8360031
:103E20004028C4D100BFBEE79C04002078040020D5
:103E3000900400208C04002076040020946B002065
:103E400010B507480088401C0549088008460088CE
:103E5000642803D30020088000F004F810BD00009F
:103E60005404002010B503480068FFF7B1FB044676
:103E7000204610BDAC040020F8B54FF4207128484E
:103E800000F068FB4021274800F064FB002514E0A7
:103E9000681C86B205EB8500214901EBC00406EBE6
:103EA000860001EBC00764202070002084F8250004
:103EB000E7601DA02062681C85B20F2DE8D305EBDA
:103EC0008500174901EBC00464202070002084F8AD
:103ED0002500E06014A02062002014490860144905
:103EE00008801020134908800D48134908600120FC
:103EF000FFF7C8FA114908600020FFF7C3FA10491C
:103F000008606A460FA10D480068FEF7DFFD6A46AB
:103F100011A10B480068FEF7D9FD00F027F8F8BDA5
:103F20004C770020CC7B00203F000000A404002040
:103F3000A2040020A0040020B0040020A804002057
:103F4000AC04002075432F4F532D494920546D7206
:103F50004C6F636B0000000075432F4F532D494990
:103F600020546D725369676E616C000000B587B0B4
:103F70000320002180220A4BCDE90132CDE9031054
:103F80004FF6FD703E23074A00900748FFF776FB87
:103F900006AA06A13E20FFF78DFC07B000BD000079
:103FA000CC790020C87B00202940000875432F4FA2
:103FB000532D494920546D720000000070B50B4626
:103FC000032580F82550012B05D1154EC5693668AB
:103FD000354445610CE085692DB9114EC5693668D7
:103FE0003544456104E00E4E8569366835444561C7
:103FF000057D05F007040B4D05EBC4010D682DB9D7
:1040000008600025C56001258D8006E00A6808600B
:10401000C26010618D886D1C8D800025056170BDAA
:10402000A4040020CC7B002008B500BF00BF6A4676
:1040300000211A480068FFF74FFAFFF7D3F9184834
:104040000068401C164908600846007800F0070820
:10405000144800EBC8073C681AE0E668104960693C
:104060000968884213D1204600F01EF894F8240015
:10407000022804D101212046FFF7A0FF02E0022020
:1040800084F82500656815B12046A168A847344624
:10409000002CE2D1FFF7C6F9C9E70000AC0400200C
:1040A000A4040020CC7B002030B5057D05F007047A
:1040B0000D4D05EBC4031D68854205D1C16819602B
:1040C00039B100250D6104E00169C268CA6002B11E
:1040D0001161012580F825500025C56005619D8886
:1040E0006D1E9D8030BD0000CC7B0020704700001D
:1040F0002DE9FF4F05468A469346A87A18B1A87A5B
:1041000028490E5C06E06889264901EB10200078FA
:104110000830C6B205F10C0000EB4607387820B134
:104120003878204911F8008007E038881D4901EBF4
:1041300010200078083000F0FF0808EB061000F0AF
:10414000FF09194850F82940002044F8300F44F87E
:104150000CAC207920EA0B00207103986071207963
:10416000A4F1300410F0080F0DD1A08F0F49098879
:1041700008430E4908800E4830F81600618F084346
:104180000B4921F816002946204600F013F8206A52
:1041900020B12046216A00F023F8E561484604B0CA
:1041A000BDE8F08F10190108A06D002076040020F2
:1041B000946B002010B590F8382001F10C0333F80F
:1041C0001230448FA34301F10C0424F8123023462B
:1041D00033F812301BB94B89848FA3434B8110BD38
:1041E000F0B5024692F83840958F568F0B46186806
:1041F00011E000F10C0737F81470B74300F10C0C14
:104200002CF81470674637F8147017B94789AF4314
:1042100047811B1D18680028EBD1F0BD10B51C4A62
:104220001268D0611A4A126892F8383000F10C0214
:1042300032F81320164B1B685B8F1A43144B1B6814
:1042400093F8384000F10C0323F814204289104BF6
:104250001B689B8F1A4342810D4A126892F83810EE
:104260000C4A32F811200A4B1B685B8F9A43094BAA
:1042700023F811201A4632F811203AB9044A12687C
:10428000938F054A12889A43034B1A8010BD000091
:1042900080040020946B0020760400200146002258
:1042A0004A81002006E0002301F10C0222F81030C0
:1042B000421CD0B20528F6D3704700002DE9F0412A
:1042C0005021114800F046F900250DE0681C86B227
:1042D0000D4800EB051400EB061700202070676006
:1042E0000AA0E060681C85B2042DEFD3064800EBFD
:1042F000051400202070606004A0E06002480449BA
:104300000860BDE8F0810000446900203F00000023
:104310006004002030B501464A6808682AB9CC68B4
:10432000606028B10025456002E0106000B1426085
:104330008B6800259D6230BD70B54FF40C71134839
:1043400000F008F9002411E0601C85B2C4EBC40041
:104350000E4901EB8003C5EBC50001EB8006002090
:1043600018705E600AA09861601C84B2132CEBD3B5
:10437000C4EBC400054901EB8003002018705860AD
:1043800003A0986108460349086070BD14670020C7
:104390003F0000005C04002000200A4908600A4930
:1043A00008700A4908700A4908700A4908700A49E1
:1043B00008600A4908600A4908600A4908600A4911
:1043C000087070479C0400207104002072040020D3
:1043D0007904002078040020580400207C04002088
:1043E0006C040020680400207004002000210B4AA7
:1043F0001180002005E00021094A22F81010411C1C
:10440000C8B20528F7D30021064A1170064A117078
:10441000064A1160064A11607047000076040020C9
:10442000946B002073040020740400208804002092
:104430008004002070B54FF4FD61194800F08AF83F
:104440004FF48271174800F085F8002413E0601CD7
:10445000C5B2C4EBC40000EB0410114901EB8003AA
:10446000C5EBC50000EB051001EB80065E610EA0F8
:104470005865601CC4B2152CE9D3C4EBC40000EB32
:104480000410074901EB80030020586106A058651D
:1044900000200649086002480549086070BD000018
:1044A000A46E0020A06D00203F0000008C040020BE
:1044B0008404002000B587B00320002180220A4B2D
:1044C000CDE90132CDE903104FF6FF704023074AD2
:1044D00000900748FFF7D2F806AA06A14020FFF790
:1044E000E9F907B000BD0000A06B00209C6D002022
:1044F0002548000875432F4F532D49492049646CC6
:104500006500000000B587B00320002180220A4B1F
:10451000CDE90132CDE903104FF6FE703F23074A83
:1045200000900748FFF7AAF806AA06A13F20FFF768
:10453000C1F907B000BD000094690020906B002015
:104540006548000875432F4F532D49492053746126
:104550007400000004E0002200F8012B4A1E91B212
:104560000029F8D17047000070B548211148FFF7C5
:10457000F1FF00240EE004EB44000E4901EBC005FE
:10458000601C00EB400001EBC00068600AA068619D
:10459000601C84B2022CEED304EB4400054901EB0D
:1045A000C0050020686004A06861084603490860EF
:1045B00070BD00008C7600203F00000094040020B5
:1045C0002DE9F04178211048FFF7C4FF00240DE0E9
:1045D000601C86B204EB44000B4901EBC00506EBFE
:1045E000460001EBC0072F60601C84B2042CEFD39F
:1045F00004EB4400044901EBC00500202860084694
:1046000002490860BDE8F081D476002098040020BB
:1046100010B50024FBF752FE044613480078F8B9A1
:1046200012480078E0B900F02DF8114811490978D6
:1046300050F82100104908600E4800780F490978A9
:1046400088420DD00C480068006C401C0A4909687B
:1046500008640B480068401C09490860FBF747FEE6
:104660002046FBF72FFE10BD7104002072040020CD
:10467000A06D002074040020880400207304002032
:1046800058040020134A127822B1124A1278124BB1
:10469000985C07E0104A0F4B1B8802EB132212783C
:1046A0000832D0B20D4A02EB40010A783AB10A78DA
:1046B000094B9A5C02EB0012094B1A7009E00A8858
:1046C000054B03EB1222127802EB00120832044B66
:1046D0001A7070477604002010190108946B0020AE
:1046E000740400202DE9F84F05460F469046994680
:1046F000DDE90AAB00200090FBF7E0FD00904248A6
:104700000468002C7BD004F11C0454F8080C3E49CA
:1047100008600098FBF7D6FD44F81C7CA5760020C5
:1047200020766076606144F818BC44F810AC44F818
:10473000148C0C9824F80C0C24F80A9C002084F8A3
:1047400022002809207705F00F00E076217F012064
:1047500088402084E17E01208840E08300202060A2
:104760006060E060A0606062E062A06220636063FD
:1047700026A0A063A4F11C044FF0000606E000216F
:1047800004F1580040F82610701CC6B2002EF6D076
:104790002046FEF771FF2046FEF7D0FFFBF78EFDA7
:1047A00000901B4840F825401A48006860610020CE
:1047B000A0611848006810B1164800688461154867
:1047C0000460A08F1449098808431349088094F8AD
:1047D0003800124931F81000618F084394F83810FE
:1047E0000E4A22F811000E480078401C0C4908704F
:1047F0000098FBF767FD0020BDE8F88FFFE7009801
:10480000FBF760FD4220F7E7840400203F00000032
:10481000A06D00208C04002076040020946B002002
:1048200079040020002400BF00BFFBF747FD0446C9
:1048300005480068401C044908602046FBF742FD1B
:10484000FFF737F8F1E700007C04002010B50448BA
:104850000068FFF771F8FF20FEF772FF10BD00003F
:1048600080040020002400BF02E0C820FFF7F0F918
:10487000194800780028F8D0184800686421B0FB77
:10488000F1F0164908600846006828B9002014496C
:104890000870FF20FFF77AF900BFFBF70FFD044611
:1048A000104800681049086000200E490860204642
:1048B000FBF708FD0C48006808490968B0FBF1F0F7
:1048C000C0F1640006490870FFF737F800F00EF8F1
:1048D0006420FFF7BDF9E0E77004002068040020C1
:1048E000640400207C0400206C0400207CB50025BA
:1048F00014E069462846FFF721F8064666B90948DC
:1049000050F8254044B1012C06D0D4E9020100EB57
:104910008100E06401982065681CC5B2402DE8D98B
:104920007CBD0000A06D002012F0010F08D012F035
:10493000020F05D002E0491E002308C00029FAD169
:104940007047000010B5FEF717F9074804F019FA90
:1049500018B1054803F024FB02E0034802F0B4FF5D
:10496000FEF71CF910BD00007C59002010B5FEF7C1
:1049700003F90A48807A50B10948006820F006001F
:104980000749086001F05CFF044805F01FFA4FF486
:104990008020FDF7ABF9FEF701F910BD7C5900202E
:1049A00010ED00E010B5FEF7E7F8074804F0E9F96C
:1049B00018B1054803F0F4FA02E0034802F084FF5E
:1049C000FEF7ECF810BD00007C59002010B5FEF792
:1049D000D3F80A48807A50B10948006820F00600F0
:1049E0000749086001F02CFF044805F0EFF94FF487
:1049F0008020FDF77BF9FEF7D1F810BD7C5900202F
:104A000010ED00E0014908627047000000000E420E
:104A10002DE9F04104460F46208805284BDB20880D
:104A2000801CB0F5FF7F46DC2088401F86B22288BC
:104A3000C2F580611346E21C9818FBF7C7FE06F129
:104A40001200C11700EB11710911052202EB0111CF
:104A5000218032122088801EE11C0A542088401ECA
:104A60000E542188481FC11700EB1171C1F30F18B4
:104A700000250EE0052000EB0513E01C1A180520A8
:104A800000EB0513E01C19180D4806F0CBFD681C5F
:104A900085B24545EEDB2388E01C1918E21C4FF671
:104AA000FF70FDF7DBFA2088801C20803946204605
:104AB00001F044FD01E000203880BDE8F0810000F5
:104AC0009064002008B50848006828B969460820A5
:104AD000FEF746F9044908606A460021024800686A
:104AE000FEF792F908BD00000000002010B5044850
:104AF000006818B102480068FEF7A8FA10BD00006F
:104B00000000002010B50446214602480068FEF768
:104B100005F910BD3C04002029B1064A1268024381
:104B2000044B1A6004E0034A12688243014B1A6086
:104B3000704700003038024029B1064A126802432B
:104B4000044B1A6004E0034A12688243014B1A6066
:104B5000704700003438024029B1064A1268024307
:104B6000044B1A6004E0034A12688243014B1A6046
:104B7000704700004038024029B1064A12680243DB
:104B8000044B1A6004E0034A12688243014B1A6026
:104B90007047000044380240F0B500210022002494
:104BA000022500260223324F3F6807F00C0121B195
:104BB000042905D0082937D105E02E4F076036E0DB
:104BC0002D4F076033E02A4F3F1F3F68C7F38056E1
:104BD000274F3F1F3F6807F03F036EB1264FB7FBDB
:104BE000F3F7DFF88CC0ACF1040CDCF800C0CCF3B8
:104BF000881C07FB0CF40CE01E4FB7FBF3F7DFF843
:104C000070C0ACF1040CDCF800C0CCF3881C07FBCE
:104C10000CF4174F3F1F3F68C7F301477F1C7D000F
:104C2000B4FBF5F7076002E0124F076000BF00BF5A
:104C30000F4F3F6807F0F0010909104F7A5C0768D1
:104C4000D74047600A4F3F6807F4E051890A0B4F8D
:104C50007A5C4768D7408760054F3F6807F460413A
:104C6000490B064F7A5C4768D740C760F0BD00002B
:104C7000083802400024F400001BB7004004002064
:104C800010B501460022002300204A11012A02D15A
:104C90000A4C236808E0022A03D1084C70342368C8
:104CA00002E0064C7434236801F01F020124944092
:104CB0001C4201D0012000E0002010BD003802405D
:104CC0000021094A11701170012802D0042808D16E
:104CD00003E00121044A117004E00521024A117029
:104CE00000E000BF00BF7047703802400149086013
:104CF000704700003C0E4742002100F44072B2F5BC
:104D0000407F08D1094A116821F4F811084A02408D
:104D10001143064A1160054A68321268C0F30B035A
:104D20001A43024B68331A6070470000083802408B
:104D3000FFFCFF0F014600BF080900EB80004200A6
:104D400001F00F001044C0B270470146002204E099
:104D5000501CC2B2A1F10A00C1B20A29F8DA100748
:104D600041EA1060704710B588B00024002002901E
:104D7000019000F011F9A0F54851F2394ED001210F
:104D80000807FFF7E9FE0120FFF73CFE0120FFF7CF
:104D900097FF06E0641CB4F5700F02D9002008B03C
:104DA00010BD4120FFF76CFF0028F3D04FF4807056
:104DB000FFF7A2FFFF2001907F2002900120FFF764
:104DC00095FF00F0C5F90298049001980590002025
:104DD000039003A800F0AEF800208DF81F0001201A
:104DE0008DF81D008DF81E0006208DF81C0007A907
:104DF000012000F0E1F800208DF81B008DF818006C
:104E00008DF819008DF81A0006A9012000F038F974
:104E100043F2F221002000F0CBF908E0012108075D
:104E2000FFF79AFE0120FFF7EDFD00F091F9012058
:104E3000B5E7000008B50022009200200021104ACA
:104E4000126812F0400F19D1421E0D4B1A6000BFBC
:104E50000B4A126802F04001009A521C0092009A1C
:104E6000B2F5803F01D00029F2D0054A126812F055
:104E7000400F01D0012002E0002000E0012008BD29
:104E80000C2800400348006820F0800001490860B9
:104E9000704700000C28004070B506460C460025FF
:104EA0000E4800680E4900EA0105280CE070C5F3C1
:104EB0000420607005F03F00A070C5F34230207000
:104EC0005EB9E078FFF736FFE0706078FFF732FFF9
:104ED0006070A078FFF72EFFA07070BD042800401E
:104EE0003FFFFF0070B506460C4600250F480068DE
:104EF0000F4900EA0105C5F305402070C5F30620FF
:104F0000607005F07F00A07005F48000000CE07078
:104F10005EB92078FFF70EFF20706078FFF70AFF78
:104F20006070A078FFF706FFA07070BD00280040F9
:104F30007F7F7F0030B504460025CA2015490860F0
:104F400053200860FFF776FF00B91DE011481C38B8
:104F5000006820F040000F491C39086008460068CE
:104F6000216808430B491C3908600A491439A068B4
:104F7000086008460068A18840EA014005491439E4
:104F80000860FFF77FFF0125FF20024908602846DF
:104F900030BD00002428004008B5014600200090E4
:104FA00004480090009800EB810000900098006891
:104FB00008BD0000502800402DE9F04105460C4690
:104FC000002600274DB9607800F01000102804D1A9
:104FD000607820F010000A30607005B908E0607851
:104FE000FFF7A8FE0646A078FFF7A4FE064600BF1E
:104FF00055B1E0780004617840EA0120A1780843C7
:10500000217840EA413611E0E078FFF79EFE4FEA52
:1050100000486078FFF799FE48EA0028A078FFF77B
:1050200094FE48EA0008207848EA4036CA2012492F
:10503000086053200860FFF7FDFE08B9002714E060
:105040000E4830400C4920390860FFF71BFF0A4822
:105050001C38006810F0200F06D100F079F808B96C
:10506000002702E0012700E00127FF200249086035
:105070003846BDE8F0810000242800403FFFFF00D3
:105080002DE9F04105460C46002600274DB92E4873
:10509000006810F0400F00D002E00020E07000BF78
:1050A0000DE02948006810F0400F04D02078FFF789
:1050B00041FE064602E00020E07000BF00BF55B18F
:1050C00020780004617840EA0120A1780843E17863
:1050D00040EA014611E02078FFF737FE4FEA00482A
:1050E0006078FFF732FE48EA0028A078FFF72DFE2F
:1050F00048EA0008E07848EA0046CA2012491C3114
:10510000086053200860FFF795FE08B9002713E0F8
:105110000E4830400C4908390860FFF7B3FE0A48D2
:10512000006810F0200F06D100F012F808B900272F
:1051300002E0012700E00127FF2003491C3108603D
:105140003846BDE8F0810000082800407F7F7F00DE
:1051500008B50022009200200021CA22134B1A60D9
:1051600053221A60114A183A126822F0A0020F4B1B
:10517000183B1A6000BF0D4A183A126802F020016D
:10518000009A521C0092009AB2F5003F01D000290B
:10519000F1D0064A183A126812F0200F01D001200F
:1051A00000E00020FF22014B1A6008BD24280040C7
:1051B00008B500220092044A0092009A02EB800295
:1051C0000092009A116008BD5028004070B5064654
:1051D0000C461546601907490968884207D92122FB
:1051E0000521304600F0E0FA4FF0FF3070BD00209E
:1051F000FCE70000A405002030B504460A465078BC
:1052000010F0010F02D00E4B07210CE00D48006892
:10521000C06904EBC40500EB85031879411D1079C2
:10522000884200DC11790848018004E0481E81B200
:10523000585C064D68540029F8D1002030BD0000AC
:1052400012C70308A4060020460500200C7E00209B
:1052500010B502460B4608210648018005E0481EAD
:1052600081B20548405C054C60540029F7D100200C
:1052700010BD00004605002021C703080C7E002059
:1052800010B502460B4608210648018005E0481E7D
:1052900081B20548405C054C60540029F7D10020DC
:1052A00010BD00004605002019C703080C7E002031
:1052B00070B505460E46144632480560207823280E
:1052C0003ED00DDC1A2831D005DCB0B1032819D04E
:1052D00012284ED11BE01B281ED01E2849D120E0E9
:1052E0002A283CD004DC25282FD0282841D131E0C1
:1052F0002F2839D05A283CD11DE02146304600F0F5
:1053000079FA70BD2146304600F002FAF9E72146ED
:105310003046FFF771FFF4E72146304600F062FAAD
:10532000EFE72146304600F05DFAEAE721463046D5
:10533000FFF7A6FFE5E721463046FFF789FFE0E7E4
:105340002146304600F0A0F9DBE72146304600F068
:1053500055F9D6E72146304600F0D8F8D1E7214686
:10536000304600F097FACCE72146304600F06AFA62
:10537000C7E720220521304600F016FA4FF0FF3033
:10538000BFE70000B00500202DE9F04105462448A4
:105390000068B0F5805F02D22148006801E04FF458
:1053A000805004461F480068B4FBF0F086B21E48E7
:1053B00000681C490968B0FBF1F71C4800683346D7
:1053C0003A461B49D0F810C02846E047002808DAC2
:1053D00011220421284600F0E7F94FF0FF30BDE824
:1053E000F0812346124A812112480068FBF7E4FD50
:1053F0000D48006820440C49086009480068001BFB
:10540000074908600C488068001B0B498860044805
:10541000006810B90320094908700020DFE7000088
:10542000AC050020A0050020A8050020A40600204F
:105430000C7E0020B00500202C8E002048050020A6
:105440002DE9F04105462A480068B0F5805F02D298
:105450002748006801E04FF4805004462548006862
:10546000B4FBF0F086B22448006822490968B0FB1A
:10547000F1F72248006833463A462149D0F814C073
:105480002846E047002808DA03220421284600F0D5
:105490008BF94FF0FF30BDE8F081174800682044D9
:1054A0001549086012480068001B1149086015483A
:1054B0008068001B134988600D48006828B90021E6
:1054C00011480068FDF75CFA10E009480068B0F583
:1054D000805F02D20648006801E04FF4805083B23A
:1054E000074A012108480068FBF70BFD0020D2E7BE
:1054F000AC050020A0050020A8050020A40600207F
:105500000C7E00202C8E0020B005002070B50546D2
:105510000C463348007800285AD13248007B00F00E
:105520008000802808D02F49487B2022052100F0E8
:105530003BF94FF0FF3070BD2B480068816828466A
:10554000884738B13A220221284600F02DF94FF061
:10555000FF30F0E7A0780006E17840EA01402179C9
:1055600040EA01206179084320490860207AE17906
:1055700040EA01201E4908600846008882B21B48A4
:1055800001682846FFF722FE002802DA4FF0FF30BC
:10559000D1E70220124908701448006815490968CB
:1055A0004843124908601248006812490968484394
:1055B0000F4908600B4880680968884208D009498B
:1055C000487B2022052100F0EFF84FF0FF30B2E7D2
:1055D0004FF48050084908802846FFF7D5FEAAE717
:1055E000480500200C8E0020A4060020A8050020FD
:1055F000AC050020A00500204605002070B504463B
:105600000D461C4800681C4A1C49436820469847C0
:1056100038B13A220221204600F0C6F84FF0FF30A0
:1056200070BD16480068401E000E154908701348EA
:105630000068401E000C487010480088401E000A98
:1056400088700E480078401EC8700B480068000E35
:10565000087109480068000C487107480088000A72
:10566000887105480078C871082006490880002024
:10567000D6E70000A4060020A0050020A405002015
:105680000C7E0020460500207CB505460E46002411
:1056900004E000201B490855601C84B20C2CF8DB88
:1056A0001948006801AA694643682846984738B1F6
:1056B0003A220221284600F077F84FF0FF307CBDF7
:1056C00008201049C8700098401E000E087100980C
:1056D000401E000C48710098401E000A8871009816
:1056E000401EC871022008720198000C487201988F
:1056F000000A88720198C8720C20044908800020B2
:10570000DDE700000C7E0020A406002046050020F6
:1057100010B50346002204E000201E4CA054501C8B
:10572000C2B2122AF8DB70201A4C20700C20E071F3
:1057300019480078194C2478A04221D01848164CFA
:10574000247810F83400134CA0701548124C2478BB
:1057500000EBC40040790F4C207311480E4C2478A4
:1057600000EBC40000790B4C60730B480078401CC0
:10577000094C207020460078042801D100202070B8
:105780001220084C20800879122801DC087920803A
:10579000002010BD0C7E00209C0500209D050020EF
:1057A0003C8E00204605002030B50C4B0C4C247874
:1057B00003F834101302094C094D2D7804EBC5048D
:1057C0006360074B1B785B1C054C237023461B78DA
:1057D000042B01D10023237030BD00003C8E00203B
:1057E0009D05002002460020014B188070470000F4
:1057F0004605002070B504460D460F48806840B14C
:105800000D49487B20220521FFF7CEFF4FF0FF30E6
:1058100070BD0A48006881682046884738B13A223E
:1058200002212046FFF7C0FF4FF0FF30F0E70020D5
:105830000349088000BFEBE70C8E0020A40600207F
:105840004605002070B505460C46607800F0020061
:10585000022807D1242205212846FFF7A5FF4FF093
:10586000FF3070BD0848008882B2084801682846A9
:10587000FFF7ACFC002802DA4FF0FF30F1E7002020
:105880000349088000BFECE7AC050020A805002014
:105890004605002070B505460C46434800780028B0
:1058A0007BD14248007B00F08000802808D13F492E
:1058B000487B20220521FFF777FF4FF0FF3070BDB6
:1058C0003B48006881682846884738B13A2202215F
:1058D0002846FFF769FF4FF0FF30F0E734480068D3
:1058E000C1682846884738B1272202212846FFF799
:1058F0005BFF4FF0FF30E2E7A0780006E17840EA76
:105900000140217940EA0120617908432949086072
:10591000207AE17940EA012027490860084600889A
:1059200082B2244801682846FFF750FC002802DABA
:105930004FF0FF30C3E71F4800682049096848431B
:105940001C4908601C4800681C49096848431A49FA
:105950000860164880680968884208D01349487B67
:1059600020220521FFF720FF4FF0FF30A7E701209D
:105970000D49087010480068B0F5805F03D20E48EA
:10598000006802E009E04FF4805083B20C4A012124
:105990000C480068FBF7B5FA03E02846FFF750FD16
:1059A0008DE700208BE70000480500200C8E0020CA
:1059B000A4060020A8050020AC050020A0050020BA
:1059C0000C7E0020B0050020704721B1028842F013
:1059D0004002028004E002884FF6BF731A40028042
:1059E00070470246002013890B4201D0012000E0DD
:1059F000002070470146888970478181704710B543
:105A00000022028802F441520B884C8823438C8880
:105A10002343CC8823430C8923434C8923438C891B
:105A20002343CC8923431A430280838B4FF2FF74B4
:105A3000234083830B8A038210BD2DE9F041074682
:105A40000C46164632460221002007F00AFB0546A6
:105A50001DB14FF0FF30BDE8F0812246012100204A
:105A600007F0FFFA054615B14FF0FF30F3E70020CD
:105A7000F1E700207047000070B50646294607A0F0
:105A800007F0E8FF0446012C03D0032C01D00B2CB7
:105A900002D14FF0FF3070BD0020FCE7303A00002B
:105AA0000146002070470146002070472DE9F04173
:105AB00080460C4615461E4633462A46214600209F
:105AC00007F0E0FA47B21FB14FF0FF30BDE8F081B8
:105AD0000020FBE72DE9F04180460C4615461E46A6
