:020000040801F1
:10000000788100209102010835400108013601087D
:1000100031400108351201088D8C010800000000F4
:100020000000000000000000000000009B460108E6
:10003000991C010800000000A7020108695301088B
:10004000AB020108AB020108AB020108AB020108D8
:10005000AB020108AB020108AB020108AB020108C8
:1000600055260108AB0201088D260108AB020108E4
:10007000AB020108AB020108AB020108AB020108A8
:10008000AB020108AB020108AB020108AB02010898
:10009000AB020108AB020108AB020108AB02010888
:1000A000AB020108AB020108AB020108AB02010878
:1000B000B1560108AB02010801580108AB02010862
:1000C000AB020108AB020108AB020108AB02010858
:1000D000AB0201083D5D0108AB020108AB0201085B
:1000E000F1250108AB02010811410108AB0201082A
:1000F0002F580108AB020108AB020108AB0201084E
:10010000AB020108294601082D580108AB0201087D
:10011000855C0108AB020108AB020108AB020108D3
:10012000AB020108AB020108AB020108AB020108F7
:10013000AB020108AB020108AB020108AB020108E7
:10014000AB020108AB020108AB020108F140010853
:10015000AB020108AB020108AB020108AB020108C7
:10016000AB020108AB020108AB020108AB020108B7
:100170006141010841410108AB020108AB020108DD
:10018000AB020108AB02010800F002F800F070F8C1
:100190000AA090E8000C82448344AAF10107DA45E2
:1001A00001D100F065F8AFF2090EBAE80F0013F0C4
:1001B000010F18BFFB1A43F0010318473C0004006D
:1001C0005C0004000A444FF0000C10F8013B13F0EF
:1001D000070408BF10F8014B1D1108BF10F8015BA0
:1001E000641E05D010F8016B641E01F8016BF9D193
:1001F00013F0080F1EBF10F8014BAD1C0C1B09D1EA
:100200006D1E58BF01F801CBFAD505E014F8016B5B
:1002100001F8016B6D1EF9D59142D6D370470000ED
:100220000023002400250026103A28BF78C1FBD8FF
:10023000520728BF30C148BF0B607047642900F0E7
:100240008780752900F08480782900F0BD80002027
:1002500070471FB510F0EDFD00F01CFE04000020FB
:10026000002110F0A5F8401C60601FBD10B510BD46
:1002700000F0D8FD1146FFF7ECFF0FF00BFE00F089
:10028000FFFD03B4FFF7F2FF03BC00F047FE0000E0
:100290000948804709480047FEE7FEE7FEE7FEE71A
:1002A000FEE7FEE7FEE7FEE7FEE7FEE70448054956
:1002B000054A064B704700002556010889010108D0
:1002C000784100207881002078610020786100204A
:1002D0000FB41CB5084B06AA7B44694600900598EC
:1002E00000F04FFB04460020694600F05DFB20460D
:1002F0001CBC5DF814FB0000CD06000070B5044680
:1003000085690068C10601D5302600E02026C007B7
:1003100008D070BDD4E9012130469047206A00F131
:10032000010020626D1EF5D570BD70B5044685696B
:100330000078C00708D170BDD4E901212020904782
:10034000206A00F1010020626D1EF5D570BD00002D
:100350002DE9F0410646002410687529314616A59E
:1003600011D0AFF30080002803DAC0F1000013A51C
:1003700007E031688A0701D511A502E0490704D5D5
:1003800010A5012401E0AFF3008000210A2306F14B
:10039000240707E0B0FBF3F203FB1200303078547F
:1003A0001046491C0028F5D123462A463046BDE8B0
:1003B000F04100F084BA0000000000002D000000B1
:1003C0002B0000002000000070B504460D462146B9
:1003D0001068AFF300802188090502D5104A7A44DD
:1003E00002E00F4A7A440E32002104F1240307E0B0
:1003F00000F00F064FEA1010965D5E5401F1010106
:100400000028F5D103462078000704D5702D02D0CE
:1004100009B1113202232046BDE8704000F04FBA06
:10042000DCFD03002DE9F05F894604464FF0000A29
:10043000DFF828B1FB44C0F820A02046E1688847D7
:1004400000287CD0252806D0D4E901219047206AD5
:10045000401C2062F1E700255F462046E16888479E
:100460002028064608DB312E06D207EB060010F8DE
:10047000200C08B10543F0E7A80701D525F00405D5
:10048000C4F81CA00027C4F818A02A2E09D03046B2
:100490000BF0D8FD38B304EB8708303EC8F818607D
:1004A00019E059F8041B204604EB87029161E168CA
:1004B0008847012F064618D1E069002820DA25F088
:1004C00020051DE0D8F8180000EB800006EB400086
:1004D0003038C8F818002046E168884706460BF017
:1004E000B1FD0028EED1012F0AD02E2E08D12046D2
:1004F000E16888477F1C0646022F45F02005C4DBD3
:10050000A069002803DA404245F00105A061E80730
:1005100001D025F0100596B1A6F14100192802D8A6
:10052000203645F400654A463146204625604D4652
:10053000FFF784FE60B1012807D0ED1D00E009E05F
:1005400025F0070000F1080977E705F1040974E7D1
:10055000304679E7206ABDE8F09F0000AEFD030059
:100560000FB400B58DB010A9099000910B904FF019
:10057000FF300A9000200C90064878440690064808
:1005800078446A4607900F9909A800F027FA0DB041
:100590005DF814FB7F040000970400002DE9FF5F65
:1005A0001D464FF0FF3B91464FF000085F46D5E9EE
:1005B0000146A96901987F1C8847296A82468847B5
:1005C0000028F6D11AF101000CD0002E24F4C064EA
:1005D00019DD600614D5BAF12B0F09D0BAF12D0F31
:1005E0000ED103E0584604B0BDE8F09F44F48064A7
:1005F000A96901987F1C8847761E8246002E02DD7D
:10060000BAF1300F03D0B9F1000F26D032E0A9695A
:10061000761E01987F1C44F400748847002E8246A1
:1006200005DDBAF1780F06D0BAF1580F03D0B9F151
:10063000000F10D01EE0B9F1000F02D0B9F1100F79
:1006400018D1A969761E01987F1C24F4007488478C
:100650008246102002E0082000E00A20814609E0DE
:10066000A96908FB0908761E01987F1C44F40074F0
:1006700088478246002E05DD4946504600F099F92C
:100680000028EDDAE96901988847A00502D46FF0E7
:100690000100A8E7E00727D1600614D5600502D560
:1006A000C8F1000000E04046296801F104022A6018
:1006B0000968220501D5087016E0220701D50880D7
:1006C00012E0086010E0286800F104012960006869
:1006D000210502D580F8008006E0210702D5A0F8A8
:1006E000008001E0C0F8008038467CE740EA010362
:1006F00010B59B070FD1042A0DD310C808C9121FCB
:100700009C42F8D020BA19BA884201D9012010BD04
:100710004FF0FF3010BD1AB1D30703D0521C07E0D1
:10072000002010BD10F8013B11F8014B1B1B07D135
:1007300010F8013B11F8014B1B1B01D1921EF1D1A6
:10074000184610BD40EA0103024630B59B0710D1A0
:100750004FF0013400E008C208C91D1B9D4315EA93
:10076000C41FF8D013F0FF0102F8011B0DD01B0AC3
:10077000F8E711F8013B002B02F8013B05D011F816
:10078000013B002B02F8013BF3D130BD032A40F2BC
:10079000308010F0030C00F0158011F8013BBCF123
:1007A000020F624498BF11F801CB00F8013B38BF3B
:1007B00011F8013BA2F1040298BF00F801CB38BF49
:1007C00000F8013B11F0030300F03881083AC0F053
:1007D000088051F8043B083A51F804CBA0E808100F
:1007E000F5E7121D5CBF51F8043B40F8043BAFF342
:1007F0000080D20724BF11F8013B11F801CB48BF9C
:1008000011F8012B24BF00F8013B00F801CB48BFD1
:1008100000F8012B704702F0FF0343EA032242EA8B
:10082000024200F002B84FF000020429C0F012802A
:1008300010F0030C00F01B80CCF1040CBCF1020F93
:1008400018BF00F8012BA8BF20F8022BA1EB0C0168
:1008500000F00DB85FEAC17C24BF00F8012B00F85E
:10086000012B48BF00F8012B70474FF0000200B584
:10087000134694469646203922BFA0E80C50A0E8C3
:100880000C50B1F12001BFF4F7AF090728BFA0E871
:100890000C5048BF0CC05DF804EB890028BF40F83D
:1008A000042B08BF704748BF20F8022B11F0804F7F
:1008B00018BF00F8012B70477047704770472DE94B
:1008C000F0470D4699469246044600F12408016817
:1008D000880604D5E06921F01001216000E00120C4
:1008E000A84202DDA0EB050700E00027A16907EBA5
:1008F000050202EB0900A1EB0000A0612078C00610
:1009000002D42046FFF7FAFC002608E0D4E90121D2
:100910001AF806009047206A401C761C20624E455B
:10092000F4DB2078C0060AD52046FFF7E7FC06E096
:10093000D4E9012130209047206A401C2062381EF3
:10094000A7F10107F4DC07E0D4E9012118F805005C
:100950009047206A401C2062281EA5F10105F3DCA7
:100960002046FFF7E2FC2078000602D50220BDE811
:10097000F0870120FBE7000001694A1C026108784A
:10098000704700B58FB0CDE90131002105910549CF
:100990007944CDE9031011466846FFF743FD0FB0D7
:1009A00000BD0000E5FFFFFF0A6802F8010B0A60C6
:1009B00070473A2800D2303820F02002412A01D373
:1009C000A2F13700884201D34FF0FF30704700009A
:1009D000026811441378016018467047D1600549D8
:1009E0007944516104497944116200211161114631
:1009F00000F060B8EDFFFFFFB7000000426842B1B1
:100A0000016811F8013B23B1521EC0E900121846DB
:100A100070470121C160881E704742685AB1C3689F
:100A2000016843B983688B4205D0491E521CC0E956
:100A30000012002070474FF0FF30704710B5203A89
:100A4000C0F00B80B1E81850203AA0E81850B1E887
:100A50001850A0E81850BFF4F5AF5FEA027C24BF3D
:100A6000B1E81850A0E8185044BF18C918C0BDE834
:100A700010405FEA827C24BF51F8043B40F8043BFD
:100A800008BF7047D20728BF31F8023B48BF11F8B2
:100A9000012B28BF20F8023B48BF00F8012B70470C
:100AA00010B5044600F0E4F90068005D00F00100B4
:100AB00010BD00002DE9F34F4FF0000A0C465646DA
:100AC0008DB001200C9001F10C000B9062690B9825
:100AD0000121904705002DD0252D2CD0216A884773
:100AE000C0B162690B9801219047216A88470028AC
:100AF000F7D16269411E0B98904700E0761CA1690E
:100B00000D988847216A88470028F7D1E1690D9838
:100B10008847DBE7A1690D988847A842074601D1BD
:100B2000761CD3E7E1690D9888477F1C02D1BAF1A2
:100B3000000F6FD06AE162690B9800273D46394685
:100B400090472A2804D162690B980121904701251A
:100B5000DFF8CC8262690B9801219047A0F1300147
:100B60000A290AD24745E5DC07EB870100EB41077C
:100B7000303FDFD445F01005ECE7E90601D46FF013
:100B800000476C280AD04C2814D0682815D06A2851
:100B90000DD074281CD07A281AD01DE062690B98F9
:100BA000012190476C2802D045F0040514E045F07F
:100BB00002050DE045F020050AE062690B9801216D
:100BC0009047682802D045F0080505E045F4006527
:100BD00062690B9801219047C4E9015765283DD00F
:100BE00019DC582879D00CDC452837D004DC2528BE
:100BF00026D041289ED131E046282FD0472899D1D0
:100C00002CE05B287FD0612828D063287BD0642823
:100C100090D159E0F5E06F2847D008DC66281DD058
:100C200067281BD0692821D06E2816D127E07028AC
:100C300044D0732867D0752846D078280DD14CE071
:100C4000A1690D988847252805463FF469AFE169F9
:100C50000D9888476D1C3FF46AAFD7E00D99234685
:100C60006A466FF00100AFF30080C4E045F0400039
:100C700023464FF000026060A80735D43DE02068AD
:100C800000F1040121600068290501D506701DE707
:100C9000290701D5068019E7A90704D54FEAE671AF
:100CA000C0E9006112E7066010E745F04000234606
:100CB0004FF008026060A80716D41EE040F60E014F
:100CC00025EA0100606016E045F0400023464FF041
:100CD0000A026060A80707D40FE045F0400060609A
:100CE000A80708D5234610220D996FF00100AFF335
:100CF000008080E007E0102223460D996FF001008C
:100D0000FFF74CFC77E04FF0000963284F46C846D8
:100D10004B46CB4602D05B2806D038E0E80601D42B
:100D20000120A060012732E06269D4F80CB00B9872
:100D3000012190475E2807D14FF0010949466269B9
:100D4000D4F80CB00B989047216939B900210B46B3
:100D500003AA42F82130491C0829FADBD8B32169DB
:100D600049B308F1010862690B98012190475D2899
:100D7000F4D1B9F1000F09D0002003A951F82020C7
:100D8000D24341F82020401C0828F7DB03AB206940
:100D9000002820794FEA40701ED05B462246CDF8ED
:100DA0000080CDE901970D9900286FF0010020DA4D
:100DB000AFF300801FE0C11700EBD16203A953110C
:100DC00022F01F0201EB8301821A0B680120904080
:100DD00003430B60C7E719E00D99224600286FF026
:100DE0000100009702DAAFF3008004E0AFF3008067
:100DF00001E0AFF3008000280ADA401C06D10C980D
:100E000020B14FF0FF300FB0BDE8F08F5046FAE749
:100E1000E90701D10AF1010A064400200C9055E6C9
:100E2000CCCCCC0C754600F031F8AE4605006946D6
:100E3000534620F00700854618B020B5FFF736FA74
:100E4000BDE820404FF000064FF000074FF00008CB
:100E50004FF0000B21F00701AC46ACE8C009ACE84C
:100E6000C009ACE8C009ACE8C0098D467047000075
:100E700010B500F00FF8001D10BD00BF35F50000E3
:100E80000446AFF300802046FFF7FBF900487047A7
:100E90001841002000487047384100204FF0013CC5
:100EA00050F8042B51F8043B9A4221D1A2EB0C03D9
:100EB000934313EACC1317D150F8042B51F8043B99
:100EC0009A4215D1A2EB0C03934313EACC130BD136
:100ED00050F8042B51F8043B9A4209D1A2EB0C03C1
:100EE000934313EACC13DBD04FF00000704700BFF0
:100EF000D01A01BAB1FA81F101F0180122FA01F019
:100F0000CB40C1F12001DBB2C0B2C01A2CFA01F310
:100F1000D11A914311EAC311E6D170470149182053
:100F2000ABBEFEE726000200704721B1826842F0A6
:100F30000102826003E0826822F001028260704751
:100F400000210A4A11680A4A01EA0201D0E9002395
:100F500042EA0302836842EA0302C36842EA0302E8
:100F600042EA0101034AC2F8041370470423014016
:100F7000E030FCFF002001400146C86C80B27047A1
:100F80000246002013680B4201D0012000E000203F
:100F90007047000030B50246002000235068104C16
:100FA00020400D790C6844EA052420435060906885
:100FB0000C4C2040D1E903542C438D682C434D79CF
:100FC00044EA450420439060D06A20F470000C7D10
:100FD000641EE4B2234340EA0350D06230BD0000F7
:100FE000FFFEFFFCFDF7FFC0F0B504460D460020F4
:100FF0000021092D11DDE068A5F10A0606EB460780
:10100000072606FA07F18843A5F10A0606EB46060D
:1010100003FA06F10843E0600CE0206905EB4507A0
:10102000072606FA07F1884305EB450603FA06F1A1
:1010300008432061072A0FDA606B561E06EB86070D
:101040001F2606FA07F18843561E06EB860605FAA8
:1010500006F10843606322E00D2A0FDA206BD61FE9
:1010600006EB86071F2606FA07F18843D61F06EB14
:10107000860605FA06F10843206310E0E06AA2F153
:101080000D0606EB86071F2606FA07F18843A2F134
:101090000D0606EB860605FA06F10843E062F0BD90
:1010A000816841F0804181607047000000B58DB0DB
:1010B0000121052003F038F903208DF818000020E5
:1010C0008DF81B000420059005A91F4801F07DFC48
:1010D0000820059005A91C4801F077FC0220059026
:1010E00005A91A4801F071FC0420059005A91748CC
:1010F00001F06BFC1020059005A9144801F065FC77
:101100000121080203F050F900200190049003909F
:101110004FF48030029001A8FFF712FF00200790E3
:101120008DF820008DF8210009900A900B90012085
:101130008DF8300007A90648FFF72CFF012104486D
:10114000FFF7F3FE0DB000BD0008024000000240B2
:101150000020014001218140024A12681143014AE6
:1011600011607047180000201CB50121082003F011
:10117000DBF800208DF804008DF8060003208DF8C0
:10118000050000208DF807004FF4006000906946CC
:10119000084801F01AFC4FF4806000906946054849
:1011A00001F013FC4FF4007000906946014801F013
:1011B0000CFC1CBD000C02401FB50121880303F08C
:1011C000F3F80121042003F0CFF85320ADF8040018
:1011D0000020ADF806004FF6FF7002900020ADF839
:1011E0000C008DF80E0001A9114804F0A1FC0021AB
:1011F0000F4804F02FFB01210D4804F028FB0122C9
:1012000011460B4804F03CFC0021094804F08DFC19
:101210001E208DF8000000208DF801008DF80200DE
:1012200001208DF80300684602F012FF1FBD000088
:101230000008004000BFFEE701218140024A126819
:101240008A4301490A6070471800002010B5142134
:101250000148FFF70AFB10BDE019002010B500F0AF
:1012600005F8022004F0A0F810BD000010B56420BD
:1012700000F008F80021024804F0ECFA10BD00006C
:101280000004004030B589B00446264804F0FEFA58
:101290000121022003F068F8234804802348B0FBB2
:1012A000F4F085B2681E07900020ADF81800ADF884
:1012B0002000ADF81A008DF8220006A9194804F0A4
:1012C00037FC6020ADF804000120ADF806000020D6
:1012D000ADF80800284605EBD071491003910220B3
:1012E000ADF810000020ADF812004FF48070ADF89A
:1012F00014004000ADF8160001A90A4804F0CAFB2A
:101300000821084804F002FC0121064804F090FA84
:101310000021044804F009FC0121024804F0A6FA67
:1013200009B030BD0004004020000020204801002A
:1013300070B506460C4604F08000802808D104F001
:101340007F0000EB800106F58E7000EBC10507E021
:1013500004F07F0000EB800106F55D7000EBC10535
:1013600004F07F00287004F08000C00968702946EE
:10137000304606F0DFF8002070BD70B506460C461A
:1013800004F08000802808D104F07F0000EB800189
:1013900006F58E7000EBC10505E004EB840106F54F
:1013A0005D7000EBC1050020A87004F07F0028707C
:1013B000C4F3C01068702946304606F093F8002048
:1013C00070BD70B505460C4604F08000802805D13C
:1013D00004F07F01284606F0A9FA02E0284606F04C
:1013E0007FFA002070BD2DE9F04106460D4690467B
:1013F0001F4605F08000802808D105F07F0000EB33
:10140000800106F58E7000EBC10407E005F07F0057
:1014100000EB800106F55D7000EBC10405F07F0074
:10142000207005F08000C0096070C4F80880E77083
:10143000607808B12078E080022F01D1002020716F
:101440002146304606F002F80020BDE8F0812DE983
:10145000F04105460E461746984606F07F0000EB21
:10146000800105F55D7000EBC104E760C4F81480ED
:101470000020A061607006F07F002070E8780128ED
:1014800000D12761207820B92146284605F002FFC7
:1014900003E02146284606F0AEF80020BDE8F081C2
:1014A00008B500220092009A61F30A1200920269C4
:1014B0001268009B1A4303691A6008BD70B506469E
:1014C0000C4604F08000802808D104F07F0000EB77
:1014D000800106F58E7000EBC10505E004EB840188
:1014E00006F55D7000EBC1050120A87004F07F00D7
:1014F0002870C4F3C01068702946304606F049F8D9
:10150000002070BD2DE9F04107460D46164698466D
:1015100005F07F0000EB800107F58E7000EBC10441
:101520000120607005F07F002070E66026610020D9
:10153000A061C4F81480207820B92146384605F00F
:10154000A9FE03E02146384606F055F80020BDE824
:10155000F0811CB50446204605F067FEE068C068CF
:101560000090204606F00CFA03280BD10020A07052
:101570004FF40070A080009820F4705000F51050D7
:10158000009009E00120A0704020A080009820F485
:10159000705000F5A05000900098E168C8600020ED
:1015A0000190019820F4005000F50050019001983E
:1015B000E168486101201CBDF8B505460024002003
:1015C0000090284606F09FFA06468FE016F0010FBD
:1015D0007ED0E1B2284600F003FB0090009810F0A6
:1015E000010F26D0012000FA04F72869406BB843A8
:1015F0002969486300200090009820F00100401CF9
:10160000009005F1180050F8240000998160E1B2C3
:1016100039480068426828469047E878012808D190
:101620003CB940F21110405D042802D1284605F073
:10163000DCFE0098C0F3C00060B10020009000986C
:1016400020F008000830009005F1180050F8240040
:10165000009981600098C0F3001060B100200090F4
:10166000009820F010001030009005F1180050F89C
:101670002400009981600098C0F3801060B10020C0
:101680000090009820F040004030009005F11800D4
:1016900050F82400009981600098C0F3400060B1C8
:1016A00000200090009820F00200801C009005F1BE
:1016B000180050F82400009981600098C0F3C01011
:1016C00030B12146284600F09FFA0020009000E04B
:1016D0000AE0009820F080008030009005F11800AA
:1016E00050F8240000998160641C7608002E7FF475
:1016F0006DAF0120F8BD0000980400207CB50446C1
:10170000002500200190204606F005FA06466EE00E
:1017100016F0010F69D0E9B2204606F004FA0190F4
:10172000019810F0010F39D000200190019820F0AD
:101730000100401C019004F1540050F8250001996B
:101740008160E078012817D104F1540050F8250099
:101750000069009005EB850104F55D7000EBC100A8
:1017600080680099C1F31201411A05EB850204F566
:101770005D7000EBC2008161E9B21F480068026839
:1017800020469047E078012808D13DB940F2111079
:10179000005D052802D1204605F027FE0198C0F320
:1017A000400060B100200190019820F00200801CF0
:1017B000019004F1540050F82500019981600198CE
:1017C000C0F3C00088B10C48006881682046884793
:1017D00000200190019820F008000830019004F1E9
:1017E000540050F82500019981606D1C7608002E88
:1017F0008ED101207CBD0000980400203EB5044637
:10180000A07A70B1D4F80C010090009820F002008A
:101810000090009820F0010000900099D4F80C018D
:10182000016000200190019820F00100401C01900F
:101830002069406801998843216948600848006828
:1018400081692046884700200290029820F00040DD
:1018500000F1004002900298E168486101203EBD1D
:10186000980400207CB5044600200190019820F0E7
:10187000100010300190E068806901998843E168A8
:101880008861E068006A0090009800F00F0000EBAB
:10189000800104F55D7000EBC1050098C0F3434082
:1018A00007282DD2DFE800F02C04051D1E2C1F0098
:1018B00027E00098C0F30A1090B10098C0F30A1214
:1018C0002046E96806F055F9E8680099C1F30A1165
:1018D0000844E860A8690099C1F30A110844A861A6
:1018E0000FE00EE00DE0082204F2CC51204606F095
:1018F00040F9A8690099C1F30A110844A86100E001
:1019000000BF00BFE068806901990843E168886111
:1019100001207CBD38B5044608480068C1682046EF
:10192000884700200090009820F0080008300090C0
:101930000098E1684861012038BD0000980400204B
:101940001FB50446002000904FF48970005D0090A0
:1019500023480068416920468847206980680190D3
:1019600000200390039820F4006000F500600390CD
:101970000398E1684861A07A70B3019810F0010FF4
:101980002AD040F21510005D012825D19DF80000F5
:10199000032821D100200290029820F00100401C71
:1019A0000290D4F80C01006802990843D4F80C1195
:1019B0000860029820F00200801C0290D4F80C010C
:1019C000006802990843D4F80C11086005480068C3
:1019D00040F0060003490860012004B010BD00007B
:1019E0009804002010ED00E030B587B004460020D8
:1019F000029006900590049003900190029820F0C8
:101A00000100401C029020694068029988432169C6
:101A100048600021204605F089FF00250BE0FF21EA
:101A200004F1180050F82500816004F1540050F8CA
:101A3000250081606D1C6078A842F0D84FF0FF311E
:101A40002069816106986FF30F00401C069006988C
:101A500080B200F58030069006992069C161059832
:101A600020F0080008300590059820F00100401C87
:101A70000590059820F00200801C059005992069CA
:101A80004161049820F00100401C0490049820F06B
:101A9000080008300490049820F00200801C049094
:101AA000049920690161206900680390039820F47B
:101AB000FE600390039920690160204605F095FCC3
:101AC00000200190019820F4805000F58050019092
:101AD0000198E16848610448006801692046884728
:101AE000012007B030BD0000980400202DE9F0412E
:101AF00006460F463946304606F070F801214FF48D
:101B0000897081550021801C8155002511E005EB6D
:101B1000850106F58E7000EBC10401206070257010
:101B2000E5800020E0704020A0600020E06060615F
:101B30006D1C7078A842EAD8002510E005EB8501FD
:101B400006F55D7000EBC104002060702570E58033
:101B5000E0704020A0600020E06060616D1C707843
:101B6000A842EBD8304605F04FFB304605F07EF931
:101B70000021304606F09AF8304605F00AFA304661
:101B800005F09DFEBDE8F08138B5044600200090C8
:101B900007480068C16920468847009820F48010F3
:101BA00000F5801000900098E1684861012038BD80
:101BB0009804002038B504460020009007480068CB
:101BC000016A20468847009820F4001000F50010B4
:101BD00000900098E1684861012038BD9804002019
:101BE00030B5024615692B6915696C6B24FA01F54D
:101BF00005F0010543EAC51302F1180555F8215017
:101C0000AD6805EA030030BD2DE9F84307460E46EE
:101C100000250020009006EB860107F58E7000EB92
:101C2000C104D4E90501451AA068A84200D2A568FC
:101C3000E81C4FEA900807F1180050F82600806968
:101C400000901BE0D4E90501451AA068A84200D223
:101C5000A568E81C4FEA9008ABB2F2B23846E168DA
:101C600006F07FFFE0682844E060A0692844A06196
:101C700007F1180050F8260080690090009880B2A3
:101C8000404506D9D4E90510884202D2606900288F
:101C9000D8D10120BDE8F8837047000010B50A20B4
:101CA00003F082FB642003F031FA12E0002000F020
:101CB00079FF0B4948820846408A0A498988884248
:101CC00007DB0748408A0749C988884201DC0120B0
:101CD00010BD03F03FFB0028E8D00020F8E700002B
:101CE000E0190020D019002010B50A2003F05CFB99
:101CF000642003F00BFA12E0002000F053FF0B49C0
:101D000048820846408A0A490988884207DB074812
:101D1000408A07494988884201DC012010BD03F050
:101D200019FB0028E8D00020F8E70000E0190020A7
:101D3000D019002010B501F057F84B2191FBF0F0BD
:101D400084B2204603F030FB10BD70B501F04CF8B2
:101D500005461E2090FBF5F084B2204603F024FBDC
:101D6000022003F021FB70BD10B501F03DF82821E1
:101D700091FBF0F084B2204603F016FB052003F03F
:101D800013FB10BD10B501F02FF8142191FBF0F0FA
:101D900084B2204603F008FB052003F005FB10BDCC
:101DA00070B50024002500F0EFFC00F0D9FB012104
:101DB000880703F03DFD00214FF0804003F0B5FEA1
:101DC000611E4FF0804003F0AEFE0121880703F052
:101DD00041FD322003F09AF90FE0264803F03CFE63
:101DE000B0F57A7F09D3234803F036FE05464FF05D
:101DF000804003F031FE044603E003F0ABFA002814
:101E0000EBD000BF00220121880703F039FE00213A
:101E10004FF0804003F01EFD0121880703F014FD00
:101E20001C2002F009F9B5F57A7F20D3FCB100EE51
:101E3000105AF8EE400A00EE104AB8EE401A80EE52
:101E4000810ADFED0D0A20EE200ABCEEC00A0B4825
:101E500080ED030AC0680A498968884207D30748A9
:101E6000C0680749C968884201D8012070BD0020B8
:101E7000FCE7000000040140A037A04CE01900205E
:101E8000D019002000B585B001211F2002F04CFAC6
:101E900001208DF8100000208DF8120003208DF82D
:101EA000110000208DF813004FF48040039003A927
:101EB000B44800F08AFD4FF48070039003A9B24843
:101EC00000F083FD0121880302F06EFA01208DF8F5
:101ED000100000208DF813008DF8120003208DF8FB
:101EE00011008020039003A9A84800F06EFD4FF474
:101EF0000070039003A9A44800F067FD0820039038
:101F000003A9A04800F061FD4FF48040039003A9AD
:101F10009F4800F05AFD4FF40050039003A99C48DD
:101F200000F053FD4FF48050039003A9984800F04F
:101F30004CFD4FF40060039003A9954800F045FD67
:101F40004FF48060039003A9914800F03EFD4FF4E8
:101F50000070039003A98E4800F037FD4FF48070A5
:101F6000039003A98A4800F030FD8020039003A964
:101F7000874800F02AFD0420039003A9854800F05B
:101F800024FD0220039003A9824800F01EFD0120D9
:101F9000039003A97F4800F018FD2020039003A9B7
:101FA0007A4800F012FD1020039003A9774800F052
:101FB0000CFD8020039003A9734800F006FD40202B
:101FC000039003A9704800F000FD2020039003A9AE
:101FD0006D4800F0FAFC0120039003A96C4800F062
:101FE000F4FC0120039003A9664800F0EEFC0220F7
:101FF000039003A9634800F0E8FC0420039003A9C0
:10200000604800F0E2FC4FF40050039003A96048E0
:1020100000F0DBFC4FF40050039003A95C4800F093
:10202000D4FC4FF40050039003A9594800F0CDFCB4
:1020300000208DF810008DF8120002208DF813009A
:1020400003208DF811004FF40040039003A94D4880
:1020500000F0BBFC1020039003A94A4800F0B5FC37
:102060004FF40070039003A94A4800F0AEFC002032
:102070008DF810008DF812008DF8130003208DF8F4
:1020800011002020039003A93E4800F09EFC02208E
:102090008DF8100001208DF8130000208DF812003B
:1020A00003208DF811000120039003A9364800F0A9
:1020B0008CFC4FF40070039003A9344800F085FCB9
:1020C00002220921314800F0C8FC032200212E48D9
:1020D00000F0C3FC0F21032002F0E0FA4FF40040AF
:1020E000019000208DF8080010208DF809000020D4
:1020F0008DF80A0001A800F0FDFA28208DF80000F4
:1021000000208DF801008DF8020001208DF80300F9
:10211000684601F09DFF0421032002F0BFFA102061
:10212000019000208DF8080010208DF80900002093
:102130008DF80A0001A800F0DDFA0A208DF80000F1
:1021400000208DF801008DF8020001208DF80300B9
:10215000684601F07DFF4FF480410A4800F0A9FC79
:102160004FF48071084800F0A4FC4FF40071064859
:1021700000F09FFC0821034800F09BFC00F082F86F
:1021800005B000BD000C0240000002400008024003
:10219000001002400004024010B58021064800F003
:1021A00088FC022003F000F98021034800F083FC42
:1021B000012003F0F9F810BD0008024010B54FF4FB
:1021C00080412B4800F077FC4FF40051284800F084
:1021D00072FC4FF48051264800F06DFC4FF4006112
:1021E000234800F068FC4FF48061214800F063FC54
:1021F0004FF400711E4800F05EFC4FF480711C48E3
:1022000000F059FC80211A4800F055FC04211948BF
:1022100000F051FC0221174800F04DFC0121154847
:1022200000F049FC2021144800F045FC1021124820
:1022300000F041FC8021114800F03DFC40210F4896
:1022400000F039FC20210D4800F035FC0121084840
:1022500000F031FC01210A4800F02DFC0221084861
:1022600000F029FC0421064800F025FC10BD000008
:10227000001002400004024000080240000002403A
:10228000000C024010B54FF480412B4800F011FCC7
:102290004FF40051284800F00CFC4FF480512648C0
:1022A00000F007FC4FF40061234800F002FC4FF4FB
:1022B0008061214800F0FDFB4FF400711E4800F0E2
:1022C000F8FB4FF480711C4800F0F3FB80211A48A2
:1022D00000F0EFFB0421194800F0EBFB0221174846
:1022E00000F0E7FB0121154800F0E3FB2021144832
:1022F00000F0DFFB1021124800F0DBFB80211148C9
:1023000000F0D7FB40210F4800F0D3FB20210D48FF
:1023100000F0CFFB0121084800F0CBFB01210A4867
:1023200000F0C7FB0221084800F0C3FB0421064867
:1023300000F0BFFB10BD000000100240000402408E
:102340000008024000000240000C024010B54FF4AB
:102350000051314800F0AFFB4FF480512E4800F09F
:10236000A8FB4FF480412D4800F0A5FB4FF400512D
:102370002A4800F0A0FB4FF48051284800F09BFB56
:102380004FF40061254800F096FB4FF4806123482C
:1023900000F091FB4FF40071204800F08CFB4FF4EB
:1023A00080711E4800F087FB80211C4800F081FBF3
:1023B00004211B4800F07DFB0221194800F07BFB43
:1023C0000121174800F077FB2021164800F071FB2F
:1023D0001021144800F06DFB8021134800F069FBC8
:1023E0004021114800F065FB20210F4800F063FBFD
:1023F00001210A4800F05DFB0121074800F059FB6C
:102400000221054800F055FB0421034800F051FB70
:10241000052002F0C9FF10BD000C02400010024070
:1024200000040240000802400000024010B50221F2
:10243000354800F040FB052002F0B6FF4FF4805114
:10244000314800F038FB4FF400512F4800F031FBC9
:102450004FF480412D4800F02EFB4FF400512B48E3
:1024600000F029FB4FF48051284800F024FB4FF482
:102470000061264800F01FFB4FF48061234800F004
:102480001AFB4FF40071214800F015FB4FF48071E6
:102490001E4800F010FB80211C4800F00CFB0421BA
:1024A0001B4800F008FB0221194800F004FB012141
:1024B000174800F000FB2021164800F0FCFA10211C
:1024C000144800F0F8FA8021134800F0F4FA402193
:1024D000114800F0F0FA20210F4800F0ECFA012139
:1024E0000A4800F0E6FA0121074800F0E4FA022168
:1024F000054800F0E0FA0421034800F0DAFA05206C
:1025000002F052FF10BD0000000C0240001002401B
:1025100000040240000802400000024010B54FF4E1
:1025200080710D4800F0C7FA4FF400410B4800F0ED
:10253000C0FA07F08BF84FF48071074800F0B9FA41
:102540004FF40041054800F0B6FA012208210420AA
:1025500000F060F910BD0000000C024000040240D1
:102560001FB50121880301F01FFF0121084601F07A
:10257000FBFE0020ADF80400ADF80600401E0290FE
:102580000020ADF80C008DF80E0001A94FF080403E
:1025900003F0CEFA00214FF0804003F05BF90121F7
:1025A000880703F054F901221146900703F068FAF6
:1025B0001C208DF8000000208DF801008DF802002D
:1025C00001208DF80300684601F042FD1FBD10B5E3
:1025D000044600F013FCA04201D1012010BD0CB94B
:1025E0000120FBE7FF2C01D10120F7E70020F5E7F0
:1025F00010B54FF4004000F071F810B34FF40040F4
:1026000000F060F84FF0804003F0E4FAD0B11048D9
:1026100090F89C02462819DA4FF0804003F01CFA2B
:1026200001460B4890F89C42601C094A82F89C02C3
:1026300002F5287040F8241000214FF0804003F08C
:1026400074FA03E00121880703F004F910BD0000CB
:102650000416002010B5042000F040F890B10420CA
:1026600000F030F8012002F091FE0421064800F04D
:1026700017FA38B100220821042000F0CBF800201E
:10268000FEF768FD10BD00000010024010B51020DC
:1026900000F024F898B1102000F014F8084890F8E1
:1026A000C00305280BDA06490A8991F8C003411CCA
:1026B000034B83F8C01303F2C23121F8102010BD80
:1026C000041600200149086070470000143C0140D6
:1026D0000149086070470000143C01400146002099
:1026E000034A12680A4201D0012000E0002070472E
:1026F000143C0140002123498279002A3AD00A463D
:10270000126803689A430B461A600A1D1268036830
:102710009A430B1D1A60027911440A6803681A4330
:102720000A60184A0832126803689A43154B083346
:102730001A601A1D126803689A43124B0C331A6010
:102740004279102A0ED11A1F126803681A430D4BE2
:1027500008331A601A1D126803681A43094B0C33B8
:102760001A600DE00749427911440A6803681A4368
:102770000A6005E0027911440A6803689A430A6016
:1027800070470000003C014000B585B0012144F2D3
:10279000020001F009FE02208DF8040001208DF8EE
:1027A0000700009003208DF805006946174800F0E7
:1027B0000CF903220021154800F04FF9144803F0EA
:1027C00065F84FF0FF3003900020ADF80800ADF839
:1027D0001000ADF80A008DF8120002A90C4803F0B1
:1027E000A7F900231A461946094803F017F90021F2
:1027F000074803F09AF90121054803F025F8012163
:10280000034803F027F805B000BD000000000240B7
:10281000000401407CB506460C4615463046FFF7DD
:1028200051FF009600208DF804008DF805408DF8CA
:1028300006506846FFF75EFF7CBD00000149086056
:10284000704700000C3C024070B504460A46002662
:10285000092502B909E0012A01D1160205E0022A80
:1028600001D1160201E04FF4407600F09DF80546D4
:10287000092D28D11548006820F4407013490860DC
:1028800008460068304308600846006820F0F800F9
:1028900008600846006844F0020108430B490860DC
:1028A0000846006840F48030086000F07DF8054676
:1028B0000648006820F002000449086008460068E5
:1028C00020F0F8000860284670BD0000103C02406F
:1028D00009201349096801F48031B1F5803F01D125
:1028E00001201CE00E49096811F0100F01D00620EC
:1028F00015E00B49096811F4807F01D002200EE039
:102900000749096811F0EF0F01D0072007E00449DB
:10291000096811F0020F01D0082000E0092070477B
:102920000C3C02400348006840F000400149086048
:1029300070470000103C024030B502460C460925A5
:1029400000F032F80546092D17D10D48006820F433
:1029500040700B4908600846006808600846006837
:1029600040F001000860147000F01EF805460448AD
:10297000006820F0010002490860284630BD0000D0
:10298000103C02400548006810F0004F05D0044894
:1029900002490C390860034808607047103C024047
:1029A00023016745AB89EFCD08B509200090FFF7FB
:1029B0008FFF009002E0FFF78BFF00909DF8000072
:1029C0000128F8D09DF8000008BDF0B50A460021A6
:1029D0000023002400BF3DE0012505FA01F315683E
:1029E00005EA03049C4234D105684F000326BE402B
:1029F000B543056015794E00B5400668354305605E
:102A00001579012D02D01579022D16D185684F0058
:102A10000326BE40B543856055794E00B5408668B3
:102A200035438560456801268E40B543456045685D
:102A300096798E40B6B235434560C5684F0003268F
:102A4000BE40B543C560D5794E00B540C668354334
:102A5000C560491C1029BFD3F0BDF0B50023002488
:102A60004D07ED0E02FA05F3CE1000F1200555F8E2
:102A700026504E07F70E0F26BE40B543CF1000F18B
:102A8000200646F82750CE1000F1200555F82650B4
:102A900045EA0304CE1000F1200545F82640F0BDBC
:102AA0000246002013690B4201D0012000E0002003
:102AB000704741837047018370470000F0B58BB0C9
:102AC00007460C46002614B900200BB0F0BD0A2CB6
:102AD00000DD0A2407F03F01002301222748FEF70A
:102AE00083FA2648FEF7DCFA00BF02212348FEF7EE
:102AF00047FA0128F9D12148FEF73EFA00251CE0EB
:102B00001E48FEF7CDFA00BF02211C48FEF738FA36
:102B10000128F9D11948FEF72FFA06A921F8150066
:102B200006A830F81500304486B2601EA84202D0D4
:102B3000022002F02BFC681CC5B2A542E0DB052C8C
:102B400016DD0026224601A906A803F048F8022552
:102B500006E001A830F81500304486B2681CC5B202
:102B6000A01EA842F5DC201F96FBF0F086B202E022
:102B700096FBF4F086B23046A7E700000020014043
:102B800010B5024600200023B2FBF1F4E0B2B2FB24
:102B9000F1F401FB1423B1EB430F01D2441CE0B26A
:102BA00010BD000070B52DED088B04469FED590B4C
:102BB000B0EE408AF0EE608A0A210D20FFF77EFF1A
:102BC00005460DF08DFE41EC100BB0EE408AF0EEA4
:102BD000608A24B151EC180B0DF03EFE20804F4866
:102BE00090ED000ADFED4E0A20EE200ABCEEC00A8E
:102BF00010EE100A0004000C0ED19FED4A0B53ECAE
:102C0000102B51EC180B0DF0BBFE41EC100BB0EE8D
:102C1000408AF0EE608A69E04048808810F4004FF6
:102C200032D03E498988C1F30E000DF042FE41ECDE
:102C3000100BB0EE409AF0EE609A384890ED000A22
:102C400010EE101A08460EF083F841EC100BB0EEAF
:102C500040BAF0EE60BA53EC182B51EC1B0B0DF0A0
:102C60008FFE41EC100BB0EE40AAF0EE60AA53ECE0
:102C7000192B51EC1A0B0DF081FF41EC100BB0EE4B
:102C8000408AF0EE608A31E024498988C1F30E0061
:102C90000DF00FFE41EC100BB0EE409AF0EE609A92
:102CA0001E4890ED000A10EE101A08460EF050F87B
:102CB00041EC100BB0EE40BAF0EE60BA53EC182BBA
:102CC00051EC1B0B0DF05CFE41EC100BB0EE40AA7A
:102CD000F0EE60AA53EC192B51EC1A0B0DF0B0FB7F
:102CE00041EC100BB0EE408AF0EE608A9FED090BCC
:102CF00053EC102B51EC180B0DF006FE03D2002004
:102D0000BDEC088B70BD51EC180B0DF0A5FD80B229
:102D1000F6E70000000000000000000008000020AE
:102D200000007A444D158C4AEA04F83FF0B5044699
:102D30001E46FF23FF2500272312E5B209E012F803
:102D4000010B80EA05070948C05D80EA03050848D1
:102D5000C35D3000A6F1010C1FFA8CF6EFD109B16A
:102D60000B704D7005EB032080B2F0BD460E0208DB
:102D7000460F02082DE9F04F85B006460F4615466E
:102D80009846DDF838B04FF0FF394FF0000A0024C4
:102D900021E0285DB0421CD10AF1010000F0FF0AD9
:102DA000574515D114216846FDF75FFDA4EB0900D6
:102DB000421E09F1010029186846FDF7E7FC5A4652
:102DC00007A16846FDF7CCFB012005B0BDE8F08FF8
:102DD000A146601C84B24445DBDB0020F5E700001F
:102DE00025756C640000000003480088642190FB96
:102DF000F1F0C0B2704700002000002010B50024A0
:102E00004FF400610C48FFF74BFE08B144F0010499
:102E10004FF480610848FFF743FE08B144F0020414
:102E20004FF400710448FFF73BFE08B144F004047E
:102E3000601CC0B210BD0000000C0240014600231F
:102E4000002207E011F0010F01D0581CC3B2491055
:102E5000501CC2B2082AF5DB03F00100704770B5C0
:102E600004460D46164600202080FFF7C7FF228843
:102E7000511C2180E11C885429122288501C20807A
:102E8000E01C81542288501C2080E01C8554310AAB
:102E90002288501C2080E01C81542288501C2080F5
:102EA000E01C865470BD0000014600202C4A91426F
:102EB00003D2B1F1006F00D350E02A4A914204D20C
:102EC000274A914201D3082048E0274A914204D280
:102ED000244A914201D3102040E0244A914204D276
:102EE000214A914201D3182038E0214A914204D26C
:102EF0001E4A914201D3202030E01E4A914204D262
:102F00001B4A914201D3282028E01B4A914204D257
:102F1000184A914201D3302020E0184A914204D24D
:102F2000154A914201D3382018E0154A914204D243
:102F3000124A914201D3402010E0124A914204D239
:102F40000F4A914201D3482008E00F4A914204D22F
:102F50000C4A914201D3502000E0582070470000F5
:102F6000004000080080000800C0000800000108C0
:102F7000000002080000040800000608000008081D
:102F800000000A0800000C0800000E080148006854
:102F900070470000100000200148008870470000C2
:102FA0002200002070B52DED028B04469FED330BFF
:102FB000B0EE408AF0EE608A0A212046FFF77EFDDF
:102FC00005460DF08DFC41EC100BB0EE408AF0EEA2
:102FD000608A012C14D0022C21D0042C2ED00C2C71
:102FE0003BD19FED280B53EC102B51EC180B0DF03F
:102FF000C7FC41EC100BB0EE408AF0EE608A33E083
:103000009FED200B53EC102B51EC180B0DF0B8FC7E
:1030100041EC100BB0EE408AF0EE608A24E09FEDA8
:10302000190B53EC102B51EC180B0DF0A9FC41ECD3
:10303000100BB0EE408AF0EE608A15E09FED110BA8
:1030400053EC102B51EC180B0DF09AFC41EC100BCB
:10305000B0EE408AF0EE608A06E09FED080BB0EE1D
:10306000408AF0EE608A00BF00BF51EC180B0DF0F3
:10307000F3FB80B2BDEC028B70BD000000000000CD
:1030800000000000774A07EBFF1C10402DE9F041DB
:103090002DED048B86B005460C464FF00008002647
:1030A00040F204412046FDF7BEFB288805286EDB70
:1030B000E878FFF78CFA002869D06979287901EB64
:1030C00000201FFA80F8E979A87901EB002086B288
:1030D000B8F1130F7ED00CDCB8F1000F16D0B8F1A8
:1030E000100F2CD0B8F1110F52D0B8F1120F72D1CD
:1030F000D5E0B8F1140F6FD0B8F1150F6DD0B8F15D
:10310000160F6BD0B8F1170FF1D146E2A6F57F404C
:10311000FF3813D1324641462046FFF7A0FE2288F1
:10312000E11C5018FEA1FDF70DFB20880B3020801C
:103130000D212288501C2080E01C81544CE2A6F511
:103140007F40FF3822D1288805281FD132464146CA
:103150002046FFF784FEF54890ED000ADFEDF40A03
:1031600020EE200ABCEEC00A10EE100A87B2EF482B
:10317000808805902288E11C5018BDF814303A462A
:10318000ECA1FDF7A5F821880844208024E228E27C
:10319000A6F57F40FF3874D1288805287EDD288871
:1031A000401EE91C085C0D2878D132464146204675
:1031B000FFF755FE04A800902888401F83B205F150
:1031C000080201210D20FFF7D5FD90B93221228898
:1031D000501C04E08EE0FEE1A9E0C3E0E9E02080BD
:1031E000E01C81540D212288501C2080E01C815459
:1031F000F2E1049887B204A800902888401F83B2A7
:1032000005F1080202210D20FFF7B4FD60B932215B
:103210002288501C2080E01C81540D212288501CE3
:103220002080E01C8154D7E1049880B20590384694
:103230000DF056FB41EC100BB0EE409AF0EE609AA8
:103240009FEDBE0B53EC102B51EC190B0DF0ACF9AC
:1032500041EC100BB0EE408AF0EE608A51EC180B96
:103260000DF0BCF8B1490860BDF81400888005F085
:1032700037FD38B932212288501C2080E01C81544F
:1032800006E00BE031212288501C2080E01C815494
:103290000D212288501C2080E01C81549CE1A6F561
:1032A0007F40FF3825D12888052822D13246414663
:1032B0002046FFF7D4FD9FEDA30A9C4880ED000A4D
:1032C00000209A49888005F00BFD30B93221228810
:1032D000501C2080E01C815405E031212288501CC4
:1032E0002080E01C81540D212288501C2080E01C8D
:1032F000815471E1A6F57F40FF3817D12888052851
:1033000014D1324641462046FFF7A9FD05A8FFF734
:1033100049FC07462288E11C5018BDF814303A4693
:1033200084A1FCF7D5FF21880844208054E1A6F54C
:103330007F40FF3815D12888052812D132464146F2
:103340002046FFF78CFD31212288501C2080E01C94
:1033500081540D212288501C2080E01C8154FEF7EE
:103360002DFF39E1A6F57F40FF3821D128880528B7
:103370001ED1324641462046FFF771FD7248C068B3
:1033800071498968704AD2886F4B9B88CDE90032B9
:10339000CDE902106C494B880A88B4F800C0E11CE2
:1033A0000CEB010069A1FCF793FF21880844208001
:1033B00012E1A6F57F40FF387AD12888052877DD0D
:1033C0002888401EE91C085C0D28F5D1324641468C
:1033D0002046FFF744FD04A800902888401F83B2D0
:1033E00005F1080201210D20FFF7C4FC60B932216C
:1033F0002288501C2080E01C81540D212288501C02
:103400002080E01C8154E7E04F490498088004A81C
:1034100000902888401F83B205F1080202210D2088
:10342000FFF7A8FC60B932212288501C2080E01CE4
:1034300081540D212288501C2080E01C8154CBE057
:1034400041490498488004A800902888401F83B20E
:1034500005F1080203210D20FFF78CFC60B9322131
:103460002288501C2080E01C81540D212288501C91
:103470002080E01C8154AFE033490498888004A880
:1034800000902888401F83B205F1080204210D2016
:10349000FFF770FC68B932212288501C2080E01CA4
:1034A00081540D212288501C2080E01C815493E01F
:1034B00072E025490498C88004A800902888401F1D
:1034C00083B205F1080205210D20FFF753FC60B916
:1034D00032212288501C2080E01C81540D2122883A
:1034E000501C2080E01C815476E0174904988860C5
:1034F00004A800902888401F83B205F10802062125
:103500000D20FFF737FC58BB32212288501C208049
:10351000E01C81540D212288501C2080E01C20E0FA
:1035200056312E315F323030363031000800002005
:1035300000007A4425750D25750D0000000000007F
:1035400000408F4000000000D019002025750D2597
:10355000750D25750D25750D25750D25750D00004D
:1035600001E0815438E021490498C86005F0B8FBB7
:1035700030B932212288501C2080E01C815405E0A3
:1035800031212288501C2080E01C81540D2122888A
:10359000501C2080E01C81541EE0A6F57F40FF38BF
:1035A00018D12888052815D1324641462046FFF714
:1035B00056FC0F48C0680E4900904B8AB4F800C012
:1035C0000A68E11C0CEB01000AA1FCF781FE2188CE
:1035D0000844208000E000BF00BFE87808B9002060
:1035E000208006B0BDEC048BBDE8F081D01900202E
:1035F000E019002025750D25750D25756C0D000051
:1036000000BFFEE710B5044601E001F0D9FE20003E
:10361000A4F10104F9D110BD10B50620FFF7F2FFA7
:1036200000240FE080210948FFF743FA0620FFF746
:10363000E9FF80210548FFF73EFA0620FFF7E2FF89
:10364000601CC4B2092CEDDB10BD0000000C024070
:103650001CB50121082000F067FE01208DF8040050
:103660008DF8060003208DF8050001208DF8070075
:103670008020009069460948FFF7A7F94020009094
:1036800069460648FFF7A1F980210448FFF713FABD
:1036900080210248FFF70FFA1CBD0000000C024019
:1036A00070B5044608250320FFF7ACFF1EE080211B
:1036B0001348FFF7FEF90320FFF7A4FF14F0800F73
:1036C00004D040210E48FFF7F6F903E040210C48F2
:1036D000FFF7EFF96006040E0120FFF793FF80214A
:1036E0000748FFF7E8F90620FFF78CFF2800A5F14F
:1036F0000101CDB2DBD180210148FFF7DAF970BDBD
:10370000000C024010B50320FFF77CFF4021174852
:10371000FFF7D1F980211548FFF7CDF90620FFF713
:1037200071FF40211148FFF7BBF940B9FFF774FF63
:1037300040210E48FFF7B4F908B9002010BD402120
:103740000A48FFF7B6F90320FFF75CFF402107485E
:10375000FFF7A6F908B10020F0E780210348FFF742
:10376000A8F90320FFF74EFF0120E7E7000C024015
:1037700010B50320FFF746FF80210E48FFF799F9A7
:103780000320FFF73FFF40210A48FFF792F903208B
:10379000FFF738FF80210748FFF78DF90620FFF774
:1037A00031FF40210348FFF786F90320FFF72AFF86
:1037B00010BD0000000C024010B50320FFF722FFEF
:1037C00080211248FFF775F90320FFF71BFF402106
:1037D0000E48FFF770F90320FFF714FF80210B4814
:1037E000FFF769F90320FFF70DFF40210748FFF7B6
:1037F00057F928B180210548FFF75BF9002010BD7B
:1038000080210248FFF755F90120F8E7000C02403B
:1038100070B506460C461546FFF774FF08B9002040
:1038200070BD05F0FE00FFF73BFFFFF7C5FF18B9BD
:10383000FFF79EFF0020F3E7E0B2FFF731FFFFF74D
:10384000BBFF18B9FFF794FF0020E9E73046FFF708
:1038500027FFFFF7B1FF18B9FFF78AFF0020DFE766
:10386000FFF786FF0A20FFF7CDFE0120D8E72DE9FC
:10387000F04105460E4617469846FFF743FF10B93C
:103880000020BDE8F08105F0FE00FFF709FFFFF71B
:1038900093FF18B9FFF76CFF0020F2E7F0B2FFF7D3
:1038A000FFFEFFF789FF18B9FFF762FF0020E8E786
:1038B00000240AE0385DFFF7F3FEFFF77DFF18B93B
:1038C000FFF756FF0020DCE7641C4445F2D3FFF706
:1038D0004FFF0120D5E7000000200249088002497F
:1038E0000870704722000020240000201CB5012130
:1038F000022000F019FD00208DF804008DF806006C
:1039000003208DF8050000208DF807004FF40050CB
:10391000009069460148FFF758F81CBD00040240BA
:1039200010B54FF400510F48FFF7BAF8B0B90E4880
:103930000078322805DA0C480078401C0A490870E3
:103940000FE00948007832280BD10120FDF702FC76
:1039500005480078401C0449087002E00020024934
:10396000087010BD000402403804002010B500208B
:103970000EE0002108E0002200EB4003064C04EBBF
:1039800043135A544A1CD1B26029F4DB421CD0B212
:103990000428EEDB10BD0000F82D002010B5002437
:1039A0000DE02146002000F02FFA04EB4401054A07
:1039B00002EB4110602100F049FA601CC4B2042CF3
:1039C000EFDB10BDF82D00202DE9F04706468846B4
:1039D0004FF000090024B8F1000F29D022480079E7
:1039E00010B101280AD104E0204FDFF8849012259D
:1039F00007E0204FDFF88090042502E00020BDE8BA
:103A0000F08700BF0DE007EB440102223046FCF7CF
:103A10006DFE20B91948407904FB009903E0601C51
:103A200084B2AC42EFDB00BFAC421ADB0020E6E719
:103A30000D48007910B1012810D107E00F488178B6
:103A4000307820380E4A11FB002909E00B488178B4
:103A5000307820380B4A11FB002901E00020CEE726
:103A600000BF4846CBE700004A040020D03E0208D1
:103A7000F43E0208945302089C53020844040020B8
:103A8000D03802089441020870B5002415E004F112
:103A9000B001C8B200F0CAF9002000F0C7F9102048
:103AA00000F0C4F9002504E0002000F0C7F9681C0C
:103AB000C5B2802DF8DB601CC4B2082CE7DB70BDFA
:103AC0002DE9FF4F81B08046894600208246054699
:103AD0000646DDE90301FFF777FF044614B905B098
:103AE000BDE8F08F049820B12348C77890F804B05F
:103AF00003E02148077890F801B014F8010B00901A
:103B0000002634E000252EE0CAF10701012088409C
:103B10000099084209D009EB0602D1B208EB050270
:103B2000D0B2012200F02CF80CE0144840790128B2
:103B300008D109EB0602D1B208EB0502D0B200228F
:103B400000F01EF80AF1010000F0FF0ABAF1070FB9
:103B500002DC681CB84204DB4FF0000A14F8010BC9
:103B60000090681CC5B2BD42CEDB701CC6B25E457B
:103B7000C8DB00BFB3E70000440400204A04002073
:103B8000F0B503461446602B00DBF0BD202900DBB6
:103B9000FBE7FCB10846CD1701EB5575ED1005EBC1
:103BA00045051D4E06EB4515ED5C0A46CE1701EBAB
:103BB0005676F610A1EBC6070126BE403543CE1758
:103BC00001EB5676F61006EB4606134F07EB46164A
:103BD000F5541EE0CD1701EB5575ED1005EB4505CD
:103BE0000D4E06EB4515ED5C0A46CE1701EB5676F9
:103BF000F610A1EBC6070126BE40B5430846CE1716
:103C000001EB5676F61006EB4606034F07EB461619
:103C1000F55400BFB9E70000F82D00202DE9F0476A
:103C200007468846154600243E46C1461CE0285DEE
:103C300010F0800F0CD02A19012349463046FFF7B7
:103C40003FFF0C48C078304486B2A01C84B20BE021
:103C50002A19002349463046FFF732FF054800780D
:103C6000304486B2601C84B2285D0028DFD1BDE8F4
:103C7000F08700004404002070B504460649097925
:103C8000C1F1200000EBD071C1F34F052146284659
:103C900000F004F870BD0000440400202DE9F0415C
:103CA00007460D460026002410E0A85D10F0800FA6
:103CB00006D01048C078204484B2B01C86B205E01B
:103CC0000C480078204484B2701C86B2A85D00289D
:103CD000EBD1602C01DB002405E0C4F1600000EBB7
:103CE000D071C1F34F042A4639462046FFF796FFAC
:103CF000BDE8F0814404002010B5AE2000F096F835
:103D000008B9002010BD002000F090F8102000F04D
:103D10008DF8402000F08AF8B02000F087F881206C
:103D200000F084F8452000F081F8A12000F07EF832
:103D3000C02000F07BF8A62000F078F8A82000F062
:103D400075F81F2000F072F8D32000F06FF8002003
:103D500000F06CF8D52000F069F8802000F066F8DB
:103D6000D92000F063F8222000F060F8DA2000F09B
:103D70005DF8122000F05AF8DB2000F057F8202000
:103D800000F054F88D2000F051F8142000F04EF8A7
:103D9000AF2000F04BF8FFF777FEFFF7E7FD0020BC
:103DA00000F006F8012000F029F80120AAE7000041
:103DB00010490871097911B1012918D10AE00821C7
:103DC0000D4A1170102151709170D1701171202124
:103DD00051710CE00C21084A1170182151703021EA
:103DE00091701821D17011714821517100BF00BF2D
:103DF000704700004A040020440400200149487133
:103E0000704700004A04002070B504460D4605F1D5
:103E1000B001C8B200F00AF8102141EA141000F015
:103E200005F804F00F0000F001F870BD10B504466D
:103E3000782200212046FFF7EBFC10BD10B50446A8
:103E4000782240212046FFF7E3FC10BD70B5044600
:103E50000D462B46224640217820FFF708FD70BD15
:103E60001CB54FF480711948FEF725FE4FF4004150
:103E70001748FEF720FE4FF480411548FEF71BFE61
:103E800001210A2000F050FA01208DF804008DF87D
:103E9000060003208DF8050000208DF807004FF480
:103EA0008070009069460948FEF78FFD4FF400408E
:103EB000009069460648FEF788FD4FF48040009068
:103EC00069460348FEF781FD1CBD0000000C02405E
:103ED000000402400EB50121102000F025FA012156
:103EE000880300F061FA08212748FEF7E2FD10215F
:103EF0002548FEF7DEFD01208DF8080000208DF832
:103F00000A0003208DF8090000208DF80B0008201E
:103F1000019001A91C48FEF758FD1020019001A94D
:103F20001948FEF752FD08211748FEF7C2FD10217F
:103F30001548FEF7BEFD00208DF808008DF80A0038
:103F400002208DF80B0003208DF809000420019059
:103F500001A90D48FEF739FD0221042000F09EFB67
:103F600008208DF8000000208DF801008DF8020077
:103F700001208DF80300684600F06AF8012208214C
:103F80000420FEF747FC0EBD0010024047E0002071
:103F90000BF062FF58B1FEF7C1FA4FF4FA7001F06E
:103FA000B5F80120FDF748F90020FDF745F902209A
:103FB0000BF052FF20B10220FDF73EF904F068FE3D
:103FC00001200BF049FF28B10120FDF735F9002051
:103FD000FDF7C0F84FF480611148FEF761FD38B17C
:103FE0001048407820B901200E4948700CF056F96D
:103FF00001F0B0F998B10C48006880F480700A496B
:1040000008604FF400410948FEF755FD4FF4804128
:104010000648FEF750FD4FF4FA7001F077F8B6E766
:104020000000024004000020140C02400004024082
:1040300000BFFEE77047000000F01F020121914021
:10404000024A430942F823107047000080E100E073
:1040500070B5002100230F22C47824B3174C2468C4
:1040600004F4E064C4F5E064C4F30721C1F104047E
:10407000E3B20A4144789C40E1B284781440214381
:104080000C07210E0E4C05786155047804F01F05CD
:104090000124AC4005786D114FF0E02606EB850554
:1040A000C5F8004109E0047804F01F040125A5408B
:1040B000044C0678761144F8265070BD0CED00E0F3
:1040C00000E400E080E100E002490143024A11609F
:1040D000704700000000FA050CED00E0024A0A40BB
:1040E0000243024B1A60704780FFFF1F08ED00E09B
:1040F00010B5064803F0F5FC18B1044802F0E4FDE1
:1041000002E0024802F073FA10BD0000C43500203E
:1041100010B50948807A50B10848006820F00600C0
:104120000649086001F07EFA034804F0FFFC4FF4F2
:104130008020FEF7CDFA10BDC435002010ED00E060
:1041400010B5064803F0CDFC18B1044802F0BCFDE0
:1041500002E0024802F04BFA10BD0000C435002016
:1041600010B50948807A50B10848006820F0060070
:104170000649086001F056FA034804F0D7FC4FF4F2
:104180008020FEF7A5FA10BDC435002010ED00E038
:1041900010B54FF4487000F00DF8022001F004F95A
:1041A00010BD10B5642000F005F8022001F0FCF805
:1041B00010BD000010B504462046FDF763F801214C
:1041C000014801F047FB10BD0004004000B5024863
:1041D00001F000FD00BD0000000400402DE9F041A9
:1041E00004460F46208805284BDB2088801CB0F54C
:1041F000FF7F46DC2088401F86B22288C2F580619E
:104200001346E21C9818FCF70EFB06F11200C117CA
:1042100000EB11710911052202EB0111218032120C
:104220002088801EE11C0A542088401E0E542188DC
:10423000481FC11700EB1171C1F30F1800250EE0E4
:10424000052000EB0513E01C1A18052000EB0513F0
:10425000E01C19180D4808F01FFF681C85B2454581
:10426000EEDB2388E01C1918E21C4FF6FF70FEF706
:104270005DFD2088801C20803946204600F088FFA4
:1042800001E000203880BDE8F0810000F429002022
:1042900010B5802202A1074809F020FF10BD0000E0
:1042A00030313233343536373839616263646566AC
:1042B00000000000F42900201CB50121182000F0A6
:1042C00033F800208DF806008DF8070001208DF8E6
:1042D000040003208DF80500022000906946104874
:1042E000FEF773FB4FF40050009069460D48FEF74F
:1042F0006CFB4FF48050009069460A48FEF765FB5E
:1043000002210748FEF7D7FB4FF400510548FEF79E
:10431000D2FB4FF480510348FEF7CBFB1CBD0000DD
:1043200000100240000C024029B1064A1268024304
:10433000044B1A6004E0034A12688243014B1A607E
:10434000704700003038024029B1064A1268024323
:10435000044B1A6004E0034A12688243014B1A605E
:10436000704700003438024029B1064A12680243FF
:10437000044B1A6004E0034A12688243014B1A603E
:10438000704700004038024029B1064A12680243D3
:10439000044B1A6004E0034A12688243014B1A601E
:1043A000704700002038024029B1064A12680243D3
:1043B000044B1A6004E0034A12688243014B1A60FE
:1043C000704700004438024029B1064A126802438F
:1043D000044B1A6004E0034A12688243014B1A60DE
:1043E0007047000024380240F0B50021002200246C
:1043F000022500260223324F3F6807F00C0121B14D
:10440000042905D0082937D105E02E4F076036E092
:104410002D4F076033E02A4F3F1F3F68C7F3805698
:10442000274F3F1F3F6807F03F036EB1264FB7FB92
:10443000F3F7DFF88CC0ACF1040CDCF800C0CCF36F
:10444000881C07FB0CF40CE01E4FB7FBF3F7DFF8FA
:1044500070C0ACF1040CDCF800C0CCF3881C07FB86
:104460000CF4174F3F1F3F68C7F301477F1C7D00C7
:10447000B4FBF5F7076002E0124F076000BF00BF12
:104480000F4F3F6807F0F0010909104F7A5C076889
:10449000D74047600A4F3F6807F4E051890A0B4F45
:1044A0007A5C4768D7408760054F3F6807F46041F2
:1044B000490B064F7A5C4768D740C760F0BD0000E3
:1044C000083802400024F400001BB700500400200C
:1044D00010B52DED048B90B001AA0421314800F0F5
:1044E00071F89DF804109DF8052001EB02200CF0F6
:1044F000E0F941EC100BB0EE409AF0EE609A9FEDBF
:104500002A0B53EC102B51EC190B0CF04DF841EC2D
:10451000100BB0EE408AF0EE608A51EC180B0BF0F5
:104520005DFF234908609DF806009DF8071000EB29
:1045300001201F4988803C2101A8FCF796F901AAB7
:1045400032211848801D00F03DF890B940F2DC504F
:104550001849088040F68C20488040F2DC50888062
:104560004FF42F60C8804FF6E85088601248C8604A
:1045700003E0104801A91EC91EC040F2DC500D49DD
:1045800008804FF44860488040F2DC50888040F654
:10459000E440C880094888600948C86010B0BDEC94
:1045A000048B10BD00000E080000000000408F408A
:1045B00008000020D0190020A0860100D0010100D1
:1045C000B88201002DE9FC4106460C461746002C36
:1045D00028DD002503E0705D7855681C85B2A54292
:1045E000F9DB305D8DF80000301940788DF801005E
:1045F00023463A4601A94FF6FF70FEF797FB9DF858
:1046000004009DF80010884208D19DF805009DF82F
:104610000110884202D10120BDE8FC8121463846C4
:10462000FCF701F90020F7E7704721B1028842F05A
:104630004002028004E002884FF6BF731A400280F5
:1046400070470246002013890B4201D0012000E090
:10465000002070470146888970478181704710B5F6
:104660000022028802F441520B884C8823438C8834
:104670002343CC8823430C8923434C8923438C89CF
:104680002343CC8923431A430280838B4FF2FF7468
:10469000234083830B8A038210BD704730B500220C
:1046A0008B071C0F0F2303FA04F20B4B8C1053F8EB
:1046B00024309343084C8D1044F8253023468C1049
:1046C00053F824308C07240F00FA04F42343024CDF
:1046D0008D1044F8253030BD0838014030B589B020
:1046E000054612A168460AF06EFE04463CB10FA0D2
:1046F0000AF0D4FC044614B1002009B030BD1222E7
:104700000FA117480AF0ACFD04460CB10020F4E7F5
:104710001348C1680AF003FC114928460AF08EFECE
:104720000F480AF06BFB0120E7E70000303ACCBDF0
:10473000D5EBBFA8BCECB2E2BCC7C2BC0000000015
:10474000303ACCBDD5EBBFA8BCECB2E2BCC7C2BC12
:104750002FBCECB2E2BCC7C2BC2E7478740000005F
:10476000DC0F00202DE9F04387B007460C464FF0E0
:1047700000092646052F14D1307820B1012805D034
:1047800002280AD105E04FF0010909E04FF00109C4
:1047900006E001207070814602E04FF0000900BF82
:1047A00022E10F2F76D2DFE807F00812595F757506
:1047B00075757575C0C6D7E8F30040218C48FEF7C3
:1047C00078F900F093FB08B14FF0010904E10123EF
:1047D00005AA0021492000F02FFA9DF81400E0BB43
:1047E000102101A800F0B0F9B8B39DF80400012130
:1047F000B1EBA01F0CD19DF80D009DF80C1000EB43
:104800000120401C1FFA80F84FEA8820206022E037
:104810009DF8090000F00F009DF80E1000EBD1107C
:104820009DF80D1001F0030100EB4100851C9DF87F
:104830000C0080119DF80B1000EB81009DF80A1010
:1048400001F0030100EB812000F10108A5F109004E
:1048500008FA00F020604FF00109BDE04FF400704D
:1048600020604FF00109B7E06248007810F0040FB3
:1048700021D0022305AA0021CD2000F0DDF99DF80A
:104880001400E8BB102101A800F05EF901284BD10B
:10489000302505E09DE0FF2000F000FB681EC5B25A
:1048A000002DF8D19DF80E000111102088402060E5
:1048B0004FF0010938E0012305AA0021492000F04A
:1048C000BBF99DF81400D8B9102101A800F03CF9FB
:1048D000012829D14748007810F0020F11D09DF827
:1048E0000E008006400E9DF80F1000EBD110401C0A
:1048F0009DF811100122C2EBA1118840206011E047
:1049000012E09DF80F008007C00E9DF80F1000EB1D
:104910005110401C9DF80E10C1F38401491C10FB7E
:1049200001F020604FF0010956E032480078307005
:104930004FF0010950E0012305AA0021492000F0B1
:104940007BF99DF8140030B9102101A800F0FCF8A3
:10495000012800D181463FE0012305AA00214A2019
:1049600000F06AF99DF8140030B9102101A800F098
:10497000EBF8012800D181462EE0012305AA002191
:104980007A2000F059F99DF8140068B9042507E071
:104990000BE0FF2000F082FA06F8010B681EC5B29A
:1049A000002DF6D14FF0010916E0012305AA0021E0
:1049B000CD2000F041F99DF8140048B9FF2000F027
:1049C0006DFA4021304600F0BFF8012800D1814641
:1049D00002E04FF0000900BF00BF40210448FEF78D
:1049E0006AF8FF2000F05AFA484607B0BDE8F083A5
:1049F000000402403C0400202DE9FC410025002673
:104A000000F0BEF900F034FA0746382000F062FAF0
:104A100040214A48FEF74FF8002403E0FF2000F051
:104A20003DFA641C0F2CF9D300F02AFAC00844495F
:104A3000086040214148FEF73CF801236A46002106
:104A4000402000F0F9F89DF80000012861D105230D
:104A50006A464FF4D571482000F0EEF89DF800004A
:104A6000012829D19DF80300012852D19DF80400A6
:104A7000AA284ED13248046800BF01236A4699072C
:104A8000E92000F0D9F89DF8000010B1601E040084
:104A9000F3D1002C3DD005236A4600217A2000F096
:104AA000CBF89DF8010010F0400F01D00C2000E081
:104AB0000420054601262CE002252148046800BF99
:104AC00001236A460021E92000F0B6F89DF80000B5
:104AD00010B1601E0400F3D174B9012500BF00BFFE
:104AE00001236A460021412000F0A6F89DF800004D
:104AF00010B1601E0400F3D154B101236A4659027B
:104B0000502000F099F89DF8000010B9012600E04F
:104B100000250C48057040210848FDF7CCFFFF2018
:104B200000F0BCF9384600F0D5F900F0A9F9C0084A
:104B3000034908603046BDE8FC81000000040240E3
:104B4000400400203C0400202DE9FC4104460E46B0
:104B50004FF0010813480068C70800BFFF2000F0AD
:104B60009DF98DF800009DF80000FE2802D0781E07
:104B70000700F3D187B1002505E0FF2000F08EF992
:104B800004F8010B6D1CB542F7D3FF2000F086F945
:104B9000FF2000F083F901E04FF000084046BDE837
:104BA000FC810000400400202DE9FC4107460D4631
:104BB000144601261E48007810F0080F00D16D023F
:104BC000012C10D101236A462946512000F034F807
:104BD0009DF8000028B961023846FFF7B5FF064688
:104BE0001CE000261AE001236A462946522000F004
:104BF00023F800BF4FF400713846FFF7A5FF0646C3
:104C000006B904E007F50077601E0400F2D100BF8A
:104C100001236A4600214C2000F00EF8402105488F
:104C2000FDF749FFFF2000F039F93046BDE8FC816F
:104C30003C040020000402402DE9F04705460E46E2
:104C400014461F4615F0800F0CD005F07F053B463B
:104C5000224600217720FFF7EFFF2078012801DDB1
:104C6000BDE8F08740212B48FDF725FF402129486A
:104C7000FDF71FFF00F03AF910B9FF202070EFE7B1
:104C8000284600F00BF9300E00F008F9C6F3074093
:104C900000F004F9C6F3072000F000F9F0B200F0CC
:104CA000FDF8402D03D1952000F0F8F808E0482DDC
:104CB00003D1872000F0F2F802E0012000F0EEF8C6
:104CC0004C2D02D1FF2000F0E9F8002F20DD4FF03D
:104CD000000900BFFF2000F0E1F820702078FF28D5
:104CE0000FD04FF0000808E0641CFF2000F0D6F859
:104CF000207008F1010000F0FF08781E4045F3DC49
:104D000005E04846411C01F0FF090A28E2DB00BF2C
:104D100000BFA5E70004024070B504460E4600F04F
:104D2000E5F8012801D0002070BD304600F0B6F84B
:104D30000546FD2E01D10120F6E7002500BF14F83D
:104D4000010B00F0ABF814F8010B00F0A7F8681E97
:104D5000C0B20500F3D1FF2000F0A0F80546FF2007
:104D600000F09CF80546FF2000F098F8054605F095
:104D70001F00052801D10120D6E70020D4E700005C
:104D800000B587B001210220FFF7CEFA0121880388
:104D9000FFF70AFB0121C803FFF7E6FA0622032109
:104DA0003148FDF75AFE062204212F48FDF755FE33
:104DB000062205212C48FDF750FE01208DF8180031
:104DC00000208DF81A0002208DF8190000208DF8BF
:104DD0001B004020059005A92348FDF7F6FD0220A1
:104DE0008DF818008DF819000820059005A91E48B7
:104DF000FDF7EBFD1020059005A91B48FDF7E5FD2B
:104E00002020059005A91848FDF7DFFD0020ADF82A
:104E100000004FF48270ADF802000020ADF80400ED
:104E20000220ADF806000120ADF808004002ADF800
:104E30000A001020ADF80C000020ADF80E0007208D
:104E4000ADF8100069460948FFF709FC0121074841
:104E5000FFF7EBFB40210448FDF72BFE4021024801
:104E6000FDF729FE07B000BD00040240003C0040F1
:104E700000200249088800F038007047003C0040DC
:104E80007FB56846FFF7B0FA039CFFF7F1FFC51046
:104E9000681CC440204604B070BD000010B5044634
:104EA00000BF02210A48FFF7CCFB0028F9D02146B9
:104EB0000748FFF7D2FB00BF01210548FFF7C1FB00
:104EC0000028F9D00248FFF7C5FBC0B210BD0000B2
:104ED000003C004001460020034A108820F03800C2
:104EE0000843108070470000003C004070B50A483D
:104EF00000684508FF20FFF7D1FF00BFFF20FFF744
:104F0000CDFF0446FF2C02D0681E0500F6D10DB17E
:104F1000012070BD0020FCE7400400202DE9FC4783
:104F200006460F46904600254FF001094446394891
:104F3000007810F0080F00D17F02012C11D101235D
:104F40006A4639465820FFF777FE9DF8000028B9D9
:104F5000FE213046FFF7E0FE81462EE04FF00009CB
:104F60002BE02C48007810F0060F05D001236A468C
:104F70002146D720FFF760FE01236A4639465920B3
:104F8000FFF75AFE9DF80000A8B900BF7019FC2178
:104F9000FFF7C2FE8146B9F1000F00D104E005F52C
:104FA0000075601E0400F1D100BFFD216846FFF7C7
:104FB000B3FE814601E04FF0000940211648FDF79D
:104FC0007AFDFF20FFF76AFFB9F1000F1FD000251F
:104FD00000241AE0391901221048FFF7E5FD40B915
:104FE000012239460D48FFF7DFFD10B90020BDE86A
:104FF000FC8771194FF400720848FBF777FB08B182
:105000000020F4E705F50075641C4445E2D34846EA
:10501000EDE700003C04002000040240F82B0020D3
:105020000CB50020019000903448006840F48030B6
:105030003249086000BF3148006800F40030009039
:105040000198401C0190009818B90198B0F5A04F44
:10505000F1D12A48006810F4003F02D001200090EE
:1050600001E0002000900098012845D123484030FD
:10507000006840F0805021494031086020480068B5
:1050800040F440401E4908601C48083000681B4935
:10509000083108600846006840F40040086008468F
:1050A000006840F4A05008601648091F0860081FF7
:1050B000006840F08070091F086000BF0F4800685A
:1050C00010F0007FFAD040F205700F4908600B48DD
:1050D0000830006820F003000849083108600846DD
:1050E000006840F00200086000BF04480830006813
:1050F00000F00C000828F8D10CBD00000038024078
:10510000007000400C544007003C02400149086018
:10511000704700001400002070B5014600240B8881
:1051200000222BE074B9C81C805CC02824D1012463
:1051300000200880C81C855C0E88701C0880C81C74
:10514000855519E0C81C855C0E88701C0880C81C39
:105150008555805CC0280FD10888052803DB112005
:105160008870012070BD00200880C81C855C0E88F6
:10517000701C0880C81C8555501C82B29A42D1DB35
:105180000888B0F5806F01D1002008800020E9E791
:1051900070B505460C460026012020808102E01CE7
:1051A000FBF741FBC020E07000BF2AE0E81C805DF7
:1051B000C0280CD1DB212288501C2080E01C8154A7
:1051C000DC212288501C2080E01C815417E0E81C60
:1051D000805DDB280CD1DB212288501C2080E01C64
:1051E0008154DD212288501C2080E01C815406E07F
:1051F000E81C815D2288501C2080E01C8154701CBA
:1052000086B22888B042D1DCC0212288501C208080
:10521000E01C815470BDF0B5024600240025002337
:105220000020088000BF41E02CB9D01CC05CC02821
:105230003AD1012438E0012D1AD1D01CC05CDC2801
:1052400008D0DD280DD1DB260F88781C0880C81C0B
:10525000C6550AE0C0260F88781C0880C81CC655B1
:1052600003E000200880002400BF00BF00251BE0F1
:10527000D01CC05CC02803D0DB280CD1012512E073
:105280000888022803DB112088700120F0BD00206F
:105290000880002507E0D01CC65C0F88781C0880B9
:1052A000C81CC65500BF00BF581C83B21088984266
:1052B000BADC0020EAE7000006490988C1F30321AF
:1052C000481C0449098801F4704101EB0021014A9E
:1052D000118070472200002005490988012202EB55
:1052E00021304FF6FF7101EA0031014A1180704709
:1052F000220000207FB56846FFF776F84FF47A72F7
:105300000098B0FBF2F1481EB0F1807F00D31BE0A3
:10531000481E4FF0E022506150170F22002807DA94
:1053200013071D0E094B00F00F04241F1D5503E049
:1053300013071C0E064B1C5400BF00204FF0E02248
:1053400090610720106100BF7FBD000018ED00E0F4
:1053500000E400E00348006808B90120704700201D
:10536000FCE700001400002010B500F08FF9FEF7F4
:10537000D7FA10BD30B50446002504E00A2000F03D
:1053800005F8681CC5B2A542F8DB30BD10B5034670
:10539000002403E000F014F8601C84B203EB8300E7
:1053A0004000A042F6DC10BD30B50446002504E004
:1053B0000A20FFF7DFFF681C85B2A542F8DB30BD8D
:1053C0001E2000BF0100A0F10102D0B2FAD1704747
:1053D00010B562B6FFF78EFFFEF788FAFEF738F9D0
:1053E000FBF7C2FEFEF73CFDFEF766FFFCF74AFD49
:1053F000FBF73CFFFBF75AFEFEF76CFD01F0BCFC2F
:10540000FBF7DAFE10BD000030B585B00120684919
:1054100008700A20FFF7C8FFFEF73AFFFFF758F8B9
:10542000FEF76AFC40B96420FFF7BEFFFEF764FC9C
:1054300010B900205E4908705D48007858B1FEF749
:1054400095FA5CA10020FEF729FC5DA11020FEF773
:1054500025FCFEF7A3FAFFF7CFFA90B96420FFF717
:10546000A3FFFFF7C9FA60B95148007830B1FEF7E1
:105470007DFA56A0FEF700FCFEF790FA042005B076
:1054800030BD012254A1554809F0BCFE58B148482E
:10549000007830B1FEF76AFA51A0FEF7EDFBFEF797
:1054A0007DFA0520EBE704AA03A94BA009F0B6FC9E
:1054B000054635B90498807803994843B0F5205FD4
:1054C0000BD23B48007830B1FEF750FA47A0FEF708
:1054D000D3FBFEF763FA0620D1E70420FDF762FD57
:1054E000044641F66410844203DB41F64C5084428A
:1054F00016DD2F48007888B1FEF738FA3EA100206B
:10550000FEF7CCFB22463FA16846FAF7E1FE69466A
:105510001020FEF7C3FBFEF741FA00BFFF20AEE705
:105520000120FDF73FFD044641F29410844203DB65
:1055300041F27C50844216DD1D48007888B1FEF7A8
:1055400015FA32A10020FEF7A9FB22462DA16846DC
:10555000FAF7BEFE69461020FEF7A0FBFEF71EFA22
:1055600000BFFF208BE70220FDF71CFD044642F63A
:10557000E060844203DB43F2C820844216DD0C481D
:10558000007888B1FEF7F2F923A10020FEF786FB30
:1055900022461CA16846FAF79BFE69461020FEF7DA
:1055A0007DFBFEF7FBF900BFFF2068E7002066E700
:1055B00004000020B5C2D6DDF6EFB3CC0000000039
:1055C00056312E315F323030363031005446BFA86C
:1055D000D2ECB3A300000000303A0000AC0D002074
:1055E0005446BFA8D2ECB3A3310000005446BFA874
:1055F000D2ECB3A3320000004C56B5E7D4B4D2ECE1
:10560000B3A3000025646D56000000003556B5E7D1
:10561000D4B4D2ECB3A300004856B5E7D4B4D2EC6E
:10562000B3A3000010B51548006840F4700013499A
:1056300008601348006840F001001149086000202C
:105640000F49083108600E4800680E4908400C49AF
:1056500008600D48091D0860081F006820F48020BC
:10566000091F0860002006490C310860FFF7D8FCCC
:105670004FF0006001498039086010BD88ED00E0FE
:1056800000380240FFFFF6FE103000240648006894
:10569000401C054908600548006820B103480068BF
:1056A000401E0249086070471000002014000020CE
:1056B00010B50121880700F0D2F9002876D0012129
:1056C000880700F0C4F84B48007920B101285BD06E
:1056D00002286DD16DE04848406980F480704649E9
:1056E00048614448007801281FD142480189C08898
:1056F000814212DA3F48008900F001023D480C3037
:1057000050F822104FF0804000F00DFA394800891F
:10571000401C81B23748018135E0042035490871C9
:105720000021000700F096F82DE032480189C0887A
:1057300081420DDA2F480489601C82B22D48028113
:105740000C3050F824104FF0804000F0ECF91AE0D3
:10575000284890F8B80348B14FF0FF314FF080402F
:1057600000F0E1F90120234908710CE04FF0FF310E
:105770004FF0804000F0D7F904201E490871002145
:10578000000700F067F833E002201A490871002191
:10579000400700F05FF800214FF0804000F0C5F9AD
:1057A00001221021C802FDF735F821E021E0FFE7D2
:1057B00000BF03200F49087100220121880700F073
:1057C0005FF900214FF0804000F044F80121880784
:1057D00000F03AF81C2001218140084A430942F8B0
:1057E000231000BF00221021C802FDF713F800BFEC
:1057F00000BF10BD041600200000024080E100E060
:1058000010B50121084800F02AF958B101210648D5
:1058100000F01DF80021044800F01CF800210248A7
:1058200000F083F910BD0000000800407047704789
:1058300021B1028842F08002028004E002884FF623
:105840007F731A4002807047CA4302827047CA437E
:105850000282704721B1028842F00102028004E016
:1058600002884FF6FE731A400280704731B1B0F8DB
:10587000442042F40042A0F8442005E0B0F844205F
:10588000C2F30E02A0F844207047000010B5044691
:105890005548844208D101210846FEF795FD0021B4
:1058A0000120FEF791FD9DE0B4F1804F08D1012168
:1058B0000846FEF769FD00210120FEF765FD91E035
:1058C0004A48844208D101210220FEF75DFD0021F3
:1058D0000220FEF759FD85E04548844208D10121A8
:1058E0000420FEF751FD00210420FEF74DFD79E074
:1058F0004048844208D101210820FEF745FD0021DF
:105900000820FEF741FD6DE03B48844208D10121AB
:105910001020FEF739FD00211020FEF735FD61E073
:105920003648844208D101212020FEF72DFD0021B8
:105930002020FEF729FD55E03148844208D101219D
:105940000220FEF741FD00210220FEF73DFD49E067
:105950002C48844209D101210804FEF735FD0021BD
:105960004FF48030FEF730FD3CE02748844209D1F7
:1059700001214804FEF728FD00214FF40030FEF716
:1059800023FD2FE02148844209D101218804FEF73C
:105990001BFD00214FF48020FEF716FD22E01C487D
:1059A000844208D101214020FEF7EEFC0021402076
:1059B000FEF7EAFC16E01748844208D10121802056
:1059C000FEF7E2FC00218020FEF7DEFC0AE0124830
:1059D000844207D101218015FEF7D6FC0021A015D5
:1059E000FEF7D2FC10BD00000000014000040040A2
:1059F00000080040000C004000100040001400406F
:105A000000040140004001400044014000480140C2
:105A100000180040001C004000200040F0B5044683
:105A20000D4616461F463B4632462946204600F0A4
:105A300005F8208940F480402081F0BD30B50C4647
:105A400000210189C9B24FF6FF7505EA0325154308
:105A500025432943018130BD0146486A704730B56E
:105A60000246002000230024158A05EA01039589D7
:105A700005EA010413B10CB1012000E0002030BDA3
:105A80001AB183890B43838102E083898B4383812D
:105A90007047000070B5002200230024058C4EF6EC
:105AA000FF7635400584038C8488828B48F6FF7529
:105AB0002A404FF6FF452A400D884FF6FF7606EA4A
:105AC00005252A434DF6FF752B408D8906EA0535DD
:105AD0002B434D8806EA05352B430A4DA84202D0D8
