:020000040800F2
:100000000804002061080008ED020008EF02000863
:10001000F3020008F7020008FB02000800000000DD
:1000200000000000000000000000000001030008C4
:10003000FF02000800000000030300087D03000821
:100040000503000807030008090300080B03000864
:100050000D0300080F030008110300081303000834
:100060001503000817030008190300081B03000804
:100070001D0300081F0300082103000823030008D4
:100080002503000827030008290300082B030008A4
:100090002D0300082F030008310300083303000874
:1000A0003503000837030008390300083B03000844
:1000B0003D0300083F030008410300084303000814
:1000C0004503000847030008490300084B030008E4
:1000D0004D0300084F0300085103000853030008B4
:1000E0005503000857030008590300085B03000884
:1000F0005D0300085F030008610300086303000854
:100100006503000867030008690300086B03000823
:100110006D0300086F0300087103000873030008F3
:100120007503000877030008790300087B030008C3
:10013000DFF80CD000F098FB004800474D020008A3
:10014000080400200349086000BF0249096800292B
:10015000FBD1704700000020704710B55748006879
:1001600040F001005549086008464068544908407D
:100170005249486008460068524908404F490860A3
:100180000846006820F4802008600846406820F493
:10019000FE00486000208860FFF7DEFF10BD4A487F
:1001A000006820B148480068401E47490860704711
:1001B00010B5FFF7D2FF10BD10B500214FF0006061
:1001C00000F054FA10BD10B5FFF7F2FFFFF7F4FF8F
:1001D00000F0D8F800F00AF910BD08B50020009032
:1001E00033E02DE09DF8000000F04FF99DF800008D
:1001F000012803D14021354800F035FA9DF8000070
:10020000022803D18021314800F02DFA9DF800002A
:10021000032804D14FF400712C4800F024FA9DF813
:10022000000004280CD14021284800F01AFA80214F
:10023000264800F016FA4FF40071244800F011FA35
:10024000684600F03EF90028CCD1CAE71CB500BFD3
:100250001FA103C9CDE90001FFF7B5FF00BF1E488C
:10026000B0F1807F01D301201BE01B48401E4FF0FE
:10027000E021486100BF4817002805DA0F2000017F
:1002800016490B22885404E00F20000114494A1734
:10029000885400BF00204FF0E021886107200861EA
:1002A000002008B100BFFEE706E00EA000F02AF92A
:1002B0004FF4FA70FFF746FFF7E700000010024026
:1002C0000000FFF8FFFFF6FE0000002000100140D4
:1002D00061626E63646565004019010018ED00E01D
:1002E00000E400E03132333435300000704700BFA5
:1002F000FEE700BFFEE700BFFEE700BFFEE7704776
:100300007047704770477047704770477047704735
:100310007047704770477047704770477047704725
:100320007047704770477047704770477047704715
:100330007047704770477047704770477047704705
:1003400070477047704770477047704770477047F5
:1003500070477047704770477047704770477047E5
:1003600070477047704770477047704770477047D5
:1003700070477047704770477047704710B5FFF778
:100380000EFF10BD08B50121102000F0D9F94FF47F
:100390003070ADF8000003208DF8020010208DF8B9
:1003A00003006946044800F0D3F84FF43071024866
:1003B00000F057F908BD000000100140002106E0E0
:1003C000002101E04A1CD1B20229FBDB401E0028BB
:1003D000F6D1704700B5034604E04FF47A70FFF79A
:1003E000EDFF5B1E002BF8D100BD000000B585B00D
:1003F0000121480400F0B1F90121042000F0A0F926
:100400000121082000F09CF90121102000F098F94A
:100410000220ADF8100003208DF8120010208DF896
:10042000130004A9354800F093F80420ADF810003B
:1004300003208DF8120018208DF8130004A92F480E
:1004400000F086F80820ADF8100004208DF81300A5
:1004500004A92A4800F07CF84FF4165000900020C0
:10046000ADF80400ADF80600ADF80800ADF80C00DA
:100470000C20ADF80A006946214800F085F90121F9
:100480001F4800F0CCF905B000BD10B504460221AC
:100490001A4800F0E8F80120FFF79CFF21461848B1
:1004A00000F0C9F900BF8021154800F0CDF90028FF
:1004B000F9D00120FFF78EFF0221104800F0D1F89B
:1004C00010BD10B5044602210C4800F0CAF8012006
:1004D000FFF780FF20210A4800F0B6F908B9002094
:1004E00010BD074800F0ABF920700120FFF772FF44
:1004F0000221024800F0B7F80120F1E700080140AE
:100500000044004010B5044619E002210E4800F0F6
:10051000AAF80120FFF75EFF14F8011B0B4800F05A
:100520008AF900BF8021094800F08EF90028F9D02F
:100530000120FFF74FFF0221034800F092F82078D6
:100540000028E2D110BD0000000801400044004036
:100550002DE9F0410246002500260020002300245A
:10056000002791F803C00CF00F0591F803C01CF0B0
:10057000100F03D091F802C04CEA0505B1F800C095
:100580001CF0FF0F31D0146800202BE04FF0010C5D
:100590000CFA00F3B1F800C00CEA03069E4220D129
:1005A00083004FF00F0C0CFA03F7BC4305FA03FC71
:1005B0004CEA040491F803C0BCF1280F06D14FF0B7
:1005C000010C0CFA00FCC2F814C00AE091F803C058
:1005D000BCF1480F05D14FF0010C0CFA00FCC2F839
:1005E00010C0401C0828D1D31460B1F800C0BCF181
:1005F000FF0F34DD546800202EE000F1080C4FF0AE
:10060000010808FA0CF3B1F800C00CEA03069E4298
:1006100021D183004FF00F0C0CFA03F7BC4305FA0D
:1006200003FC4CEA040491F803C0BCF1280F05D187
:1006300000F1080C08FA0CF8C2F8148091F803C015
:10064000BCF1480F07D100F1080C4FF0010808FA7F
:100650000CF8C2F81080401C0828CED35460BDE8C6
:10066000F08101617047416170470000024A0A4011
:100670000243024B1A60704780FFFF1F08ED00E045
:1006800030B500210022002400233A4D6D6805F0AA
:100690000C0121B1042905D0082923D105E0364DEC
:1006A000056022E0344D05601FE0324D6D6805F4B1
:1006B0007012022505EB92422E4D6D6805F48034D0
:1006C0001CB92E4D554305600BE02A4D6D6815F49D
:1006D000003F03D0294D5543056002E0264D5543A8
:1006E000056002E0244D056000BF00BF214D6D682C
:1006F00005F0F0010909224D6B5C0568DD4045609D
:100700001C4D6D6805F4E061090A1D4D6B5C456880
:10071000DD408560174D6D6805F46051C90A184DBC
:100720006B5C4568DD40C560124D6D6805F4404165
:10073000890B144D6B5CC568B5FBF3F5056130BDE5
:1007400029B10C4A926902430A4B9A6104E0094AB2
:1007500092698243074B9A61704729B1054AD26971
:100760000243044BDA6104E0024AD2698243014B3E
:10077000DA6170470010024000127A0000093D0063
:10078000AA080008BA0800082DE9F04786B0054617
:100790000E460024A24600BF00BF00272F462C8A29
:1007A0004CF6FF700440F08804432C82AC894EF66E
:1007B000F3100440B0883189084371890843044329
:1007C000AC81AC8A4FF6FF400440B0890443AC8250
:1007D00001A8FFF755FF2148874202D1DDF810A09C
:1007E00001E0DDF80CA00AEBCA0000EB0A1031684A
:1007F0008900B0FBF1F86420B8FBF0F00401200997
:10080000642101FB1089322000EB0910B0FBF1F0EC
:1008100000F00F0004432C8106B0BDE8F08721B141
:10082000828942F40052828104E082894DF6FF738E
:100830001A4082817047C1F30802828070470146E6
:100840008888C0F3080070470246002013880B42D6
:1008500001D0012000E00020704700000038014076
:100860000048004731010008064C074D06E0E068EB
:1008700040F0010394E8070098471034AC42F6D3E7
:10088000FFF75AFCC0080008E008000802E008C8AA
:10089000121F08C1002AFAD170477047002001E0FA
:1008A00001C1121F002AFBD17047000000000102A5
:1008B00003040102030406070809020406080000F5
:1008C000E008000800000020040000008C08000878
:1008D000E408000804000020040400009C0800084C
:0408E0000000000014
:0400000508000131BD
:00000001FF
